:020000040000FA
:10000000484A2020A1020000A5020000C5240000EB
:1000100000000000000000000000000000000000E0
:10002000000000000000000000000000A902000025
:100030000000000000000000AB020000C13300001F
:10004000AF020000B1240000AF020000ED33000059
:10005000AF020000AF020000AF020000AF020000DC
:1000600000000000AF020000AF020000000000002E
:1000700000000000AF020000AF020000D13300001A
:10008000AF020000AF020000AF020000AF020000AC
:10009000AF020000AF0200000000000000000000FE
:1000A000AF020000AF0200000000000000000000EE
:1000B000AF02000000000000AF020000AF0200002D
:1000C00000F002F800F0C1F812A030C80838241877
:1000D0002D18AC4201D100F0B8F80FCCA246AB46C7
:1000E0000CA730CF2D1B083F3F197C427F1E544484
:1000F0002D090426F441641EAC4201D300F0A5F89A
:100100000126334200D0FB1A3343984754465D46DC
:10011000DFE700004CB100006CB1000000000000FF
:100120007047000000000000002300240025002686
:10013000103A01D378C1FBD8520700D330C100D5A3
:100140000B60704710B56E2902D100F059FE10BD4A
:10015000702902D100F067FA10BD662902D109F0BA
:10016000DDFC10BD652902D109F0D8FC10BD67295E
:1001700002D109F0D3FC10BD612902D109F0D6FCEF
:1001800010BD03681B0A01D380231943692902D1DA
:1001900000F03EF910BD642902D100F039F910BD1C
:1001A000752902D100F034F910BD6F2902D100F099
:1001B000E5F910BD782902D100F022FA10BDE92935
:1001C00002D101F0F5F910BDE42902D101F0F0F9F6
:1001D00010BDF52902D101F0EBF910BDEF2902D1D4
:1001E00000F0D8F910BDF82902D100F017FA10BDBF
:1001F0000368DB0901D380231943632902D101F08D
:10020000B4F910BD732902D101F0B7F910BDE3298B
:1002100002D101F0C1F910BDF32902D101F0C4F9F6
:1002200010BD002010BD1FB501F078FA04000020B9
:10023000002109F0F7FA401C60600020002109F05D
:10024000DBFAE0601FBD10B510BD01F075FE114670
:10025000FFF7E9FF05F0B0FC01F08DFE03B4FFF7F6
:10026000F2FF03BC01F038FF70B505460C46164698
:1002700002E00FCC0FC5103E102EFAD2082E02D38A
:1002800003CC03C5083E042E07D301CC01C5361F9D
:1002900003E021782970641C6D1C761EF9D270BDB4
:1002A00006480047FEE7FEE7FEE7FEE7FEE7FEE75B
:1002B00003480449044A054B70470000C100000090
:1002C00048152020484A2020484520204845202025
:1002D0007CB51D4616460C00009007D04142A14255
:1002E00002D30019401E01E00020C043064B7B44AE
:1002F0002A4669460190304601F011F9002C02D0DF
:10030000009A002111707CBD531200000FB41CB57F
:100310000C0007AA009007D04142A14202D3001965
:10032000401E01E00020C043074B7B44694601901A
:10033000069801F0F4F80021002C01D0009A117009
:100340001CBC08BC04B018471712000070B5044666
:1003500085690068C10601D5302600E02026C00767
:1003600007D070BD62683046A1689047206A401C83
:1003700020626D1EF6D570BD70B5044685690078A3
:10038000C00707D170BD6268A16820209047206A2D
:10039000401C20626D1EF6D570BD09684A0501D566
:1003A00040B27047C905FCD500B2704709684A05DC
:1003B00001D5C0B27047C905FCD580B2704770B591
:1003C0000C460546012A05D02878800600D5EA6942
:1003D000002302E0012305E05B1C934202D2E05CB3
:1003E0000028F9D1A869E618C01AA861286AC018BF
:1003F00028622846FFF7AAFF04E06A682078A96807
:10040000641C9047B442F8D32846FFF7B5FF70BD8F
:10041000F7B5002575291068009914A611D0FFF7CB
:10042000BCFF002802DA404211A608E000990968E2
:100430008A0701D50FA602E0490704D50EA60125BB
:1004400001E0FFF7B3FF009F0024243704E001F030
:1004500008F930313955641C0028F8D12B46324652
:100460002146009800F074FCFEBD00000000000072
:100470002D0000002B00000020000000F7B504460E
:10048000154686B02B487844002703C83E460090A6
:10049000019111E007986A467100415A02A801F0E3
:1004A000BFF8411C07D02178890603D5E2693918C5
:1004B00091420ED83F18761C2078800602D5E0695C
:1004C000B84206DDAE42E5DB07987100405A0028CD
:1004D000E0D1A069C01BA0612046FFF737FF154897
:1004E00078445A3803C800900020019116E041007A
:1004F0006A460798415A02A801F092F80590401CFC
:100500000AD0002505E0626802A8A168405D904716
:100510006D1C05988542F6D30498401CB0420490A7
:10052000E5DB206AC01920622046FFF725FF09B0ED
:10053000F0BD0000B296000070B5044600212434DE
:1005400008E05507D2086D0F303565545D072A4322
:10055000DB08491C15461D43F3D10468002310A293
:10056000250708D520252C400C4304D0C46901235D
:100570000CA2641EC46100F0EBFB70BD10B5044614
:1005800021461068FFF712FF002302462046FFF7BE
:10059000D3FF10BDD21DD108C9000CC9CCE70000A3
:1005A0000000000030000000F8B50F460188090582
:1005B00002D5224C7C4402E0204C7C440E3405469B
:1005C0000021243508E016071209360FA65D6E5487
:1005D0001E0732431B09491C16461E43F3D122460F
:1005E00004780023240705D5702F06D0002901D0F8
:1005F0000223113200F0ACFBF8BD01231032F9E701
:1006000070B504460D4621461068FFF7CFFE002363
:10061000024629462046FFF7C7FF70BDD21DD3080A
:10062000DB000CCBC0E730B40368202412682343FE
:1006300003600823C36130BC0023B5E78C9500003C
:10064000F3B50446002081B020622046E168884767
:10065000002872D0252802D06268A168ABE0594F0B
:1006600000267F442046E16888472028054608DBAD
:10067000312D06D2781920380078002801D00643A1
:10068000F0E7B00701D5042086430020E06107466B
:10069000A0612A2D0AD0284608F028FF002827D07C
:1006A000B8000019303D0090856119E00298BA0049
:1006B000121902C8916102902046E1688847012F13
:1006C000054617D1E06900281FDA202086431CE088
:1006D00000980A21806948430099401930388861A0
:1006E0002046E1688847054608F000FF0028EFD162
:1006F000012F0AD02E2D08D12046E16888470546F3
:10070000202006437F1C022FC3DBA069002803DAE8
:100710004042A06101200643F00701D0102086432B
:100720006C2D0BD0682D09D04C2D3CD06A2D38D0C3
:10073000742D38D07A2D36D016E040E0E1682F468F
:1007400020468847B842054609D16C2F29D00120A0
:100750008002E168064320468847054604E06C2F86
:100760001DD0FF2001300643002D28D028464138F7
:10077000192803D80120C0020643203520462660F0
:100780002946029A1646FFF7DDFC002810D0012802
:100790000BD0F61DF008C0000830029055E740204D
:1007A000E1E78020D5E70020D3E7361D02964CE72D
:1007B00062682846A1689047206A401C44E7206A86
:1007C000FEBD00000695000010B5431E5C785B1C62
:1007D000002CFBD105E00C78491C1C705B1C002C24
:1007E00003D0521EF7D20021197010BD30B5441C41
:1007F00003E00178401C00290DD08107F9D10B4B93
:10080000DD0104C8D11A91432940FAD0001B0A0621
:1008100003D0C01E30BD001B30BD0A0401D0801EB5
:1008200030BD0902FCD0401E30BD000001010101B5
:1008300001E004C0091F0429FBD28B0701D5028007
:10084000801CC90700D00270704700290BD0C30775
:1008500002D00270401C491E022904D3830702D52E
:100860000280801C891EE3E70022EEE70022DFE71A
:10087000F8B507460B4639461943890713D1164C7C
:10088000E601042A0FD302CB0D1B8D43354202D162
:1008900002C0121FF5E7CBB20370401C521E002BA2
:1008A00013D0090AF7E7002A14D01978521E5B1CEE
:1008B0000170401C002908D0002A0BD01978521E64
:1008C0005B1C0170401C0029EDD1002A02D01146AA
:1008D000FFF7CAFF3846F8BD0101010100220309F4
:1008E0008B4273D3030A8B4258D3030B8B423CD306
:1008F000030C8B4221D312E003460B437FD400222A
:1009000043088B4274D303098B425FD3030A8B42A3
:1009100044D3030B8B4228D3030C8B420DD3090223
:10092000FF2212BA030C8B4202D31212090265D0C5
:10093000030B8B4219D300E0090AC30B8B4201D38E
:10094000CB03C01A5241830B8B4201D38B03C01AD5
:100950005241430B8B4201D34B03C01A5241030B4C
:100960008B4201D30B03C01A5241C30A8B4201D3FD
:10097000CB02C01A5241830A8B4201D38B02C01AA8
:100980005241430A8B4201D34B02C01A5241030A1F
:100990008B4201D30B02C01A5241CDD2C3098B4204
:1009A00001D3CB01C01A524183098B4201D38B0181
:1009B000C01A524143098B4201D34B01C01A524124
:1009C00003098B4201D30B01C01A5241C3088B4269
:1009D00001D3CB00C01A524183088B4201D38B0054
:1009E000C01A524143088B4201D34B00C01A5241F6
:1009F000411A00D201465241104670475DE0CA0FCD
:100A000000D04942031000D3404253409C4600228C
:100A100003098B422DD3030A8B4212D38901FC2296
:100A200012BA030A8B420CD3890192118B4208D36C
:100A3000890192118B4204D389013AD0921100E0CE
:100A40008909C3098B4201D3CB01C01A52418309E2
:100A50008B4201D38B01C01A524143098B4201D30F
:100A60004B01C01A524103098B4201D30B01C01A3A
:100A70005241C3088B4201D3CB00C01A52418308B4
:100A80008B4201D38B00C01A5241D9D243088B420A
:100A900001D34B00C01A5241411A00D201465241C3
:100AA000104663465B1001D34042002B00D54942FB
:100AB000704763465B1000D3404201B504490028EB
:100AC00002DC491C084000E00846C046C04602BDA2
:100AD000FFFFFF7F70477047704700000121C90585
:100AE0000123411842001B06D3185B0E0AD0C11027
:100AF0000722D206891840075242D14201D552003E
:100B000089187047090208D50146002A03D0C10F91
:100B1000C9070020704710467047420202D00020EB
:100B200002497047072109050143F4E70000F87FF7
:100B3000F0B5FF252D04C609C209FF2704462E4043
:100B40000137CB093E4348402A402B400746002A44
:100B50006BD0002B69D0AA4267D0AB4265D0002889
:100B600000DA32460125ED0529432C430902200213
:100B7000090AD21A4B0C7F24E31A434C000A7C4426
:100B8000E35C7D242404121914145B00A21888422B
:100B900001D3521C00E0400049420C465C43241142
:100BA0005C43DB016415E318040A5C43C502200DB5
:100BB0000C4644436419250A5D432303EC0C0D469F
:100BC000654300030019EB184C42A34201D35B18A4
:100BD000401CD4052018002B07D05B00C91804D393
:100BE000401C002901D1400840003F2189048A426D
:100BF00009D3002A08DC1106090F04D00321490794
:100C00004018C00FC007F0BD01224100120689182C
:100C10007F2252069142F6D205214907C84201D5EA
:100C20009010F0BDFF20C005F0BD002F00DA324665
:100C30001648AA4207D2AB4205D21902090E17D0B4
:100C4000F80FC007F0BDFF2563002D06AB42F9D8B1
:100C50004900A942F6D8AB4201D1A942F2D0A9423B
:100C600001D1002101E061004908D0050843F0BD31
:100C70001102090EFBD0FF200243D005F0BD0A4649
:100C80000146104654E70000FB8F00000000C07FC3
:100C900010B501469E240002CA15A307002A02D0FF
:100CA0001843002A04DBA21A002A0CDDD04010BD34
:100CB0001206120E01D140004008A21A03D4D040FF
:100CC00040420028F3DDFF2248001206904201D97D
:100CD000002010BDC817C043584010BD1F22030C90
:100CE00002D10F2200041CD0030E01D10002083AE9
:100CF000030F01D10001121F830F01D18000921E4A
:100D0000002801DB4000521ED20551180212511872
:100D10001922904004D3491C002801D149084900F8
:100D200008467047C10FC90700D040420122920710
:100D30001143D3E701218907D0E710B500F0F2FC99
:100D4000006810BD10B5044600F0ECFC046010BD56
:100D5000FFB504460D4681B0243000902168880616
:100D600004D51022E0699143216000E00120A842EF
:100D700001DD471B00E000270498A1697A191018CB
:100D8000081AA0612078C00602D42046FFF7DEFAD8
:100D9000002608E003986268A168805D9047206A99
:100DA000401C761C206204988642F3DB2078C00643
:100DB0000AD52046FFF7CAFA06E06268A16830202B
:100DC0009047206A401C206238467F1E0028F4DCD1
:100DD00007E000986268A168405D9047206A401C67
:100DE000206228466D1E0028F3DC2046FFF7C4FA77
:100DF0002078000602D5022005B0F0BD0120FBE7F7
:100E000011680268006A530501D5087009E0D3052E
:100E100001D5088005E0130602D5C21705C100E020
:100E20000860012070470000FFB50C461E468FB0D9
:100E300003CA089009914F007D0D00D16D1E00215D
:100E400008460020C0460321099A89050840002A67
:100E500003DA8200801840080840800D01280A90BB
:100E600002DD0020C0430A90089807430DD0F048E7
:100E7000F049281848430714189800281DD07542D7
:100E8000291E1DDD0A9842421BE01898012802D055
:100E90000020302104E00020F24305E02154401CF2
:100EA000B042FBDB30460022189B002121540F99F1
:100EB0008B600A60486013B0F0BDBD1B6D1CDFE79E
:100EC0000A9A002900DA69420BA800F0B1FC0BABCA
:100ED00007CB03AB07C30899099800F015FD6B46D3
:100EE00007C30146D4480918002D00910BDDD249F3
:100EF00003980A9A49424018002303A903906846C0
:100F000000F072FF08E003990A9A0023081803A969
:100F10000390684600F012FF6B4607C30004000C04
:100F200003D00020C043410800E01046189A002A70
:100F300003D00022009215461EE0751E05D400F075
:100F4000F5FB303262556D1EF9D501220843079634
:100F500002D000227F1C04E02078302801D100223A
:100F60007F1E002A069787D01EE0112D07DA00F0B9
:100F7000DDFB303262556D1C02460A43F5D1084351
:100F800003D00098002819D00EE00021681E05E06B
:100F9000235C625C63542254401E491C8142F7DB8F
:100FA000A81B401E07950690079A18990020A05488
:100FB0000F98079B069A81600CC07CE711260020E1
:100FC000189059E7D21DF0B50D460446D10893B0EC
:100FD000C90003C90C900D9108F060F902460D9804
:100FE000C00F01D02D2007E02068810701D52B20FC
:100FF00002E04007C00F4001032A0F9001D0072AEA
:1010000005DB03462946204600F0CEFB0EE12078A2
:10101000800601D5E76900E006272846652D04D043
:10102000662814D0672D69D12DE00020112F009083
:1010300001DB112300E07B1C0CAA03A910A8FFF719
:10104000F3FE1199002610987D1C0E9142E00120BC
:101050003B460CAAC0070B900120009003A910A8E2
:10106000FFF7E2FE119D12981099002600280E95B8
:1010700001D1781C0D18781B02D446427D1C761EC7
:10108000E81B00903AE0012F00DA01270020112F21
:10109000009001DD112300E03B460CAA03A910A833
:1010A000FFF7C2FE11993D46109800260E91217857
:1010B00009070BD40E99A94200DA0D4603A9012DA8
:1010C00004DD4A19203AD27F302A06D0B84201DA2C
:1010D000011D04DA012100910FE06D1EEFE70028E9
:1010E00002DC86192D1A03E0411CA94200DD0D46E1
:1010F000801B401C00900120C0070B902078000747
:1011000005D40098A84202DB0020C0430090694645
:101110000020C8720B98012102AF0337C90788422B
:1011200025D0022010902B2011900B9800280BDA6C
:1011300040420B902D20119006E00B9800F091FAA0
:1011400030317F1E0B9039701099481E0029109085
:10115000F3DC0B980028F0D111987F1E387020889E
:10116000000501D5452000E065207F1E387001A8EC
:10117000C01BC01D0B900F98002800D00120411902
:101180000098C01709180B980818A169081A401E82
:10119000A0612078C00602D42046FFF7D7F80F9848
:1011A000002805D06268A1689047206A401C206230
:1011B0002078C00625D52046FFF7C8F821E0002E8C
:1011C00007DB0E98B04204DD03A86268805DA16869
:1011D00002E06268A16830209047206A761C401CBB
:1011E00020620098401E002800900AD100F096FA74
:1011F000C06862680168405CA1689047206A401C32
:10120000206228466D1E0028D9DC07E06268387825
:10121000A1687F1C9047206A401C20620B99481EE1
:1012200000290B90F2DC2046FFF7A6F8032042E6E7
:1012300001FCFFFF104D0000E1DFFFFFD21DF0B504
:1012400004460D46D0088DB0C00046680768314698
:10125000384608F023F80246F00F01D02D2307E0AE
:101260002068810701D52B2302E04007C00F43010E
:101270006846002B037001D0012000E00020032A03
:101280000A9001D0072A04DB2946204600F08CFA98
:101290002DE12078800601D40D2500E0E56970007D
:1012A000400D0D2D01904BDA300D00210B900846BA
:1012B0000020C046032189050840002E05DA82007F
:1012C0008018C20F1018401008408015012801DD59
:1012D0000020C043A9000023182906D39C460A46D3
:1012E0000123183A1B07D34003E001221205CA402C
:1012F00094460C31202902D33A46203900E0324688
:101300008A40002802DD002A06D119E0002817D102
:101310000121C9078A4213D3194663467F185E41EB
:10132000002806D10120C007824202D10846874327
:101330009E430B98310D814202D00198401C0190D0
:101340002088000502D57149794402E06F4979444B
:1013500019396B460A9830221A540A980A7C401CA4
:101360001A54401C0A900198002801DC302000E04B
:1013700031201872019A0120002A02D0644BD21841
:1013800004E072003A4302D0614A521C0192002DDF
:1013900002DC2278120703D56A462E205072022002
:1013A0000022864694460CE032033601120F6D1E71
:1013B0008B5C02AA13546246521C401C9446052AB8
:1013C00001DA002DF0DC002202AE08E03B0F3F0105
:1013D000CB5C521C6D1E3354401C082A01DA002DD0
:1013E000F4DC23689A0601D511E0401E704504DD47
:1013F0003218203AD27F302AF7D0002807DD321881
:10140000203AD27F2E2A02D11A0700D4401E002D86
:1014100003DD3E223254401C6D1E497C315401993B
:10142000401C002906DA2D21471C31540198404206
:10143000019003E02B21471C315401987D21C90004
:10144000884206DBFFF758FA3030F0557F1C0191D7
:1014500001E0642808DB01986421FFF74DFA303081
:10146000F0557F1C019101E00A2806DB01980A2152
:10147000FFF742FA3030F0557F1C01980A21FFF740
:101480003BFA3031F1550A98A1697F1C7A1910187E
:10149000081AA0612078C00602D42046FEF756FF45
:1014A000216A6E460A980818206204E06268307863
:1014B000A168761C90470A98401E0A90401CF5D1FE
:1014C0002078C00602D52046FEF740FF02AE09E0B4
:1014D0003078761C3E280DD06268A1689047206A5B
:1014E000401C20627F1EF3D22046FEF745FF0DB060
:1014F0000320F0BD206A4019206203E06268A16801
:10150000302090476D1EEDD3F8E70000848800007E
:1015100001FCFFFF01694A1C02610878704700B5B1
:101520008FB00291002105910549019379440391FF
:10153000114604906846FFF783F80FB000BD000025
:10154000E5FFFFFF0CC908399A4202D2531C0B6019
:101550001070704710B54369002B02D0C046C046DA
:1015600001E0FEF72CFF012010BD12780146243166
:101570000A7000224A700122ECE711680022D2436F
:10158000E8E710B54369002B02D0C046C04601E031
:10159000FEF774FF012010BD1288014624318284B9
:1015A0000022C2840122ECE711680022D243E8E75E
:1015B000F7B5D21D0025D20815A6D200F52905CA17
:1015C00011D0002A05DA00214042914111A60A46B5
:1015D00008E0009909688B0701D50FA602E04907CA
:1015E00001D50EA601251146009F0024243704E0F2
:1015F00000F09CF830323A55641C02460A43F7D199
:101600002B46324621460098FFF7A2FBFEBD0000A4
:10161000000000002D0000002B0000002000000052
:10162000F8B516460C46054600F070F80368FF2032
:101630000230C05C012807D0FF2C0FD8185D0028AD
:101640000CD001202C70F8BDFF3332462146083300
:101650001868C71828460023B847F8BD0020C043C3
:10166000F8BD01468008081A02091018020A10186D
:10167000020C1018C008820012185200891A01E0EA
:10168000401C0A390A29FBD270470000C10D10B571
:101690000906090E2ED0FF2931D07E292DD319D06D
:1016A000962916D2024675398A4005D00024024692
:1016B0008A4003D3012302E00124F8E70023022239
:1016C000CA41511E8843002B03D08018002C00D043
:1016D000904310BD0121420201D1012200E000220D
:1016E000C00FC0070029F4D0002AF2D17F21C9051C
:1016F000084310BDC00FC00710BD0021EFE7410235
:10170000FAD0014810BD00000000C07F10B500F005
:1017100005F8001D10BD00BF0D8100000048704796
:101720007003202000487047500320200B4670B5FE
:10173000024689078008084319469D08141AA941E2
:1017400025090807054308092C194841250A0106FF
:101750000D43010A2C194141200C0D0428430D0CA6
:1017600000194D41002140194D41C0086907084347
:10177000E908840F8D002543840024184D41241965
:101780006D41121BAB4107E00925ED432C115219A5
:1017900063410024401C61411C460A250026551B5C
:1017A000B441F1D270BD0000F8B51F4604460123D4
:1017B0000068DB02032601461840072A05DB0028E3
:1017C00001D017A506E017A504E0002801D016A552
:1017D00000E016A5102081432160A069C01E002FE3
:1017E000A06101D0401EA0612046FEF7AFFD002F92
:1017F00009D038466268A1689047206A401C206280
:10180000C01C206206E0206AFAE762682878A168B6
:101810006D1C9047761EF8D22046FEF7ADFDF8BD50
:101820004E414E006E616E00494E4600696E660084
:10183000F7B516468AB0334878446C4603467C3385
:10184000C06F5A689B680DC42E487844763003AC4C
:101850000DC80DC43720C001081837211B30FFF711
:101860004BF805460C46803D1B3C02D564420120E6
:1018700000E000200027099010E0E0070CD00C20C9
:1018800020497843794432464C394118684601234F
:1018900000F054FA6B4607C364107F1C002CECD197
:1018A000184F7F442E3F16E0E80712D02001C019E0
:1018B0000EC80691089307920068F04201D198196A
:1018C00008903246012306A903A800F037FA03ABBB
:1018D00007C36D10641C002DE6D10998002806D0BE
:1018E00032466946012303A800F07EFA05E0012391
:1018F0003246694603A800F021FA0A9B07C30DB0DF
:10190000F0BD0000C8830000034640000A4610B541
:10191000400D0BD00121C9070F24A40200191C039C
:1019200064082143540D2143D20207E00021012025
:10193000F2E7D40F490021435200401E0029F8DA93
:10194000DB0FDB07184310BDFFB50D46144685B00D
:101950004868516807F089FC00910190A868A16867
:1019600007F083FC02910390A868616807F07DFC92
:10197000029A12188242029201D2012000E0002055
:10198000019A0B18D2180028019202D08A4202D97B
:1019900003E08A4201D2012000E0002000990818EB
:1019A00000906868A16807F060FC029A12188242F1
:1019B000029201D2012000E00020019A0B18D218F7
:1019C0000028019202D08A4202D903E08A4201D261
:1019D000012000E000200099081800902868216884
:1019E00040004900400849084018FA49471814E0E7
:1019F00001994000C90F08430090019802994000E6
:101A0000C90F08430190029803994000C90F084389
:101A10000290039840007F1E039000980028E7DAA8
:101A20000898002801D0EC4E00E00026B74201DA09
:101A3000012000E00020002804902AD0F71BF806BF
:101A4000C00E15D0029B2021091A039A8B401A431D
:101A50000392029A019BC2408B401A430292019A60
:101A6000009BC2408B4000991A430192C1400091F3
:101A70007B110DD06F460320C11A03D500218200CF
:101A8000B95003E08A008100BA587A50401EF3D55D
:101A9000374603980299002800D001200143089896
:101AA0000291002808460CD0002800D0012001999E
:101AB000019A490508430121D20AC902D2020192C2
:101AC00000E001210E9B0122D207012B02D0002B46
:101AD00003D013E0002807D120E0904204D89042C0
:101AE0000CD1019B0B4209D0019B5918019105D1E2
:101AF0000099491C009101D17F1C009200280DD053
:101B0000102108460020C0460498002806D00F98EF
:101B1000002803D0082108460020C0462868216814
:101B2000019B009A4840C10F0598C90739430EC070
:101B300009B0F0BDFFB587B0099A089808995368B5
:101B40009268406889689646002203931746944637
:101B5000089A12685300099A5B08126852005208EA
:101B60009A1A9E4BD4180A9A002A01D0352200E016
:101B7000402206920022012315460492DB070593BA
:101B800024E0002D05D175460346039E4D1BB3414D
:101B900009D375466646039B491B049D9841059BE6
:101BA0007519AC465F4163463B4308D0059B049ED4
:101BB000DD0776082E435B080496059301E0521E6C
:101BC000641EC50FED0749184041521C069B9A42FE
:101BD000D7DB002D04D17546039A6B1A824101D2DE
:101BE00003200CE0039A0B466B404240134303D0A2
:101BF000014303D0012002E0022000E00020614602
:101C000001910021009702910A99002905D06146AF
:101C100040020143704B019102E0800700230290D3
:101C20009C4201DA012000E0002007003AD01A1B94
:101C3000D006C00E15D0029D2021019C091AC54076
:101C40008C402543029C8C4000D001242543019CFC
:101C50000295009DC4408D4000992C430194C140E1
:101C6000009154111DD06D460221002202290CD191
:101C70000320001B07E0002804DB8600AE59002E7D
:101C800000D00122401C0328F5DB081B02D5880088
:101C90002A5004E08000285810438A00A850491EAA
:101CA000E3D51C460A98002802980CD0002800D0E2
:101CB00001200199019A490508430121D20AC9026C
:101CC000D202019200E00121109B0122D207012BD8
:101CD00002D0002B03D013E0002807D11FE0904270
:101CE00004D890420CD1019B0B4209D0019B59189A
:101CF000019105D10099491C009101D1641C009209
:101D000000280CD0102108460020C046002F06D025
:101D10001198002803D0082108460020C0460898E2
:101D20000999019A009B006809684840C10F07980B
:101D3000C907214382600AC00BB0F0BD00B585B071
:101D4000019300920A460146002302A8FFF7FCFD1A
:101D500002A807C805B000BDFFB50A461F4685B0FA
:101D60000799019301230091014602A8FFF7ECFDBA
:101D700002990398049ECA0F4900D20700920F22CD
:101D8000490892028C1A0021002800DB0C4645000D
:101D900013486D08844214D3079A002A04DA441EBB
:101DA0000026104DF64302E004460D460E46102173
:101DB00008460020C046002F03D00421084600201A
:101DC000C0462005E90A0843009908436905F20A5C
:101DD0001143ADE602C0FFFF013C0000FF3F0000E1
:101DE000FF070000FFFFFF7F00B585B00193009261
:101DF0000A460146002302A8FFF79CFE02A807C876
:101E0000A8E7FFB50A461F4685B00799019301234D
:101E10000091014602A8FFF78DFE02990398049EE7
:101E2000CA0F4900D20700920F22490892028C1A69
:101E30000021002800DB0C46450011486D08844253
:101E400014D3079A002A04DA441E00260D4DF643E7
:101E500002E004460D460E46102108460020C0460A
:101E6000002F03D0042108460020C0462005E90ABF
:101E70000843009908436905F20A114358E6000037
:101E8000FF070000FFFFFF7F10B5FF231B06440084
:101E90009C421DD84C009C421AD80346124A0B4360
:101EA00007D4401A02D3EFF3008010BDEFF3008097
:101EB00010BD081A03D3EFF30080904305E0EFF361
:101EC000008001219043C907084380F3008810BDBA
:101ED0000D231B041A4204D01146002000F0ACF878
:101EE00010BD00F0C1F810BD0000009010B5FF2239
:101EF000C30D134009D05A4007D0914205DA5C4225
:101F0000A14202DDC905081810BDC40FE407002B6B
:101F100006D0002A06D0002902DBFF20C0050443BA
:101F2000204610BD4102FCD0004810BD0000C07F1B
:101F300000487047500320207546FFF7F9FFAE4672
:101F4000050069465346C008C000854618B020B554
:101F5000FEF7AEF960BCB64600260027C0C5C0C576
:101F6000C0C5C0C5C0C5C0C5C0C5C0C5403D490885
:101F700049008D46704710B50446C046C04620460D
:101F8000FEF76CF910BD000082078B079A423FD123
:101F900070B5920F0AD0032402780B78401C491CBC
:101FA000002A33D09A4231D12042F5D1214EF4019A
:101FB00004C808C9951B9543254018D19A420FD1F2
:101FC00004C808C9951B9543254010D19A4207D1F2
:101FD00004C808C9951B9543254008D19A42E7D00B
:101FE00012BA1BBA01209A4200D2404270BD12BA06
:101FF0001BBA2DBA18241000E0401900E140401A25
:1020000005D12E00E64002D1083CF4D1D01A70BDB3
:1020100002780B78401C491C002A09D09A4207D14B
:1020200002780B78401C491C002A01D09A42EFD05C
:10203000D01A704701010101C80212D54803400FB0
:10204000002804D0C803C043012188407047EFF343
:1020500000800001000903210907084380F300887C
:10206000704700207047000010B5024800F004F8E7
:1020700010BD00000000C07F10B50C461107090F0D
:10208000092904D00A290AD008290CD104E01146F4
:102090000820FFF7D1FF06E0510606D501E0510602
:1020A00001D50120C007214610BDD10607D5010189
:1020B0000909CC084907000E0006044309E0410F56
:1020C00020024907000A0143200E00061D22D141CB
:1020D00001430846E7E7000001491820ABBEFEE7D0
:1020E00026000200704770B58C180578401C6B07FD
:1020F0005B0F01D10378401C2A1106D10278401CE5
:1021000003E00678401C0E70491C5B1EF9D12B07BA
:1021100005D40023521E0DD40B70491CFAE7037836
:10212000401CCB1A921C03E01D780D70491C5B1CEF
:10213000521EF9D5A142D8D3002070BD811E091FBF
:1021400000BFFCD27047000070B50B01C318546883
:102150009568254394892C43156956692543D4898C
:1021600024012C4335012543092464021D511378B1
:1021700052781A43BF231A40890040180249445834
:102180009C43A218425070BD10110000B0B511223E
:10219000120283580C4C1C400B894D881D438B79CF
:1021A0002B430A4D1D402B1983508B88CC791C433F
:1021B000097821435D239B001940801842689A43A7
:1021C00089184160B0BDC04680CCFFFF7F3300005E
:1021D00010B50122120383180C785C604978815095
:1021E00010BD0000F0B584B0012422022A4B19680A
:1021F00003929143196035490D686D04FCD5457E05
:1022000025409E69A64374199C612024045D032522
:102210002C40DE69AE433419DC61204C256805266C
:102220002660466A37681F6276685E6207262E401F
:102230002660C4697F252D02DE69AE436406640C06
:102240003419DC610768456882680092C6680269D3
:102250000192426902929A69114C14403A07120B9A
:102260002D03ADB2AA183243009D2D072D0D154345
:10227000019A1543029A1543007E2843094A0240F9
:10228000101998611868039A10431860086880054F
:10229000FCD504B0F0BDC04608010B40001340401F
:1022A0008D00F0FF72FF0F00074988600748026841
:1022B0009202FCD5012212040B6813430B600168E3
:1022C000C906FCD57047C04604010B4004020B4010
:1022D000F0B53C4A82183C4BC31808794E793B4D07
:1022E0003B4C002E23D0202804D00526F6010028E0
:1022F00003D003E0374E002800D18826576F2F40C7
:1023000037435767976F2F4037439767566B264081
:102310005663966B264096630026566596658F2613
:10232000F6435F6837405F609F6837409F608E79F3
:10233000096820280BD0002819D1491E5160D76E9A
:102340002F4088210F43D7661746703719E0491E82
:102350005160D16E29401F4F3943D166116F29401A
:1023600039431167012149071B4D174609E0490808
:102370005160D76E2F400521C9010F43D76617461C
:1023800070373C682C400C433C60D16A104C2140B3
:10239000D162116B214011630021D16411658F213D
:1023A000C943D46F0C40D4671C680C401C600643C2
:1023B000BD2030401168094B0B40C018801C1060D4
:1023C000F0BDC046041800008418000024493E00F7
:1023D0008888FDFF01040000FFFFFFCF4000FFCF12
:1023E00010B507239B04194092008018024A8458B4
:1023F0009C436118815010BD3018000010B5029C3C
:10240000A400001911431943014A815010BDC04670
:102410005018000092008018014A81507047C04651
:102420001018000010B50122120383180C789C606C
:102430004B7883508978014A815010BD0C110000FF
:10244000B0B51122120283580124A34383500B8894
:102450008C781C438B882343094C1C408358094DBE
:102460001D40631983508B79CC791C43097A214331
:102470007E231940801842689A4351184160B0BDCC
:1024800018670000E798FDFF10B5012212038318BA
:102490000C789C604978815010BD0000034A801878
:1024A00002681206FCD481617047C0460811000022
:1024B00080B503480068800701D502F063FE80BD47
:1024C000401140400320012103F03EFEFEE70000E2
:1024D00083B0B0B5C1B0044645914692479345AB31
:1024E00000930120010201AD28462246FDF7F0FECF
:1024F0000548064906A22B4606F024FD41B0B0BCB3
:1025000001BC03B00047C04600801040CC9F0000D3
:102510005B494E464F5D000080B5D0601161482098
:10252000105C002803D0104600F005F880BD10466E
:1025300000F0A8F880BDF0B583B00446C0682169FA
:1025400007F084FA21464A310291C98805460029DC
:102550001AD00121C9078843666C314606F0BBFFDB
:10256000002801D000250FE00021284606F0A6FF34
:10257000002804D12846314607F068FA03E02846CF
:10258000314607F065F905466561A6692768029836
:10259000008800280AD00120C10728468843E16A44
:1025A00006F076FF002801D0002003E0616828468D
:1025B00007F0E8F900902846314607F047FA01464F
:1025C000384607F0DFF9074630460196314607F0F6
:1025D0003FF90146284607F039FAE16907F038F972
:1025E0000146A06807F0CEF906463846009907F084
:1025F0002FF9314607F02CF90146206C07F028F935
:102600000146606B07F024F9074620630298808832
:1026100000280FD0A66B3846314606F044FF00284C
:1026200006D1E66B3846314606F032FF002801D16C
:10263000266337462764A5610198E061384603B0F8
:10264000F0BD0000B0B50D4604462421FEF70EF99A
:102650004A21002060524821655421464A31C880F1
:102660008880488060640549054A6262A162E06230
:1026700020636063A263E1632064B0BD00803BC55A
:1026800000803B45F0B583B00446C068216907F07F
:10269000DDF926464A36F188054600291CD0374622
:1026A0000121C9078843666C314606F014FF0028F3
:1026B00001D000250FE00021284606F0FFFE00288B
:1026C00004D12846314607F0C1F903E028463146D7
:1026D00007F0BEF805463E466561206802903088E6
:1026E000002801960AD00120C10728468843E16AE4
:1026F00006F0F1FE002801D1276A18E0216A284679
:1027000007F0A6F807462062708800280FD0666A96
:102710003846314606F0C7FE002806D1A66A38467C
:10272000314606F0B5FE002801D12662374628461C
:10273000029907F027F906466068394607F022F942
:102740000746A1690295284607F080F90146A0686E
:1027500007F018F905463046394607F079F829465A
:1027600007F076F80146606B07F072F806462063C2
:102770000198808800280FD0A76B3046394606F0B4
:1027800092FE002806D1E76B3046394606F080FEFF
:10279000002801D127633E460298A061304603B06D
:1027A000F0BD00210164016341618161C161016289
:1027B000704710B54C230124C4524162826210BD9F
:1027C000B0B50C4605460021204606F06CFE411EC1
:1027D00088414A216852EC62B0BD10B54E230124F5
:1027E000C4528163C26310BD0EC0704710B500288B
:1027F00012D081688900F34A994B8B508168890017
:102800008B58012464061C438C50C1680269EF4B4D
:10281000CA5001684068C85010BDC046F0B591B0BC
:102820000D91044680688000E64B8D49C150A06838
:102830008000C158012672060A43C25003CCE34A05
:1028400081501546952047016068A168C151304606
:10285000083C01F023FEE068216941512720C501B1
:1028600003CC109140590F903046083C01F016FE01
:10287000E0682169C151304601F010FEE06821692D
:10288000D24A815003CC0E9140590C903046083CFE
:1028900001F004FEE0682169C151304601F0FEFDFF
:1028A000E0682169C94A815003CC0B9140590A90D4
:1028B0003046083C01F0F2FDE0682169C151304624
:1028C00001F0ECFDE0682169C04A815003CC099118
:1028D000405908903046083C01F0E0FDE06821696D
:1028E000C151304601F0DAFDE0682169B74A8150F4
:1028F00003CC0791405906903046083C01F0CEFDCC
:10290000E0682169C151304601F0C8FDE0682169E5
:10291000AE4A815003CC0591405904903046083CA2
:1029200001F0BCFDE0682169C151304601F0B6FDFF
:10293000E0682169A54A815003CC03914059029077
:102940003046083C01F0AAFDE0682169C1513046DB
:1029500001F0A4FDE06821699C4A815003CC0191FB
:102960004059009030461646083C01F097FDE1685A
:102970002069C851A06880008122924BC250226811
:102980006068914BD0502369CB5191190D9A002A60
:1029900013D008610125284601F080FDE068216917
:1029A0008151284601F07AFDE0682169C15128462D
:1029B00001F074FD03CC815110E008600125284628
:1029C00001F06CFDE06821698151284601F066FD47
:1029D000E0682169C151284601F060FD0E980C990C
:1029E0000140081A41424141880010990F9A0A405B
:1029F000511A4A424A41D10008180B990A9A0A40D2
:102A0000511A4A424A41510040180999089A0A400D
:102A1000511A4A424A41801880000799069A0A4092
:102A2000511A4A424A41510040180599049A0A40F5
:102A3000511A4A424A41801880000399029A0A407A
:102A4000511A4A424A41510040180199009A0A40DD
:102A5000511A4A424A418018C0B211B0F0BDC04676
:102A600081000E00F0B585B00126002B6DD0044624
:102A700000286AD00A98002867D01D46009001926D
:102A8000A0688000F54A029181210491815003CC15
:102A9000F44A8150F24E815101273846083C01F03A
:102AA000FDFCE06821698151384601F0F7FC952072
:102AB000460103CC81513846083C01F0EFFCE06848
:102AC0002169039681513E46384601F0E7FC0298A1
:102AD0004700F9B2204600F07BF8204600F04CF9A0
:102AE00000280AD00226A0688000DC49049A0A5017
:102AF00006CCDC480A50083C12E02046019900F060
:102B000067F8204600F038F9A1688900049AD34B91
:102B10005A5006CCD34BCA50083C002818D0022685
:102B2000E0682369039D43514A510125284601F07D
:102B3000B5FCE0682169CA4FC151284601F0AEFCDE
:102B400003CCC151284601F0A9FC304605B0F0BDC8
:102B5000C34802973746064608180260384601F017
:102B60009DFCE06821698151384601F097FC03CC57
:102B7000039E81513846083C01F090FCE0682169D1
:102B800081513E46384601F089FC02983843C1B273
:102B9000204600F01DF8204600F0EEF80028A1D1F4
:102BA000009F06E000212046FFF738FE38707F1CAA
:102BB0006D1EE8B20128F5D0002801D03146F2E7B9
:102BC000002690E704804240D012000090120000DE
:102BD000F0B581B0044680688000A04B8122C250CD
:102BE00041CCA04A8650952257016268A368D35110
:102BF00000914AB29A4D1035083C002A2A4600DA64
:102C0000974A86500126304601F048FCE068216969
:102C1000934A8150304601F041FCE0682169C1517E
:102C2000304601F03BFC00984006284600D58C4811
:102C300006CC0A503046083C01F030FCE0682169BF
:102C4000874A8150304601F029FCE0682169C15172
:102C5000304601F023FC00988006284600D58048C5
:102C600006CC0A503046083C01F018FCE0682169A7
:102C70007B4A8150304601F011FCE0682169C15166
:102C8000304601F00BFC0098C006284600D5744879
:102C900006CC0A503046083C01F000FCE06821698F
:102CA0006F4A8150304601F0F9FBE0682169C1515B
:102CB000304601F0F3FB00980007284600D568482D
:102CC00006CC0A503046083C01F0E8FBE068216978
:102CD000634A8150304601F0E1FBE0682169C1514F
:102CE000304601F0DBFB00984007284600D55C48E1
:102CF00006CC0A503046083C01F0D0FBE068216960
:102D0000574A8150304601F0C9FBE0682169C15142
:102D1000304601F0C3FB00988007284600D5504894
:102D200006CC0A503046083C01F0B8FBE068216947
:102D30004B4A8150304601F0B1FBE0682169C15136
:102D4000304601F0ABFB0098C00700D0444D03CCE7
:102D500041513046083C01F0A1FBE0682169404A3E
:102D60008150304601F09AFBE0682169C15130463C
:102D700001F094FB01B0F0BDF0B587B00446806867
:102D80008000924B9649C150A0688000C15801252F
:102D90006A060A43C25003CC314E815195200690F9
:102DA00047016068A168C1512846083C01F076FBE4
:102DB000E06821698151284601F070FB2720C60197
:102DC00003CC80590840083C2246103223460C337D
:102DD0000025884231D10293039504920597201D66
:102DE00001904B2087000125284601F057FB03CCBA
:102DF00082590A40083C8A4222D17F1EF3D10699AB
:102E000049014218174BC018A3689B0081266F4FD9
:102E1000FE5063680360E0682669465013602846E8
:102E200001F03CFBE06821690D4A8150284601F021
:102E300035FB059F103F019806E01C46104603E055
:102E4000029C0498039D059F00682168C8510120D9
:102E500001F024FB284607B0F0BDC0460480424084
:102E600090120000D0120000F0B581B01C4C1D493A
:102E70002046FFF7D7FA1C492046FFF729FA1B48DE
:102E80000168A34A0A4002600025009520462946B1
:102E90002A462B46FFF7B2FA204629462A46FFF774
:102EA0009FFA7D20C600204631462A46FFF7B2FA37
:102EB00001270097204629462A462B46FFF79EFA0F
:102EC000204629463A46FFF78BFA204631463A46D5
:102ED000FFF7A0FA064887600321016001B0F0BD4A
:102EE00000A08640309D0000349D000004B886405C
:102EF00000B1864080B503480021034AFFF724F95A
:102F000080BDC04600A042403C9D000080B5FFF758
:102F1000F1FF80BD70B52D4984220A602C48012341
:102F200003604A60022404604A6380220260294AE6
:102F3000832494639D05056087251565DE0506607D
:102F4000D566DB06036082230B65234D4D658B63DD
:102F5000CD639461CC676B1C536181231366536608
:102F6000536413609362D3631C4C0C671C4D0D6655
:102F70004C668C660C644C648C65CC651463D462BE
:102F800094644C67536093608B649366936513619C
:102F9000D360CB600B6101463039124A0A6002608F
:102FA000114812490160016311480168114A0A433E
:102FB00002600169104A0A4302611048016A104A1E
:102FC0001143016201681143016070BD04804240F9
:102FD000D0120A40848042408200040081000C002C
:102FE00081000E0000F10066A0320A400000530C80
:102FF00090330A4000FF000CF0C0000028300A4067
:10300000F0208C0070B582B01B4C1C492046FFF7A5
:1030100009FA1B492046FFF75BF91A4801683C4A48
:103020000A40026000250095204629462A462B4684
:10303000FFF7E4F9204629462A46FFF7D1F9204652
:1030400029462A46FFF7E6F901260096204629463A
:103050002A462B46FFF7D2F9204629463246FFF78B
:10306000BFF9204629463246FFF7D4F90648866064
:103070000321016002B070BD00008640549D000035
:10308000589D0000041886400011864070B582B03B
:103090001B4C1C492046FFF7C5F91B492046FFF78A
:1030A00017F91A4801681A4A0A400260002500957B
:1030B000204629462A462B46FFF7A0F920462946F6
:1030C0002A46FFF78DF9204629462A46FFF7A2F93E
:1030D00001260096204629462A462B46FFF78EF900
:1030E000204629463246FFF77BF9204629463246DC
:1030F000FFF790F9074886600321016002B070BDB8
:1031000000000940609D0000649D00000418094013
:103110007F00FFFF0011094010B50D4C0D492046FE
:10312000FFF756F80C492046FFF730F80B48416886
:103130000B4A0A4027324260816812220A432D213D
:103140008A438260016801220A43026010BDC046C2
:1031500000A046406C9D00006E9D000004B14640FA
:1031600000FCFFFFB0B50F48002404600F200002F0
:103170000D4D296881430120400208182860032072
:10318000C043291F0A6802400A600848FFF72AF86E
:103190002868102101432020814329602046FFF741
:1031A00083F8B0BD08030B4004010B40789D00007C
:1031B00010B51C4C1C492046FFF766F91B492046F8
:1031C000FFF73EF90320C103194802688A430260F1
:1031D0000169374A0A401532026141692D220A43CA
:1031E00012218A434261426801210A4043688B43AD
:1031F0009A184260452292020E4B1C6814431C60D0
:10320000CA021A664A04036813430360C268702343
:103210001343C360C26807231343C36002680A43B1
:10322000026010BD00801040A09D0000A29D000023
:10323000009110402890104010B55E4C194920466E
:10324000FFF722F918492046FFF7FAF80320C103D7
:10325000164802688A4302600169154A0A40412102
:10326000C90051180161416935220A430A218A4384
:103270004261426801210A4043688B439A184260C8
:103280008A020C4B1C6814431C60FF2212060A4B76
:103290001C689443CA07A2181A6002680A430260B5
:1032A00010BDC046AC9D0000AE9D00000011504016
:1032B0000000FFFF2810504000E400E080B500F05F
:1032C00025F8FFF727FEFFF74DFFFFF79BFEFFF7FF
:1032D000DDFEFFF7C9FDFFF76BFFFFF7ADFFFFF75F
:1032E0001BFFFFF713FE9C20054900220A54B8205B
:1032F00004490A54542004490A5424200A5480BD25
:1033000018062020B8062020B0032020F0B581B098
:1033100010481149416011484160114B5960114CEE
:103320006160114D6960114E7160114F79601148F3
:1033300041601149074A1160084A11601960216013
:1033400029603160396001601020FEF7F7FE01B09E
:10335000F0BDC04600080A40030000B100280A4042
:10336000000886400008094000A8864000881040F8
:103370000008504000A846400100002670B50D4CE2
:103380000D4E0525204631462A4605F0FEFDC82093
:1033900001F076F8711D20462A4605F0F6FD074833
:1033A00001F06EF80A36204631462A4605F0EDFD5A
:1033B00070BDC0460000504007002020B80B000040
:1033C00002480168491C01607047C0465410202023
:1033D00004480168C9B20B2901D1034A126881620D
:1033E0007047C0462090104024911040F0B585B041
:1033F000454D2C68454F397B45480068C0B20229CD
:103400000DD0012905D0002979D1552877D1012087
:1034100074E0532871D10020788102206EE0798910
:103420004A1C7A8178547889092868D13878797863
:10343000049003910818FE788019B9780291411818
:1034400078790A1839795218FB79D218BB79D218D1
:10345000583AD2B23B7A9A424FD100024018FDF757
:1034600069FC07210096CE06314606F08BFA294901
:1034700006F088FA0190B86100980002029940189D
:10348000FDF758FC0296314606F07CFA214906F019
:1034900079FA06461F4906F006F800901E493046A4
:1034A00006F0D6F90099002900D1304678610398DA
:1034B000000204994018FDF73DFC029906F062FAFB
:1034C000144906F05FFA0646124905F0ECFF049035
:1034D0003046114906F0BCF90499002900D1304664
:1034E0003861019E30460B4905F0E8FF002804D101
:1034F0000949304606F0ACF9B86100203873E0B2F3
:10350000A86205B0F0BDC04620105040D800202071
:1035100024115040000034430000B4C310B500280B
:103520000DD000290BD02822825C042A07D803463C
:103530002833940004196161521C1A70086110BD8F
:10354000B0B5164D6878012807D101F0B5FF69685C
:10355000421A13490B889A4200D2B0BD6860E878DD
:10356000002810D00024204602F00AFB00F024F8C6
:10357000EC70A878401CA8702978C0B28842ECD3BF
:10358000AC706C70B0BD888889790904401802F06D
:10359000F7FA00F01DF80120E870B0BD0C052020FE
:1035A000000020200120C106084A11600E490A6867
:1035B00082430A607047C0460120C106034A116079
:1035C00009490A6882430A607047C046A0120A404F
:1035D0000120C106034A116003490A6802430A60D8
:1035E0007047C04690120A4004B88640F0B581B0DA
:1035F000044601F061FF714D2969411A64294FD3D6
:103600006D498C421BD00A462C32944238D00A466F
:10361000583294423CD084318C4240D1297D0129DA
:1036200039D06968002938D00A79022A49D139226B
:103630008A5CFF2A45D03931FF220A702DE0297DAE
:10364000012928D06968002927D00A79022A29D1BE
:1036500039228A56531C25D0282353434F6BFC181C
:1036600000210646204602F0B1FB3046002F14D060
:10367000E269002A11D0217A6068904730460CE058
:10368000297D012907D0044602F024FE204604E0EB
:10369000297D012910D10021297501212970286176
:1036A00001B0F0BDCA6A012AF7DB531ECB620C6B76
:1036B000A242F2DC0B63F0E7044601F0ADFE2046C7
:1036C000EBE709690029E8D06960E6E7B0B53A4957
:1036D00088420BD00A462C32904229D00A465832F2
:1036E00090422FD08431884236D0B0BD3348017D1E
:1036F000012935D04068002820D00179022935D130
:10370000392141564A1C31D028224A43456BAC1816
:103710000021204602F05AFB002D0FD0E269002A5A
:103720000CD0217A60689047244801210170B0BD17
:103730002248017D012913D002F0CCFD1F48012150
:103740000170B0BD1D48017D012909D001F064FE62
:103750001A4801210170B0BD1848017D012912D11C
:1037600000210175154801210170B0BDC16A012910
:10377000E4DB4A1EC262036B9942DFDC02630F483E
:1037800001210170B0BD41680029D7D00A79022A11
:103790000AD139228A5CFF2A06D03931FF2008700D
:1037A000064801210170B0BD09690029C6D04160F9
:1037B000024801210170B0BD68052020B40420201A
:1037C00080B5FEF7BBFC80BD89004018C260704721
:1037D000F0B581B01E4615460F4604462C21FDF774
:1037E00045F8A7608020A070267168426841C0013A
:1037F000E907490E0818E07001B0F0BD10B59A4B0A
:103800001A68002A16D014460021C943844214D0F5
:10381000A46A002C0ED084420FD0A46A002C09D0D8
:1038200084420AD0A46A002C04D0844205D0A46A41
:10383000002CE9D1186082620021084610BDC04604
:10384000B0B58948046802E00140E170A46A002C28
:1038500000D108E12079A1688847E278510702D0B9
:103860002188491C2180D109884203D1C720024008
:1038700011460EE0C7211140D3085B1C07251D40EF
:10388000EB005918E170002D04D047210A40C00117
:103890001118E17007200840052806D878440079FF
:1038A0004000874404441C5F026FF820CCE7A278F4
:1038B0000F2010404A06D20FCBB2DB09934200D052
:1038C00084E0A070E268002A00D1BCE02046904766
:1038D000A178012008430E218843E178B4E048062E
:1038E000C00FCAB2D20982425FD1A0780F2528400A
:1038F000A070E168002902D020468847A0780146E0
:1039000029400F2905D0F0210140401C28404018D3
:10391000A0706169002901D02046884700202080DE
:10392000E078F8210140C81CE070A46A8FE74806DF
:10393000C00FCAB2D20982424CD12088112800D2CD
:1039400084E7A0780F2202405032A270226A002A37
:1039500002D020469047E178F8200840401DE070F2
:10396000A46A74E74806C00FCAB2D209824244D1A1
:1039700020880B2800D269E7F8200140481CE0703D
:10398000A46A64E7A2780F2010404A06D20FCBB297
:10399000DB09934247D16030A070616A002900D1F1
:1039A00054E720468847A46A51E720880B2800D2B4
:1039B0004CE7A2780F20104002284ED001283AD1BF
:1039C0003120A070A269002A32D134E08030A0708A
:1039D000A46A3CE7A0780F2202401032A27022694C
:1039E000002A02D020469047E17800202080F8206D
:1039F0000840801CE070A46A29E7A0780F210140EC
:103A00001031A1702169002901D020468847208803
:103A1000092815D800202080E078F8210140881C72
:103A2000E070A46A13E71030A0702269002A02D067
:103A300020469047E178F8200840E070A46A06E745
:103A4000E078F82100E70120A07000202080F82015
:103A50000840401CE070A46AF9E64220A070E269C8
:103A6000002AE5D1E7E7B0BD7C07202070470000C1
:103A7000F0B585B001F064FB02F096FA00F05CFA54
:103A8000FFF7F4FFBF4D00266E600196BE4C204646
:103A9000FEF787FEAE60BD4F7E6002962046543032
:103AA000FEF77FFEEE60BE6003962046A830FEF76C
:103AB00078FE2E61FE600496FC342046FEF771FE0F
:103AC0006E613E61B248FEF76CFEB248FEF769FED9
:103AD000B148FEF766FEB148FEF763FE01A802F0AA
:103AE00069FA05B0F0BDC046F0B585B0A54E327894
:103AF0008A4231D070613170002575600195A24C09
:103B00002046FEF74EFEB5603746A04E7560029522
:103B100020465430FEF745FEFD60B5600395204613
:103B2000A830FEF73EFE3D61F5600495FC3420466A
:103B3000FEF737FE7D6135613E469548FEF731FE62
:103B40009448FEF72EFE9448FEF72BFE9348FEF7AE
:103B500028FE01A802F02EFA8C4C6068A16805F0DE
:103B600077FEE16805F074FE216905F071FE2849D1
:103B700005F008FF0146706905F06AFE0446012061
:103B8000C00784437F20C7052046394605F08BFCDB
:103B9000002835D1002575600195009737467A4E8B
:103BA0003046FEF7FEFDBD60784845600295304620
:103BB0005430FEF7F6FDFD6074488560039530468D
:103BC000A830FEF7EEFD3D617048C5600495FC36F7
:103BD0003046FEF7E6FD7D616C4805616C48FEF7F6
:103BE000E0FD6C48FEF7DDFD6B48FEF7DAFD6B4843
:103BF000FEF7D7FD01A802F0DDF903203870009F21
:103C00002046394605F05AFC411E884105B0F0BDFA
:103C1000000080BEF0B585B00C465A4E31780329BD
:103C200035D13070002832D1002777600197564D8A
:103C30002846FEF7B6FDB76054484760029728460D
:103C40005430FEF7AEFDF760504887600397284672
:103C5000A830FEF7A6FD37614C48C7600497FC35D5
:103C60002846FEF79EFD776148480761DD48FEF76C
:103C700098FDE148FEF795FDE248FEF792FDE44825
:103C8000FEF78FFD01A802F095F94548706145489F
:103C9000202102F0DBF9444901400020012C3ED0F4
:103CA000002C61D1F84F0020387000295CD003202F
:103CB00030700120009002F061FB03F093F80024C3
:103CC00074600194EF4D2846FEF76BFDB4607C6094
:103CD000029428465430FEF764FDF460BC600394FF
:103CE0002846A830FEF75DFD3461FC600494FC3585
:103CF0002846FEF756FD74613C61E448FEF751FD2D
:103D0000E348FEF74EFDE348FEF74BFDE248FEF7C1
:103D100048FD01A802F04EF9009805B0F0BD002959
:103D200004D0D9490020087005B0F0BDD64F3978CD
:103D3000491C3970C9B2032916D37A68B968044698
:103D4000104605F085FDF96805F082FD396905F03A
:103D50007FFD7D21C90505F015FE144905F0BBFB6B
:103D600001462046002901D005B0F0BD00243C707A
:103D7000032030700120009002F000FB03F032F8C5
:103D80009EE7C0461C002020B00E20200804202002
:103D9000BC0D202000102020140520205C102020C5
:103DA00000007F43FC002020FF0F00000000C842FD
:103DB000F0B584B0002802D05E49486001E05D485B
:103DC000406862245B4A00231355602153520578F2
:103DD00001464031002D25D002930394064620363B
:103DE0000096047A01230194002C1F462BD0077CF7
:103DF000002F19D0077E002F18D0009C2778002FA5
:103E000016D0277A002F15D0277C002F14D0277EBC
:103E1000002F13D00F78002F12D00F7A002F11D05F
:103E20000A2710E00B747CE002270CE003270AE06D
:103E3000042708E0052706E0062704E0072702E03C
:103E4000082700E00927039C1355612693550F743A
:103E5000157445685561012F029B62D002251555E6
:103E60009555019D1576C568D561022F59D003255A
:103E700015559555057C019620269555019E456959
:103E80005562032F4DD0042515559555057E2826DE
:103E90009555019EC569D562042F42D0052515555B
:103EA0009555009D2D7830269555019E456A5563A0
:103EB000052F36D0062515559555009D2D7A3826A7
:103EC0009555019EC56AD563062F2AD0072515553D
:103ED0009555009D2D7C40269555019E456B55645A
:103EE000072F1ED0082515559555009D2D7E482677
:103EF0009555019EC56BD564082F12D0092515551F
:103F000095550D7850269555019E456C5565092FA0
:103F100007D00A25155593550C7A58255455C06C71
:103F2000D0651370887C002801D00120487404B04B
:103F3000F0BDC04650042020F0B581B002F038FE3C
:103F4000524E002430462146FEF77CFB8120C505F9
:103F5000254A304629462346FEF746FC234F244A8D
:103F600030463946FEF739FC30463946204AFEF7DE
:103F700020FC20493046FEF723FC454E30462146C2
:103F8000FEF760FB3046294622462346FEF72CFC0E
:103F90001A491B4A3046FEF720FC3E4D2846214672
:103FA000FEF750FB01208107284622462346FEF7F4
:103FB0001BFC1549154A2846FEF70FFC364D2846CE
:103FC0002146FEF73FFB41200106284622462346B4
:103FD000FEF70AFC0F49104A2846FEF7FEFB01B027
:103FE000F0BDC046BC0D2020CDCCCC3D000024420D
:103FF000000024C20000A0400010202000007041FA
:10400000000070C11405202000002042000020C2E2
:104010005C1020200000F0410000F0C1F0B585B038
:10402000EE4D00266E600196F64C2046FEF7B9FB79
:10403000AE60F34F7E60029620465430FEF7B1FB2F
:10404000EE60BE6003962046A830FEF7AAFB2E6104
:10405000FE600496FC342046FEF7A3FB6E613E61D1
:104060000A48FEF79EFB0A48FEF79BFBE348FEF773
:1040700098FBDB48FEF795FB01A801F09BFF05B01C
:10408000F0BDC046B00E202008042020BC0D20202A
:1040900000102020140520205C102020F0B585B0F1
:1040A000904C6078002817D16220255C002D25D027
:1040B0006021625CD300E3181E695B696D1E2554A4
:1040C000501C8A4A4243120C0A255543401B605437
:1040D00001206070A660E360207A401E042862D848
:1040E000784400794000874402604D544400E06801
:1040F0000021FFF7F9FC002853D154E06268114613
:1041000040314B7C012B4ED123785B1C2370DBB2FA
:104110008D7CAB424FD20023235460256353167825
:10412000002E53D0154620350395177A01250297A6
:10413000002F2F465CD0177C002F4AD0177E002F0F
:1041400049D0039F3F78002F47D0039F3F7A002F2D
:1041500045D0039F3F7C002F43D0039F3F7E002F1D
:1041600041D00F78002F40D00F7A002F3FD00A2780
:104170003EE0E068FCF78CFD0121FFF74BFD0028D5
:104180000FD110E0E0680221FFF7AEFC002808D153
:1041900009E0E068FCF77CFD0021FFF73BFD00280B
:1041A00001D00020607005B0F0BDE06802F068FD4D
:1041B0000028F6D1F7E789480322027000244C74E6
:1041C000FFF72CFF4848047005B0F0BD0B7405B034
:1041D000F0BD02270CE003270AE0042708E00527CA
:1041E00006E0062704E0072702E0082700E0092789
:1041F0000193255461230493E5540F742674566883
:104200006661012F00D153E702252554049EA55570
:10421000029B2376D668E661022F00D148E703258A
:104220002554049EA555137C2026A3555669666225
:10423000032F00D13CE704252554049EA555137E89
:104240002826A355D669E662042F00D130E705255C
:104250002554049EA555039E33783026A355566AEF
:104260006663052F00D123E706252554049EA55536
:10427000039E337A3826A355D66AE663062F00D10B
:1042800016E707252554049EA555039E337C40263A
:10429000A355566B6664072F00D109E708252554FE
:1042A000049EA555039E337E4826A355D66BE6642F
:1042B000082F00D1FCE609252554049EA5550B784E
:1042C0005026A355566C6665092F00D1F0E60A25E5
:1042D0002554049E019BA355097A5823E154D16CBF
:1042E000E165E5E650042020581020209A190000CE
:1042F00070B584B0394E307803286DD004F058FD85
:104300003078022813D0012804D000283CD104F0D2
:10431000C5FD39E0B0693449896905F097FB044669
:10432000324905F0CBF8002817D133491CE001F0E1
:10433000CFF8014600202A4AFEF7EEF80446294D40
:104340002846214605F082FBF06030612046294670
:1043500005F07EFA7060B06016E02549204605F051
:1043600097F8002804D12349204605F071FA044645
:104370000020224A2146FEF7CFF80121C90741401B
:104380007060B060F16031611D4D696B70681D4CEB
:104390002246FEF7C1F8FCF77BFC0090A96BB068E1
:1043A00022465432FEF7B8F8FCF772FC0190E96B34
:1043B000F0682246A832FEF7AFF8FCF769FC0290DD
:1043C000296C3069FC342246FEF7A6F8FCF760FC45
:1043D0000390684601F0EEFD04B070BD1C00202083
:1043E0005C10202000002042D80020200000344330
:1043F000000034C30000B4430000B4C314052020FF
:1044000008042020B00E2020B0B500280DD00446AE
:1044100003F0DEFA054D6C600548064904F0C4FD62
:1044200002F014F8686800F0FBFDB0BDB404202071
:10443000CD360000ED35000080B501F03DF80449AF
:10444000C865C864C863C862C861C86080BDC0462A
:104450001401202080B501F03BF805490860FCF705
:104460003DFB024603A00B46FEF732F880BDC04676
:10447000740720202564000080B5FFF7EBFF80BDA6
:10448000B0B5002806D00446034D2846FFF798F93A
:10449000641EFAD1B0BDC0468038010010B50028B6
:1044A0000CD004460A2804D250206043FFF788F954
:1044B00010BD5020FFF784F9641EFAD110BD000032
:1044C000F0B587B007464620CD4C255C4420265CDD
:1044D000CC49204603F0D7FA20460297394603F02C
:1044E0006FFAC0B2311A8AB2D20B89184908C9B220
:1044F0004A1F01914018411D093568080490069132
:1045000003928A4215DA0498C11C05910A3885B2D3
:10451000BB4E039CA7B2304639462A4603F030F81A
:1045200030463946059A03F02BF8A41C06988442BD
:10453000F0DB039885B2049F38460A3886B2B04C47
:1045400020462946324603F01BF82046069C2146A9
:10455000324603F015F83846083886B2A84829468E
:10456000324603F00DF8A6482146324603F008F81B
:10457000B81F86B2FC482946324603F001F8FA48D3
:104580002146324602F0FCFF381F86B2F648294623
:10459000324602F0F5FFF4482146324602F0F0FFC1
:1045A000B81E86B2F0482946324602F0E9FFEE48CE
:1045B0002146324602F0E4FFEB48064629463A46D9
:1045C00002F0DEFF304621463A4602F0D9FFBE1C1B
:1045D000E5482946324602F0D3FFE3480546214626
:1045E000324602F0CDFF284601993A46029B03F07D
:1045F0000FF907B0F0BDC046F0B593B0002800D168
:10460000F8E02821415C002900D1F3E0014628317F
:104610000C91079006461436002508962F4606E0B2
:104620007F1C361D6D1C0C98007885420DD23068B9
:104630000028F6D03A21415CC907F2D1C0680028B1
:10464000EED080470028EBD1EBE7002F00D1D1E07E
:104650006B486C4903F017FA0C9800780028089C06
:1046600000D1CAE00798006B0A9000221546AE0000
:10467000A059002800D1AAE03A21415CC90700D026
:10468000A5E0C068002805D0174680473A460028B4
:1046900000D19CE00A98012802DB401E0A9096E0B7
:1046A000A0190B2705925743394611310B910799F1
:1046B000C96A02681646283604918D4206924CD18A
:1046C0000396B07C80074E4817D40126314603F08C
:1046D000D4F944204A49085A092100910196001F43
:1046E00083B20937BAB20221454802F066FF0021C1
:1046F000434803F0C2F9424818E04424015B05290D
:1047000014D309370226B9B20991B7B23946099ACA
:1047100002F036FF0B9882B23948394602F030FF7A
:104720003748015B891EB61C8E42EEDB039EB17CCE
:10473000890708D40699097903290B998AB207D108
:10474000042133A306E00B998AB204212EA301E0D1
:1047500004212E4B03F05CF8069A1168002910D052
:1047600037460DAE17223046FCF782F80020F07570
:104770000B9882B20C21224833463E4603F048F89B
:10478000069AB07C4007089C08D4307800281F4B5C
:1047900005D19068002822D01FA300E01DA318783F
:1047A000002808D044211648415A083989B20B9A8A
:1047B00092B203F02DF80498854206D1B07C8007B0
:1047C00003D401210E4803F058F9059A521C6D1CC0
:1047D0000C980078854210D2042A0EDA47E7307C24
:1047E00000280E4BDBD01079022801D00DA3D6E7AC
:1047F0000BA3D4E70CA0FFF763FE13B0F0BDC046D7
:10480000B0102020B3A2000078000000A49F000098
:1048100021000000230000002E000000CB9F0000BC
:104820004500000056000000456D707479204D650C
:104830006E750000F0B585B002464620F949085C67
:1048400003904420085C02901746283704921079A0
:10485000401E012869D83E7C052E00DA81E0029DC9
:10486000A81E81B2039C123CA3B2EE480B2202F0B8
:10487000D5FFA000314604F01FFC0746032800DCEA
:104880000327E11B049C206B4843311F04F014FCF8
:10489000B9B200910B3082B2E81E81B20223E14826
:1048A00002F02AFC206B01281ADBA81F81B2DD4F21
:1048B0000C22384602F064FE0D220092E81F81B2FD
:1048C000681F83B2384602F0E7FD0E2200922846A8
:1048D000083881B2281F83B2384602F0DDFD206B14
:1048E000001DB0423DDA039D28460B3882B200928B
:1048F000029E3046083881B2301F83B2C94C204630
:1049000002F0CAFD28460A3882B20092F01F81B236
:10491000701F83B2204602F0BFFDB01F81B2093D77
:10492000AAB2204602F02CFE1BE03878002818D0EE
:10493000049C143400252E4605E0761C241D6D1CB5
:104940003878854288D220680028F7D03A21415C27
:10495000C907F3D1C0680028EFD080470028ECD108
:10496000ECE705B0F0BDC046B0102020F0B589B02E
:10497000074644216148465C4621445C012529469E
:1049800003F07BF8052000900394A01F82B20296EA
:10499000B01E83B2594C2046294602F0ADFB0025DB
:1049A0002046294603F069F85549204603F06BF884
:1049B0003C46283404973879401E01281ED8267CAE
:1049C000012E029F36DB0498C06A0096431C05AD99
:1049D00010214CA22846FBF799FC484E3046294648
:1049E00002F0EEFFC0B2381AC01E81B20398801EDA
:1049F00082B230462B4602F00BFF1BE020780028E5
:104A0000029F17D0049F14372E4605E0761C3F1DE9
:104A10006D1C20788542D3D238680028F7D03A211F
:104A2000415CC907F3D1C0680028EFD08047002857
:104A3000ECD1ECE70498007901280AD0032806D0CD
:104A4000022808D1607CFF280BD035A30CE031A3ED
:104A50000AE02EA308E004980069002803D034A3DC
:104A600002E02DA300E030A30398801E85B2234806
:104A700003212A4602F0CCFE04980079022837D19F
:104A800011202056411C33D00499496B00292FD0A6
:104A9000282242438818407A032815D878440079A0
:104AA00040008744010C040705A825210EE005A855
:104AB0007E210BE005A8002181701E4906E005A8B3
:104AC000002181701C4901E005A83F2101800B4CA9
:104AD00005AE2046314602F073FFC0B2381AC10F4E
:104AE0004018400881B220462A46334602F090FE24
:104AF0000248012102F0C1FF09B0F0BDB010202032
:104B0000E09F000025642F256400000056494557AA
:104B10000000000041435400454449540000000097
:104B2000454449542A000000524F4F5400000000F1
:104B300053554200C3970000C2B10000F0B58DB0DC
:104B40000E4604904420374F3C5A012538462946EA
:104B500002F093FF072000900394E0B2801E83B21E
:104B6000384629462A4602F0C7FA00253846294623
:104B700002F083FF2C49384602F085FF701E0228A0
:104B800003D880002AA10E5800E028A6254802215B
:104B90000722334602F03CFE049C002C3CD00295D8
:104BA000204F3846214602F00BFF05463846314675
:104BB00002F006FF06460398801BFA30C7B2E8B23F
:104BC000B84210D905AD1C2228462146FBF750FEFD
:104BD000029C2C77FBF70AFE2E2129542818C4705A
:104BE0008170417006E005A81F222146FBF740FEB8
:104BF0000299C1770B4D05AC2846214602F0E0FE34
:104C0000381AC10F401840083018001DC1B20722E1
:104C10002846234602F0FCFD0248012102F02DFF48
:104C20000DB0F0BDB0102020E09F00005B4D5D0096
:104C3000BD9F0000B99F0000B59F0000F0B593B084
:104C400005463820285C002800D1B4E12C463834D1
:104C5000DB48DC4902F017FF234600240495039348
:104C600009E00121D64802F008FF049D039B641C63
:104C7000042C00D19DE1286B06191878864200DBD0
:104C800097E1686B0028F2D0282171434258002A2E
:104C9000EDD00B226243099211320A92471801208B
:104CA00008901856311A4A1E9141401C4242424116
:104CB0000797387AC0B2031F5F425F4117430F4323
:104CC000ED6A0697012F059425D1089AAE42BC4D96
:104CD000079F0A9E00D0AFE004283FD14421685AC4
:104CE000042808914FD909980930022586B2B44C9E
:104CF000AFB220463946324602F042FC0A9882B2F0
:104D00002046394602F03CFC0898205A801EAD1C13
:104D10008542EDDB38E0AA4C2046089F394602F078
:104D2000ACFE4420205A092100910197001F83B254
:104D30000998093082B20221204602F03EFC00218F
:104D4000204602F09AFEAE422546059C079F0A9E29
:104D500072D1B2B2042128469BA311E04420285A04
:104D6000092100910192001F83B20998093082B293
:104D70000221284602F0D3FCB2B204212846934B0C
:104D800002F046FD58E08E4C099F3846093086B245
:104D9000022520462946324602F0F2FB0898205AA6
:104DA000C01E81B22046324602F0EAFB38460B3084
:104DB00086B220462946324602F0E2FB0898205A85
:104DC000C01E81B22046324602F0DAFB0D37BEB279
:104DD00020462946324602F0D3FB089FE05BC01E06
:104DE00081B22046324602F0CBFB09980F3086B2E2
:104DF00020462946324602F0C3FBE05BC01E81B26A
:104E00002046324602F0BCFB0A9886B2204629466C
:104E1000324602F0B5FBE05BC01E81B2204632464E
:104E200002F0AEFB04212046324669A302F0F0FCFA
:104E30002546059C079F0A9E3B68B2B20C21284676
:104E40000A9202F0E5FC2846624902F01CFE387A1C
:104E5000042803D8800061A10B5800E05EA3099AE2
:104E60004426A85B0A3881B20E3292B2284602F07C
:104E7000CFFC2846534902F006FE7868002815D07A
:104E8000397A0329089605D87944097949008F446D
:104E9000012917247E6A0068FBF720FE002E2DD022
:104EA000009001910BA8202132462CE00BA8002194
:104EB000017156480B900698002800D1D1E6D4E63F
:104EC0007A6A0368002A11D10BA820214BA2FBF7B4
:104ED0001DFA3E6A002E2ED140E00078002818D13D
:104EE00044A317E07A6A0368002A1CD00BA820218B
:104EF000FBF70CFA3E6A002E1DD12FE000900191C5
:104F00000BA820213F4AFBF701FA3E6A002E12D17E
:104F100024E037A30BA8202137A2FBF7F7F93E6A5C
:104F2000002E08D11AE00BA8202135A2FBF7EEF9DC
:104F30003E6A002E12D03046FBF758FC00280DD0F8
:104F400007460BA8FBF752FC2021091AB94205D9E4
:104F50001F210A1A0BA83146FBF736FC0BAE284678
:104F6000314602F02DFD0899695A2A46C5B2481B00
:104F70000E3881B210460A9F3A46334602F048FC8A
:104F80000698002800D070E60D4C089EA05B401BE0
:104F9000163881B220463A461BA302F039FCA05BCA
:104FA0000C3881B22046059C3A46084B02F030FC92
:104FB00057E613B0F0BD16A0FFF782FA13B0F0BDAC
:104FC000B0102020B3A200002A000000A49F00001F
:104FD0006F000000E09F00003F000000A89F00005D
:104FE000AA9F0000B39F0000A69F0000B19F000091
:104FF0004F4E00004F464600257300002575000007
:1050000025640000C19F00003C0000004E554C4C40
:105010004E6F205661726961626C6573000000001A
:10502000F0B585B000285CD004462F4D284602F02C
:1050300058F8A068002802D0207900284ED04420DB
:105040002F5C03974620285C04900226009001966E
:10505000002128460A463B4602F061FBB91E28465D
:105060008DB20127092239462B4602F049F90498EE
:10507000C01F82B21C4839462B4602F041F91A483B
:105080003146324602F07CFA0398C01E87B21648B9
:105090003946324602F074FA0498C01E85B21248AE
:1050A00031462A4602F06CFA0F4839462A4602F089
:1050B00067FA21792068FFF741FD2079401E012819
:1050C00003D82046FFF7BAFD02E02046FFF794FA26
:1050D0002046FFF7AFFB2046FFF748FC024802F0EE
:1050E000C4FC05B0F0BDC046B010202010B5134C74
:1050F000217881421BD0217C814201D1103416E0FD
:105100002021615C814201D1203410E03021615CBA
:10511000814201D130340AE04021615C814201D1F9
:10512000403404E05021615C814205D150340020BC
:10513000607000F0C1F9E06010BDC046140120208D
:1051400010B59CB004AC0A4960222046FBF78CF8ED
:105150000020029001900748009007480422074B66
:10516000214600F081F80648022101601CB010BD04
:10517000989C0000CD5F000074012020E55F0000D6
:1051800000E100E070B5364C2546103D2868C006A9
:1051900009D5206810210143216032484069002868
:1051A00001D000F00FF92868800609D52068202179
:1051B000014321602B488069002801D000F002F9EA
:1051C0002868400609D52068402101432160254810
:1051D000C069002801D000F0F5F82868000609D55C
:1051E00020688021014321601E48006A002801D008
:1051F00000F0E8F801262868000309D5F0042168CA
:10520000014321601748006D002801D000F0DAF852
:105210002868400309D5B004216801432160114882
:10522000C06C002801D000F0CDF82868000209D534
:10523000F0052168014321600A48006E002801D072
:1052400000F0C0F82868800409D570032168014384
:1052500021600448806B002801D000F0B3F870BDD5
:1052600048300A4080072020F0B585B00C4605463E
:10527000481E8141681E2E4686410E40501E114632
:10528000814131400191012953D10C980B990A9E1B
:10529000AB60EE60296168612A7128205043039059
:1052A0000027029704E0183428370398B84240D00A
:1052B0002868C551C2192420029E04901654206803
:1052C00050606168D160A3689360E36813612369EB
:1052D000D361636913629661AA6890470646401ECF
:1052E00086412868C11988680969AA68904700281A
:1052F00000D0B61C2868C2191675EB68002BD2D0F6
:10530000D0690D4998472968002804D0C819049B22
:10531000C25C521CC254CA19106AEB68064998470D
:105320000028C0D02868C019049A815C491C8154A7
:10533000B9E7019805B0F0BDC5530000F0B581B0E4
:10534000002400283BD00279914238D228224A43D7
:1053500001688D180169002902D00446884720465B
:105360002421695C012923D80646E9682F6868680A
:10537000BA6890470446BA68A868296990472A7DA8
:1053800003211140002C00D0091D0028304600D018
:1053900008318A082A75491E0D2909D81C4ACA40B5
:1053A000D20705D089001B4A5158AA695118A96132
:1053B000AC690021A9614069002800D080472046DF
:1053C00001B0F0BD70B50446C16806684068B268B7
:1053D00090470546B268A06821699047227D032165
:1053E0001140002D00D0091D002800D00831880888
:1053F0002075481E0D2809D80549C140C90705D0A8
:10540000800004490858A1690818A06170BDC04611
:10541000EF3D0000F89C0000F0B581B0254B5968C5
:10542000002930D0084628300A79022A26D0002ADE
:1054300029D10078002826D0002514262F4605E023
:105440002820085C361D6D1C85421CD28C59002C0E
:10545000F6D03A20205C8007F2D1E068002807D01F
:1054600000971F4680473B46009F59680028E7D0B9
:10547000F8B2CA6A824208D07F1CE1E7C96A027C9E
:10548000914200DA417401B0F0BD207903280BD1BC
:1054900025463A35A168002903D0E06B1E468847AF
:1054A000334628784007EED40020E06220635C6039
:1054B00001B0F0BDB4042020014800687047C04628
:1054C0005410202080B50D48FDF790F980BDC046EE
:1054D00080B50A48202100F0B9FDFF210A4680323C
:1054E000904200DD53E1411E8809042800D9A4E25E
:1054F000034804A24900515A49008F44FC0020206F
:10550000B89D00007C0243011A02400211022702EA
:105510000C0231029E0238029E02F8019E024702EE
:10552000450207029E029E029E0214029E029E02F5
:105530009E024C029E029E029E022C029E02FD01D1
:105540009E021F029E029E029E029E029E029E02DA
:105550009E0236029E029E029E029E029E029E02B3
:105560009E025B029E029E029E029E029E029E027E
:105570009E0256029E029E029E02E7019E029E022B
:105580009E0202029E029E029E0253029E029E0202
:105590009E029E029E029E029E029E029E029E020B
:1055A0009E023D029E029E029E029E029E029E025C
:1055B0009E029E029E029E029E029E029E029E02EB
:1055C0009E02EE019E029E029E029E029E029E028C
:1055D0009E029E029E029E029E029E029E029E02CB
:1055E0009E02F3019E029E029E029E029E029E0267
:1055F0009E0217029E029E029E029E029E029E0232
:105600009E02E9019E029E029E029E029E029E0250
:105610009E0251029E029E029E029E029E029E02D7
:105620009E029E029E029E029E029E029E029E027A
:105630009E029E029E029E029E029E029E029E026A
:105640009E02D6019E029E029E029E029E029E0223
:105650009E029E029E029E029E029E029E029E024A
:105660009E029E029E029E029E029E029E029E023A
:105670009E029E029E029E029E029E029E029E022A
:105680009E02DD019E029E029E029E029E029E02DC
:105690009E029E029E029E029E029E029E029E020A
:1056A0009E029E029E029E029E029E029E029E02FA
:1056B0009E029E029E029E029E029E029E029E02EA
:1056C0009E02D8019E029E029E029E029E029E02A1
:1056D0009E029E029E029E029E029E029E029E02CA
:1056E0009E0200029E029E029E029E029E029E0258
:1056F0009E029E029E029E029E029E029E029E02AA
:105700009E02E2019E029E029E029E029E029E0256
:105710009E029E029E029E029E029E029E029E0289
:105720009E0224029E029E029E029E029E029E02F3
:105730009E029E029E029E029E029E029E029E0269
:105740009E029E029E029E029E029E029E029E0259
:105750009E029E029E029E029E029E029E029E0249
:105760009E029E029E029E029E029E029E029E0239
:105770009E029E029E029E029E029E029E029E0229
:105780009E023A0208304068B449086080BDAD4AC4
:10579000904217DDAC4988422BDCAD4988426BDD75
:1057A00003214902884200D13BE1072109028842D6
:1057B00000D113E10F21C901884200D03DE105204D
:1057C000800116E1A34A904227DDA349884247DDC4
:1057D00003210902884200D111E10721C901884251
:1057E00000D1ECE00F218901884200D025E127207B
:1057F000FEE0964988424CDD03218902884200D1AF
:1058000015E107214902884200D1EDE00F2109028C
:10581000884200D011E12920EAE0E03188420FDC23
:105820000321C901884200D1CFE0072189018842C4
:1058300000D002E18248E83040688849086080BDB5
:105840000F214901884200D1C5E001214902884267
:1058500000D0F2E07A48483040688049086080BD56
:1058600011214901884200D1C1E00521C9018842C6
:1058700000D0E2E03120BBE001218902884200D162
:10588000C3E005210902884200D0D6E019200001BA
:10589000AFE00121C902884200D1BCE005214902E4
:1058A000884200D0C9E03320A2E02F20A0E0E03001
:1058B00040686A49086080BD903040686749086068
:1058C00080BD403040686549086080BD23208FE07E
:1058D000383040686149086080BD883040685F4961
:1058E000086080BDD83040685C49086080BD703079
:1058F00040685A49086080BD1120000179E02520E8
:1059000076E0303040685549086080BD20304068FE
:105910005249086080BDB83040685049086080BD79
:105920001520000165E00B20400162E009204001E4
:105930005FE0603040684949086080BD28304068B9
:105940004649086080BD1B20000152E06830406875
:105950004249086080BDC83040684049086080BD49
:10596000183040683D49086080BD2D2040E02B2064
:105970003EE00320C0013CE01720000139E0103078
:1059800040683649086080BD212031E0C030406861
:105990003249086080BD783040683049086080BD79
:1059A000352025E00D20400123E0D03040682B4910
:1059B000086080BD803040682849086080BD20486C
:1059C000F03040682549086080BD1D489830406827
:1059D0002249086080BD132000010AE01848F83011
:1059E00040681E49086080BD0120000201E03720A8
:1059F000C0001349081840681849086080BD104865
:105A0000A03040681549086080BD0D48503040689E
:105A10001249086080BD0A48583040680F49086044
:105A200080BD0748A83040680C49086080BD044824
:105A3000B03040680949086080BD0848006880BDF2
:105A4000B89D0000FF030000FF070000FF0B0000EF
:105A5000FF0500001F020000FF0200007807202061
:105A600070B543B220490A461032002B154600DAC1
:105A70000D4601235C062C60DD030D600D614606BA
:105A8000164600D50E4634600D600D61860616463A
:105A900000D50E4634600D600D61C606164600D571
:105AA0000E4634600D600D610607164600D50E46A1
:105AB00034600D600D614607164600D50E46346011
:105AC0000D600D618607164600D50E4634600D60E8
:105AD0000D61C00700D00A4614600D600D61980387
