:020000040000FA
:10000000A0642020C1020000C50200007922000087
:1000100000000000000000000000000000000000E0
:100020000000000000000000000000008523000028
:10003000000000000000000041230000DD28000057
:10004000CF02000089210000CF0200005D290000DE
:10005000CF020000CF020000CF020000CF0200005C
:1000600000000000CF020000CF02000000000000EE
:1000700000000000CF020000CF020000FD280000B9
:10008000CF020000CF020000CF020000CF0200002C
:10009000CF020000CF0200000000000000000000BE
:1000A000CF020000CF0200000000000000000000AE
:1000B000CF02000000000000CF020000CF020000CD
:1000C00000F002F800F0D1F812A030C80838241867
:1000D0002D18AC4201D100F0C8F80FCCA246AB46B7
:1000E0000CA730CF2D1B083F3F197C427F1E544484
:1000F0002D090426F441641EAC4201D300F0B5F88A
:100100000126334200D0FB1A3343984754465D46DC
:10011000DFE70000E4580000045900000000000080
:10012000103A02D378C878C1FAD8520701D330C840
:1001300030C101D504680C60704700000000000069
:100140007047000000000000002300240025002666
:10015000103A01D378C1FBD8520700D330C100D583
:100160000B60704710B56E2902D100F047FD10BD3D
:10017000702902D100F05FFA10BD662902D105F0A6
:1001800013FB10BD652902D105F00EFB10BD6729D8
:1001900002D105F009FB10BD612902D105F00CFB6D
:1001A00010BD03681B0A01D380231943692902D1BA
:1001B00000F036F910BD642902D100F031F910BD0C
:1001C000752902D100F02CF910BD6F2902D100F081
:1001D000DDF910BD782902D100F01AFA10BDE92925
:1001E00002D101F0E3F810BDE42902D101F0DEF8FC
:1001F00010BDF52902D101F0D9F810BDEF2902D1C7
:1002000000F0D0F910BDF82902D100F00FFA10BDAE
:100210000368DB0901D380231943632902D101F06C
:10022000A2F810BD732902D101F0A5F810BDE32991
:1002300002D101F0AFF810BDF32902D101F0B2F8FC
:1002400010BD002010BD1FB501F026F904000020EC
:10025000002105F039F9401C60600020002105F004
:100260001DF9E0601FBD10B510BD01F0FDFC114689
:10027000FFF7E9FF02F086FE01F015FD03B4FFF77A
:10028000F2FF03BC01F0C0FD70B505460C461646F2
:1002900002E00FCC0FC5103E102EFAD2082E02D36A
:1002A00003CC03C5083E042E07D301CC01C5361F7D
:1002B00003E021782970641C6D1C761EF9D270BD94
:1002C00006480047FEE7FEE7FEE7FEE7FEE7FEE73B
:1002D00003480449044A054B70470000C100000070
:1002E000A02F2020A0642020A05F2020A05F20203D
:1002F0004343514330B55C18010C130C0D4692B2C8
:100300005D4380B251432C19054655430A0C09043C
:100310004D1962415843010C00044019514130BD50
:100320007CB51D4616460C00009007D04142A14204
:1003300002D30019401E01E00020C043064B7B445D
:100340002A4669460190304600F0E7FF002C02D0B3
:10035000009A002111707CBDFF0F000070B50446AB
:1003600085690068C10601D5302600E02026C00757
:1003700007D070BD62683046A1689047206A401C73
:1003800020626D1EF6D570BD70B504468569007893
:10039000C00707D170BD6268A16820209047206A1D
:1003A000401C20626D1EF6D570BD09684A0501D556
:1003B00040B27047C905FCD500B2704709684A05CC
:1003C00001D5C0B27047C905FCD580B2704770B581
:1003D0000C460546012A05D02878800600D5EA6932
:1003E000002302E0012305E05B1C934202D2E05CA3
:1003F0000028F9D1A869E618C01AA861286AC018AF
:1004000028622846FFF7AAFF04E06A682078A968F6
:10041000641C9047B442F8D32846FFF7B5FF70BD7F
:10042000F7B5002575291068009914A611D0FFF7BB
:10043000BCFF002802DA404211A608E000990968D2
:100440008A0701D50FA602E0490704D50EA60125AB
:1004500001E0FFF7B3FF009F0024243704E000F021
:10046000FEFF30313955641C0028F8D12B46324646
:100470002146009800F06AFBFEBD0000000000006D
:100480002D0000002B00000020000000F7B50446FE
:10049000154686B02B487844002703C83E46009096
:1004A000019111E007986A467100415A02A800F0D4
:1004B000B5FF411C07D02178890603D5E2693918B8
:1004C00091420ED83F18761C2078800602D5E0694C
:1004D000B84206DDAE42E5DB07987100405A0028BD
:1004E000E0D1A069C01BA0612046FFF737FF154887
:1004F00078445A3803C800900020019116E041006A
:100500006A460798415A02A800F088FF0590401CEF
:100510000AD0002505E0626802A8A168405D904706
:100520006D1C05988542F6D30498401CB042049097
:10053000E5DB206AC01920622046FFF725FF09B0DD
:10054000F0BD00002E53000070B504460021243495
:1005500008E05507D2086D0F303565545D072A4312
:10056000DB08491C15461D43F3D10468002310A283
:10057000250708D520252C400C4304D0C46901234D
:100580000CA2641EC46100F0E1FA70BD10B504460F
:1005900021461068FFF712FF002302462046FFF7AE
:1005A000D3FF10BDD21DD108C9000CC9CCE7000093
:1005B0000000000030000000F8B50F460188090572
:1005C00002D5224C7C4402E0204C7C440E3405468B
:1005D0000021243508E016071209360FA65D6E5477
:1005E0001E0732431B09491C16461E43F3D12246FF
:1005F00004780023240705D5702F06D0002901D0E8
:100600000223113200F0A2FAF8BD01231032F9E7FB
:1006100070B504460D4621461068FFF7CFFE002353
:10062000024629462046FFF7C7FF70BDD21DD308FA
:10063000DB000CCBC0E730B40368202412682343EE
:1006400003600823C36130BC0023B5E708520000F3
:10065000F3B50446002081B020622046E168884757
:10066000002872D0252802D06268A168ABE0594FFB
:1006700000267F442046E16888472028054608DB9D
:10068000312D06D2781920380078002801D0064391
:10069000F0E7B00701D5042086430020E06107465B
:1006A000A0612A2D0AD0284604F0F0FE002827D0A9
:1006B000B8000019303D0090856119E00298BA0039
:1006C000121902C8916102902046E1688847012F03
:1006D000054617D1E06900281FDA202086431CE078
:1006E00000980A2180694843009940193038886190
:1006F0002046E1688847054604F0C8FE0028EFD18F
:10070000012F0AD02E2D08D12046E16888470546E2
:10071000202006437F1C022FC3DBA069002803DAD8
:100720004042A06101200643F00701D0102086431B
:100730006C2D0BD0682D09D04C2D3CD06A2D38D0B3
:10074000742D38D07A2D36D016E040E0E1682F467F
:1007500020468847B842054609D16C2F29D0012090
:100760008002E168064320468847054604E06C2F76
:100770001DD0FF2001300643002D28D028464138E7
:10078000192803D80120C0020643203520462660E0
:100790002946029A1646FFF7E5FC002810D00128EA
:1007A0000BD0F61DF008C0000830029055E740203D
:1007B000E1E78020D5E70020D3E7361D02964CE71D
:1007C00062682846A1689047206A401C44E7206A76
:1007D000FEBD00008251000030B5441C03E00178EA
:1007E000401C00290DD08107F9D10B4BDD0104C855
:1007F000D11A91432940FAD0001B0A0603D0C01E2B
:1008000030BD001B30BD0A0401D0801E30BD09027E
:10081000FCD0401E30BD000001010101F8B5042AE2
:100820002CD3830712D00B78491C0370401C521E36
:1008300083070BD00B78491C0370401C521E8307A2
:1008400004D00B78491C0370401C521E8B079B0F71
:1008500005D0C91ADF002023DE1B08C90AE0FFF714
:1008600013FDF8BD1D4608C9FD401C46B4402C438D
:1008700010C0121F042AF5D2F308C91A521EF0D470
:100880000B78491C0370401C521EEAD40B78491C9B
:100890000370401C012AE4D409780170F8BDD2B27B
:1008A00010B513029A1813049A1800F001F810BD3D
:1008B00001E004C0091F0429FBD28B0701D5028087
:1008C000801CC90700D00270704700290BD0C307F5
:1008D00002D00270401C491E022904D3830702D5AE
:1008E0000280801C891EE3E70022EEE70022DFE79A
:1008F000002203098B4273D3030A8B4258D3030BA4
:100900008B423CD3030C8B4221D312E003460B43B2
:100910007FD4002243088B4274D303098B425FD3F8
:10092000030A8B4244D3030B8B4228D3030C8B4224
:100930000DD30902FF2212BA030C8B4202D312120A
:10094000090265D0030B8B4219D300E0090AC30BDF
:100950008B4201D3CB03C01A5241830B8B4201D38C
:100960008B03C01A5241430B8B4201D34B03C01A75
:100970005241030B8B4201D30B03C01A5241C30AED
:100980008B4201D3CB02C01A5241830A8B4201D35E
:100990008B02C01A5241430A8B4201D34B02C01A48
:1009A0005241030A8B4201D30B02C01A5241CDD2ED
:1009B000C3098B4201D3CB01C01A524183098B4238
:1009C00001D38B01C01A524143098B4201D34B0121
:1009D000C01A524103098B4201D30B01C01A524184
:1009E000C3088B4201D3CB00C01A524183088B420B
:1009F00001D38B00C01A524143088B4201D34B00F4
:100A0000C01A5241411A00D2014652411046704765
:100A10005DE0CA0F00D04942031000D3404253406A
:100A20009C46002203098B422DD3030A8B4212D32A
:100A30008901FC2212BA030A8B420CD3890192115C
:100A40008B4208D3890192118B4204D389013AD099
:100A5000921100E08909C3098B4201D3CB01C01A6E
:100A6000524183098B4201D38B01C01A5241430981
:100A70008B4201D34B01C01A524103098B4201D36F
:100A80000B01C01A5241C3088B4201D3CB00C01ADC
:100A9000524183088B4201D38B00C01A5241D9D2F4
:100AA00043088B4201D34B00C01A5241411A00D275
:100AB00001465241104663465B1001D34042002B71
:100AC00000D54942704763465B1000D3404201B5F0
:100AD0000449002802DC491C084000E00846C046E2
:100AE000C04602BDFFFFFF7F7047704770471F225F
:100AF000030C02D10F2200041CD0030E01D100020E
:100B0000083A030F01D10001121F830F01D18000A9
:100B1000921E002801DB4000521ED205511802121D
:100B200051181922904004D3491C002801D14908CA
:100B3000490008467047C10FC90700D04042012252
:100B400092071143D3E701218907D0E7FFB5044697
:100B50000D4681B0243000902168880604D510220B
:100B6000E0699143216000E00120A84201DD471BBC
:100B700000E000270498A1697A191018081AA061EA
:100B80002078C00602D42046FFF7E8FB002608E0E4
:100B900003986268A168805D9047206A401C761CBB
:100BA000206204988642F3DB2078C0060AD52046EE
:100BB000FFF7D4FB06E06268A16830209047206A06
:100BC000401C206238467F1E0028F4DC07E00098B5
:100BD0006268A168405D9047206A401C20622846F8
:100BE0006D1E0028F3DC2046FFF7CEFB20780006C0
:100BF00002D5022005B0F0BD0120FBE711680268B4
:100C0000006A530501D5087009E0D30501D50880B5
:100C100005E0130602D5C21705C100E008600120F7
:100C200070470000FFB50C461E468FB003CA0890FF
:100C300009914F007D0D00D16D1E00210846002056
:100C4000C0460321099A89050840002A03DA820078
:100C5000801840080840800D01280A9002DD00201D
:100C6000C0430A90089807430DD0F048F04928186F
:100C700048430714189800281DD07542291E1DDD11
:100C80000A9842421BE01898012802D00020302127
:100C900004E00020F24305E02154401CB042FBDB9D
:100CA00030460022189B002121540F998B600A6066
:100CB000486013B0F0BDBD1B6D1CDFE70A9A002928
:100CC00000DA69420BA800F06DFC0BAB07CB03AB5D
:100CD00007C30899099800F0D1FC6B4607C3014689
:100CE000D4480918002D00910BDDD24903980A9AC7
:100CF00049424018002303A90390684600F02EFFE4
:100D000008E003990A9A0023081803A9039068468B
:100D100000F0CEFE6B4607C30004000C03D0002099
:100D2000C043410800E01046189A002A03D0002270
:100D3000009215461EE0751E05D400F0B1FB30325E
:100D400062556D1EF9D501220843079602D0002294
:100D50007F1C04E02078302801D100227F1E002A69
:100D6000069787D01EE0112D07DA00F099FB30328C
:100D700062556D1C02460A43F5D1084303D0009822
:100D8000002819D00EE00021681E05E0235C625C9B
:100D900063542254401E491C8142F7DBA81B401EAD
:100DA00007950690079A18990020A0540F98079B62
:100DB000069A81600CC07CE711260020189059E744
:100DC000D21DF0B50D460446D10893B0C90003C941
:100DD0000C900D9104F02CFB02460D98C00F01D031
:100DE0002D2007E02068810701D52B2002E0400775
:100DF000C00F4001032A0F9001D0072A05DB0346EC
:100E00002946204600F08AFB0EE12078800601D5B5
:100E1000E76900E006272846652D04D0662814D02F
:100E2000672D69D12DE00020112F009001DB1123E7
:100E300000E07B1C0CAA03A910A8FFF7F3FE119990
:100E4000002610987D1C0E9142E001203B460CAA22
:100E5000C0070B900120009003A910A8FFF7E2FE45
:100E6000119D12981099002600280E9501D1781C2A
:100E70000D18781B02D446427D1C761EE81B00909C
:100E80003AE0012F00DA01270020112F009001DD48
:100E9000112300E03B460CAA03A910A8FFF7C2FEED
:100EA00011993D46109800260E91217809070BD420
:100EB0000E99A94200DA0D4603A9012D04DD4A1955
:100EC000203AD27F302A06D0B84201DA011D04DA76
:100ED000012100910FE06D1EEFE7002802DC86196A
:100EE0002D1A03E0411CA94200DD0D46801B401C69
:100EF00000900120C0070B902078000705D40098CF
:100F0000A84202DB0020C043009069460020C8725E
:100F10000B98012102AF0337C907884225D0022070
:100F200010902B2011900B9800280BDA40420B9068
:100F30002D20119006E00B9800F091FA30317F1EC1
:100F40000B9039701099481E00291090F3DC0B9813
:100F50000028F0D111987F1E38702088000501D537
:100F6000452000E065207F1E387001A8C01BC01D11
:100F70000B900F98002800D0012041190098C0174D
:100F800009180B980818A169081A401EA06120785A
:100F9000C00602D42046FFF7E1F90F98002805D0DB
:100FA0006268A1689047206A401C20622078C006D1
:100FB00025D52046FFF7D2F921E0002E07DB0E9859
:100FC000B04204DD03A86268805DA16802E0626847
:100FD000A16830209047206A761C401C206200984F
:100FE000401E002800900AD100F056FAC0686268DE
:100FF0000168405CA1689047206A401C2062284636
:101000006D1E0028D9DC07E062683878A1687F1C73
:101010009047206A401C20620B99481E00290B90C3
:10102000F2DC2046FFF7B0F9032042E601FCFFFFA7
:10103000104D0000E1DFFFFFD21DF0B504460D4664
:10104000D0088DB0C000466807683146384604F0C5
:10105000EFF90246F00F01D02D2307E02068810749
:1010600001D52B2302E04007C00F43016846002B47
:10107000037001D0012000E00020032A0A9001D073
:10108000072A04DB2946204600F048FA2DE12078A3
:10109000800601D40D2500E0E5697000400D0D2D9E
:1010A00001904BDA300D00210B9008460020C0461D
:1010B000032189050840002E05DA82008018C20F3E
:1010C0001018401008408015012801DD0020C043A1
:1010D000A9000023182906D39C460A460123183A82
:1010E0001B07D34003E001221205CA4094460C318D
:1010F000202902D33A46203900E032468A400028AF
:1011000002DD002A06D119E0002817D10121C90704
:101110008A4213D3194663467F185E41002806D1E0
:101120000120C007824202D1084687439E430B98A4
:10113000310D814202D00198401C019020880005A9
:1011400002D57149794402E06F49794419396B46F7
:101150000A9830221A540A980A7C401C1A54401CDF
:101160000A900198002801DC302000E0312018723C
:10117000019A0120002A02D0644BD21804E07200C8
:101180003A4302D0614A521C0192002D02DC2278BF
:10119000120703D56A462E2050720220002286468E
:1011A00094460CE032033601120F6D1E8B5C02AACE
:1011B00013546246521C401C9446052A01DA002D45
:1011C000F0DC002202AE08E03B0F3F01CB5C521C7A
:1011D0006D1E3354401C082A01DA002DF4DC23680C
:1011E0009A0601D511E0401E704504DD3218203A00
:1011F000D27F302AF7D0002807DD3218203AD27F7C
:101200002E2A02D11A0700D4401E002D03DD3E22F3
:101210003254401C6D1E497C31540199401C0029F8
:1012200006DA2D21471C315401984042019003E019
:101230002B21471C315401987D21C900884206DBCF
:10124000FFF764FB3030F0557F1C019101E064280A
:1012500008DB01986421FFF759FB3030F0557F1C03
:10126000019101E00A2806DB01980A21FFF74EFBF5
:101270003030F0557F1C01980A21FFF747FB3031D1
:10128000F1550A98A1697F1C7A191018081AA061F3
:101290002078C00602D42046FFF760F8216A6E4627
:1012A0000A980818206204E062683078A168761C09
:1012B00090470A98401E0A90401CF5D12078C0063D
:1012C00002D52046FFF74AF802AE09E03078761CD6
:1012D0003E280DD06268A1689047206A401C2062B9
:1012E0007F1EF3D22046FFF74FF80DB00320F0BD6C
:1012F000206A4019206203E06268A16830209047AC
:101300006D1EEDD3F8E70000D446000001FCFFFF9E
:1013100001694A1C02610878704700B58FB00291DC
:1013200000210591054901937944039111460490E8
:101330006846FFF78DF90FB000BD0000E5FFFFFF25
:101340000CC908399A4202D2531C0B6010707047C6
:1013500010B54369002B02D0C046C04601E0FFF73C
:1013600036F8012010BD1278014624310A7000229F
:101370004A700122ECE711680022D243E8E710B579
:101380004369002B02D0C046C04601E0FFF77EF85B
:10139000012010BD12880146243182840022C284BB
:1013A0000122ECE711680022D243E8E7F7B5D21D2D
:1013B0000025D20815A6D200F52905CA11D0002AA9
:1013C00005DA00214042914111A60A4608E0009941
:1013D00009688B0701D50FA602E0490701D50EA6C3
:1013E00001251146009F0024243704E000F058F83E
:1013F00030323A55641C02460A43F7D12B46324636
:1014000021460098FFF7A2FBFEBD0000000000008F
:101410002D0000002B00000020000000F8B516464B
:101420000C46054600F030F80368FF200230C05C2F
:10143000012807D0FF2C0FD8185D00280CD0012000
:101440002C70F8BDFF333246214608331868C718A0
:1014500028460023B847F8BD0020C043F8BD014628
:101460008008081A02091018020A1018020C101835
:10147000C008820012185200891A01E0401C0A3983
:101480000A29FBD27047000010B500F005F8001DD6
:1014900010BD00BF3540000000487047E800202024
:1014A0000B4670B5024689078008084319469D0817
:1014B000141AA94125090807054308092C194841B0
:1014C000250A01060D43010A2C194141200C0D0487
:1014D00028430D0C00194D41002140194D41C00811
:1014E00069070843E908840F8D0025438400241808
:1014F0004D4124196D41121BAB4107E00925ED4315
:101500002C11521963410024401C61411C460A25DC
:101510000026551BB441F1D270BD0000F8B51F463E
:10152000044601230068DB02032601461840072A0F
:1015300005DB002801D017A506E017A504E0002868
:1015400001D016A500E016A5102081432160A069F6
:10155000C01E002FA06101D0401EA0612046FEF7F2
:10156000FDFE002F09D038466268A1689047206AC6
:10157000401C2062C01C206206E0206AFAE7626814
:101580002878A1686D1C9047761EF8D22046FEF799
:10159000FBFEF8BD4E414E006E616E00494E4600A6
:1015A000696E6600F7B516468AB0334878446C46D3
:1015B00003467C33C06F5A689B680DC42E4878443C
:1015C000763003AC0DC80DC43720C0010818372190
:1015D0001B30FFF79BF905460C46803D1B3C02D5AE
:1015E0006442012000E000200027099010E0E0079D
:1015F0000CD00C2020497843794432464C394118AC
:101600006846012300F054FA6B4607C364107F1C40
:10161000002CECD1184F7F442E3F16E0E80712D083
:101620002001C0190EC80691089307920068F04285
:1016300001D1981908903246012306A903A800F0A9
:1016400037FA03AB07C36D10641C002DE6D109986F
:10165000002806D032466946012303A800F07EFA2E
:1016600005E001233246694603A800F021FA0A9BEF
:1016700007C30DB0F0BD00008042000003464000EB
:101680000A4610B5400D0BD00121C9070F24A40252
:1016900000191C0364082143540D2143D20207E0C2
:1016A00000210120F2E7D40F490021435200401EDF
:1016B0000029F8DADB0FDB07184310BDFFB50D4634
:1016C000144685B04868516803F099FE0091019076
:1016D000A868A16803F093FE02910390A86861686E
:1016E00003F08DFE029A12188242029201D201206A
:1016F00000E00020019A0B18D2180028019202D0B5
:101700008A4202D903E08A4201D2012000E000208F
:101710000099081800906868A16803F070FE029AAA
:1017200012188242029201D2012000E00020019AA8
:101730000B18D2180028019202D08A4202D903E085
:101740008A4201D2012000E0002000990818009090
:101750002868216840004900400849084018FA49B3
:10176000471814E001994000C90F08430090019800
:1017700002994000C90F0843019002980399400064
:10178000C90F08430290039840007F1E0390009801
:101790000028E7DA0898002801D0EC4E00E0002687
:1017A000B74201DA012000E00020002804902AD08E
:1017B000F71BF806C00E15D0029B2021091A039AC8
:1017C0008B401A430392029A019BC2408B401A43FA
:1017D0000292019A009BC2408B4000991A430192E9
:1017E000C14000917B110DD06F460320C11A03D573
:1017F00000218200B95003E08A008100BA587A5073
:10180000401EF3D5374603980299002800D00120E6
:10181000014308980291002808460CD0002800D007
:1018200001200199019A490508430121D20AC90200
:10183000D202019200E001210E9B0122D207012B6E
:1018400002D0002B03D013E0002807D120E0904203
:1018500004D890420CD1019B0B4209D0019B59182E
:10186000019105D10099491C009101D17F1C009282
:1018700000280DD0102108460020C04604980028FA
:1018800006D00F98002803D0082108460020C04643
:1018900028682168019B009A4840C10F0598C90734
:1018A00039430EC009B0F0BDFFB587B0099A08985A
:1018B00008995368926840688968964600220393A5
:1018C00017469446089A12685300099A5B081268F2
:1018D000520052089A1A9E4BD4180A9A002A01D034
:1018E000352200E040220692002201231546049290
:1018F000DB07059324E0002D05D175460346039EC2
:101900004D1BB34109D375466646039B491B049D95
:101910009841059B7519AC465F4163463B4308D02F
:10192000059B049EDD0776082E435B08049605930D
:1019300001E0521E641EC50FED0749184041521CBC
:10194000069B9A42D7DB002D04D17546039A6B1A89
:10195000824101D203200CE0039A0B466B404240C7
:10196000134303D0014303D0012002E0022000E032
:101970000020614601910021009702910A990029F7
:1019800005D0614640020143704B019102E080079F
:10199000002302909C4201DA012000E000200700B1
:1019A0003AD01A1BD006C00E15D0029D2021019CF2
:1019B000091AC5408C402543029C8C4000D001246C
:1019C0002543019C0295009DC4408D4000992C4305
:1019D0000194C140009154111DD06D460221002296
:1019E00002290CD10320001B07E0002804DB86003D
:1019F000AE59002E00D00122401C0328F5DB081B45
:101A000002D588002A5004E08000285810438A003C
:101A1000A850491EE3D51C460A98002802980CD00D
:101A2000002800D001200199019A490508430121AD
:101A3000D20AC902D202019200E00121109B0122C8
:101A4000D207012B02D0002B03D013E0002807D1CE
:101A50001FE0904204D890420CD1019B0B4209D068
:101A6000019B5918019105D10099491C009101D1A0
:101A7000641C009200280CD0102108460020C046AB
:101A8000002F06D01198002803D008210846002016
:101A9000C04608980999019A009B00680968484067
:101AA000C10F0798C907214382600AC00BB0F0BD7F
:101AB00000B585B0019300920A460146002302A8B2
:101AC000FFF7FCFD02A807C805B000BDFFB50A4638
:101AD0001F4685B00799019301230091014602A892
:101AE000FFF7ECFD02990398049ECA0F4900D20744
:101AF00000920F22490892028C1A0021002800DB74
:101B00000C46450013486D08844214D3079A002AF6
:101B100004DA441E0026104DF64302E004460D464A
:101B20000E46102108460020C046002F03D0042195
:101B300008460020C0462005E90A084300990843EA
:101B40006905F20A1143ADE602C0FFFF013C000047
:101B5000FF3F0000FF070000FFFFFF7F00B585B0DB
:101B6000019300920A460146002302A8FFF79CFE5B
:101B700002A807C8A8E7FFB50A461F4685B007991F
:101B8000019301230091014602A8FFF78DFE0299FF
:101B90000398049ECA0F4900D20700920F224908F9
:101BA00092028C1A0021002800DB0C4645001148E7
:101BB0006D08844214D3079A002A04DA441E0026D2
:101BC0000D4DF64302E004460D460E461021084630
:101BD0000020C046002F03D0042108460020C04644
:101BE0002005E90A0843009908436905F20A1143F0
:101BF00058E60000FF070000FFFFFF7F10B5FF233E
:101C00001B0644009C421DD84C009C421AD8034637
:101C1000124A0B4307D4401A02D3EFF3008010BDE1
:101C2000EFF3008010BD081A03D3EFF30080904358
:101C300005E0EFF3008001219043C907084380F3DA
:101C4000008810BD0D231B041A4204D01146002049
:101C500000F08AF810BD00F09FF810BD0000009061
:101C600000487047C80020207546FFF7F9FFAE46D0
:101C7000050069465346C008C000854618B020B527
:101C8000FEF726FB60BCB64600260027C0C5C0C5CF
:101C9000C0C5C0C5C0C5C0C5C0C5C0C5403D490858
:101CA00049008D46704710B50446C046C0462046E0
:101CB000FEF7E4FA10BD000082078B079A423FD17D
:101CC00070B5920F0AD0032402780B78401C491C8F
:101CD000002A33D09A4231D12042F5D1214EF4016D
:101CE00004C808C9951B9543254018D19A420FD1C5
:101CF00004C808C9951B9543254010D19A4207D1C5
:101D000004C808C9951B9543254008D19A42E7D0DD
:101D100012BA1BBA01209A4200D2404270BD12BAD8
:101D20001BBA2DBA18241000E0401900E140401AF7
:101D300005D12E00E64002D1083CF4D1D01A70BD86
:101D400002780B78401C491C002A09D09A4207D11E
:101D500002780B78401C491C002A01D09A42EFD02F
:101D6000D01A704701010101C80212D54803400F83
:101D7000002804D0C803C043012188407047EFF316
:101D800000800001000903210907084380F300884F
:101D9000704700207047000010B5024800F004F8BA
:101DA00010BD00000000C07F10B50C461107090FE0
:101DB000092904D00A290AD008290CD104E01146C7
:101DC0000820FFF7D1FF06E0510606D501E05106D5
:101DD00001D50120C007214610BDD10607D501015C
:101DE0000909CC084907000E0006044309E0410F29
:101DF00020024907000A0143200E00061D22D1419E
:101E000001430846E7E7000001491820ABBEFEE7A2
:101E1000260002007047811E091F00BFFCD27047D8
:101E200070B50B01C31854689568254394892C43F9
:101E3000156956692543D48924012C43350125436E
:101E4000092464021D51137852781A43BF231A40A3
:101E500089004018024944589C43A218425070BD62
:101E600010110000B0B51122120283580C4C1C4016
:101E70000B894D881D438B792B430A4D1D402B192F
:101E800083508B88CC791C43097821435D239B00C8
:101E90001940801842689A4389184160B0BDC04615
:101EA00080CCFFFF7F33000010B50122120383189E
:101EB0000C785C604978815010BD0000F0B584B0AA
:101EC000012422022A4B1968039291431960354973
:101ED0000D686D04FCD5457E25409E69A6437419A6
:101EE0009C612024045D03252C40DE69AE43341937
:101EF000DC61204C256805262660466A37681F622B
:101F000076685E6207262E402660C4697F252D0212
:101F1000DE69AE436406640C3419DC610768456809
:101F200082680092C66802690192426902929A69C7
:101F3000114C14403A07120B2D03ADB2AA183243CC
:101F4000009D2D072D0D1543019A1543029A154347
:101F5000007E2843094A0240101998611868039AC4
:101F60001043186008688005FCD504B0F0BDC04679
:101F700008010B40001340408D00F0FF72FF0F007E
:101F800007498860074802689202FCD501221204C2
:101F90000B6813430B600168C906FCD57047C04647
:101FA00004010B4004020B40F0B53C4A82183C4B44
:101FB000C31808794E793B4D3B4C002E23D0202886
:101FC00004D00526F601002803D003E0374E002890
:101FD00000D18826576F2F4037435767976F2F40A0
:101FE00037439767566B26405663966B2640966339
:101FF0000026566596658F26F6435F6837405F601A
:102000009F6837409F608E79096820280BD0002890
:1020100019D1491E5160D76E2F4088210F43D766D2
:102020001746703719E0491E5160D16E29401F4F85
:102030003943D166116F294039431167012149079E
:102040001B4D174609E049085160D76E2F40052106
:10205000C9010F43D766174670373C682C400C43C4
:102060003C60D16A104C2140D162116B2140116358
:102070000021D16411658F21C943D46F0C40D4670E
:102080001C680C401C600643BD2030401168094BA1
:102090000B40C018801C1060F0BDC0460418000042
:1020A0008418000024493E008888FDFF01040000D8
:1020B000FFFFFFCF4000FFCF10B507239B0419405F
:1020C00092008018024A84589C436118815010BDC8
:1020D0003018000010B5029CA400001911431943E8
:1020E000014A815010BDC04650180000920080186F
:1020F000014A81507047C0461018000010B50122F7
:10210000120383180C789C604B7883508978014ABD
:10211000815010BD0C110000B0B51122120283587D
:102120000124A34383500B888C781C438B88234362
:10213000094C1C408358094D1D40631983508B790D
:10214000CC791C43097A21437E23194080184268C8
:102150009A4351184160B0BD18670000E798FDFF31
:1021600010B50122120383180C789C6049788150C5
:1021700010BD0000034A801802681206FCD4816179
:102180007047C0460811000070B5384800688007E5
:102190006BD5374C2546103D2868C00609D5206808
:1021A00010210143216033484069002801D000F02C
:1021B00055FE2868800609D520682021014321604A
:1021C0002C488069002801D000F048FE28684006AD
:1021D00009D520684021014321602648C0690028B4
:1021E00001D000F03BFE2868000609D52068802158
:1021F000014321601F48006A002801D000F02EFE34
:1022000001262868000309D5F004216801432160F4
:102210001848006D002801D000F020FE2868400317
:1022200009D5B0042168014321601248C06C002820
:1022300001D000F013FE2868000209D5F0052168DE
:10224000014321600B48006E002801D000F006FE1B
:102250002868800409D5700321680143216005487E
:10226000806B002801D000F0F9FD70BD40114040A6
:1022700048300A401003202004A000F01FF803207B
:10228000012100F012FF72B6FEE7C0462121212095
:10229000556E68616E646C656420496E7465727217
:1022A00075707420486172644661756C745F486132
:1022B0006E646C6572202121210A000083B0B0B5E4
:1022C000C1B0044645914692479345AB0093012027
:1022D000010201AD28462246FEF722F8044805A176
:1022E0002A4600F031FC41B0B0BC01BC03B000474D
:1022F000E45900005B4552524F525D0083B0B0B5C7
:10230000C1B0044645914692479345AB00930120E6
:10231000010201AD28462246FEF702F804480549AD
:102320002A4600F011FC41B0B0BC01BC03B000472C
:10233000E4590000EC59000000000000000000001B
:10234000EFF309800E4B1A6820381060F0C0444645
:102350004D4656465F46F0C008B572B602F004F925
:1023600062B60CBC116808681030F0C8A046A946D7
:10237000B246BB4680F309882038F0C81847C046EB
:102380005008202070470000F0B581B01C4C1D495A
:102390002046FFF7B3FE1C492046FFF705FE1B4809
:1023A0000168A24A0A40026000250095204629469D
:1023B0002A462B46FFF78EFE204629462A46FFF77F
:1023C0007BFE7D20C600204631462A46FFF78EFE62
:1023D00001270097204629462A462B46FFF77AFE1A
:1023E000204629463A46FFF767FE204631463A46E0
:1023F000FFF77CFE064887600321016001B0F0BD55
:1024000000A086405C5900006059000004B8864076
:1024100000B1864080B503480021034AFFF700FD64
:1024200080BDC04600A042406859000080B5FFF75B
:10243000F1FF80BD70B52C4984220A602B4801232E
:1024400003604A60022404604A6380220260284AD2
:10245000832494639D05056087251565DE05066068
:10246000D566DB06036082230B65224D4D658B63C9
:10247000CD639461CC676B1C5361812313665366F3
:10248000536413609362D3631B4C0C670C664C66F9
:102490008C661A4C0C644C648C65CC651463D462F5
:1024A00094644C67536093608B6493669365136187
:1024B000D36001463039124A0A600260114812495D
:1024C0000160016311480168114A0A430260016911
:1024D000104A0A4302611048016A104A114301621E
:1024E00001681143016070BD04804240D0120A406F
:1024F000848042408200040081000E0081000C00B4
:1025000000F10006A0320A400000530C90330A404C
:1025100000FF000CF0C0000028300A40F0208C00C2
:1025200070B582B01B4C1C492046FFF7E7FD1B49E4
:102530002046FFF739FD1A4801683C4A0A4002600C
:1025400000250095204629462A462B46FFF7C2FD66
:10255000204629462A46FFF7AFFD204629462A464F
:10256000FFF7C4FD01260096204629462A462B4641
:10257000FFF7B0FD204629463246FFF79DFD204675
:1025800029463246FFF7B2FD064886600321016006
:1025900002B070BD000086408059000084590000E0
:1025A000041886400011864070B582B01B4C1C494F
:1025B0002046FFF7A3FD1B492046FFF7F5FC1A480C
:1025C00001681A4A0A400260002500952046294603
:1025D0002A462B46FFF77EFD204629462A46FFF76E
:1025E0006BFD204629462A46FFF780FD012600960E
:1025F000204629462A462B46FFF76CFD20462946F1
:102600003246FFF759FD204629463246FFF76EFD58
:10261000074886600321016002B070BD00000940D8
:102620008C59000090590000041809407F00FFFFFA
:102630000011094010B50D4C0D492046FFF734FC40
:102640000C492046FFF70EFC0B4841680B4A0A4034
:1026500027324260816812220A432D218A43826018
:10266000016801220A43026010BDC04600A0464036
:10267000985900009A59000004B1464000FCFFFF41
:10268000B0B50F48002404600F2000020D4D2968EA
:10269000814301204002081828600320C043291FFD
:1026A0000A6802400A600848FFF708FC2868102101
:1026B00001432020814329602046FFF761FCB0BD23
:1026C00008030B4004010B40A459000010B51C4C3A
:1026D0001C492046FFF744FD1B492046FFF71CFD1F
:1026E0000320C103194802688A4302600169374A1E
:1026F0000A401532026141692D220A4312218A43A0
:102700004261426801210A4043688B439A18426043
:10271000452292020E4B1C6814431C60CA021A66C2
:102720004A04036813430360C26870231343C36001
:10273000C26807231343C36002680A43026010BDE6
:1027400000801040CC590000CE590000009110408C
:102750002890104010B55E4C19492046FFF700FD47
:1027600018492046FFF7D8FC0320C1031648026829
:102770008A4302600169154A0A404121C900511883
:102780000161416935220A430A218A434261426854
:1027900001210A4043688B439A1842608A020C4B1D
:1027A0001C6814431C60FF2212060A4B1C689443E9
:1027B000CA07A2181A6002680A43026010BDC04628
:1027C000D8590000DA590000001150400000FFFF06
:1027D0002810504000E400E080B500F025F8FFF735
:1027E00029FEFFF74DFFFFF79BFEFFF7DDFEFFF72A
:1027F000CBFDFFF76BFFFFF7ADFFFFF71BFFFFF709
:1028000015FE9C20054900220A54B82004490A54A8
:10281000542004490A5424200A5480BDB4012020C5
:102820005402202028012020F0B581B01048114921
:10283000416011484160114B5960114C6160114D6C
:102840006960114E7160114F796011484160114902
:10285000074A1160084A11601960216029603160DF
:10286000396001601020FFF7D6FA01B0F0BDC04614
:1028700000080A40030000B100280A400008864012
:102880000008094000A88640008810400008504019
:1028900000A846400100002670B50D4C0D4E0525E0
:1028A000204631462A4601F0C7FAC82000F0B8F9A0
:1028B000711D20462A4601F0BFFA074800F0B0F922
:1028C0000A36204631462A4601F0B6FA70BDC046A7
:1028D0000000504000002020B80B000010B501F0AF
:1028E00046FA044602F0C8FA002803D00120000787
:1028F00019490860204601F015FB10BDB0B582B043
:10290000114C2068C5B20D2D0CD00B2D10D11048E4
:10291000006801A908700F4800680022134602F001
:102920006CF805E00948006800210A4601F0E0FC67
:10293000A56206480068002803D001200007064968
:10294000086002B0B0BDC04620901040A401202015
:1029500024911040AC01202004ED00E0F0B585B0DA
:10296000454D2C68454F397B45480068C0B2022967
:102970000DD0012905D0002979D1552877D1012022
:1029800074E0532871D10020788102206EE07989AB
:102990004A1C7A8178547889092868D138787978FE
:1029A000049003910818FE788019B97802914118B3
:1029B00078790A1839795218FB79D218BB79D2186C
:1029C000583AD2B23B7A9A424FD100024018FEF7F1
:1029D000BAF807210096CE06314602F025FE2949B5
:1029E00002F022FE0190B86100980002029940189E
:1029F000FEF7A9F80296314602F016FE214902F0D0
:102A000013FE06461F4902F029FD00901E4930467C
:102A100002F070FD0099002900D1304678610398DA
:102A2000000204994018FEF78EF8029902F0FCFDAE
:102A3000144902F0F9FD0646124902F00FFD049018
:102A40003046114902F056FD0499002900D1304664
:102A50003861019E30460B4902F00BFD002804D17D
:102A60000949304602F046FDB86100203873E0B2F3
:102A7000A86205B0F0BDC0462010504010002020D4
:102A800024115040000034430000B4C30120C106AB
:102A9000084A11600E490A6882430A607047C046BE
:102AA0000120C106034A116009490A6882430A608D
:102AB0007047C046A0120A400120C106034A1160B7
:102AC00003490A6802430A607047C04690120A40F0
:102AD00004B88640F0B583B00121C803124A1060E3
:102AE0000D0200242846224601F0E4FD0F4FB86095
:102AF000291D02252846224601F0DCFDF860381D1C
:102B0000009501900A480BA180263246234602F028
:102B1000E7F800950197094809A13246234602F0DB
:102B2000DFF803B0F0BDC04600E100E0A4012020C2
:102B3000992B0000554152545F525800B92B0000A8
:102B4000554152545F54580083B070B5C3B0054628
:102B500047914892499347AB01930120010202AC8F
:102B600020462A46FDF7DCFB2046FDF735FE429065
:102B7000294EF0680025EA4321462B4601F033FE3A
:102B800030680095022329462A4602F0FDF843B03A
:102B900070BC01BC03B0004782B01F4CA06800218C
:102BA000CA4301A901F0AFFF0128F7D101A80078BD
:102BB00000F030FBF2E7C046C2B00020C44301255C
:102BC0002946224601F0D8F8280201A90D18114E15
:102BD000114F04E000200121224601F0CDF8F868F1
:102BE00001A9002201F08FFF0128F3D128680028F5
:102BF000F0D001A971600949B16080B2F06030681D
:102C000002210143316000200121224601F0B4F885
:102C1000E0E7C04600B24240A401202020911040CD
:102C2000B0B500281ED00446EFF30580002806D07A
:102C30000D4D2846FFF7EFF8641EFAD112E002F0BE
:102C400009F9022808D17D20C1004C43204602F03A
:102C5000DBFA01F019FBB0BD034D2846FFF7DBF8A6
:102C6000641EFAD1B0BDC046803801000C4801682E
:102C70000020002900D070470A4909680029FAD1CC
:102C8000094909680029F6D1084800680849096817
:102C9000491E884201D00120704702207047C0467B
:102CA000442F2020982F2020402F2020642F2020E8
:102CB000F029202010B59CB004AC0B4960222046BE
:102CC000FDF7E2FA0948029009480190094800908E
:102CD000DD480422084B214600F012F80748022183
:102CE00001601CB010BDC046C4580000B92E0000E1
:102CF000B12E0000853000009D30000000E100E0B2
:102D0000F0B585B00C460546481E8141681E2E462A
:102D100086410E40501E11468141314001910129EA
:102D200053D10C980B990A9EAB60EE6029616861E3
:102D30002A712820504303900027029704E018349A
:102D400028370398B84240D02868C551C2192420BA
:102D5000029E04901654206850606168D160A36898
:102D60009360E36813612369D361636913629661B9
:102D7000AA6890470646401E86412868C11988689F
:102D80000969AA689047002800D0B61C2868C219B3
:102D90001675EB68002BD2D0D0690D499847296889
:102DA000002804D0C819049BC25C521CC254CA1922
:102DB000106AEB68064998470028C0D02868C019F7
:102DC000049A815C491C8154B9E7019805B0F0BDB3
:102DD0005D2E0000F0B581B0002400283BD00279C0
:102DE000914238D228224A4301688D18016900298E
:102DF00002D00446884720462421695C012923D853
:102E00000646E9682F686868BA6890470446BA6859
:102E1000A868296990472A7D03211140002C00D021
:102E2000091D0028304600D008318A082A75491E3D
:102E30000D2909D81C4ACA40D20705D089001B4A6F
:102E40005158AA695118A961AC690021A96140696A
:102E5000002800D08047204601B0F0BD70B5044680
:102E6000C16806684068B26890470546B268A068C5
:102E700021699047227D03211140002D00D0091DBA
:102E8000002800D0083188082075481E0D2809D870
:102E90000549C140C90705D0800004490858A16907
:102EA0000818A06170BDC046EF3D00002459000025
:102EB00080B501F071F880BD80B501F077F880BD74
:102EC00070B543B220490A461032002B154600DA8D
:102ED0000D4601235C062C60DD030D600D61460686
:102EE000164600D50E4634600D600D618606164606
:102EF00000D50E4634600D600D61C606164600D53D
:102F00000E4634600D600D610607164600D50E466C
:102F100034600D600D614607164600D50E463460DC
:102F20000D600D618607164600D50E4634600D60B3
:102F30000D61C00700D00A4614600D600D61980352
:102F40000860086170BDC04690120A40B0B5030623
:102F50000B4A11461031002B0C4600D014460123B9
:102F60009D0625600404240E0C4600D01446DD06A0
:102F700025600002000E00D0114698050860B0BD23
:102F800090320A4080B5FFF727FCFFF77FFDFFF77F
:102F9000A1FD00F061F801F077FA05A0FFF78EF9C6
:102FA000FF210231032000F080F8002080BDC046E0
:102FB0005363686564756C65722053746172742024
:102FC0004661696C6564000080B506480168064882
:102FD000884780BD80B50146024882680248904714
:102FE00080BDC046B40020204C00202086B0FFF7F2
:102FF000EBFFFFF75FFE7D20C0000590049003907B
:10300000029002A8FFF7E6FF0F4C00212046FFF7D1
:10301000E1FE064601212046FFF7DCFE07460221BD
:103020002046FFF7D7FE054603212046FFF7D2FED4
:10303000009006A031463A462B46FFF75FF9C820BC
:10304000FFF7EEFDE1E7C04634002020256420258F
:10305000642025642025640080B582B0002301200F
:10306000009001930202034803A101F039FE02B06F
:1030700080BDC046ED2F00006D6F746F725F74618C
:10308000736B0000C0B2FF2802D08100024B5A507F
:10309000FF38411E88417047100320202722D201AB
:1030A00080580840411E8841704770B5002817D0ED
:1030B0000C460546FF20000684432046FFF746FFE6
:1030C000FFF7FAFCC8263046FFF7AAFDFFF7E8FC39
:1030D0000020FFF73BFF3046FFF7A2FD6D1EECD14D
:1030E00070BD000070B503460079821FD2B2FB2A82
:1030F00000D270BD5A7A103A052AFAD80A33C0466F
:103100007A441279520097440240303828451729F2
:10311000EFD129490C68002CEBD019785A781202AB
:1031200051189A781204DD782D06AA1851181A79C8
:103130005D792D02AA189D792D04DE793606751960
:10314000AA181D7A5E7A360275199E7A3604DB7AE1
:103150001B069B195B19A04770BD0B29C9D11649E5
:1031600009690029C5D0884770BD0B29C1D1124912
:1031700089680029BDD0884770BD0B29B9D10E4997
:10318000C9680029B5D0884770BD0F29B1D10A4957
:103190004A6803E00F29ACD107494A69002AA8D040
:1031A00019785C78240261189C782404DB781B066B
:1031B0001B195918904770BDD009202070B50029FF
:1031C00007D003230A461A40042905D200242346C7
:1031D00011E00023D8B270BD994300242346055D59
:1031E000EB1805196E78F318AE78F318ED78EB1834
:1031F000241DA142F3D1002A0AD0015DCB18012A77
:1032000006D000194178CB18022A01D08078C31863
:10321000D8B270BD70B5364D2978C0467944097969
:1032200049008F440239252F0C4653285CD1686829
:10323000411C6960281853210173012052E069681C
:103240004A1C6A60691808730A2A4CD3687CA97CF6
:1032500009020818E97C09042A7D12065118081889
:10326000A86018380D21C943884238D9052039E0B3
:1032700048281BD16868411C6960281848210173DF
:1032800003202FE0592811D16868411C6960281873
:1032900059210173042025E05A2807D16868411C90
:1032A000696028185A21017302201BE00020686021
:1032B00018E06968162912D84A1C6A606B181873DE
:1032C000AB689A420FD12C460C3406462046FFF7D5
:1032D00075FF864203D169682046FFF703FF00208F
:1032E0006860A860287070BD0020686070BDC0462E
:1032F00080012020F0B581B0044600F04DFE7A48F0
:103300000168491C01607A4F396800290AD03648A3
:103310000068002847D1E06A3968C96A814242D80A
:103320003C6040E03C60006801283CD1714D28467B
:1033300000F0FBFD2846143000F0F7FD2846283049
:1033400000F0F3FD28463C3000F0EFFD28465030F9
:1033500000F0EBFD2846643000F0E7FD28467830A9
:1033600000F0E3FD28468C3000F0DFFD2846A03059
:1033700000F0DBFDB435284600F0D7FD1B4D284694
:1033800000F0D3FD1A4E304600F0CFFD194800F092
:10339000CCFD544800F0C9FD174800F0C6FD1748A1
:1033A00005601748066017480168491C21640160E0
:1033B000E06A4E490A68904200D9086014214143EE
:1033C0004C484018211D00F0DBFD00F0EFFD0648E1
:1033D0000068002806D0E06A3968C96A814201D2D3
:1033E00000F024FF01B0F0BD582F2020F82E20203F
:1033F0000C2F2020442F2020642F2020580820202C
:1034000060082020FC29202082B001200190344E49
:10341000344F354D05E0206B00F0D6FD204600F01E
:10342000D3FD3068002817D000F0B6FDF868C468F6
:10343000201D00F00FFD2868401E28603068401EE7
:10344000306000F0B3FD6120205C0228E9D0012843
:10345000E4D00028DFD03EE0244800682449096811
:10346000C96A0029DDD1411E884122490968012924
:10347000019900D801460029D3D11F4800681F498F
:103480000968401A0228CCD31D490868401C08600E
:10349000194800681949096888421ED31348006812
:1034A00013490968C96A002912D1411E884111498E
:1034B00009680129019900D80146002908D10E4860
:1034C00000680E490968401A022801D300F002FE84
:1034D00001F0C4FDA5E772B6FEE772B6FEE7C0468E
:1034E000F4292020782F2020F0292020002A2020D5
:1034F0005008202068082020302F20208C2F2020EA
:10350000F8292020F0B583B002930F4601900A9C61
:10351000206B9600A5223146FDF7C1F9206B80197A
:10352000031F072021463431089D002F30D03A7800
:103530000A70002A29D07A784A70002A25D0BA78F1
:103540008A70002A21D0FA78CA70002A1DD03A79F0
:103550000A71002A19D07A794A71002A15D0BA79ED
:103560008A71002A11D0FA79CA71002A0DD03A7AEC
:103570000A72002A09D07A7A4A72002A05D0BA7AE9
:103580008A72002A01D0FA7ACA720022CA7201E055
:1035900000220A7083430093099F0026E664092DE8
:1035A00000D30925A564E562201D00F0C8FC204673
:1035B000183000F0C4FC0A20401BA0612665666537
:1035C000A665E6652046503006746462246100AA50
:1035D00007CA00F06BFA2060002F00D03C6003B0F7
:1035E000F0BD0000F0B585B0044601F041FC234A6F
:1035F0001168884233D200940190A94F05E06860B9
:103600002D613868314600F09DFC3868016800295A
:1036100027D0C0680468C5682E1D304600F01AFC2B
:10362000296A284688472820285C4007EDD5A869E4
:103630000019A042E3D89C4E306800280DD00495B4
:1036400003940025029501F005FC306802A92A4682
:103650002B4601F0C8F80028D7D172B6FEE700214A
:1036600007E090490A683A60086001210198009CCF
:10367000024A1060216005B0F0BDC0464C08202011
:1036800081B0002000900A48006872B6401C09D042
:10369000FEE70098002808D10098002805D100987E
:1036A000002802D100980028F3D001B07047C0462E
:1036B000C00020208AB07A4E7B4F30680468002C0E
:1036C00002D0C068056800E0002500F045FF04A8AE
:1036D000FFF788FF0499002902D001F0BFFC52E0F7
:1036E000002C15D0854213D8029001F0B7FC306849
:1036F000C068C468201D019000F0ACFB2820205C4D
:10370000410709D421462831FA221040087037E0D9
:10371000002C12D0002215E0A069411961602461DB
:10372000029A9142314603D8511B81425D4914D21D
:103730000868019900F006FC22E05A490968096806
:103740004A424A41291A386800F07CFD01F086FCA3
:10375000002818D100F06AFD15E03868002800D173
:103760009BE0099408950025079501F073FB3868E4
:1037700007A92A462B4601F036F8002800D18CE034
:10378000216A20468847386804A90022029202E094
:10379000386804A9002201F0B6F900288DD00498F9
:1037A0000028F5D4069D6869002802D0281D00F085
:1037B00051FB03A8FFF716FF04990929E8D8C04672
:1037C0007944097949008F440A0A0A0442570A0ACF
:1037D00004422820295CFE220A402A54D8E72821E6
:1037E0006A5C012313436B54AB6905995A186A60EC
:1037F0002D61824224D98842304625D28A42304601
:1038000022D334462E462836296A284688473078FF
:1038100026464007BCD5386800283AD0A8690599E3
:10382000099540180890029C079401F013FB386832
:1038300007A92246234600F0D6FF0028A8D128E099
:10384000401A98421748DCD2291D006811E028214F
:103850006A5C012313436B540599A96100291AD0AE
:10386000091869602D618142304600D80D48006812
:10387000291D00F067FB8BE72820285C810703D413
:10388000284600F0A1FB83E72835FE210840287078
:103890007EE772B6FEE772B6FEE772B6FEE7C04696
:1038A0005408202064082020902F2020F0B581B0FB
:1038B00004460646443600F06FFB01203756012FC0
:1038C00012DB2546243504E0781E79B2012907462B
:1038D0000ADD2868002807D0284601F07FFB002871
:1038E000F2D000F05BFDEFE7FF25757000F05EFBA6
:1038F00000F052FB00203756012F11DB103404E09A
:10390000781E79B2012907460ADD2068002807D011
:10391000204601F063FB0028F2D000F03FFDEFE706
:10392000357000F043FB01B0F0BD0000F0B583B08E
:10393000044600F011FE56480368002B05D0554997
:103940000978002C1FD400221EE00721CB43524DE2
:1039500069072A4601D0EA1D1A40504E01214F0343
:10396000ED191D40083D056000230CC62B606B60FF
:103970000368AD1A28C24A4A15604A4A1560454A8A
:103980001170002CDFD5012225460835092D2AD3D8
:103990000A4028D10722214691431031A94200D87C
:1039A0000021620700D00D46691E3E4A1468A142FC
:1039B00019D23A4C21684E68AE4207D20F68002FE8
:1039C00004D00C4639467E68AE42F7D399420AD0FD
:1039D00023680F682760761B112E3AD34C196707AE
:1039E0000AD072B6FEE701F039FB00F05BFA002066
:1039F00041074BD072B6FEE766604D60274E3768D0
:103A0000A74204D23E68A6423D46F8D301E03546BF
:103A10003E4601936F680097EF1902976768029B13
:103A2000A34203D1009C3F196F602C460297E7190F
:103A3000B742019B01D0304607E0029F00688642F2
:103A400003D07068C019606030682060A54200D063
:103A50002C6048681468241A1460114A1568AC4236
:103A600000D2146008330B4A127800240C600E4C0C
:103A700025686D1C2560541EA241D2071043486082
:103A80001C4601F0EBFA20464107B3D103B0F0BD6C
:103A90005C082020F42E2020E80920205C2F202024
:103AA0002C2F2020202F2020382F20200346083BB9
:103AB0001960011F01231B060B6001460C39034BE3
:103AC0000B60014620390A6040387047813600009B
:103AD000F0B581B0044606462036007A01280CD1A4
:103AE000E568002D09D0227E00212846FEF7FEFA67
:103AF00036482958012291432950307801280DD1A8
:103B0000656A002D0AD03020225C00212846FEF78D
:103B1000EDFA2E4829580122914329502746503763
:103B2000307E01280DD1E56B002D0AD04820225CA3
:103B300000212846FEF7DAFA244829580122914349
:103B40002950387801280DD1656D002D0AD06020EC
:103B5000225C00212846FEF7C9FA1C482958012298
:103B60009143295001B0F0BDB0B501462031027A31
:103B7000012A07D1C268002A04D0144BD458012569
:103B80002543D5500A78012A07D1426A002A04D079
:103B90000E4BD45801252543D55002465032097E9C
:103BA000012907D1C16B002904D0084BCC5801254D
:103BB0002543CD501178012907D1406D002804D04C
:103BC00002494258012313434350B0BD041800007A
:103BD000F0B581B0002800D1C3E00D46002900D126
:103BE000BFE004460678002E0AD0207A01280CD1C6
:103BF0002868217F01280ADB00290CD102200FE070
:103C00000020FFF75DF901B0F0BD002008E00029B9
:103C100003D1012102E0012002E00221C017084087
:103C20002746203721464C310091012E3DD039786E
:103C300001290BD16A68397D002A03DD002904D0EF
:103C4000001D03E002D50029FAD00830022E2CD046
:103C5000397E002914D0AA6800990978002A06DD67
:103C600000290CD01030009A032E0CD11DE007D58E
:103C70000029009A77D02030032E04D115E020309F
:103C8000009A032E11D0117901290ED11146EA684C
:103C9000097E002A03DD002904D0403005E004D568
:103CA0000029FAD07F21C9434018C0B2FFF708F9B4
:103CB000002E56D0E068002810D0A269217A012990
:103CC00008D12968CB175940C91A6368994202D3B1
:103CD000194600E00021D2B2FEF708FA012E40D0CA
:103CE000606A002810D0226B3978012908D16968F0
:103CF000CB175940C91A6368994202D3194600E0AC
:103D00000021D2B2FEF7F2F9022E2AD0E06B002891
:103D100010D0A26C397E012908D1A968CB1759406F
:103D2000C91A6368994202D3194600E00021D2B251
:103D3000FEF7DCF9032E14D0606D002811D0226E3E
:103D400000990979012908D1E968CB175940C91AA6
:103D50006368994202D3194600E00021D2B2FEF70F
:103D6000C5F901B0F0BD1030032E8CD19DE7EFF303
:103D7000108072B670470000F0B581B0002801D005
:103D800072B6FEE714460E4600F006F9244D286888
:103D9000C06D00282BD12868602101224254002CDC
:103DA00025D0204807682868001D00F053F8601CE3
:103DB0000AD03C19286844600CD31D480068296863
:103DC000091D00F0BFF810E02868011D194800F037
:103DD000D7F80AE0144800682968091D00F0B2F815
:103DE000124801688C4200D2046000F01FFA00F013
:103DF000DDF800F0D1F82868C46D002C06D0002E44
:103E000001D0002000E0601E2968C8652868602194
:103E10000022425400F0CAF8204601B0F0BDC0466E
:103E2000500820208C2F202058082020302F2020C0
:103E300060082020642F202070B5002A09D0144685
:103E40000D46064629783046FEF794F96D1C641E2F
:103E5000F8D170BD416882688A60516001694B6821
:103E6000834200D14A600A68521E0A600022026141
:103E700008687047034B03608020106002480860A8
:103E80007047C046042C2020042A2020034B0360E6
:103E900080201060024808607047C046682E2020CD
:103EA000682C202004A0FEF709FA03200121FFF767
:103EB000FCF872B6FEE7C046212121204D414C4C52
:103EC0004F43204641494C45442021212120467240
:103ED000656552544F53206865617020616C6C6F4A
:103EE000636174696F6E206661696C65642E0A0097
:103EF00004A0FEF7E3F903200949FFF7D6F872B6EC
:103F0000FEE7C04621212120535441434B204F5608
:103F10004552464C4F573A202573202121210A0053
:103F20000100010080F31088704700210160024603
:103F30000832C94342608160C2600261704700215B
:103F400001617047B0B50B685A1C0BD004460834A9
:103F5000626815689D4208D8546825689D422546C8
:103F6000F6D904E00269556801E015462246A960C9
:103F700008614D608A6051600168491C0160B0BDF4
:103F800042684A6093688B600861596003685B1CF3
:103F9000036091607047000072B60A480168491CCE
:103FA0000160BFF34F8FBFF36F8F70470548016803
:103FB000002903D0491E016002D0704772B6FEE7A7
:103FC00062B67047C0002020B0B5002844D0234915
:103FD00009784A1E9141C907041F2268114205D081
:103FE00008380368002B03D072B6FEE772B6FEE70E
:103FF0008A432260054600F0AFFA28462168184A35
:1040000013685B181360174B1C68844204D2236842
:1040100083422246F8D301E01A4623465468151914
:10402000854202D109195160104644189C4201D0C2
:104030001C4607E00C4C2468A34203D05C6861185E
:1040400041601C680460824200D01060074801682B
:10405000491C016001F002F8B0BDC046F42E2020DA
:10406000202F20205C2F20205C0820203C2F2020A7
:104070006948012101706A4801706B480170674806
:1040800000210160816002494160072101607047A1
:104090007F38010000000000000000000000000068
:1040A0000B4A13681868203080F30988022080F3D7
:1040B0001488BFF36F8F3FBCAE4608BC04BC62B629
:1040C0001847C046C046C046C046C046C046C04667
:1040D00050082020F0B583B005464F4801784F4E78
:1040E00030680122029290433060B0684C4A1378E5
:1040F0004C4A002B45D0002946D18D4200D30D46B5
:10410000691E00914A43101847490978002900D0D8
:104110002D21441A00D8044672B6BFF34F8FBFF367
:104120006F8F0027F8430190FEF7A0FD00282FD0E5
:104130007460B7603068029908433060002D04D085
:10414000BFF34F8F30BFBFF36F8F62B6BFF34F8F98
:10415000BFF36F8F72B6BFF34F8FBFF36F8F062021
:1041600030603068C0031FD42E4C6543B0682D1AF0
:104170002C49284601F048F821464143491B0919BA
:1041800036E01A460029B8D0D1218D42B7D2B7E720
:10419000B068706030680299084330602048007849
:1041A000002808D1019808E01D480078002808D1AF
:1041B00001991C4D07E01B48401E706062B603B0B9
:1041C000F0BD184D691EB268121B521800282B460C
:1041D0002C4600D103469A42084600D810462D2AA4
:1041E00000D30146104A1278002A00D101460098F7
:1041F0007160B760326802990A43326000F09AF940
:1042000007480078002801D1019800E0601E706026
:1042100062B603B0F0BDC046282F202010E000E0B9
:10422000EC29202080380100E82920200120000707
:1042300003490860BFF34F8FBFF36F8F7047C046CD
:1042400004ED00E070B515460E460446FFF7A4FEE7
:104250004420215C20464430FF2901D10021017017
:104260004178FF2901D100214170FFF79FFEA06B2B
:10427000002805D12046243031462A4600F0C2F8F5
:104280002046FFF713FB70BD70B500282CD0B54950
:104290000A68002A01D072B6FEE70A68521C0A605A
:1042A000AB490C68E54D2968091D06460846FFF72D
:1042B000D1FDA4192868446006D3714800682968B4
:1042C000091DFFF73FFE0AE06C4800682968091DD8
:1042D000FFF738FE9F4801688C4200D2046000F06E
:1042E000BDFE002800D070BDFFF7A0FF70BDC04626
:1042F000F0B581B0002803D0002903D072B6FEE7E4
:1043000072B6FEE715460646FFF731FD6022B35C44
:104310000224B454F26D521CF265012B2DD13146AA
:10432000B26A002A01D072B6FEE70746C1480068AB
:10433000002802D0183113480FE0081D0C460090E9
:10434000FFF788FDE06ABF490A68904200D908601B
:1043500014214143BC4840180099FFF711FEF06A50
:10436000B6490968C96A8842384606D9002D01D085
:1043700001212960B04901220A60FFF7D3FD01B095
:10438000F0BDC046442F20200349096801607049F0
:10439000096841607047C046342F2020A64801219B
:1043A0000160704770B5002818D00C46A34D2968ED
:1043B0001831FFF7C7FD664806682868001DFFF73B
:1043C00049FD601C0CD03419286844600ED32C4879
:1043D00000682968091DFFF7B5FD70BD72B6FEE7DC
:1043E0002868011D2748FFF7CBFD70BD23480068F2
:1043F0002968091DFFF7A6FD564801688C4200D2C6
:10440000046070BDF0B581B000281BD015460C4685
:104410008A4E31681831FFF7B3FD4D4807683068A0
:10442000001DFFF717FD002D01D00020C443002D13
:104430000AD0601C08D13068011D1248FFF7A0FDAA
:1044400001B0F0BD72B6FEE73C193068446007D396
:104450000B4800683168091DFFF774FD01B0F0BD1D
:10446000064800683168091DFFF76CFD394801688E
:104470008C4200D2046001B0F0BDC0465808202034
:1044800060082020642F2020B0B588B00024069456
:10449000059406A805A904AAFFF7ECFC05980028D6
:1044A00033D0069D002D32D0049A642107910799DC
:1044B00064292ED10799612102236B542863029548
:1044C00007A801900094154815A12346FFF71AF894
:1044D0002846FEF70FFF144807990160002910D005
:1044E00000F03CFE411C16D001280AD172B6E04310
:1044F000184908600D48012101601548046000F06A
:10450000ABF80B48006808B0B0BD72B6FEE772B6F3
:10451000FEE772B6FEE772B6FEE7C0460934000059
:1045200049444C4500000000242F2020582F202013
:10453000F459000006490A681218064B1B689A4293
:1045400001D972B6FEE70A68101808607047C046C5
:104550008C2F2020302F202036480168491C016014
:104560007047C046F8292020F0B581B03148006876
:10457000002802D0304801212CE02F4800210160A2
:104580002E4C2068006B02682D498A4208D142688F
:104590008A4205D182688A4202D1C068884204D02A
:1045A000206821683431FFF7A3FC264801681423F2
:1045B0001A464A43244DAE58002E0ED0AA1853680E
:1045C0005B68536015460835AB4201D15B685360A8
:1045D000DA682260016001B0F0BDAA1800291DD080
:1045E0001E464E4376191746143F3F68002F17D1D9
:1045F000012913D01746283F3F68002F13D1022905
:104600000CD017463C3F3F68002F0FD1032905D03F
:10461000091F503A1668002EE0D0D0E772B6FEE7C8
:10462000143E491E04E0283E891E01E03C3EC91E9E
:104630003246C4E7F8292020982F20205008202057
:10464000A5A5A5A5002A202068082020014808214A
:104650000160704700E100E0B0B582B0FF200104C6
:10466000124A13680B43136000061168014311607E
:10467000FFF7FEFC0E4C00252560FFF711FDFFF74C
:1046800073FF0195206872B6401C09D0FEE70198BF
:10469000002808D10198002805D10198002802D1EE
:1046A00001980028F3D0002002B0B0BD20ED00E05A
:1046B000C0002020F0B581B000280FD0064600923F
:1046C00000250F460846294632462B46FBF710FECA
:1046D0004A1E9141012903D172B6FEE772B6FEE788
:1046E0004F21C943884201D372B6FEE75030FFF72D
:1046F0001DF90446002828D020464430E6630646CB
:1047000027648570002F204601D02046503020605D
:10471000FFF742FCA563FF20307021687070E06BEA
:10472000226C431E504308185343CA186160A060AE
:10473000E26020461030FFF7F8FB20462430FFF7F8
:10474000F4FBFFF733FC00983072204601B0F0BD57
:1047500070B582B0002807D0002B07D0002907D100
:10476000002A05D072B6FEE772B6FEE772B6FEE723
:10477000002903D0002A01D172B6FEE7502401942B
:10478000019C502C2DD11D464435069E019CD863BA
:1047900019640029184600D0104618600120A8703E
:1047A0001C46FFF7F9FB0020A063FF20287021685A
:1047B0006870E06B226C431E504308185343CA18BC
:1047C0006160A060E26020461030FFF7AEFB20463B
:1047D0002430FFF7AAFBFFF7E9FB2E72204602B058
:1047E00070BD72B6FEE7F0B589B00892002812D00D
:1047F0001D460446002910D0022D02D1E06B01288D
:104800003FD11646059100F025FB00280AD1002E65
:1048100008D072B6FEE772B6FEE7206C0028EBD037
:1048200072B6FEE7FFF7B8FBE06BA16B022D51D02B
:1048300081424FD30898002800D1D9E0264644365B
:1048400006A8FFF7A1FDFFF7B1FBFFF785FEFFF715
:10485000A3FB3078FF2801D1002030707078FF284A
:1048600001D100207070FFF7A1FB06A808A900F095
:1048700007FA002807D02046FFF718F800F0EEFBF3
:10488000B8E072B6FEE727461037FFF785FBE06B0E
:104890000290A06B0190FFF789FB02980199814279
:1048A0000DD108993846FFF77DFD2046FEF7FEFF43
:1048B00000F0D4FB002807D1FFF7B8FC04E0204645
:1048C000FEF7F4FF00F0CAFBFFF766FBE06BA16B9D
:1048D00081424CD2226CA66B002A059919D001277F
:1048E000002D1BD0E068FBF799FF206CE168091AE6
:1048F000E1602268914203D24042A1680818E0605A
:10490000701E31468141A81E424242410A40B61AF9
:1049100018E0206800280ED0012713E06068FBF73C
:104920007DFF206C616808186060A168884209D327
:104930002068606006E0A06800F020FB0021A16014
:1049400047424741701CA063606A00280CD02434A1
:10495000204600F043FB002801D0FFF767FCFFF77B
:1049600025FB012009B0F0BD002FF6D0F7E7049633
:1049700003970BE02046FEF799FF00F06FFBFFF76F
:104980000BFBE06BA16B8142049EA3D30898002827
:104990002ED0FFF70BFBFFF7DFFDFFF7FDFA3078B6
:1049A000FF2801D1002030707078FF2801D100204D
:1049B0007070FFF7FBFA06A808A900F061F900285B
:1049C00000D058E7FFF7E8FAE76BA66BFFF7EEFABF
:1049D000BE42CFD108990398FFF7E4FC2046FEF7CA
:1049E00065FF00F03BFB0028C9D1FFF71FFCC6E7BD
:1049F000FFF7DCFA002009B0F0BDF0B583B0002865
:104A000014D01D460446002912D0022D02D1E06BBD
:104A1000012835D10F460292FFF7A9F9E16BA26B8D
:104A2000022D0AD08A4208D3002565E072B6FEE75F
:104A3000206C0028E9D072B6FEE74521635CA16BCB
:104A4000226CA66B002A1DD039461F460190002D0E
:104A500026D0E068FBF7E2FE206CE168091AE1600D
:104A60002268914203D24042A1680818E060701E9B
:104A700031468141A81E424242410A40B61A1BE01B
:104A800072B6FEE72168002918D1A16805460846DC
:104A90001F4600F073FA3B4628460021A1600DE056
:104AA0006068FBF7BBFE206C616808186060A16855
:104AB000884201D32068606001983B46711CA16365
:104AC0007F2B13D0FF2B13D1616A0125002913D04E
:104AD00006462434204600F081FA0299002910D0BD
:104AE0000028304608D001250D6005E072B6FEE7CB
:104AF0004534591C21700125FFF714FA284603B0EC
:104B0000F0BD3046F8E7F0B585B0049200280CD02F
:104B10001546044600292ED00F4600F09BF90028C8
:104B200005D1002D03D072B6FEE772B6FEE7FFF79F
:104B300033FAA56B002D23D0226C002A0AD0384608
:104B4000E1688918E160A368994201D32168E160B6
:104B5000FBF764FE681EA06320690125002800D1D0
:104B600089E01034204600F039FA002800D182E0B4
:104B7000FFF75CFB7FE0206C0028CDD072B6FEE72B
:104B800000250498002876D000952646443602A8D1
:104B9000FFF7FAFBFFF70AFAFFF7DEFCFFF7FCF975
:104BA0003078FF2801D1002030707078FF2801D1C3
:104BB00000207070204624300190FFF7F7F902A81A
:104BC00004A900F05DF800280DD02046FEF76EFE27
:104BD00000F044FAFFF7E0F9A56BFFF7E7F9002DC5
:104BE0001BD1002549E0FFF7D7F9A56BFFF7DEF9E8
:104BF000002D05D02046FEF759FE00F02FFA0CE0FC
:104C000004990198FFF7CEFB2046FEF74FFE00F017
:104C100025FA002801D1FFF709FBFFF7BDF9A56BC5
:104C2000002D89D10498002824D0FFF7BFF9FFF7A1
:104C300093FCFFF7B1F93078FF2801D100203070E4
:104C40007078FF2801D100207070FFF7AFF902A83B
:104C500004A900F015F80028C5D02046FEF726FE6E
:104C600000F0FCF9FFF798F9A56BFFF79FF9002D0D
:104C7000D3D1B6E7009DFFF799F9284605B0F0BDFE
:104C8000F0B581B000281FD00C4600291ED0054683
:104C9000FFF782F96A68B6480768216800264B1C4E
:104CA00019D0B54803682868834201D097420FD2D3
:104CB000BA1A91420CD9881A2060AF48006828605F
:104CC000AB480068686006E072B6FEE772B6FEE7C1
:104CD000002020600126FFF769F9304601B0F0BDE1
:104CE000F0B587B01F4604AB07C39000FEF71EFE69
:104CF0000025EC4300281CD0064603976420FEF7ED
:104D000015FE002812D007460D980C996122BD545B
:104D10003E6300910190029704AA07CA039BFEF725
:104D2000F1FB3846FEF7E6FA012402E03046FFF7D1
:104D30004BF9204607B0F0BDF0B587B00D9D002DB2
:104D40001BD00E9C002C1AD064260596059E642E5E
:104D500017D10C9E0496059F61270226E655256310
:104D6000029406AD0195049D0095FEF7CBFB20460D
:104D7000FEF7C0FA069807B0F0BD72B6FEE772B64D
:104D8000FEE772B6FEE70000F0B581B0002901D061
:104D900072B6FEE70446002818D01E461546069F48
:104DA000FFF7FAF8002F01D0E06D38606021605CF9
:104DB00002226254042E2DD87E4436797600B74400
:104DC00010020D0B0700E16D294309E072B6FEE702
:104DD000022801D1002538E0E56502E0E16D491CBB
:104DE000E1650125012830D1261D3046FFF732F854
:104DF000E06AD3490A68904200D90860142141430F
:104E0000D04840183146FFF7BBF8A06A002807D009
:104E100072B6FEE7564909680029E2D072B6FEE78D
:104E2000CB4801680968002903D00068C0680068A1
:104E300001E00020C043C7490860E06AC249096830
:104E4000C96A884201D9FFF7F1F9FFF7AFF82846A0
:104E500001B0F0BD05480068002805D0B5480068DD
:104E6000414241414800704701207047582F20209F
:104E70003F4800687047C046F0B583B0AD48006851
:104E8000002806D0B4480168491C0160002003B026
:104E9000F0BD374801684C1C04601BD3AC48016866
:104EA0000968002901D072B6FEE70168314A13682B
:104EB0000360116030490A68521C0A600168096881
:104EC000002903D00068C068006801E00020C043EA
:104ED000A04908609F490868844201D200203FE051
:104EE0000023DA439A4E3068006800282FD00192E0
:104EF0000020029003E03068006800282CD0306861
:104F0000C068C7687868844223D33D1D2846FEF7F1
:104F1000A1FFB86A002803D038461830FEF79AFF80
:104F2000F86A87490968884201D9854908601421CF
:104F30004143844840182946FFF722F8F86A82491D
:104F40000968C96A8842D6D301200290D3E7029348
:104F500004E002467F4901E07E49019A0A60029816
:104F60007A490968002992D0012003B0F0BDC046FB
:104F70008C2F202060082020342F2020B0B501463F
:104F80000020002926D0704A1268914201D072B6E2
:104F9000FEE7CA6C002A1ED0521ECA641AD18A6C5F
:104FA000CB6A934216D00C1D0D462046FEF752FFE9
:104FB000A86CE8620A21091AA96161490A6890424D
:104FC00000D90860142141435E4840182146FEF78D
:104FD000D7FF0120B0BD72B6FEE7C046B0B5C068CD
:104FE000C568002D0DD02C4618342046FEF732FF40
:104FF00050480068002806D050482146FEF7C0FF00
:105000001FE072B6FEE72C1D2046FEF723FFE86A7C
:105010004B490A68904200D908601421414349482D
:1050200040182146FEF7ACFF49480168096800298D
:1050300003D00068C068006801E00020C043454913
:105040000860E86A40490968C96A884203D93F494B
:1050500001200860B0BD0020B0BDC046F0B581B0F1
:10506000344C206800280DD0FEF796FF2068401EC3
:10507000206020680027002806D0FEF797FF3846FA
:1050800001B0F0BD72B6FEE72B4800680028F4D0EE
:105090002A4E3068002833D00097294F02E030684C
:1050A00000281FD0F068C46820461830FEF7D2FEF2
:1050B000251D2846FEF7CEFEE06A3968884200D9F1
:1050C0003860142141431F4840182946FEF758FF15
:1050D000E06A1D490968C96A8842E0D301201B497A
:1050E0000860DCE71A4801680968002903D00068F5
:1050F000C068006801E00020C043009F15490860B7
:10510000154C2568002D0CD0104E01E06D1E06D008
:10511000FFF7B2FE0028F9D001203060F6E700204A
:1051200020600A4800680028A7D0FFF77FF8012711
:10513000A3E7C046F8292020F0292020442F202072
:10514000002A20206808202050082020982F2020A6
:1051500058082020302F2020402F202070B586B006
:10516000FEF71AFF1D4E3068002814D11C4C204653
:10517000FEF7DBFE1B4D2846FEF7D7FE1A480560FA
:105180001A4804600020009014200C21184A194B82
:10519000FFF7DEFA3060FEF709FF306800281AD00A
:1051A00000240594049405A804A903AAFEF76EFE42
:1051B000039A0498059905230093019002910E48E3
:1051C0000EA12346FFF7B8FD0E490860002802D063
:1051D000012006B070BD72B6FEE7C046902F2020B9
:1051E000CC2E2020E02E20206408202054082020EF
:1051F0000C072020FC072020B5360000546D7220DB
:1052000053766300942F202043088B421AD3002248
:1052100003098B4279D3030A8B425ED3030B8B4283
:1052200042D3030C8B4227D30902FF2212BA030C8C
:105230008B4202D31212090203D0030B8B4233D3E9
:105240001AE0D3E0411A8041401C704703460B43EB
:1052500071D443088B42F5D3002203098B4254D307
:10526000030A8B4239D3030B8B421DD3030C8B42B1
:1052700002D394466EE0090AC30B8B4201D3CB03E1
:10528000C01A5241830B8B4201D38B03C01A524187
:10529000430B8B4201D34B03C01A5241030B8B4289
:1052A00001D30B03C01A5241C30A8B4201D3CB0274
:1052B000C01A5241830A8B4201D38B02C01A524159
:1052C000430A8B4201D34B02C01A5241030A8B425C
:1052D00001D30B02C01A5241CDD2C3098B4201D374
:1052E000CB01C01A524183098B4201D38B01C01AF2
:1052F000524143098B4201D34B01C01A5241030969
:105300008B4201D30B01C01A5241C3088B4201D317
:10531000CB00C01A524183088B4201D38B00C01AC4
:10532000524143088B4201D34B00C01A5241411AEB
:10533000524110007047CA0F00D04942031000D3F9
:105340004042534000229C4603098B422DD3030A5E
:105350008B4212D38901FC2212BA030A8B420CD36E
:10536000890192118B4208D3890192118B4204D397
:10537000890137D0921100E08909C3098B4201D31A
:10538000CB01C01A524183098B4201D38B01C01A51
:10539000524143098B4201D34B01C01A52410309C8
:1053A0008B4201D30B01C01A5241C3088B4201D377
:1053B000CB00C01A524183088B4201D38B00C01A24
:1053C0005241D9D243088B4201D34B00C01A5241FB
:1053D000411A00D201465241104663465B1000D389
:1053E0004042704763465B1000D3404201B5002144
:1053F000004201D0C9430846C046C04602BDF8B5C8
:10540000040C8BB2264682B25E43104658430D0C04
:10541000370C360400218019164679416E43370C4B
:1054200036048019264679416E438919F8BD00007B
:105430004900CA020243100000D004204A0D01D0E6
:1054400001221043044A490D914201D1022108432F
:10545000012800D105207047FF07000010B500F0BB
:105460008FF8EFF300804000800F012800D000206B
:1054700010BD10B500F0AEF8EFF300804000800FD3
:10548000012801D0012010BD002010BD30380A28AD
:1054900001D20120704700207047000010B500299C
:1054A0000AD00878002807D005487844FCF704FCA7
:1054B000002801D0002010BD0248784410BD000033
:1054C0006E0500006605000010B500290AD00878B6
:1054D000002807D005487844FCF7EEFB002801D0EF
:1054E000002010BD0248784410BD00005E05000099
:1054F0005605000070B50125ED0704004C4020D48E
:10550000441A01D2001B0919C60D4B00F2B2FF2A42
:1055100029D01B0E2CD000020C0228432C43D31A96
:10552000DC40051910D2280A02D3401C6D0611D0A8
:10553000761EF6058019FF2A00DA70BDC00DC00581
:1055400070BD694000F0CEF801200543C541521CF2
:10555000761CE8E764089C40C90161408900E7D1F6
:105560000124A043E4E71B0E440200D0034870BDB1
:10557000002AFCD1C00FC00770BD00BF0000C07F73
:105580000123DB0502000A430DD4DA4203D49A4218
:1055900007D488427047D84214D4D94212D48842E2
:1055A000704780427047DA4203D59A42F9D581426A
:1055B00070475B004200DA4204D24A00DA4201D26C
:1055C0008142704710B5024AFCF718FB10BD00BFBE
:1055D000090013040123DB0502000A430DD4DA425B
:1055E00003D49A4207D488427047D84214D4D9428F
:1055F00012D48842704780427047DA4203D59A42FB
:10560000F9D5814270475B004200DA4204D24A0079
:10561000DA4201D28142704710B5024AFCF7EEFA35
:1056200010BD00BF0900160470B5420064414B0074
:105630005C41120E39D01B0E38D0FF2A3CD0FF2B14
:105640003AD0D2187F3A40024902400A490A451826
:10565000ED0106004E43000A090A48430104731A8B
:105660004019190C4318990F04D05B080121490710
:105670005B1A521CD80904D3401CF50301D19D06C6
:1056800007D0FF2A08D2D50506D0E40720434019E9
:1056900070BD0125A843F4E7002A01DCE00770BDD6
:1056A0002402FF202043C00570BD1B0EFF2A03D03B
:1056B000FF2B01D0E00770BDFF2636064500B5423E
:1056C00006D84D00B54203D8D218FF2A00D0E7E72C
:1056D000004870BD0000C07F70B50125ED070400D3
:1056E0004C4022D4441A02D26C40001B0919C60D4A
:1056F0004B00F2B2FF2A4BD01B0E50D000020C021E
:10570000A8432C43D31ADC40051B05D5AD0019D3A3
:105710006D08761E521E37D0F605280A01D2801970
:1057200070BD70416D0603D070BD6940FFF7E8FEA3
:105730009C4009026140490001D0401E70BD012417
:10574000A04370BD6D081DD001202B0C01D12D048C
:1057500010302B0E01D12D0208302B0F01D12D015D
:10576000001DAB0F01D1AD00801CEB0F01D16D000E
:10577000401C361A121A6D00680AF5054019012AF4
:1057800002DB70BD002070BDC036300AC00770BD9E
:105790001B0E440201D1FF2B00D1024870BD002A2C
:1057A000F0D070BD0000C07F03B402487844844646
:1057B00003BC604711B6FFFF03B402487844844637
:1057C00003BC604779B8FFFF000000000000000044
:1057D0003031323334353637383941424344454627
:1057E0004030580030313233343536373839616221
:1057F0006364656640307800040000080000000023
:105800000000000200010000103031323334353620
:1058100037383961626364656678700030313233DD
:1058200034353637383941424344454658500000F4
:1058300002400000000000A0000000000540000041
:10584000000000C8000000000C4000000000409C68
:1058500000000000194000000020BCBE0000000055
:1058600034400000BFC91B8E00000004B54000009A
:10587000504BCFD06607E2CF010000006C41000022
:105880003E8251AADFEEA73401000000D942000099
:10589000DCB5A0E23A301F97FFFFFFFFB4450000E0
:1058A000FD25A0C8E9A3C14FFFFFFFFFFF3F000098
:1058B0000000008000000000FF3F000000000080AA
:1058C0000000000000200A401000000000200A40F4
:1058D00020000000050000000600000000200A4033
:1058E0004000000000200A40800000000700000087
:1058F0000800000000200A400000040000200A40C8
:1059000000000800130000001400000000200A40FE
:105910000020000000200A40000080000E0000006F
:105920001800000001000000FFFFFFFF0200000060
:10593000FFFFFFFF01000000FEFFFFFF010000006E
:1059400001000000FEFFFFFF01000000FFFFFFFF5E
:1059500002000000FFFFFFFF010000000200000046
:10596000E803000000010100120000000000000038
:105970000000000000000000000003000000000024
:1059800008070000B80B0000200101000807000014
:10599000B80B000020000100080004000003000014
:1059A00007100000030000000000000000000000DD
:1059B00040000000000000000000000002000000A5
:1059C00009000000010000002C00C4410800000094
:1059D000180000000030000008000000180000005F
:1059E0000030000025732025730D0A005B494E46E8
:1059F0004F5D000009000000485B0000000020200F
:105A0000C800000020010000105C0000C800202039
:105A1000D8630000480100001C00000043000000A3
:105A2000F8FFFFFF0C0000000E0000000F00000058
:105A30002E0000001001000043000000F8FFFFFFEF
:105A40000040404040404040404041414141414091
:105A50004040404040404040404040404040404046
:105A600040050202020202020202020202020202D5
:105A700002202020202020202020200202020202DA
:105A80000202909090909090101010101010101032
:105A9000101010101010101010101010020202023E
:105AA0000202888888888888080808080808080882
:105AB000080808080808080808080808020202027E
:105AC0004000000000000000000000000000000096
:105AD00000000000000000000000000000000000C6
