:020000040000FA
:10000000D05D2020C1020000C502000025280000AC
:1000100000000000000000000000000000000000E0
:10002000000000000000000000000000F5280000B3
:100030000000000000000000B1280000CD2D0000ED
:10004000CF02000081270000CF020000712E0000C7
:10005000CF020000CF020000CF020000CF0200005C
:1000600000000000CF020000CF02000000000000EE
:1000700000000000CF020000CF020000ED2D0000C4
:10008000CF020000CF020000CF020000CF0200002C
:10009000CF020000CF0200000000000000000000BE
:1000A000CF020000CF0200000000000000000000AE
:1000B000CF02000000000000CF020000CF020000CD
:1000C00000F002F800F0D1F812A030C80838241867
:1000D0002D18AC4201D100F0C8F80FCCA246AB46B7
:1000E0000CA730CF2D1B083F3F197C427F1E544484
:1000F0002D090426F441641EAC4201D300F0B5F88A
:100100000126334200D0FB1A3343984754465D46DC
:10011000DFE700008C5E0000AC5E00000000000025
:10012000103A02D378C878C1FAD8520701D330C840
:1001300030C101D504680C60704700000000000069
:100140007047000000000000002300240025002666
:10015000103A01D378C1FBD8520700D330C100D583
:100160000B60704710B56E2902D100F075FB10BD11
:10017000702902D100F0B1FC10BD662902D105F052
:100180008BFD10BD652902D105F086FD10BD6729E4
:1001900002D105F081FD10BD612902D105F084FD79
:1001A00010BD03681B0A01D380231943692902D1BA
:1001B00000F01CFB10BD642902D100F017FB10BD3C
:1001C000752902D100F012FB10BD6F2902D100F099
:1001D0002FFC10BD782902D100F06CFC10BDE9297C
:1001E00002D100F0CBFB10BDE42902D100F0C6FB28
:1001F00010BDF52902D100F0C1FB10BDEF2902D1DD
:1002000000F022FC10BDF82902D100F061FC10BD05
:100210000368DB0901D380231943632902D101F06C
:1002200044F910BD732902D101F047F910BDE3294B
:1002300002D101F051F910BDF32902D101F054F9B6
:1002400010BD002010BD1FB501F0E6F9040000202C
:10025000002105F0DBFB401C60600020002105F060
:10026000BFFBE0601FBD10B510BD01F0ADF9114638
:10027000FFF7E9FF03F088F901F042FD03B4FFF74F
:10028000F2FF03BC01F0ECFD70B505460C461646C6
:1002900002E00FCC0FC5103E102EFAD2082E02D36A
:1002A00003CC03C5083E042E07D301CC01C5361F7D
:1002B00003E021782970641C6D1C761EF9D270BD94
:1002C00006480047FEE7FEE7FEE7FEE7FEE7FEE73B
:1002D00003480449044A054B70470000C100000070
:1002E000D02D2020D05D2020D04D2020D04D2020AA
:1002F0004343514330B55C18010C130C0D4692B2C8
:100300005D4380B251432C19054655430A0C09043C
:100310004D1962415843010C00044019514130BD50
:100320007CB51D4616460C00009007D04142A14204
:1003300002D30019401E01E00020C043064B7B445D
:100340002A4669460190304600F09FFA002C02D000
:10035000009A002111707CBD6F05000030B5441C6F
:1003600003E00178401C00290DD08107F9D10B4B27
:10037000DD0104C8D11A91432940FAD0001B0A06B6
:1003800003D0C01E30BD001B30BD0A0401D0801E4A
:1003900030BD0902FCD0401E30BD0000010101014A
:1003A000F8B5042A2CD3830712D00B78491C0370AC
:1003B000401C521E83070BD00B78491C0370401C55
:1003C000521E830704D00B78491C0370401C521E38
:1003D0008B079B0F05D0C91ADF002023DE1B08C93D
:1003E0000AE0FFF751FFF8BD1D4608C9FD401C4655
:1003F000B4402C4310C0121F042AF5D2F308C91AC6
:10040000521EF0D40B78491C0370401C521EEAD4D3
:100410000B78491C0370401C012AE4D40978017050
:10042000F8BDD2B210B513029A1813049A1800F04E
:1004300001F810BD01E004C0091F0429FBD28B079D
:1004400001D50280801CC90700D0027070470029C6
:100450000BD0C30702D00270401C491E022904D3EE
:10046000830702D50280801C891EE3E70022EEE7A5
:100470000022DFE7002203098B4273D3030A8B4279
:1004800058D3030B8B423CD3030C8B4221D312E095
:1004900003460B437FD4002243088B4274D30309E5
:1004A0008B425FD3030A8B4244D3030B8B4228D386
:1004B000030C8B420DD30902FF2212BA030C8B42AC
:1004C00002D31212090265D0030B8B4219D300E04C
:1004D000090AC30B8B4201D3CB03C01A5241830BD1
:1004E0008B4201D38B03C01A5241430B8B4201D381
:1004F0004B03C01A5241030B8B4201D30B03C01AAA
:100500005241C30A8B4201D3CB02C01A5241830A23
:100510008B4201D38B02C01A5241430A8B4201D352
:100520004B02C01A5241030A8B4201D30B02C01A7C
:100530005241CDD2C3098B4201D3CB01C01A5241E3
:1005400083098B4201D38B01C01A524143098B426C
:1005500001D34B01C01A524103098B4201D30B0155
:10056000C01A5241C3088B4201D3CB00C01A52417A
:1005700083088B4201D38B00C01A524143088B423F
:1005800001D34B00C01A5241411A00D201465241D8
:10059000104670475DE0CA0F00D04942031000D3F7
:1005A000404253409C46002203098B422DD3030A4C
:1005B0008B4212D38901FC2212BA030A8B420CD35C
:1005C000890192118B4208D3890192118B4204D385
:1005D00089013AD0921100E08909C3098B4201D305
:1005E000CB01C01A524183098B4201D38B01C01A3F
:1005F000524143098B4201D34B01C01A52410309B6
:100600008B4201D30B01C01A5241C3088B4201D364
:10061000CB00C01A524183088B4201D38B00C01A11
:100620005241D9D243088B4201D34B00C01A5241E8
:10063000411A00D201465241104663465B1001D375
:100640004042002B00D54942704763465B1000D3FF
:10065000404201B50449002802DC491C084000E082
:100660000846C046C04602BDFFFFFF7F7047704787
:10067000704700000121C9050123411842001B06F3
:10068000D3185B0E0AD0C1100722D2068918400782
:100690005242D14201D5520089187047090208D54B
:1006A0000146002A03D0C10FC90700207047104639
:1006B0007047420202D00020024970470721090515
:1006C0000143F4E70000F87F1F22030C02D10F2240
:1006D00000041CD0030E01D10002083A030F01D11F
:1006E0000001121F830F01D18000921E002801DB40
:1006F0004000521ED2055118021251181922904082
:1007000004D3491C002801D1490849000846704714
:10071000C10FC90700D04042012292071143D3E71D
:1007200001218907D0E770B5044685690068C106D4
:1007300001D5302600E02026C00707D070BD6268D2
:100740003046A1689047206A401C20626D1EF6D595
:1007500070BD70B5044685690078C00707D170BDCB
:100760006268A16820209047206A401C20626D1EAC
:10077000F6D570BD09684A0501D540B27047C90574
:10078000FCD500B2704709684A0501D5C0B2704770
:10079000C905FCD580B2704770B50C460546012AE4
:1007A00005D02878800600D5EA69002302E00123FD
:1007B00005E05B1C934202D2E05C0028F9D1A869F5
:1007C000E618C01AA861286AC01828622846FFF7F0
:1007D000AAFF04E06A682078A968641C9047B442C4
:1007E000F8D32846FFF7B5FF70BD0000F7B5002528
:1007F00075291068009914A611D0FFF7BBFF0028D7
:1008000002DA404211A608E0009909688A0701D57A
:100810000FA602E0490704D50EA6012501E0FFF767
:10082000B2FF009F0024243704E000F082FE303144
:100830003955641C0028F8D12B46324621460098D1
:1008400000F059FAFEBD0000000000002D0000007D
:100850002B0000002000000011680268006A5305A8
:1008600001D5087009E0D30501D5088005E013061D
:1008700002D5C21705C100E00860012070470000E2
:1008800001694A1C02610878704700B58FB0029177
:100890000021059105490193794403911146049083
:1008A000684600F027F90FB000BD0000E5FFFFFF2C
:1008B0000CC908399A4202D2531C0B601070704761
:1008C000F7B50446154686B02B487844002703C880
:1008D0003E460090019111E007986A467100415A26
:1008E00002A800F005FE411C07D02178890603D537
:1008F000E269391891420ED83F18761C207880069C
:1009000002D5E069B84206DDAE42E5DB079871002A
:10091000405A0028E0D1A069C01BA0612046FFF723
:1009200002FF154878445A3803C80090002001910E
:1009300016E041006A460798415A02A800F0D8FD27
:100940000590401C0AD0002505E0626802A8A16855
:10095000405D90476D1C05988542F6D30498401C75
:10096000B0420490E5DB206AC01920622046FFF700
:10097000F0FE09B0F0BD0000EA530000F7B5D21D4B
:100980000025D20815A6D200F52905CA11D0002AE3
:1009900005DA00214042914111A60A4608E000997B
:1009A00009688B0701D50FA602E0490701D50EA6FD
:1009B00001251146009F0024243704E000F05EF971
:1009C00030323A55641C02460A43F7D12B46324670
:1009D0002146009800F08FF9FEBD000000000000E5
:1009E0002D0000002B0000002000000070B5044620
:1009F0000021243408E05507D2086D0F30356554C6
:100A00005D072A43DB08491C15461D43F3D10468E2
:100A1000002310A2250708D520252C400C4304D024
:100A2000C46901230CA2641EC46100F064F970BDA6
:100A300010B5044621461068FFF7A5FE00230246C4
:100A40002046FFF7D3FF10BDD21DD108C9000CC945
:100A5000CCE700000000000030000000F8B50F46B1
:100A60000188090502D5224C7C4402E0204C7C44DC
:100A70000E3405460021243508E016071209360F0A
:100A8000A65D6E541E0732431B09491C16461E43C1
:100A9000F3D1224604780023240705D5702F06D011
:100AA000002901D00223113200F025F9F8BD0123FD
:100AB0001032F9E770B504460D4621461068FFF77D
:100AC00062FE0023024629462046FFF7C7FF70BD9D
:100AD000D21DD308DB000CCBC0E730B40368202460
:100AE0001268234303600823C36130BC0023B5E7C9
:100AF00054520000F3B50446002081B02062204625
:100B0000E1688847002872D0252802D06268A16871
:100B1000ABE0594F00267F442046E16888472028F3
:100B2000054608DB312D06D27819203800780028D8
:100B300001D00643F0E7B00701D50420864300202A
:100B4000E0610746A0612A2D0AD0284604F041FF43
:100B5000002827D0B8000019303D0090856119E0C9
:100B60000298BA00121902C8916102902046E16809
:100B70008847012F054617D1E06900281FDA202099
:100B800086431CE000980A21806948430099401977
:100B9000303888612046E1688847054604F019FF2F
:100BA0000028EFD1012F0AD02E2D08D12046E16870
:100BB00088470546202006437F1C022FC3DBA0691F
:100BC000002803DA4042A06101200643F00701D06B
:100BD000102086436C2D0BD0682D09D04C2D3CD0B5
:100BE0006A2D38D0742D38D07A2D36D016E040E0FA
:100BF000E1682F4620468847B842054609D16C2F48
:100C000029D001208002E168064320468847054636
:100C100004E06C2F1DD0FF2001300643002D28D0AA
:100C200028464138192803D80120C0020643203540
:100C3000204626602946029A1646FFF793FA0028B6
:100C400010D001280BD0F61DF008C000083002902B
:100C500055E74020E1E78020D5E70020D3E7361DA7
:100C600002964CE762682846A1689047206A401CBB
:100C700044E7206AFEBD0000CE5100000B4670B56F
:100C8000024689078008084319469D08141AA9419D
:100C900025090807054308092C194841250A0106BA
:100CA0000D43010A2C194141200C0D0428430D0C61
:100CB00000194D41002140194D41C0086907084302
:100CC000E908840F8D002543840024184D41241920
:100CD0006D41121BAB4107E00925ED432C11521960
:100CE00063410024401C61411C460A250026551B17
:100CF000B441F1D270BDFFB504460D4681B0243039
:100D000000902168880604D51022E0699143216093
:100D100000E00120A84201DD471B00E00027049805
:100D2000A1697A191018081AA0612078C00602D4A7
:100D30002046FFF7F8FC002608E003986268A168E7
:100D4000805D9047206A401C761C20620498864291
:100D5000F3DB2078C0060AD52046FFF7E4FC06E066
:100D60006268A16830209047206A401C20623846A3
:100D70007F1E0028F4DC07E000986268A168405DEF
:100D80009047206A401C206228466D1E0028F3DC34
:100D90002046FFF7DEFC2078000602D5022005B0D1
:100DA000F0BD0120FBE70000FFB50C461E468FB0EA
:100DB00003CA089009914F007D0D00D16D1E0021DE
:100DC00008460020C0460321099A89050840002AE8
:100DD00003DA8200801840080840800D01280A903C
:100DE00002DD0020C0430A90089807430DD0F04868
:100DF000F049281848430714189800281DD0754258
:100E0000291E1DDD0A9842421BE01898012802D0D5
:100E10000020302104E00020F24305E02154401C72
:100E2000B042FBDB30460022189B002121540F9971
:100E30008B600A60486013B0F0BDBD1B6D1CDFE71E
:100E40000A9A002900DA69420BA800F02DFC0BABCE
:100E500007CB03AB07C30899099800F091FC6B46D8
:100E600007C30146D4480918002D00910BDDD24973
:100E700003980A9A49424018002303A90390684640
:100E800000F0EEFE08E003990A9A0023081803A96F
:100E90000390684600F08EFE6B4607C30004000C0A
:100EA00003D00020C043410800E01046189A002AF1
:100EB00003D00022009215461EE0751E05D4FFF7F0
:100EC000DDFE303262556D1EF9D5012208430796CA
:100ED00002D000227F1C04E02078302801D10022BB
:100EE0007F1E002A069787D01EE0112D07DAFFF734
:100EF000C5FE303262556D1C02460A43F5D10843E7
:100F000003D00098002819D00EE00021681E05E0EB
:100F1000235C625C63542254401E491C8142F7DB0F
:100F2000A81B401E07950690079A18990020A05408
:100F30000F98079B069A81600CC07CE71126002061
:100F4000189059E7D21DF0B50D460446D10893B06C
:100F5000C90003C90C900D9104F018FD02460D98CC
:100F6000C00F01D02D2007E02068810701D52B207C
:100F700002E04007C00F4001032A0F9001D0072A6A
:100F800005DB03462946204600F04AFB0EE12078A7
:100F9000800601D5E76900E006272846652D04D0C4
:100FA000662814D0672D69D12DE00020112F009004
:100FB00001DB112300E07B1C0CAA03A910A8FFF79A
:100FC000F3FE1199002610987D1C0E9142E001203D
:100FD0003B460CAAC0070B900120009003A910A863
:100FE000FFF7E2FE119D12981099002600280E9539
:100FF00001D1781C0D18781B02D446427D1C761E48
:10100000E81B00903AE0012F00DA01270020112FA1
:10101000009001DD112300E03B460CAA03A910A8B3
:10102000FFF7C2FE11993D46109800260E912178D7
:1010300009070BD40E99A94200DA0D4603A9012D28
:1010400004DD4A19203AD27F302A06D0B84201DAAC
:10105000011D04DA012100910FE06D1EEFE7002869
:1010600002DC86192D1A03E0411CA94200DD0D4661
:10107000801B401C00900120C0070B9020780007C7
:1010800005D40098A84202DB0020C04300906946C6
:101090000020C8720B98012102AF0337C9078842AC
:1010A00025D0022010902B2011900B9800280BDAED
:1010B00040420B902D20119006E00B9800F039FA79
:1010C00030317F1E0B9039701099481E0029109006
:1010D000F3DC0B980028F0D111987F1E387020881F
:1010E000000501D5452000E065207F1E387001A86D
:1010F000C01BC01D0B900F98002800D00120411983
:101100000098C01709180B980818A169081A401E02
:10111000A0612078C00602D42046FFF704FB0F9898
:10112000002805D06268A1689047206A401C2062B0
:101130002078C00625D52046FFF7F5FA21E0002EDD
:1011400007DB0E98B04204DD03A86268805DA168E9
:1011500002E06268A16830209047206A761C401C3B
:1011600020620098401E002800900AD100F054FA36
:10117000C06862680168405CA1689047206A401CB2
:10118000206228466D1E0028D9DC07E062683878A6
:10119000A1687F1C9047206A401C20620B99481E62
:1011A00000290B90F2DC2046FFF7D3FA032042E639
:1011B00001FCFFFF104D0000E1DFFFFFD21DF0B585
:1011C00004460D46D0088DB0C00046680768314619
:1011D000384604F0DBFB0246F00F01D02D2307E078
:1011E0002068810701D52B2302E04007C00F43018F
:1011F0006846002B037001D0012000E00020032A84
:101200000A9001D0072A04DB2946204600F008FA9C
:101210002DE12078800601D40D2500E0E5697000FD
:10122000400D0D2D01904BDA300D00210B9008463A
:101230000020C046032189050840002E05DA8200FF
:101240008018C20F1018401008408015012801DDD9
:101250000020C043A9000023182906D39C460A4653
:101260000123183A1B07D34003E001221205CA40AC
:1012700094460C31202902D33A46203900E0324608
:101280008A40002802DD002A06D119E0002817D183
:101290000121C9078A4213D3194663467F185E416C
:1012A000002806D10120C007824202D108468743A8
:1012B0009E430B98310D814202D00198401C019051
:1012C0002088000502D57149794402E06F497944CC
:1012D00019396B460A9830221A540A980A7C401C25
:1012E0001A54401C0A900198002801DC302000E0CC
:1012F00031201872019A0120002A02D0644BD218C2
:1013000004E072003A4302D0614A521C0192002D5F
:1013100002DC2278120703D56A462E205072022082
:101320000022864694460CE032033601120F6D1EF1
:101330008B5C02AA13546246521C401C9446052A38
:1013400001DA002DF0DC002202AE08E03B0F3F0185
:10135000CB5C521C6D1E3354401C082A01DA002D50
:10136000F4DC23689A0601D511E0401E704504DDC7
:101370003218203AD27F302AF7D0002807DD321801
:10138000203AD27F2E2A02D11A0700D4401E002D07
:1013900003DD3E223254401C6D1E497C31540199BC
:1013A000401C002906DA2D21471C31540198404287
:1013B000019003E02B21471C315401987D21C90085
:1013C000884206DBFFF764F83030F0557F1C01914E
:1013D00001E0642808DB01986421FFF759F83030F8
:1013E000F0557F1C019101E00A2806DB01980A21D3
:1013F000FFF74EF83030F0557F1C01980A21FFF7B7
:1014000047F83031F1550A98A1697F1C7A191018F4
:10141000081AA0612078C00602D42046FFF783F99D
:10142000216A6E460A980818206204E062683078E3
:10143000A168761C90470A98401E0A90401CF5D17E
:101440002078C00602D52046FFF76DF902AE09E00C
:101450003078761C3E280DD06268A1689047206ADB
:10146000401C20627F1EF3D22046FFF772F90DB0B8
:101470000320F0BD206A4019206203E06268A16881
:10148000302090476D1EEDD3F8E70000404A000081
:1014900001FCFFFF10B54369002B02D0C046C046D7
:1014A00001E0FFF779F9012010BD127801462431DF
:1014B0000A7000224A700122ECE711680022D24330
:1014C000E8E710B54369002B02D0C046C04601E0F2
:1014D000FFF7F6F9012010BD1288014624318284FD
:1014E0000022C2840122ECE711680022D243E8E71F
:1014F000F8B516460C46054600F086F80368FF204E
:101500000230C05C012807D0FF2C0FD8185D0028DE
:101510000CD001202C70F8BDFF3332462146083331
:101520001868C71828460023B847F8BD0020C043F4
:10153000F8BD01468008081A02091018020A10189E
:10154000020C1018C008820012185200891A01E01B
:10155000401C0A390A29FBD27047000010B5FF234E
:101560001B0644009C421DD84C009C421AD80346DE
:10157000124A0B4307D4401A02D3EFF3008010BD88
:10158000EFF3008010BD081A03D3EFF300809043FF
:1015900005E0EFF3008001219043C907084380F381
:1015A000008810BD0D231B041A4204D011460020F0
:1015B00000F0AEFB10BD00F0C3FB10BD00000090BA
:1015C00000487047380020207546FFF7F9FFAE4607
:1015D000050069465346C008C000854618B020B5CE
:1015E000FEF776FE60BCB64600260027C0C5C0C523
:1015F000C0C5C0C5C0C5C0C5C0C5C0C5403D4908FF
:1016000049008D467047000010B500F005F8001D38
:1016100010BD00BFF943000000487047580020206B
:10162000F8B51F46044601230068DB020326014685
:101630001840072A05DB002801D017A506E017A5EA
:1016400004E0002801D016A500E016A51020814373
:101650002160A069C01E002FA06101D0401EA061C2
:101660002046FFF760F8002F09D038466268A1686D
:101670009047206A401C2062C01C206206E0206A5D
:10168000FAE762682878A1686D1C9047761EF8D248
:101690002046FFF75EF8F8BD4E414E006E616E00C9
:1016A000494E4600696E6600F7B516468AB0334863
:1016B00078446C4603467C33C06F5A689B680DC4FF
:1016C0002E487844763003AC0DC80DC43720C001D5
:1016D000081837211B30FEF7DBFE05460C46803D1F
:1016E0001B3C02D56442012000E000200027099045
:1016F00010E0E0070CD00C202049784379443246B2
:101700004C3941186846012300F054FA6B4607C370
:1017100064107F1C002CECD1184F7F442E3F16E044
:10172000E80712D02001C0190EC80691089307924D
:101730000068F04201D1981908903246012306A9A9
:1017400003A800F037FA03AB07C36D10641C002D2B
:10175000E6D10998002806D032466946012303A83D
:1017600000F07EFA05E001233246694603A800F046
:1017700021FA0A9B07C30DB0F0BD00006C460000C3
:10178000034640000A4610B5400D0BD00121C907A1
:101790000F24A40200191C0364082143540D2143A3
:1017A000D20207E000210120F2E7D40F49002143D3
:1017B0005200401E0029F8DADB0FDB07184310BD8A
:1017C000FFB50D46144685B04868516804F0C5F869
:1017D00000910190A868A16804F0BFF802910390FD
:1017E000A868616804F0B9F8029A1218824202925D
:1017F00001D2012000E00020019A0B18D218002825
:10180000019202D08A4202D903E08A4201D2012029
:1018100000E000200099081800906868A16804F0B2
:101820009CF8029A12188242029201D2012000E032
:101830000020019A0B18D2180028019202D08A4287
:1018400002D903E08A4201D2012000E00020009981
:10185000081800902868216840004900400849089D
:101860004018FA49471814E001994000C90F08438D
:101870000090019802994000C90F08430190029816
:1018800003994000C90F08430290039840007F1E4F
:10189000039000980028E7DA0898002801D0EC4E61
:1018A00000E00026B74201DA012000E00020002815
:1018B00004902AD0F71BF806C00E15D0029B2021F9
:1018C000091A039A8B401A430392029A019BC24061
:1018D0008B401A430292019A009BC2408B400099B0
:1018E0001A430192C14000917B110DD06F46032035
:1018F000C11A03D500218200B95003E08A0081009B
:10190000BA587A50401EF3D53746039802990028FA
:1019100000D00120014308980291002808460CD00D
:10192000002800D001200199019A490508430121AE
:10193000D20AC902D202019200E001210E9B0122CB
:10194000D207012B02D0002B03D013E0002807D1CF
:1019500020E0904204D890420CD1019B0B4209D068
:10196000019B5918019105D10099491C009101D1A1
:101970007F1C009200280DD0102108460020C04690
:101980000498002806D00F98002803D008210846A4
:101990000020C04628682168019B009A4840C10F7A
:1019A0000598C90739430EC009B0F0BDFFB587B02F
:1019B000099A089808995368926840688968964619
:1019C0000022039317469446089A12685300099A16
:1019D0005B081268520052089A1A9E4BD4180A9A51
:1019E000002A01D0352200E0402206920022012385
:1019F00015460492DB07059324E0002D05D17546BA
:101A00000346039E4D1BB34109D375466646039BAF
:101A1000491B049D9841059B7519AC465F4163467F
:101A20003B4308D0059B049EDD0776082E435B08E8
:101A30000496059301E0521E641EC50FED07491878
:101A40004041521C069B9A42D7DB002D04D17546BB
:101A5000039A6B1A824101D203200CE0039A0B46D1
:101A60006B404240134303D0014303D0012002E006
:101A7000022000E0002061460191002100970291C0
:101A80000A99002905D0614640020143704B01913B
:101A900002E08007002302909C4201DA012000E06E
:101AA000002007003AD01A1BD006C00E15D0029DA8
:101AB0002021019C091AC5408C402543029C8C4082
:101AC00000D001242543019C0295009DC4408D4017
:101AD00000992C430194C140009154111DD06D46D2
:101AE0000221002202290CD10320001B07E000285C
:101AF00004DB8600AE59002E00D00122401C0328D2
:101B0000F5DB081B02D588002A5004E08000285825
:101B100010438A00A850491EE3D51C460A980028A5
:101B200002980CD0002800D001200199019A4905A3
:101B300008430121D20AC902D202019200E0012128
:101B4000109B0122D207012B02D0002B03D013E0FF
:101B5000002807D11FE0904204D890420CD1019B8D
:101B60000B4209D0019B5918019105D10099491CDC
:101B7000009101D1641C009200280CD0102108466D
:101B80000020C046002F06D01198002803D008215D
:101B900008460020C04608980999019A009B0068F1
:101BA00009684840C10F0798C907214382600AC0ED
:101BB0000BB0F0BD00B585B0019300920A46014616
:101BC000002302A8FFF7FCFD02A807C805B000BD6E
:101BD000FFB50A461F4685B007990193012300917E
:101BE000014602A8FFF7ECFD02990398049ECA0F74
:101BF0004900D20700920F22490892028C1A002154
:101C0000002800DB0C46450013486D08844214D3BD
:101C1000079A002A04DA441E0026104DF64302E01B
:101C200004460D460E46102108460020C046002FEF
:101C300003D0042108460020C0462005E90A0843D5
:101C4000009908436905F20A1143ADE602C0FFFF9F
:101C5000013C0000FF3F0000FF070000FFFFFF7F87
:101C600000B585B0019300920A460146002302A800
:101C7000FFF79CFE02A807C8A8E7FFB50A461F4663
:101C800085B00799019301230091014602A8FFF74F
:101C90008DFE02990398049ECA0F4900D207009254
:101CA0000F22490892028C1A0021002800DB0C4602
:101CB000450011486D08844214D3079A002A04DABB
:101CC000441E00260D4DF64302E004460D460E4626
:101CD000102108460020C046002F03D004210846EA
:101CE0000020C0462005E90A084300990843690519
:101CF000F20A114358E60000FF070000FFFFFF7FD4
:101D000010B50446C046C0462046FEF7B7FA10BDDF
:101D1000C80212D54803400F002804D0C803C043AE
:101D2000012188407047EFF3008000010009032182
:101D30000907084380F300887047002070470000BF
:101D400010B5024800F05CF810BD00000000C07F34
:101D500082078B079A423FD170B5920F0AD00324B5
:101D600002780B78401C491C002A33D09A4231D1AA
:101D70002042F5D1214EF40104C808C9951B9543B2
:101D8000254018D19A420FD104C808C9951B954324
:101D9000254010D19A4207D104C808C9951B954324
:101DA000254008D19A42E7D012BA1BBA01209A42C4
:101DB00000D2404270BD12BA1BBA2DBA18241000CE
:101DC000E0401900E140401A05D12E00E64002D162
:101DD000083CF4D1D01A70BD02780B78401C491C25
:101DE000002A09D09A4207D102780B78401C491C7E
:101DF000002A01D09A42EFD0D01A704701010101A8
:101E000010B50C461107090F092904D00A290AD078
:101E100008290CD104E011460820FFF779FF06E0FD
:101E2000510606D501E0510601D50120C007214623
:101E300010BDD10607D501010909CC084907000EDC
:101E40000006044309E0410F20024907000A01434C
:101E5000200E00061D22D14101430846E7E700009D
:101E600001491820ABBEFEE7260002007047811E24
:101E7000091F00BFFCD2704784B003900291019209
:101E8000039800680090009801998843009000989A
:101E90000299019A114008430399086004B0704701
:101EA00083B0009101460098029101A90870029840
:101EB0000978090141180920420288580223184371
:101EC000885003B07047000070B50B01C318546808
:101ED0009568254394892C43156956692543D4890F
:101EE00024012C4335012543092464021D51137834
:101EF00052781A43BF231A408900401802494458B7
:101F00009C43A218425070BD1011000084B0009292
:101F100002460098039202AA117001900198039959
:101F2000127812018918024A885004B07047C046DE
:101F30000812000084B0009202460098039202AAA0
:101F40001170019001980399127812018918024AC0
:101F5000885004B07047C0460412000085B000925B
:101F60000A460099019202460198049203AA107051
:101F700002A8018000880499127812018918024A87
:101F8000885005B07047C0460C12000082B0019026
:101F90000091009B0199094A88581843885002B063
:101FA0007047C04682B001900091009B0199034A9E
:101FB00088581843885002B07047C0464810000047
:101FC00082B00190009100980199952252018850A9
:101FD00002B0704782B0019000910098019995225B
:101FE0005201885002B0704782B001900091009871
:101FF000019995225201885002B0704782B0019039
:102000000091009B0199034A88581843885002B0F8
:102010007047C0462810000082B0019000910098DF
:102020000199024A885002B07047C046D0120000A1
:1020300081B0009000990120C202DE48885001B0B2
:102040007047C04682B00190009101980249405803
:102050000099084002B070473810000081B000902D
:1020600000988100154A0248885001B07047C04668
:102070008100040081B00090009881000F4A812007
:10208000885001B07047C04682B00190009100981E
:102090000349084301998900084A885002B07047F3
:1020A0008000040082B001900091009880210843D4
:1020B00001998900014A885002B07047048042406B
:1020C00081B000900099424A4248885001B0704760
:1020D00082B001900091009B0199034A88581843EF
:1020E000885002B07047C0469013000082B0019043
:1020F000009100980199074A885002B07047C04685
:1021000082B00190009100980199024A885002B073
:102110007047C0469012000082B001900091009B71
:1021200001999D20420188581843885002B0704799
:1021300082B0024601A80270009101783020484325
:10214000024940580099084002B0704710114040C1
:1021500081B000900099034A8858012318438850A1
:1021600001B070470411000081B000900099012077
:10217000C2029048885001B07047C046B0B51122E5
:10218000120283580C4C1C400B894D881D438B79DF
:102190002B430A4D1D402B1983508B88CC791C434F
:1021A000097821435D239B001940801842689A43B7
:1021B00089184160B0BDC04680CCFFFF7F3300006E
:1021C00081B000900099C44AC448885001B070475B
:1021D00004080000030000B180B582B001900091B6
:1021E00001986E4940180099024AFFF745FE02B077
:1021F00080BDC046FF03000010B501221203831802
:102200000C785C604978815010BD000080B584B0C6
:1022100000920A4601460098039102A90A7001AA99
:1022200010700398CA4BC0180978127811433F22E6
:10223000FFF722FE04B080BDF0B584B00124220275
:102240002A4B19680392914319604F490D686D0438
:10225000FCD5457E25409E69A64374199C612024C7
:10226000045D03252C40DE69AE433419DC61204C4B
:10227000256805262660466A37681F6276685E62B2
:1022800007262E402660C4697F252D02DE69AE43F5
:102290006406640C3419DC61076845688268009242
:1022A000C66802690192426902929A69114C14400F
:1022B0003A07120B2D03ADB2AA183243009D2D0729
:1022C0002D0D1543019A1543029A1543007E2843AC
:1022D000094A0240101998611868039A104318605F
:1022E00008688005FCD504B0F0BDC04608010B406D
:1022F000001340408D00F0FF72FF0F0081B00146D7
:102300006846017000780249086001B07047C04615
:1023100008030B4080B582B0014601A80180018806
:102320000F2002021748FFF7A7FD02B080BDC0468C
:1023300080B582B0014601A80170017802480322ED
:10234000FFF79AFD02B080BD00010B4080B582B05E
:10235000014601A8017001780A483022FFF78CFD80
:1023600002B080BD07498860074802689202FCD528
:10237000012212040B6813430B600168C906FCD5E7
:102380007047C04604010B4004020B4081B000902E
:102390000099FA4A0120885001B0704708110000E6
:1023A00081B0009000990120C2029348885001B08A
:1023B0007047C04601000026F0B53C4A82183C4BED
:1023C000C31808794E793B4D3B4C002E23D0202872
:1023D00004D00526F601002803D003E0374E00287C
:1023E00000D18826576F2F4037435767976F2F408C
:1023F00037439767566B26405663966B2640966325
:102400000026566596658F26F6435F6837405F6005
:102410009F6837409F608E79096820280BD000287C
:1024200019D1491E5160D76E2F4088210F43D766BE
:102430001746703719E0491E5160D16E29401F4F71
:102440003943D166116F294039431167012149078A
:102450001B4D174609E049085160D76E2F400521F2
:10246000C9010F43D766174670373C682C400C43B0
:102470003C60D16A104C2140D162116B2140116344
:102480000021D16411658F21C943D46F0C40D467FA
:102490001C680C401C600643BD2030401168094B8D
:1024A0000B40C018801C1060F0BDC046041800002E
:1024B0008418000024493E008888FDFF01040000C4
:1024C000FFFFFFCF4000FFCF81B000900099734A1B
:1024D0007348885001B0704704080000030000B141
:1024E00082B0019000910098019911221202885047
:1024F00002B0704710B507239B0419409200801862
:10250000024A84589C436118815010BD3018000065
:1025100010B5029CA400001911431943014A8150CF
:1025200010BDC0465018000092008018014A81502A
:102530007047C0461018000010B50122120383181E
:102540000C789C604B7883508978874A815010BD05
:102550000C11000082B00190009100980199074A87
:10256000885002B07047C04682B001900091009838
:102570000199024A885002B07047C04648100000D6
:1025800081B000900099112002028858012318435D
:10259000885001B07047000081B000900099012080
:1025A000C002024A885001B07047C046881000003F
:1025B00081B00090009911200202885801235B0429
:1025C0001843885001B0704782B001900091009B81
:1025D0000199034A88581843885002B07047C04692
:1025E0002810000081B0009000990120C20202482A
:1025F000885001B07047C0460100002681B00090AD
:102600000098812149014058C0B201B0704781B0A3
:1026100000900098812149014058C0B201B0704734
:10262000B0B51122120283580124A34383500B88B2
:102630008C781C438B882343094C1C408358094DDC
:102640001D40631983508B79CC791C43097A21434F
:102650007E231940801842689A4351184160B0BDEA
:1026600018670000E798FDFF81B0009000980649C8
:102670004058C0B201B0704781B000900098024944
:102680004058C0B201B070472411000081B00090E2
:102690000099024A0248885001B0704704080000BF
:1026A000030000B180B584B00390029101920398B9
:1026B0000B49401802990B4AFFF7DEFB03980A49C1
:1026C000401801993F22FFF7D7FB0399074A881862
:1026D000895801221140FFF7CFFB04B080BDC046EE
:1026E00010110000FFFF0000141100000411000091
:1026F00010B50122120383180C789C604978815030
:1027000010BD80B582B0019000910198112109029D
:10271000401800990322D203FFF7AEFB02B080BD40
:1027200080B584B0019101460198039102A9087017
:1027300003980D4A801809787022FFF79DFB04B0BA
:1027400080BDC04680B584B00191014601980391D7
:1027500002A908700398044A801809780722FFF735
:102760008BFB04B080BDC0460C110000034A8018EA
:1027700002681206FCD481617047C046081100004F
:1027800080B584B001200221FFF7D2FC002842D09E
:10279000FFE703A900200870FFE703A800780728D7
:1027A00038D8FFE703A80078C1001C484158B84852
:1027B000FFF748FC002827D0FFE703A80090007827
:1027C000C100164801904158B148FFF7EBFB009952
:1027D00001980978C9004018416802A80170007882
:1027E000FE2810DCFFE702A8007881000C48405862
:1027F000002808D0FFE702A8007881000848405868
:1028000000F0B4FDFFE7FFE7FFE70398401C03A9D2
:102810000870C2E7FFE704B080BDC046B45D0000A9
:10282000B001202080B582B00B4800F017F801A855
:1028300001210170002141708170827869468A709F
:10284000027840780002801808800099032000F088
:10285000C1FE72B6FFE7FEE7705E000083B080B590
:1028600083B0079306920591029005A80190029902
:10287000019A012000F048FE03B080BC01BC03B007
:102880008646704783B080B583B007930692059162
:10289000029005A801900299019A032000F034FEED
:1028A00003B080BC01BC03B0864670470000000046
:1028B000EFF309800E4B1A6820381060F0C04446D0
:1028C0004D4656465F46F0C008B572B602F0B4F801
:1028D00062B60CBC116808681030F0C8A046A94662
:1028E000B246BB4680F309882038F0C81847C04676
:1028F000F00620207047000080B5034A03480021FD
:10290000FFF7E2FA80BDC046F45D000000A042403F
:1029100080B5FFF7F1FF80BD80B58AB000200421AB
:102920000191FFF7BFFB5848059001210291FFF785
:1029300073FB01990298FFF7B5FB059802210391FB
:10294000FFF76AFB01990D20FFF7ACFB059880218A
:10295000FFF762FB2E2003210491FFF7A3FB0299EE
:1029600005988905FFF758FB03991420FFF79AFB98
:1029700003991520FFF788FB03990E20FFF792FBC0
:1029800003990F20FFF780FB04992620FFF78AFBAD
:1029900004991F20FFF786FB04992520FFF774FB9D
:1029A0003820FFF767FB3920FFF764FB3120FFF782
:1029B00061FB2020FFF75EFB2A20FFF75BFB2F2047
:1029C000FFF758FB1C20FFF749FB1820FFF746FBD9
:1029D0001920FFF743FB1A20FFF740FB1020FFF7F9
:1029E0003DFB1120FFF73AFB1620FFF737FB1720BE
:1029F000FFF734FB2C20FFF731FB2B20FFF72EFBDA
:102A00003220FFF72BFB1D20FFF728FB3B20FFF7B1
:102A100031FB2120FFF72EFB2220FFF72BFB12209A
:102A2000FFF728FB3A20FFF725FB3620FFF722FBB4
:102A30002420FFF71FFB2320FFF71CFB05981349F9
:102A40000691FFF7BDFA05980699FFF7E5FAC94820
:102A5000089010490791FFF7B3FA07990898FFF714
:102A6000DBFA08980C49FFF733FB08980B49FFF78E
:102A700053FB08980A490991FFF788FA08980999C1
:102A8000FFF7BCFA0AB080BD00000A4000F1000E5A
:102A900000200A400000530C00FF000CF0C00000B2
:102AA000F0208C0080B584B01B49B3480390FFF739
:102AB00043FD03981949FFF77FFC03980023019316
:102AC000009319461A46FFF723FD019A0398114611
:102AD000FFF710FD019A03981146FFF725FD019BB2
:102AE000039801210291009119461A46FFF710FD43
:102AF0000199029A0398FFF7FDFC0199029A039845
:102B0000FFF712FD0398FFF741FC03980321FFF73D
:102B1000E7FC04B080BDC0460C5E0000105E000003
:102B200080B584B01B4995480390FFF705FD0398D5
:102B30001949FFF741FC03980023019300931946BC
:102B40001A46FFF7E5FC019A03981146FFF7D2FCFD
:102B5000019A03981146FFF7E7FC019B03980121B6
:102B60000291009119461A46FFF7D2FC0199029A88
:102B70000398FFF7BFFC0199029A0398FFF7D4FC72
:102B80000398FFF703FC03980321FFF7A9FC04B0A7
:102B900080BDC046185E00001C5E000080B582B09B
:102BA0000B4977480190FFF727FB01980949FFF788
:102BB000E5FA01982721FFF70FFB01981021022267
:102BC000FFF724FB0198FFF7C3FA02B080BDC046AF
:102BD000245E0000265E000080B582B000200190D7
:102BE000FFF78CFB01204002FFF794FB0198FFF7F1
:102BF0009FFB0548FFF720FB1020FFF7A7FB01987C
:102C0000FFF7B0FB02B080BD305E000080B582B03F
:102C1000144995480190FFF76BFD01981249FFF7A1
:102C2000FFFC01980021FFF76CFD019815212D2272
:102C3000FFF738FD019845218902FFF7C5FC01988F
:102C4000FFF7AAFC0198FFF7B3FC01987021FFF78A
:102C500067FD01980721FFF775FD0198FFF790FCCC
:102C600002B080BD585E00005A5E000080B582B0A0
:102C70000F49E2480190FFF73BFD01980D49FFF72E
:102C8000CFFC01980021FFF73CFD01982B211A226F
:102C9000FFF708FD019801218902FFF795FC032049
:102CA000022100F0DDF90198FFF76AFC02B080BD57
:102CB000645E0000665E000080B500F021F8FFF75A
:102CC0002BFEFFF789FFFFF7EDFEFFF729FFFFF768
:102CD0009DFFFFF7CBFFFFF761FFFFF719FE0549E7
:102CE000B8220020885404492C2288540349242205
:102CF000885480BD9C002020800120205801202085
:102D000080B588B01A480190FFF7DAF919480290A7
:102D1000FFF7D6F918480390FFF7D6FB1748049041
:102D2000FFF7D2FB50480590FFF7B0FCB348069080
:102D3000FFF7ACFC12480790FFF742FA0198FFF743
:102D400077F90298FFF774F90398FFF729FB0498C5
:102D5000FFF726FB0598FFF745FC0698FFF742FCB6
:102D60000798FFF701FA1020FFF781F808B080BD3F
:102D700000000A4000200A40000086400000094090
:102D800000A0464080B582B00C499C4800900522C6
:102D9000019201F0B7FAC82000F09AFA0098019A5F
:102DA000074901F0AFFA074800F092FA0098019A3B
:102DB000054901F0A7FA02B080BDC0460A002020F4
:102DC00000002020B80B00000500202010B501F005
:102DD00035FA044602F0FEFA002803D0012000076D
:102DE00022490860204601F00BFB10BD80B584B07D
:102DF0001D48FFF703FC014602A80170007801900E
:102E00000B2808D0FFE701980D2810D0FFE70198A4
:102E1000112813D013E01448FFF726FC03A908700B
:102E2000DD48006800231A4602F095F808E0F648ED
:102E300000680022114601F0C3FC01E000E0FFE75A
:102E400002A801780848FFF785FBFFE7EE48006815
:102E5000002805D0FFE70120000704490860FFE7CC
:102E6000FFE704B080BDC0460080104004ED00E0E4
:102E700080B590B061480B90FFF7C9FB01460B98F5
:102E80000FAA1170FFF7F8FB0EA908705C48007BD1
:102E90000C90002808D0FFE70C9801280ED0FFE71F
:102EA0000C9802281AD0A2E00EA80078552804D168
:102EB000FFE7534901200873FFE798E00EA8007868
:102EC000532806D1FFE74E490220087300204881AD
:102ED00003E04B4900200873FFE788E00E9948485B
:102EE0004289531C43818154408909287ED1FFE7E0
:102EF00043490A9148780A788018CA7880188A78F5
:102F000080184A7980180A798018CA7980188A79D5
:102F10008218A8320DA802700078097A884261D11F
:102F2000FFE7374809900088FDF7F2FB0721C90643
:102F300002F0F2FD3349089102F0EEFD08990246D5
:102F400009980261006902F037FD002809D1FFE706
:102F50002B48079000692C4902F06EFD0799086123
:102F6000FFE7274806904088FDF7D2FB0721C906F6
:102F700002F0D2FD2349059102F0CEFD05990246EB
:102F800006984261406902F017FD002809D1FFE769
:102F90001B48049040691C4902F04EFD04994861A9
:102FA000FFE7174803908088FDF7B2FB0721C906A9
:102FB00002F0B2FD1349029102F0AEFD0299024601
:102FC00003988261806902F0F7FC002809D1FFE7CD
:102FD0000B48019080690C4902F02EFD019988612F
:102FE000FFE7FFE7064900200873FFE7FFE70FA8A8
:102FF00001780248FFF7B8FA10B080BD00005040D9
:1030000010002020000034430000B4C381B001460A
:103010006846017000214056002809D4FFE7684641
:1030200001781F200140012088400C490860FFE71B
:1030300001B0704781B001466846017000214056DA
:10304000002809D4FFE7684601781F2001400120CD
:10305000884002490860FFE701B0704700E100E0E6
:1030600070B582B0024601A802700091002140565E
:10307000002816D4FFE7002401A908570322D343F0
:103080001840174A805809578C07E50EFF24AC40BA
:10309000A043009CA401E4B2AC40204319408850F6
:1030A0001AE001A908780F24204008380322D343EE
:1030B00018400A4A8058002549578D07EE0EFF2513
:1030C000B540A843009DAD01EDB2B5402843214075
:1030D000083919408850FFE702B070BD1CED00E0D0
:1030E00000E400E080B50120C1060648FEF772FF4B
:1030F00080BDC04680B50120C1060248FEF7F6FF3C
:1031000080BDC04600000A4080B582B001900198A1
:10311000FEF7ADFE02B080BD80B582B00190FFE742
:103120000198411E0191002804D0FFE70248FFF7F3
:10313000EBFFF5E702B080BD8038010080B586B0B6
:103140000F20FFF777FF012108020022049201F00F
:103150005FFD049A374908604120810002200590F4
:1031600001F056FD049B01460598584A11600B4931
:10317000019100900A480B498022039202F05EF808
:10318000039A049B0598204901910090064807493D
:1031900002F054F806B080BD080820200C0820205A
:1031A0000D320000415F000079320000495F0000ED
:1031B00083B080B5C7B04B934A924991469049A8D5
:1031C0000490469A049B0120010205A80290FDF795
:1031D000A7F80298FDF7C2F8029945903B480068AD
:1031E00000230393DA4301F0ACFD039A064800681C
:1031F00000920223114602F075F847B080BC01BC72
:1032000003B086467047C0461408202080B582B0BF
:103210000190FFE7074800680021CA43694601F0B2
:1032200020FF012805D1FFE76846007800F00EFB7B
:10323000FFE7EFE70808202080B584B003900291F3
:10324000039A0B48009000210191FEF773FE00984D
:103250000199084AFEF75AFE0098019902AA1288BD
:10326000FEF77CFE00980199FEF71AFE04B080BDBF
:1032700000A042402091104080B5C4B0439000208F
:103280000190FFE70020C243012100F0DBFF01981D
:10329000002816D1FFE70D48006802A9002201F0BE
:1032A000E0FE01280CD1FFE74298002807D0FFE795
:1032B00001200190429902A8FFF7BEFFFFE7FFE758
:1032C00002E000200190FFE7DCE7C0461008202064
:1032D00080B582B000900098002801D1FFE71EE081
:1032E000EFF3058001900198002804D0FFE70098D3
:1032F000FFF712FF13E002F05BF802280AD1FFE7A4
:10330000009A7D20C1000846504302F02BFA01F0DC
:1033100023FA03E00098FFF7FFFEFFE7FFE702B0A4
:1033200080BD00000C4801680020002900D07047D3
:103330000A4909680029FAD1094909680029F6D122
:103340000848006808490968491E884201D00120E0
:10335000704702207047C046742D2020C82D2020C1
:10336000702D2020942D20202028202080B588B08A
:10337000079007980690069800680590059882685F
:1033800006994868C9689047411E884104A901917F
:10339000087005988268069988680969904701460F
:1033A00001984A1E914103AA11700699097D0322D2
:1033B000114002AA11700078002806D0FFE7029899
:1033C0000421084302A90870FFE703A80078002839
:1033D00006D0FFE702980821084302A90870FFE71A
:1033E00002A801788908069A11750078401E00909D
:1033F0000D2835D80098810001A040588746C04666
:1034000039340000433400004D34000043340000E0
:1034100061340000573400003934000039340000B2
:103420005734000061340000433400004D34000084
:10343000433400003934000006998869401C8861D3
:103440000FE006998869401E88610AE0069988693C
:10345000801C886105E006998869801E886100E00B
:10346000FFE708B080BD80B582B0009068468078E4
:1034700001AA90700098108010785178927800F02E
:1034800003F802B080BD000080B584B0034603A8F5
:10349000037002AB197001A90A700078002806D1E8
:1034A000FFE7012081061748FEF79EFD05E0012099
:1034B00081061448FEF724FEFFE702A800780028E2
:1034C00006D1FFE70120C1060E48FEF78DFD05E09D
:1034D0000120C1060B48FEF713FEFFE701A80078A4
:1034E000002806D1FFE7012081050648FEF77CFD94
:1034F00005E0012081050348FEF702FEFFE704B066
:1035000080BDC04600200A4080B5C6B045924490B8
:1035100043914498042829DCFFE7154842904498D9
:10352000019001280ED0FFE70198022807D0FFE79D
:103530000198032809D1FFE71048429008E00E489F
:10354000429005E00B48429002E00D484290FFE7B0
:10355000439A459B0120010202A80090FCF7E0FE7F
:10356000009A42990748FFF723FEFFE746B080BD67
:10357000405F0000915F0000795F00008A5F0000FB
:10358000805F00006B5F000080B584B00020039076
:1035900000F04AFE00F04EFE01F0DEF9FFE70C48B5
:1035A000FFF75CF902A801210170417000218170D0
:1035B000827801A98A700278407800028018088019
:1035C0000199032000F006F8FFE7002004B080BD59
:1035D000F35E000080B588B0069106A9897807AA35
:1035E00091700699118005A9087000200490FFE7EA
:1035F000049805A90978884229DAFFE7079803A902
:10360000088007A8807888700398FFF72CFFFFF7E1
:1036100071FDC8200090FFF75BFEFFF763FD02A875
:103620000021017041708170827801A98A7002784E
:1036300040780002801808800198FFF714FF009876
:10364000FFF746FEFFE70498401C0490D0E708B05F
:1036500080BD000070B58AB0099008910998079064
:103660000798017906A801700799497A05AA11708F
:103670000078012805DBFFE706A80078062801DBB3
:10368000FFE7C0E005A8007810380190052800D9B0
:10369000B8E00198810001A040588746B536000087
:1036A0001D3700005B3700007F370000A3370000A4
:1036B000C7370000089817282ED1FFE70998049013
:1036C00052480068002826D0FFE75048046806A842
:1036D0000078049B00939A7AD97A09028A18197B98
:1036E0000D04597B0906491989189D7BDA7B120262
:1036F00055191A7C16045A7C1206921952199E7C8E
:10370000DD7C2D02AD191E7D36045B7D1B069B19E9
:103710005B19A047FFE700E0FFE774E008980F2877
:1037200019D1FFE70998039038484068002811D064
:10373000FFE73648426806A8007803998C7ACB7A6E
:103740001B021B190C7B2404497B09060919C918A3
:103750009047FFE700E0FFE755E008980B280CD101
:10376000FFE72A488068002806D0FFE727488168DD
:1037700006A800788847FFE700E0FFE743E00898E5
:103780000B280CD1FFE72148C068002806D0FFE7CE
:103790001E48C16806A800788847FFE700E0FFE7F9
:1037A00031E008980B280CD1FFE718480069002881
:1037B00006D0FFE71548016906A800788847FFE7AB
:1037C00000E0FFE71FE008980F2819D1FFE70998EC
:1037D00002900E484069002811D0FFE70B4842696B
:1037E00006A8007802998C7ACB7A1B021B190C7BF5
:1037F0002404497B09060919C9189047FFE700E02E
:10380000FFE700E0FFE70AB070BDC046EC072020EC
:1038100084B00390029101A9002008700090FFE796
:103820000098029988420CD2FFE703980099415C06
:103830000198401801A90870FFE70098401C00900B
:10384000EEE701A8007804B07047000080B586B0AC
:1038500005A90870794800780190052800D9EAE0A8
:103860000198810001A040588746C0468538000075
:10387000AF380000DD3800000B3900003939000096
:10388000B539000005A8007853280BD1FFE705984B
:103890006B4B1A68511C19606B49885467490120A9
:1038A000087003E0664900200860FFE7C3E005A850
:1038B00000785A280BD1FFE70598614B1A68511C14
:1038C0001960614988545D490220087005E05B4930
:1038D000002008705A490860FFE7ACE005A80078AE
:1038E00048280BD1FFE70598554B1A68511C196001
:1038F0005549885451490320087005E04F4900207C
:1039000008704F490860FFE795E005A8007859283E
:103910000BD1FFE705984A4B1A68511C19604A49B8
:10392000885446490420087005E044490020087086
:1039300043490860FFE77EE00599414803685A1C47
:103940000260414AD15400680A2824D3FFE73E4868
:10395000049004984279817909028918C279120485
:10396000007A000680184118364801600068172860
:1039700005D8FFE7334800680A2808D8FFE72F4931
:10398000002008702E4908602E49086053E02B493A
:10399000052008700DE02A480068172808D3FFE7C3
:1039A0002649002008702649086026490860FFE77C
:1039B000FFE740E022480068162833D8FFE7059962
:1039C0001F4803685A1C02601F4AD15400681D49F1
:1039D0000968884225D1FFE719490A681A48121870
:1039E000521E127803AB00931A700968491EFFF744
:1039F0000FFF0246009802A90A70007809788842F1
:103A000006D1FFE70E4801680F48FFF723FE00E0EC
:103A1000FFE70A4900200870094908600949086061
:103A2000FFE707E0054900200870054908600549DF
:103A30000860FFE7FFE706B080BDC046040820200D
:103A4000E807202098002020D0072020F0B581B082
:103A5000044600F00FFD7A480168491C01607A4F66
:103A6000396800290AD036480068002847D1E06A42
:103A70003968C96A814242D83C6040E03C600068D5
:103A800001283CD1714D284600F0BDFC2846143079
:103A900000F0B9FC2846283000F0B5FC28463C3040
:103AA00000F0B1FC2846503000F0ADFC28466430F0
:103AB00000F0A9FC2846783000F0A5FC28468C30A0
:103AC00000F0A1FC2846A03000F09DFCB43528464B
:103AD00000F099FC1B4D284600F095FC1A4E30462C
:103AE00000F091FC194800F08EFC544800F08BFC6B
:103AF000174800F088FC174805601748066017480B
:103B00000168491C21640160E06A4E490A689042DC
:103B100000D90860142141434C484018211D00F091
:103B20009DFC00F0B1FC06480068002806D0E06A61
:103B30003968C96A814201D200F0E0FD01B0F0BDF0
:103B4000882D2020282D20203C2D2020742D202061
:103B5000942D2020F8062020000720202C2820204B
:103B600082B001200190344E344F354D05E0206B7A
:103B700000F098FC204600F095FC3068002817D033
:103B800000F078FCF868C468201D00F0D5FB2868B8
:103B9000401E28603068401E306000F075FC6120D7
:103BA000205C0228E9D00128E4D00028DFD03EE0E4
:103BB0002448006824490968C96A0029DDD1411EEA
:103BC0008841224909680129019900D80146002944
:103BD000D3D11F4800681F490968401A0228CCD376
:103BE0001D490868401C086019480068194909689F
:103BF00088421ED31348006813490968C96A00291E
:103C000012D1411E8841114909680129019900D842
:103C10000146002908D10E4800680E490968401A7B
:103C2000022801D300F0BEFC01F0C6FCA5E772B685
:103C3000FEE772B6FEE7C04624282020A82D2020EB
:103C40002028202030282020F006202008072020CF
:103C5000602D2020BC2D202028282020F0B583B006
:103C600002930F4601900A9C206B9600A5223146D4
:103C7000FCF7D7FB206B8019031F07202146343146
:103C8000089D002F30D03A780A70002A29D07A781F
:103C90004A70002A25D0BA788A70002A21D0FA7892
:103CA000CA70002A1DD03A790A71002A19D07A798F
:103CB0004A71002A15D0BA798A71002A11D0FA798E
:103CC000CA71002A0DD03A7A0A72002A09D07A7A8B
:103CD0004A72002A05D0BA7A8A72002A01D0FA7A8A
:103CE000CA720022CA7201E000220A708343009364
:103CF000099F0026E664092D00D30925A564E56225
:103D0000201D00F08AFB2046183000F086FB0A20B8
:103D1000401BA06126656665A665E66520465030B5
:103D200006746462246100AA07CA00F06BFA20607E
:103D3000002F00D03C6003B0F0BD0000F0B585B0AE
:103D4000044601F043FB234A1168884233D20094B1
:103D50000190A94F05E068602D613868314600F098
:103D60005FFB38680168002927D0C0680468C5680F
:103D70002E1D304600F0E0FA296A284688472820A0
:103D8000285C4007EDD5A8690019A042E3D89C4EF5
:103D9000306800280DD0049503940025029501F0A9
:103DA00007FB306802A92A462B4600F0CAFF00280C
:103DB000D7D172B6FEE7002107E090490A683A6061
:103DC000086001210198009C024A1060216005B042
:103DD000F0BDC046EC06202081B0002000900A48CB
:103DE000006872B6401C09D0FEE70098002808D190
:103DF0000098002805D10098002802D100980028DA
:103E0000F3D001B07047C046340020208AB07A4E0B
:103E10007B4F30680468002C02D0C068056800E061
:103E2000002500F001FE04A8FFF788FF049900298F
:103E300002D001F0C1FB52E0002C15D0854213D80E
:103E4000029001F0B9FB3068C068C468201D019081
:103E500000F072FA2820205C410709D4214628315D
:103E6000FA221040087037E0002C12D0002215E032
:103E7000A069411961602461029A9142314603D8D8
:103E8000511B81425D4914D20868019900F0C8FABB
:103E900022E05A49096809684A424A41291A3868A1
:103EA00000F038FC01F088FB002818D100F026FC57
:103EB00015E03868002800D19BE00994089500259A
:103EC000079501F075FA386807A92A462B4600F0D5
:103ED00038FF002800D18CE0216A204688473868E6
:103EE00004A90022029202E0386804A9002201F02D
:103EF000B8F800288DD004980028F5D4069D68698C
:103F0000002802D0281D00F017FA03A8FFF716FFBB
:103F100004990929E8D8C0467944097949008F44B1
:103F20000A0A0A0442570A0A04422820295CFE228F
:103F30000A402A54D8E728216A5C012313436B54B2
:103F4000AB6905995A186A602D61824224D988426A
:103F5000304625D28A42304622D334462E46283671
:103F6000296A28468847307826464007BCD53868F5
:103F700000283AD0A8690599099540180890029C34
:103F8000079401F015FA386807A92246234600F085
:103F9000D8FE0028A8D128E0401A98421748DCD261
:103FA000291D006811E028216A5C012313436B542A
:103FB0000599A96100291AD0091869602D6181420B
:103FC000304600D80D480068291D00F029FA8BE71B
:103FD0002820285C810703D4284600F063FA83E791
:103FE0002835FE21084028707EE772B6FEE772B6DB
:103FF000FEE772B6FEE7C046F40620200407202044
:10400000C02D2020F0B581B004460646443600F0AD
:1040100031FA01203756012F12DB2546243504E002
:10402000781E79B2012907460ADD2868002807D0E2
:10403000284601F081FA0028F2D000F017FCEFE7E3
:10404000FF25757000F020FA00F014FA00203756B2
:10405000012F11DB103404E0781E79B201290746E4
:104060000ADD2068002807D0204601F065FA002804
:10407000F2D000F0FBFBEFE7357000F005FA01B07D
:10408000F0BD0000F0B583B0044600F0CDFC56480A
:104090000368002B05D055490978002C1FD4002255
:1040A0001EE00721CB43524D69072A4601D0EA1D85
:1040B0001A40504E01214F03ED191D40083D056087
:1040C00000230CC62B606B600368AD1A28C24A4AF5
:1040D00015604A4A1560454A1170002CDFD501224F
:1040E00025460835092D2AD30A4028D10722214622
:1040F00091431031A94200D80021620700D00D463B
:10410000691E3E4A1468A14219D23A4C21684E6891
:10411000AE4207D20F68002F04D00C4639467E68A5
:10412000AE42F7D399420AD023680F682760761B06
:10413000112E3AD34C1967070AD072B6FEE701F088
:104140003BFA00F021F9002041074BD072B6FEE7A0
:1041500066604D60FA4E3768A74204D23E68A642B8
:104160003D46F8D301E035463E4601936F6800971F
:10417000EF1902976768029BA34203D1009C3F1985
:104180006F602C460297E719B742019B01D0304679
:1041900007E0029F0068864203D07068C019606023
:1041A00030682060A54200D02C6048681468241A4A
:1041B0001460114A1568AC4200D214600833DE4A1C
:1041C000127800240C600E4C25686D1C2560541E6E
:1041D000A241D207104348601C4601F0EDF9204689
:1041E0004107B3D103B0F0BDFC062020242D2020D0
:1041F000180820208C2D20205C2D2020502D2020E0
:10420000682D20200346083B1960011F01231B066F
:104210000B6001460C39034B0B60014620390A60E4
:1042200040387047D93D000080B5FEF745FDFEF7E8
:1042300085FF80BD80B500F0ABFC80BDEFF3108042
:1042400072B67047F0B581B0002801D072B6FEE7B3
:1042500014460E4600F00EF9244D2868C06D002863
:104260002BD12868602101224254002C25D02048FF
:1042700007682868001D00F05FF8601C0AD03C1930
:10428000286844600CD31D4800682968091D00F0A7
:10429000C7F810E02868011D194800F0DFF80AE0AF
:1042A000144800682968091D00F0BAF8124801682E
:1042B0008C4200D2046000F021FA00F0E5F800F032
:1042C000D9F82868C46D002C06D0002E01D000203B
:1042D00000E0601E2968C8652868602100224254F9
:1042E00000F0D2F8204601B0F0BDC046F006202014
:1042F000BC2D2020F8062020602D20200007202043
:10430000942D202080B584B003900291019200206A
:104310000090FFE70098019988420BD2FFE70398CD
:104320000299009A895CFEF721FAFFE70098401C89
:104330000090EFE704B080BD416882688A605160F8
:1043400001694B68834200D14A600A68521E0A60C4
:104350000022026108687047034B036080201060F0
:10436000024808607047C046342A202034282020A4
:10437000034B036080201060024808607047C0460D
:10438000982C2020982A202080B582B00B48FEF778
:1043900065FA01A8012101700021417081708278C5
:1043A00069468A7002784078000280180880009977
:1043B0000320FFF70FF972B6FFE7FEE7BB5E0000D0
:1043C00080B584B00390029102990C48FEF746FA3A
:1043D00001A8012101700022427081708278694633
:1043E0008A700278407800028018088000990320C3
:1043F000FFF7F0F872B6FFE7FEE7C0469F5E0000E9
:1044000080F3108870470021016002460832C943DA
:1044100042608160C26002617047002101617047A3
:10442000B0B50B685A1C0BD0044608346268156896
:104430009D4208D8546825689D422546F6D904E077
:104440000269556801E015462246A96008614D6081
:104450008A6051600168491C0160B0BD42684A60D1
:1044600093688B600861596003685B1C036091600E
:104470007047000072B60A480168491C0160BFF32A
:104480004F8FBFF36F8F704705480168002903D035
:10449000491E016002D0704772B6FEE762B67047EF
:1044A00034002020B0B5002844D0234909784A1EA2
:1044B0009141C907041F2268114205D008380368DA
:1044C000002B03D072B6FEE772B6FEE78A43226085
:1044D000054600F0A9FA28462168184A13685B18B7
:1044E0001360174B1C68844204D22368834222461F
:1044F000F8D301E01A46234654681519854202D1C3
:1045000009195160104644189C4201D01C4607E02E
:104510000C4C2468A34203D05C68611841601C689D
:104520000460824200D0106007480168491C0160A5
:1045300001F042F8B0BDC046242D2020502D20208F
:104540008C2D2020FC0620206C2D20206648012187
:10455000017067480170684801706448002101607B
:104560008160024941600721016070477F38010086
:104570000B4A13681868203080F30988022080F302
:104580001488BFF36F8F3FBCAE4608BC04BC62B654
:104590001847C046C046C046C046C046C046C04692
:1045A000F0062020F0B583B005464F4801784F4E05
:1045B00030680122029290433060B0684C4A137810
:1045C0004C4A002B45D0002946D18D4200D30D46E0
:1045D000691E00914A43101847490978002900D004
:1045E0002D21441A00D8044672B6BFF34F8FBFF393
:1045F0006F8F0027F8430190FEF794FE00282FD01C
:104600007460B7603068029908433060002D04D0B0
:10461000BFF34F8F30BFBFF36F8F62B6BFF34F8FC3
:10462000BFF36F8F72B6BFF34F8FBFF36F8F06204C
:1046300030603068C0031FD42E4C6543B0682D1A1B
:104640002C49284601F08EF821464143491B09199F
:1046500036E01A460029B8D0D1218D42B7D2B7E74B
:10466000B068706030680299084330602048007874
:10467000002808D1019808E01D480078002808D1DA
:1046800001991C4D07E01B48401E706062B603B0E4
:10469000F0BD184D691EB268121B521800282B4637
:1046A0002C4600D103469A42084600D810462D2ACF
:1046B00000D30146104A1278002A00D10146009822
:1046C0007160B760326802990A43326000F09AF96B
:1046D00007480078002801D1019800E0601E706052
:1046E00062B603B0F0BDC046582D202010E000E0B7
:1046F0001C282020803801001828202001200007D5
:1047000003490860BFF34F8FBFF36F8F7047C046F8
:1047100004ED00E070B515460E460446FFF7AAFE0C
:104720004420215C20464430FF2901D10021017042
:104730004178FF2901D100214170FFF7A5FEA06B50
:10474000002805D12046243031462A4600F0C2F820
:104750002046FFF757FC70BD70B500282CD0B54936
:104760000A68002A01D072B6FEE70A68521C0A6085
:10477000AB490C68E54D2968091D06460846FFF758
:10478000DBFDA4192868446006D3714800682968D5
:10479000091DFFF745FE0AE06C4800682968091DFD
:1047A000FFF73EFE9F4801688C4200D2046000F093
:1047B00003FF002800D070BDFFF7A0FF70BDC0460A
:1047C000F0B581B0002803D0002903D072B6FEE70F
:1047D00072B6FEE715460646FFF730FD6022B35C71
:1047E0000224B454F26D521CF265012B2DD13146D6
:1047F000B26A002A01D072B6FEE70746C1480068D7
:10480000002802D0183113480FE0081D0C46009014
:10481000FFF792FDE06ABF490A68904200D908603C
:1048200014214143BC4840180099FFF717FEF06A75
:10483000B6490968C96A8842384606D9002D01D0B0
:1048400001212960B04901220A60FFF7D9FD01B0BA
:10485000F0BDC046742D20200349096801607049ED
:10486000096841607047C046642D2020A648012198
:104870000160704770B5002818D00C46A34D296818
:104880001831FFF7CDFD664806682868001DFFF760
:1048900053FD601C0CD03419286844600ED32C489A
:1048A00000682968091DFFF7BBFD70BD72B6FEE701
:1048B0002868011D2748FFF7D1FD70BD2348006817
:1048C0002968091DFFF7ACFD564801688C4200D2EB
:1048D000046070BDF0B581B000281BD015460C46B1
:1048E0008A4E31681831FFF7B9FD4D4807683068C6
:1048F000001DFFF721FD002D01D00020C443002D35
:104900000AD0601C08D13068011D1248FFF7A6FDCF
:1049100001B0F0BD72B6FEE73C193068446007D3C1
:104920000B4800683168091DFFF77AFD01B0F0BD42
:10493000064800683168091DFFF772FD39480168B3
:104940008C4200D2046001B0F0BDC046F8062020C1
:1049500000072020942D2020B0B588B000240694B4
:10496000059406A805A904AAFFF7F6FC05980028F7
:1049700033D0069D002D32D0049A64210791079907
:1049800064292ED10799612102236B542863029573
:1049900007A801900094154815A12346FFF75EF97A
:1049A0002846FFF753F8144807990160002910D0F2
:1049B00000F082FE411C16D001280AD172B6E043F5
:1049C000184908600D48012101601548046000F095
:1049D000F1F80B48006808B0B0BD72B6FEE772B6D9
:1049E000FEE772B6FEE772B6FEE7C046613B000026
:1049F00049444C4500000000542D2020882D2020E3
:104A00009C5F000006490A681218064B1B689A4210
:104A100001D972B6FEE70A68101808607047C046F0
:104A2000BC2D2020602D202036480168491C0160E3
:104A30007047C04628282020F0B581B03148006872
:104A4000002802D0304801212CE02F4800210160CD
:104A50002E4C2068006B02682D498A4208D14268BA
:104A60008A4205D182688A4202D1C068884204D055
:104A7000206821683431FFF7A3FC2648016814231D
:104A80001A464A43244DAE58002E0ED0AA18536839
:104A90005B68536015460835AB4201D15B685360D3
:104AA000DA682260016001B0F0BDAA1800291DD0AB
:104AB0001E464E4376191746143F3F68002F17D104
:104AC000012913D01746283F3F68002F13D1022930
:104AD0000CD017463C3F3F68002F0FD1032905D06B
:104AE000091F503A1668002EE0D0D0E772B6FEE7F4
:104AF000143E491E04E0283E891E01E03C3EC91ECA
:104B00003246C4E728282020C82D2020F006202087
:104B1000A5A5A5A5302820200807202080B50320C2
:104B2000FEF774FA80BD0000B0B58CB00B9016484B
:104B30000A90006A80470A98C0698047FFE71248D8
:104B400005900069FBF796FD0246059806920791CD
:104B50008069FBF78FFD024605980892099140692C
:104B6000FBF788FD069A079B044608980D460999AD
:104B700003950294019100900448FDF783FEC8203C
:104B8000FEF7A6FBDBE7C046100020200A5F00000E
:104B900080B582B0002301930122009203480449AA
:104BA000120200F04BFB02B080BDC046294B000052
:104BB000385F0000B0B582B0FF200104124A1368CC
:104BC0000B4313600006116801431160FFF7BEFC40
:104BD0000E4C00252560FFF7CBFCFFF72DFF01955C
:104BE000206872B6401C09D0FEE70198002808D161
:104BF0000198002805D10198002802D101980028C9
:104C0000F3D0002002B0B0BD20ED00E03400202041
:104C1000F0B581B000280FD00646009200250F465F
:104C20000846294632462B46FBF762FB4A1E914155
:104C3000012903D172B6FEE772B6FEE74F21C943E0
:104C4000884201D372B6FEE75030FFF71BFA0446E4
:104C5000002828D020464430E66306462764857045
:104C6000002F204601D0204650302060FFF702FC84
:104C7000A563FF20307021687070E06B226C431ECA
:104C8000504308185343CA186160A060E260204690
:104C90001030FFF7B8FB20462430FFF7B4FBFFF7D6
:104CA000F3FB00983072204601B0F0BD70B582B0C1
:104CB000002807D0002B07D0002907D1002A05D0F3
:104CC00072B6FEE772B6FEE772B6FEE7002903D0C1
:104CD000002A01D172B6FEE750240194019C502CA9
:104CE0002DD11D464435069E019CD86319640029C8
:104CF000184600D0104618600120A8701C46FFF727
:104D0000B9FB0020A063FF20287021686870E06B69
:104D1000226C431E504308185343CA186160A060B8
:104D2000E26020461030FFF76EFB20462430FFF78C
:104D30006AFBFFF7A9FB2E72204602B070BD72B667
:104D4000FEE7F0B589B00892002812D01D4604464F
:104D5000002910D0022D02D1E06B01283FD1164668
:104D6000059100F025FB00280AD1002E08D072B66C
:104D7000FEE772B6FEE7206C0028EBD072B6FEE7C5
:104D8000FFF778FBE06BA16B022D51D081424FD32E
:104D90000898002800D1D9E02646443606A8FFF737
:104DA0005BFDFFF771FBFFF73FFEFFF763FB30781A
:104DB000FF2801D1002030707078FF2801D1002039
:104DC0007070FFF761FB06A808A900F007FA002839
:104DD00007D02046FFF716F900F0EEFBB8E072B6F8
:104DE000FEE727461037FFF745FBE06B0290A06B0C
:104DF0000190FFF749FB0298019981420DD1089972
:104E00003846FFF737FD2046FFF7FCF800F0D4FBEB
:104E1000002807D1FFF772FC04E02046FFF7F2F804
:104E200000F0CAFBFFF726FBE06BA16B81424CD27E
:104E3000226CA66B002A059919D00127002D1BD0E2
:104E4000E068FBF7ADFA206CE168091AE1602268BE
:104E5000914203D24042A1680818E060701E3146BA
:104E60008141A81E424242410A40B61A18E0206819
:104E700000280ED0012713E06068FBF791FA206C40
:104E8000616808186060A168884209D32068606082
:104E900006E0A06800F020FB0021A16047424741E6
:104EA000701CA063606A00280CD02434204600F0F7
:104EB00043FB002801D0FFF721FCFFF7E5FA0120B2
:104EC00009B0F0BD002FF6D0F7E7049603970BE08A
:104ED0002046FFF797F800F06FFBFFF7CBFAE06B87
:104EE000A16B8142049EA3D3089800282ED0FFF71F
:104EF000CBFAFFF799FDFFF7BDFA3078FF2801D113
:104F0000002030707078FF2801D100207070FFF70A
:104F1000BBFA06A808A900F061F9002800D058E7FC
:104F2000FFF7A8FAE76BA66BFFF7AEFABE42CFD148
:104F300008990398FFF79EFC2046FFF763F800F0FE
:104F40003BFB0028C9D1FFF7D9FBC6E7FFF79CFA66
:104F5000002009B0F0BDF0B583B0002814D01D4684
:104F60000446002912D0022D02D1E06B012835D170
:104F70000F460292FFF762F9E16BA26B022D0AD095
:104F80008A4208D3002565E072B6FEE7206C00284F
:104F9000E9D072B6FEE74521635CA16B226CA66B7B
:104FA000002A1DD039461F460190002D26D0E0680A
:104FB000FBF7F6F9206CE168091AE160226891427A
:104FC00003D24042A1680818E060701E314681415A
:104FD000A81E424242410A40B61A1BE072B6FEE7E2
:104FE0002168002918D1A168054608461F4600F02F
:104FF00073FA3B4628460021A1600DE06068FBF78C
:10500000CFF9206C616808186060A168884201D3FC
:105010002068606001983B46711CA1637F2B13D010
:10502000FF2B13D1616A0125002913D006462434D1
:10503000204600F081FA0299002910D0002830465D
:1050400008D001250D6005E072B6FEE74534591C15
:1050500021700125FFF7D4F9284603B0F0BD304692
:10506000F8E7F0B585B0049200280CD01546044648
:1050700000292ED00F4600F09BF9002805D1002D05
:1050800003D072B6FEE772B6FEE7FFF7F3F9A56B41
:10509000002D23D0226C002A0AD03846E1688918F6
:1050A000E160A368994201D32168E160FBF778F9D8
:1050B000681EA06320690125002800D189E0103412
:1050C000204600F039FA002800D182E0FFF716FBF5
:1050D0007FE0206C0028CDD072B6FEE70025049852
:1050E000002876D000952646443602A8FFF7B4FB88
:1050F000FFF7CAF9FFF798FCFFF7BCF93078FF28F3
:1051000001D1002030707078FF2801D1002070702C
:10511000204624300190FFF7B7F902A804A900F057
:105120005DF800280DD02046FEF76CFF00F044FA31
:10513000FFF7A0F9A56BFFF7A7F9002D1BD10025FC
:1051400049E0FFF797F9A56BFFF79EF9002D05D011
:105150002046FEF757FF00F02FFA0CE00499019863
:10516000FFF788FB2046FEF74DFF00F025FA0028E8
:1051700001D1FFF7C3FAFFF77DF9A56B002D89D1A7
:105180000498002824D0FFF77FF9FFF74DFCFFF7C4
:1051900071F93078FF2801D1002030707078FF2835
:1051A00001D100207070FFF76FF902A804A900F088
:1051B00015F80028C5D02046FEF724FF00F0FCF9C2
:1051C000FFF758F9A56BFFF75FF9002DD3D1B6E7CC
:1051D000009DFFF759F9284605B0F0BDF0B581B044
:1051E00000281FD00C4600291ED00546FFF742F9C3
:1051F0006A68B6480768216800264B1C19D0B54874
:1052000003682868834201D097420FD2BA1A9142AC
:105210000CD9881A2060AF4800682860AB48006845
:10522000686006E072B6FEE772B6FEE70020206016
:105230000126FFF729F9304601B0F0BDF0B587B07F
:105240001F4604AB07C39000FEF71CFF0025EC438C
:1052500000281CD0064603976420FEF713FF0028A1
:1052600012D007460D980C996122BD543E630091FF
:105270000190029704AA07CA039BFEF7EFFC384689
:10528000FEF7E4FB012402E03046FFF70BF920466D
:1052900007B0F0BDF0B587B00D9D002D1BD00E9C62
:1052A000002C1AD064260596059E642E17D10C9EFC
:1052B0000496059F61270226E6552563029406ADF4
:1052C0000195049D0095FEF7C9FC2046FEF7BEFB44
:1052D000069807B0F0BD72B6FEE772B6FEE772B68A
:1052E000FEE70000F0B581B0002901D072B6FEE7FC
:1052F0000446002818D01E461546069FFFF7BAF848
:10530000002F01D0E06D38606021605C02226254A1
:10531000042E2DD87E4436797600B74410020D0B4A
:105320000700E16D294309E072B6FEE7022801D1CA
:10533000002538E0E56502E0E16D491CE1650125E5
:10534000012830D1261D3046FEF7F6FFE06AD3492A
:105350000A68904200D9086014214143D04840189F
:105360003146FFF77BF8A06A002807D072B6FEE747
:10537000564909680029E2D072B6FEE7CB480168B9
:105380000968002903D00068C068006801E00020B7
:10539000C043C7490860E06AC2490968C96A8842CF
:1053A00001D9FFF7ABF9FFF76FF8284601B0F0BD60
:1053B00005480068002805D0B548006841424141D1
:1053C0004800704701207047882D20203F48006822
:1053D0007047C046F0B583B0AD480068002806D0DD
:1053E000B4480168491C0160002003B0F0BD374893
:1053F00001684C1C04601BD3AC4801680968002993
:1054000001D072B6FEE70168314A1368036011608B
:1054100030490A68521C0A6001680968002903D0F3
:105420000068C068006801E00020C043A04908602F
:105430009F490868844201D200203FE00023DA43FC
:105440009A4E3068006800282FD001920020029008
:1054500003E03068006800282CD03068C068C76856
:105460007868844223D33D1D2846FEF765FFB86A5D
:10547000002803D038461830FEF75EFFF86A8749E7
:105480000968884201D9854908601421414384484C
:1054900040182946FEF7E2FFF86A82490968C96A9E
:1054A0008842D6D301200290D3E7029304E002465B
:1054B0007F4901E07E49019A0A6002987A490968A9
:1054C000002992D0012003B0F0BDC046BC2D2020A1
:1054D00000072020642D2020B0B5014600200029BF
:1054E00026D0704A1268914201D072B6FEE7CA6CAB
:1054F000002A1ED0521ECA641AD18A6CCB6A93420B
:1055000016D00C1D0D462046FEF716FFA86CE8626B
:105510000A21091AA96161490A68904200D9086004
:10552000142141435E4840182146FEF797FF0120B1
:10553000B0BD72B6FEE7C046B0B5C068C568002D04
:105540000DD02C4618342046FEF7F6FE5048006871
:10555000002806D050482146FEF780FF1FE072B6B3
:10556000FEE72C1D2046FEF7E7FEE86A4B490A6875
:10557000904200D90860142141434948401821460F
:10558000FEF76CFF494801680968002903D00068EC
:10559000C068006801E00020C04345490860E86A2F
:1055A00040490968C96A884203D93F490120086017
:1055B000B0BD0020B0BDC046F0B581B0344C20680D
:1055C00000280DD0FEF756FF2068401E206020689E
:1055D0000027002806D0FEF757FF384601B0F0BD7F
:1055E00072B6FEE72B4800680028F4D02A4E3068D7
:1055F000002833D00097294F02E0306800281FD0E0
:10560000F068C46820461830FEF796FE251D28462F
:10561000FEF792FEE06A3968884200D938601421AA
:1056200041431F4840182946FEF718FFE06A1D490C
:105630000968C96A8842E0D301201B490860DCE799
:105640001A4801680968002903D00068C06800682A
:1056500001E00020C043009F15490860154C2568F3
:10566000002D0CD0104E01E06D1E06D0FFF7B2FEEB
:105670000028F9D001203060F6E7002020600A48B9
:1056800000680028A7D0FFF739F80127A3E7C04634
:105690002828202020282020742D20203028202079
:1056A00008072020F0062020C82D2020F806202002
:1056B000602D2020702D202070B586B0FEF7DAFE18
:1056C0001D4E3068002814D11C4C2046FEF79BFE6E
:1056D0001B4D2846FEF797FE1A4805601A480460DD
:1056E0000020009014200C21184A194BFFF7DEFA15
:1056F0003060FEF7C9FE306800281AD000240594F7
:10570000049405A804A903AAFEF732FE039A04989C
:10571000059905230093019002910E480EA123469E
:10572000FFF7B8FD0E490860002802D0012006B03E
:1057300070BD72B6FEE7C046C02D2020FC2C202094
:10574000102D202004072020F4062020AC05202066
:105750009C0620200D3E0000546D7220537663009D
:10576000C42D202043088B421AD3002203098B4208
:1057700079D3030A8B425ED3030B8B4242D3030CD3
:105780008B4227D30902FF2212BA030C8B4202D3A9
:105790001212090203D0030B8B4233D31AE0D3E079
:1057A000411A8041401C704703460B4371D44308A3
:1057B0008B42F5D3002203098B4254D3030A8B4258
:1057C00039D3030B8B421DD3030C8B4202D3944677
:1057D0006EE0090AC30B8B4201D3CB03C01A5241BE
:1057E000830B8B4201D38B03C01A5241430B8B4274
:1057F00001D34B03C01A5241030B8B4201D30B035D
:10580000C01A5241C30A8B4201D3CB02C01A524183
:10581000830A8B4201D38B02C01A5241430A8B4246
:1058200001D34B02C01A5241030A8B4201D30B022F
:10583000C01A5241CDD2C3098B4201D3CB01C01A49
:10584000524183098B4201D38B01C01A5241430953
:105850008B4201D34B01C01A524103098B4201D341
:105860000B01C01A5241C3088B4201D3CB00C01AAE
:10587000524183088B4201D38B00C01A5241430826
:105880008B4201D34B00C01A5241411A52411000C1
:105890007047CA0F00D04942031000D34042534022
:1058A00000229C4603098B422DD3030A8B4212D35C
:1058B0008901FC2212BA030A8B420CD3890192118E
:1058C0008B4208D3890192118B4204D3890137D0CE
:1058D000921100E08909C3098B4201D3CB01C01AA0
:1058E000524183098B4201D38B01C01A52414309B3
:1058F0008B4201D34B01C01A524103098B4201D3A1
:105900000B01C01A5241C3088B4201D3CB00C01A0D
:10591000524183088B4201D38B00C01A5241D9D225
:1059200043088B4201D34B00C01A5241411A00D2A6
:1059300001465241104663465B1000D34042704717
:1059400063465B1000D3404201B50021004201D004
:10595000C9430846C046C04602BDF8B5040C8BB228
:10596000264682B25E43104658430D0C370C36046F
:1059700000218019164679416E43370C3604801990
:10598000264679416E438919F8BD00004900CA02D4
:105990000243100000D004204A0D01D00122104320
:1059A000044A490D914201D102210843012800D146
:1059B00005207047FF07000010B500F083F8EFF3F3
:1059C00000804000800F012801D0012010BD002080
:1059D00010BD30380A2801D20120704700207047DE
:1059E00010B500290AD00878002807D00548784467
:1059F000FCF7AEF9002801D0002010BD0248784421
:105A000010BD0000D2050000CA05000010B5002935
:105A10000AD00878002807D005487844FCF798F9A0
:105A2000002801D0002010BD0248784410BD0000BD
:105A3000C2050000BA05000070B50125ED0704009D
:105A40004C4020D4441A01D2001B0919C60D4B004A
:105A5000F2B2FF2A29D01B0E2CD000020C022843E0
:105A60002C43D31ADC40051910D2280A02D3401C5B
:105A70006D0611D0761EF6058019FF2A00DA70BD7A
:105A8000C00DC00570BD694000F0A4F801200543B9
:105A9000C541521C761CE8E764089C40C90161407E
:105AA0008900E7D10124A043E4E71B0E440200D0A3
:105AB000034870BD002AFCD1C00FC00770BD00BFF5
:105AC0000000C07F0123DB0502000A430DD4DA4247
:105AD00003D49A4207D488427047D84214D4D9429A
