:020000040800F2
:10000000D813002001010008453C00082D360008E7
:10001000ED3A0008B50F0008395300080000000051
:10002000000000000000000000000000794400080B
:10003000C90F0008000000002943000849470008D4
:100040001B0100081B0100081B0100081B01000820
:100050001B0100081B0100081B0100081B01000810
:100060001B0100081B0100081B0100081B01000800
:100070001B0100081B0100081B010008B90F000844
:100080001B0100081B0100081B0100081B010008E0
:100090001B0100081B0100081B0100081B010008D0
:1000A0001B0100081B0100081B0100081B010008C0
:1000B0001B0100081B010008C14700081B010008C4
:1000C0001B0100081B0100081B0100081B010008A0
:1000D0001B0100081B010008715100081B010008EA
:1000E0001B0100081B0100081B010008DFF80CD0F1
:1000F00000F03CFF00480047E56E0008D8130020E0
:100100000648804706480047FEE7FEE7FEE7FEE7B1
:10011000FEE7FEE7FEE7FEE7FEE7FEE7BD47000875
:10012000ED000008004870476CA9000810B50446AF
:10013000FFF7F8FF0068005D00F0010010BDA0F1BE
:100140004101192900D82030704740EA01039B077C
:1001500003D009E008C9121F08C0042AFAD203E03C
:1001600011F8013B00F8013B521EF9D27047D2B2A0
:1001700001E000F8012B491EFBD270470022F6E790
:1001800010B513460A4604461946FFF7F0FF20460D
:1001900010BD421E12F8013F002BFBD111F8013BAC
:1001A00002F8013B002BF9D1704710B5044604E07A
:1001B0000B7800F8013B03B1491C521EF8D22046CF
:1001C00010BD421C10F8011B0029FBD1801A70479A
:1001D00010B5002200E0521C835C8C5CA34201D16C
:1001E000002BF8D1D8B2E1B2401A10BD10B50446C8
:1001F00000E0401C0378002BFBD100E0401C521EA5
:1002000004D311F8013B0370002BF7D100210170DA
:10021000204610BD034611F8012B00F8012B002ADF
:10022000F9D11846704730B505460020034600E076
:100230005B1C934205D2EC5CC85C201A01D1002CF7
:10024000F6D130BDF0B480EA0102D40F4200B2EB27
:10025000410F02D20246084611464A0042D0C30D61
:10026000DDB2C1F3C752AD1A202D35DAC1F3160144
:1002700041F4000204B15242C5F1200602FA06F12F
:100280002A411044B3EBD05F23D0C4B1012DA0EBC1
:10029000C35009DCF0BC4FF0004202EAC352DBB2AB
:1002A00000F5000000F0A7BD400000F1807000EBF9
:1002B000C350A0F1807040EAD170490009E04908BC
:1002C00041EAC071A0EBC35000F50000400800EB0C
:1002D000C350F0BC00F086BD6142012202EB410137
:1002E000001BF6E7F0BC704781F00041AAE780F000
:1002F0000040A7E780EA010210B502F00043400089
:1003000022D04A001FD0010E01EB1261C0F356004B
:10031000C2F3560240F4000042F40002A0FB0220A7
:1003200000047F39140400D0401C50EA124001D46C
:100330004000491EC2B20C0604EBD010401C40081D
:10034000802A02D003E0002010BD20F00100002927
:1003500000DA0020184310BD30B480EA010202F038
:10036000004530F0004221F0004013D090B1C30DA1
:10037000D40DC2F31601C0F31600E41A41F40001D3
:1003800040F400027D34914201D3641C00E0490036
:10039000002C02DA30BC002070474FF4000000232C
:1003A000914201D3891A034340084FEA4101F7D132
:1003B00051B1914202D14FF0004105E002D24FF01D
:1003C000010101E06FF0010103EBC450284430BC8F
:1003D00000F008BD2DE9FE4F804681EA0300C00F02
:1003E0000C46009021F0004123F00045B8EB0200DC
:1003F000A94105D24046214690461C460B4602467E
:1004000023F00040104347D0270DC7F30A00C3F381
:100410000A510290401A019040286BDAC3F313008E
:1004200040F4801B0098924620B10023D2EB030ACF
:1004300063EB0B0B01985946C0F14002504600F0A7
:100440007CFA06460D4650465946019A00F094FA49
:1004500010EB08006141002487EA115284EAE77337
:100460001A4340D0009A62B3019A012A4FEA075218
:1004700015DC001B61EB02014FF0004202EA07525B
:10048000CDE90042001C41F5801132462B4600F0B8
:10049000EFFC03B0BDE8F08F40462146F9E7001BB2
:1004A00061EB0201001C41F5801300185B4120182C
:1004B000A2F5001747EB030140EAD570B6196D416C
:1004C00011E06D084FEA360645EAC0754FEA07525B
:1004D000001B61EB0201001C41F5801149084FEA45
:1004E00030000019514132462B4603B0BDE8F04FB1
:1004F00000F0AFBC0098012240000023D0EB0202C4
:1005000063EBE073009821464FEAE074B8EB00001B
:1005100061EB0401E9E783F000435BE781F0004110
:1005200058E72DE9FE4F81EA030404F0004421F06E
:10053000004100944FF0000B23F0004350EA010407
:100540005ED052EA03045BD0C3F30A54C1F30A55E8
:100550002C44A4F2F3340194A0FB0254C1F3130120
:1005600041F48011C3F3130343F4801301FB0244ED
:1005700000FB034E840A970A44EA815447EA8357F2
:10058000A4FB076802958D0A05FB07854FEA932CAB
:1005900004FB0C542705029D4FEA065847EA16371C
:1005A000B5EB08056EEB070C870E920E47EA811734
:1005B00042EA8312A7FB0201B6EB0B0164EB0004D5
:1005C0002B0D43EA0C335E1844EB1C50DA465146BF
:1005D000E7FB0201C5F313044FEA0B3343EA14535C
:1005E0004FEA0432019C43EA0603A4F10C0402948E
:1005F000009CCDE900B400F03BFC03B0BDE8F08FF7
:1006000000200146F9E72DE9F04D81EA030404F0EA
:10061000004B21F0004514464FF0000A23F0004142
:1006200050EA050220D054EA01021DD0C5F30A5752
:100630000246C5F31303C1F31300C1F30A5640F495
:10064000801543F48013A7EB0608101BD64608F26A
:10065000FD3873EB050002D308F1010801E09218A0
:100660005B41B8F1000F03DA00200146BDE8F08DD0
:1006700000204FF48011064684460EE0171B73EBF2
:10068000050705D3121B63EB050306434CEA010C77
:1006900049084FEA300092185B4150EA0107EDD15A
:1006A00052EA030012D082EA040083EA05010843FB
:1006B00005D0101BAB4106D20122002306E0002228
:1006C0004FF0004302E06FF0010253101AEB0600F6
:1006D0004CEB085110EB0A0041EB0B01BDE8F04D6B
:1006E00000F0B7BB002801DBC0F10040002901DBAE
:1006F000C1F10041814201D80120704700207047BC
:10070000002801DBC0F10040002901DBC1F10041FC
:10071000814201D20120704700207047002801DB90
:10072000C0F10040002901DBC1F10041814201D349
:10073000012070470020704730B5041E71F100049D
:1007400004DB4FF00044404264EB0101141E73F1DE
:10075000000405DB1C464FF00043524263EB0403E8
:10076000101A8B4101D2012030BD002030BD30B5C0
:10077000041E71F1000404DB4FF00044404264EBBE
:100780000101141E73F1000405DB1C464FF0004309
:10079000524263EB0403801A994101D2012030BD1B
:1007A000002030BDC10F80EAE0700844CA079623DC
:1007B000002100F020BB00F0004220F00040C10DFD
:1007C000C0F3160040F400007F2901DA00207047D2
:1007D000962903DCC1F19601C84001E096398840B2
:1007E000002AF4D04042704720F00040C10DC0F311
:1007F000160040F400007F2901DA00207047962996
:1008000003DCC1F19601C8407047963988407047B3
:1008100070B5C1F30A5201F000450024C1F3130181
:1008200040F2FF3341F480119A4201DA002070BD9A
:1008300040F233439A42A2F2334203DC524200F0C8
:100840008BF800E090402C43F1D0404270BD00F0A6
:10085000004230F000400AD0C10D01F56071C0F3D4
:10086000160042EA0151C2084007114370470020B8
:100870000146704701F0004330B421F0004150EAD6
:10088000010206D00A0DA2F56072C1F31301002A1D
:1008900002DC30BC00207047440F44EAC104C100B0
:1008A000E01830BC00EBC25000F09CBA30B50B46EB
:1008B000014600202022012409E021FA02F59D4290
:1008C00005D303FA02F5491B04FA02F52844151E64
:1008D000A2F10102F1DC30BD2DE9F05F05460020F8
:1008E00092469B4688460646814640241BE02846A1
:1008F00041464746224600F02FF853465A46C01A52
:10090000914110D311461846224600F016F82D1AD0
:1009100067EB01084F4622460120002100F00DF848
:1009200017EB00094E41201EA4F10104DFDC48460C
:1009300031462A464346BDE8F09F202A04DB203A90
:1009400000FA02F1002070479140C2F1200320FA22
:1009500003F3194390407047202A04DB203A21FA20
:1009600002F00021704721FA02F3D040C2F12002C8
:100970009140084319467047202A06DBCB17203ADE
:1009800041FA02F043EAE07306E041FA02F3D04094
:10099000C2F1200291400843194670472DE9FF4FEC
:1009A000087883B09946FF2805D0491C2D2804D02B
:1009B0000024002008E000200BE00124F9E700EB10
:1009C000800003EB4000491C0B78FF2BF7D104B1EA
:1009D000404200230293147819461D462D2C01D065
:1009E0002B2C04D1521C2D2C13D000240294AA4687
:1009F0001478FF2C0FD00A25A3FB057801FB058195
:100A00004FF0000C03FB0C11521CE3194AEB0101DF
:100A1000EEE70124EAE7814453EA010002D019F528
:100A2000C87F06DA03980021C0E9001107B0BDE8CD
:100A3000F08F0025AE4E2F46DFF8B882184600F042
:100A4000ADFACDE90001B9F1000002DAC9F1000404
:100A500000E004460023A74A1AEB030B42EB045ABA
:100A600012E0E00707D02A46334638464146FFF7F2
:100A700058FD074688462A46334610461946FFF772
:100A800050FD05460E466410002CEAD1DDE9000158
:100A9000B9F1000F5A46534606DAFFF7B4FD3A465D
:100AA0004346FFF7B0FD05E0FFF73BFD3A464346FE
:100AB000FFF737FD029A0AB181F00041039AC2E9BB
:100AC0000001B3E72DE9FF4F1F468DB0D7E901467E
:100AD0004FF0FF382E2045464FF000090B90B969C2
:100AE0006D1C0E988847396A824688470028F6D1DF
:100AF000BAF1FF3F0AD024F4D064002E11DDBAF120
:100B00002B0F08D0BAF12D0F0BD102E0404611B0E7
:100B10008DE744F48064B9696D1C0E98884782465D
:100B2000761E6946600501D52D2000E02B208DF84A
:100B3000000001F1010B0DF1200809E0B9696D1CFD
:100B40000E98884782460F9844F40074761E05601C
:100B5000002E02DDBAF1300FF0D00B998A453ED15C
:100B600044F0800406E00F99681CA9F1010944F4DF
:100B700000740860B9696D1C761E0E98884782461D
:100B80003028F0D02BE00B998A4505D1200603D4FC
:100B900044F08004761E18E0504609F08FFA08B33E
:100BA0000DF11302761EAAF1300044F4007493454F
:100BB00006D20BF8010B200607D5A9F1010003E0CE
:100BC000200602D409F101008146A00502D50F9943
:100BD000681C0860B9696D1C0E9888478246002E13
:100BE000D1DC53E0002E51DDBAF1650F02D0BAF12D
:100BF000450F4BD1A00549D5B9696D1C24F440744B
:100C0000761E0E9888478246002E0CDD2B2804D0D5
:100C1000BAF12D0F07D144F48074B9696D1C0E9898
:100C200088478246761EE00501D52D2100E02B2164
:100C300008F8011BCDF82C8021E00DF12901761E6A
:100C400044F4007488450CD2AAF1300010F0FF0083
:100C500088F8000002D10B99884509D908F10108EC
:100C600006E0E00501D5244801E042F20F7081461C
:100C7000B9696D1C0E98884782460F980560002E52
:100C800004DD504609F01AFA0028D6D1F9690E9809
:100C90008847FF208BF8000088F8000000200690AD
:100CA00007904B466A4608A906A8FFF777FEA005FD
:100CB00002D46FF001002AE714F0240F0AD0E007F5
:100CC00014D1DDE906123868031D3B600068C0E9F5
:100CD00000120BE0DDE90601FFF7CCFD0146E0075D
:100CE00004D13868021D3A600068016028460EE7AA
:100CF000000014400000F03FF1D8FFFF426842B10D
:100D0000016811F8013B23B1521EC0E900121846D8
:100D100070470121C160881E704742685AB1C3689C
:100D2000016843B983688B4205D0491E521CC0E953
:100D30000012002070474FF0FF3070470FB40B00D7
:100D400010B58AB00FA900910E994FF00004234A04
:100D5000CC60214CCDE9064200D004236FF0004264
:100D6000CDE901321E4A089202466B460020FFF789
:100D7000A9FE0AB010BC5DF814FBF0B585B00746BB
:100D80004FF0FF300091CDE901011E4600201546CD
:100D90000C4604903B466A46314604A8FFF7CEFF56
:100DA00004990346601825B109B1024600E02246C5
:100DB0002A6000290ED0002B02DD0099814209D063
:100DC0000094001BCDE901043B466A46314604A865
:100DD000FFF7B4FF05B0F0BDFD0C00081B0D0008C7
:100DE0002D0100080029A8BF7047401C490008BF1A
:100DF00020F00100704710B4B0FA80FC00FA0CF04B
:100E000050EA010404BF10BC704749B1CCF1200482
:100E100021FA04F411FA0CF118BF0121214308430F
:100E2000A3EB0C01CB1D4FEA00614FEA102042BF3B
:100E3000002010BC704700EBC35010440029A4BF31
:100E400010BC7047401C490008BF20F0010010BCD6
:100E5000704710B5141E73F1000408DA401C41F10C
:100E6000000192185B411A4301D120F0010010BD2E
:100E70002DE9F04D92469B4611B1B1FA81F202E0A4
:100E8000B0FA80F220329046FFF757FD04460F4635
:100E900040EA0A0041EA0B0153465A46084313D080
:100EA000114653EA010019D0C8F140025046FFF73D
:100EB00053FD05460E46504659464246FFF73DFD56
:100EC000084305D0012004E020463946BDE8F08DF6
:100ED0000020054346EAE0762C4337430A98630531
:100EE000E40AA0EB08000022FD0A44EA47540A3055
:100EF00002D500200146E9E7010510196941DDE945
:100F0000084500196941BDE8F04DA2E7C1F30A5256
:100F1000C1F3130140F2FF3341F480119A4202DA27
:100F200000200146704740F233439A42A2F2334216
:100F300002DC5242FFF710BDFFF7FFBC30B5041EC4
:100F400071F1000404DB4FF00044404264EB010106
:100F5000141E73F1000405DB1C464FF0004352429F
:100F600063EB0403994208BF904230BD1CB50948A9
:100F70000090094801900546009C06E0E06840F0BA
:100F8000010394E8070098471034AC42F6D3FFF70A
:100F9000B1F8000078B1000898B100080EB540F231
:100FA000334202920022CDE900221346FFF760FF90
:100FB00003B000BDFFE7FEE780B540F21C20C2F29F
:100FC000000000F0DBFA80BD7047000010B590B063
:100FD0008C4686461598149813981299CDF83CE0E3
:100FE000CDF838C00D92ADF83230ADF83010ADF814
:100FF0002E000E980730C11700EB5170C0100A90F8
:1010000000200990FFE709980D9988426ADAFFE706
:1010100000200890FFE708980E9988425DDAFFE704
:1010200009980A9948430899CA1701EB527100EBD5
:10103000E10007900899C81701EB507020F00700F5
:10104000401A073006900F980799405C0699C840EF
:10105000C007E8B3FFE7BDF832000190089802909E
:10106000BDF92E00FFF79EFB1599FFF743F9FFF737
:10107000A2FB019A0146029800FB0120ADF8160080
:10108000BDF8300003900D990998C04308440490BE
:10109000BDF92E00FFF786FB1499FFF72BF9FFF738
:1010A0008AFB039A0146049800FB0120ADF8140066
:1010B000BDF91600BDF91410322202F0AFFDBDF9E2
:1010C0001600BDF91410BDF92E2000F08FF8FFE7CF
:1010D000FFE70898013008909DE7FFE70998013085
:1010E000099090E710B010BD80B588B0ADF81E0033
:1010F000ADF81C10ADF81A204AF6701CC0F6000CB2
:10110000DCF80000DCF80410DCF80820DCF80C3017
:10111000DCF810C0CDF814C0049303920291019042
:1011200069460220086001A8052100231A4600F044
:1011300003F808B080BD000080B58AB084460C98E2
:10114000CDF824C00891ADF81E20ADF81C30ADF8E4
:101150001A00BDF81E00ADF81800BDF81A00C0EB6B
:1011600000104000ADF81600BDF81A0000EB40007A
:101170000001ADF8140000200490FFE704980899DE
:10118000884230DAFFE70998049950F82100BDF948
:101190001830BDF91C10BDF91AC06A4640F2000EA5
:1011A000C4F2400EC2F80CE0C2F808E0C2F804C075
:1011B000116010221146FFF709FF049808990139C0
:1011C00088420BDAFFE7BDF81400BDF816100144A1
:1011D000BDF818000844ADF81800FFE7FFE70498D1
:1011E00001300490CAE70AB080BD000080B582B02B
:1011F000ADF80600ADF80410ADF8022002F0C0FA18
:10120000032000F057FB02F0A7FA02B080BD0000F7
:1012100080B586B08DF817008DF816108DF8152062
:10122000002004900390029001909DF817008DF823
:101230000400F3208DF80500AB208DF806009DF822
:10124000160000F001008DF807009DF8150000F071
:1012500001008DF808006B208DF8090001A8062117
:1012600008F0D2FC06B080BD10B586B08C4686462C
:101270000A980999089C8DF817E08DF816C0ADF80A
:1012800014208DF813308DF812108DF81100002005
:1012900003900290019000909DF817008DF80000D7
:1012A000FD208DF801009DF816008DF802009DF8D4
:1012B00015008DF803009DF814008DF804009DF8CA
:1012C00013008DF805009DF823008DF80600BDF889
:1012D00022008DF807000898000A8DF80800089889
:1012E0008DF809009DF8120000F001008DF80A0049
:1012F0009DF8110000F001008DF80B006B208DF8B7
:101300000C0068460D2108F07FFC06B010BD0000FF
:1013100080B586B08DF817008DF8161000208DF876
:10132000150004900390029001909DF817009DF81D
:10133000152001A988549DF8150001308DF815007D
:101340009DF8160001460091102800F2B88000991F
:10135000DFE801F009141F2AB535B5404B56616C22
:10136000B5778DA182009DF8152001A91F20885412
:101370009DF8150001308DF81500A1E09DF81520AD
:1013800001A9202088549DF8150001308DF8150022
:1013900096E09DF8152001A9212088549DF815009C
:1013A00001308DF815008BE09DF8152001A924204F
:1013B00088549DF8150001308DF8150080E09DF8E7
:1013C000152001A9272088549DF8150001308DF8BB
:1013D000150075E09DF8152001A9312088549DF86D
:1013E000150001308DF815006AE09DF8152001A95F
:1013F000332088549DF8150001308DF815005FE00A
:101400009DF8152001A9352088549DF8150001305C
:101410008DF8150054E09DF8152001A93620885458
:101420009DF8150001308DF8150049E09DF8152054
:1014300001A9372088549DF8150001308DF815005A
:101440003EE09DF8152001A93A2088549DF815002A
:1014500001308DF8150033E09DF8152001A93B20DF
:1014600088549DF8150001308DF8150028E09DF88E
:10147000152001A9422088549DF8150001308DF8EF
:1014800015009DF815206C2088549DF8150001303A
:101490008DF8150014E09DF8152001A9432088540B
:1014A0009DF8150001308DF815009DF815207A2063
:1014B00088549DF8150001308DF8150000E0FFE715
:1014C0009DF8152001A86B2181549DF8151001315C
:1014D0008DF815109DF8151008F096FB06B080BD2C
:1014E00080B586B08DF8170000200490039002901C
:1014F00001909DF817008DF80400FF208DF805007D
:1015000066208DF806006B208DF8070001A80421E5
:1015100008F07AFB06B080BD81B0EFF3108072B6A0
:101520000090FFE7FEE7000081B08DF802009DF813
:101530000200012811DBFFE79DF8020002280CDC05
:10154000FFE79DF8020040F20441C2F200010844A6
:1015500010F8010C8DF8030003E000208DF8030063
:10156000FFE79DF8030001B07047000080B500213F
:101570003222084602F052FB80BD000080B58EB0DA
:101580000D900D98C06B00680C900D980068006875
:101590000B900C980D99096CC8404007002875D530
:1015A000FFE79DF82C00400700286FD5FFE70D9856
:1015B000006800688006002807D4FFE70D980168DE
:1015C000086820F004000860FFE70D980068082113
:1015D000C4F20201884203D1FFE704200A9047E0E9
:1015E0000D9800681C21C4F20201884203D1FFE774
:1015F0004020099039E00D9800683021C4F20201C2
:10160000884204D1FFE74FF4806008902AE00D98EB
:1016100000684421C4F20201884204D1FFE74FF47C
:10162000804007901BE00D9800685821C4F2020129
:10163000884204D1FFE74FF4802006900CE00D981B
:1016400001686C22C4F202024FF08060914208BF30
:101650004FF480000690FFE706980790FFE7079891
:101660000890FFE708980990FFE709980A90FFE7BC
:101670000A980421C4F2020108600D98C06A20B1E2
:10168000FFE70D98C16A8847FFE7B8E00C980D990D
:10169000096CC8408007002840F18080FFE79DF872
:1016A0002C008007002879D5FFE70D9800680068B6
:1016B000800600280BD4FFE70D980168086820F029
:1016C0000A0008600D99012081F82100FFE70D98BC
:1016D00000680821C4F20201884203D1FFE702201A
:1016E000059047E00D9800681C21C4F20201884271
:1016F00003D1FFE72020049039E00D9800683021E5
:10170000C4F20201884204D1FFE74FF40070039055
:101710002AE00D9800684421C4F20201884204D1F5
:10172000FFE74FF4005002901BE00D98006858212D
:10173000C4F20201884204D1FFE74FF40030019067
:101740000CE00D9801686C22C4F202024FF00070A8
:10175000914208BF4FF400100190FFE701980290FA
:10176000FFE702980390FFE703980490FFE70498CF
:101770000590FFE705980421C4F202010860FFE725
:101780000D99002081F82000FFE70D98806A20B1B4
:10179000FFE70D98816A8847FFE72FE00C980D99C5
:1017A000096CC8400007002827D5FFE79DF82C00EA
:1017B0000007002821D5FFE70D980168086820F090
:1017C0000E0008600D98C26B016C012000FA01F157
:1017D00051600D9988630D9981F82100FFE70D99FB
:1017E000002081F82000FFE70D98006B20B1FFE793
:1017F0000D98016B8847FFE7FFE7FFE7FFE70EB0B3
:1018000080BD000083B0019000200090019820B9B5
:10181000FFE701208DF80B0047E0019908684FF6BB
:10182000F872CBF6FD7210444CF6CD42CCF6CC42A9
:10183000A0FB02026FF0030000EA92000864019925
:101840000020C4F20200C8630199022081F821003F
:101850000198006800680090009843F6F071884392
:10186000009001994868D1F808C0CB680A6940EA3D
:101870000C00184310434A6910438A691043C96930
:101880000143009808430090009801990968086096
:10189000019900208863019A012182F821100199A1
:1018A00081F820008DF80B00FFE79DF80B0003B0D6
:1018B0007047000080B584B0039000F0C5F9029035
:1018C000039801900198013048B1FFE740F2E80029
:1018D000C2F200000178019808440190FFE7FFE799
:1018E00000F0B2F90299401A0199884201D2FFE74B
:1018F000F6E704B080BD000090B00F900E9100207C
:101900000D900990FFE70E9800680D99C8400028D7
:1019100000F07F81FFE70D99012088400C900E9820
:1019200000680C9908400B900B980C99884240F085
:101930006C81FFE70E9840680590002851D0FFE7C2
:10194000059801283AD0FFE7059802283FD0FFE725
:10195000059803285FD0FFE70598112832D0FFE7EC
:101960000598122838D0FFE705980021C1F211012F
:10197000884236D0FFE705980021C1F21201884263
:101980002FD0FFE705980021C1F22101884228D01D
:10199000FFE705980021C1F22201884221D0FFE72C
:1019A00005980021C1F2310188421AD0FFE705985D
:1019B0000021C1F23201884213D02FE00E98C06896
:1019C00009902CE00E98C0680430099027E00E982A
:1019D000C0680830099022E00E98C0680C30099069
:1019E0001DE00E98806818B9FFE70420099011E007
:1019F0000E988068012806D1FFE7082009900C980E
:101A00000F99086105E0082009900C980F9948612A
:101A1000FFE7FFE703E00020099000E0FFE70B98F5
:101A2000FF2803D8FFE70F98049003E00F980430D5
:101A30000490FFE7049808900B98FF2804D8FFE76C
:101A40000D988000039006E00D996FF01F0000EBE9
:101A500081000390FFE70398079008980068079AB1
:101A60000F219140884309999140084308990860E3
:101A70000E98C079C006002840F1C680FFE7FFE756
:101A800041F21800C4F20200016841F00101016056
:101A9000006800F0010006900698FFE70D9820F01E
:101AA00003000821C4F2010140580A900D9800F08B
:101AB000030081000F2000FA01F10A9888430A9080
:101AC0000F9840F60001C4F20101884203D1FFE7FC
:101AD0000020029026E00F9840F60041C4F2010178
:101AE000884203D1FFE70120019018E00F9841F2EE
:101AF0000001C4F20101884203D1FFE702200090F7
:101B00000AE00F9941F20042C4F20102042091421E
:101B100008BF03200090FFE700980190FFE70198BD
:101B20000290FFE702980D9901F00301890000FA85
:101B300001F10A9808430A900A980D9921F00301CF
:101B40000822C4F2010288500E988079C00600284D
:101B500009D5FFE70B9A40F20841C4F20101086879
:101B60001043086008E00B9A40F20841C4F20101FA
:101B7000086890430860FFE70E9880798006002887
:101B800009D5FFE70B9A40F20C41C4F20101086845
:101B90001043086008E00B9A40F20C41C4F20101C6
:101BA000086890430860FFE70E9880798007002856
:101BB00009D5FFE70B9A40F20441C4F2010108681D
:101BC0001043086008E00B9A40F20441C4F201019E
:101BD000086890430860FFE70E988079C00748B115
:101BE000FFE70B9A40F20041C4F20101086810437C
:101BF000086008E00B9A40F20041C4F20101086855
:101C000090430860FFE7FFE7FFE70D9801300D9074
:101C100079E610B07047000082B00190ADF8021074
:101C20008DF801209DF8010028B1FFE7BDF8020002
:101C30000199086105E0BDF80200000401990861FE
:101C4000FFE702B07047000040F62850C2F20000E3
:101C50000068704780B58EB00C900C9820B9FFE7F3
:101C600001208DF8370043E10C9890F83D0040B911
:101C7000FFE70C99002081F83C000C9800F03CF93B
:101C8000FFE70C99242081F83D000C980168086852
:101C900020F0010008600C980168086840F40040DA
:101CA00008600C980168086820F40040086000F0A3
:101CB0005FFB0A900C98406848F2A061C0F20101F5
:101CC00088420BD8FFE70A9948F28042C0F21E0210
:101CD0000020914238BF012009900AE00A9940F69D
:101CE0000012C0F23D020020914238BF012009904D
:101CF000FFE70998012804D1FFE701208DF837009C
:101D0000F6E00A984DF68361C4F21B31A0FB011086
:101D1000800C0B900C980068406820F03F000B99F5
:101D200008430C99096848600C980068006A20F024
:101D30003F0008900C98406848F2A061C0F2010191
:101D4000884204D8FFE70B98013007900EE00B980B
:101D50004FF49671484344F6D351C1F26201A0FB9F
:101D60000101012000EB91100790FFE70898079907
:101D700008430C99096808620C980068C0694CF621
:101D8000FF71884306900C98406848F2A061C0F249
:101D9000010188421FD8FFE70A9801380C99496869
:101DA0004900B0FBF1F001306FF31F30032803D876
:101DB000FFE7042005900BE00A9801380C99496868
:101DC0004900B0FBF1F001306FF31F300590FFE7E1
:101DD000059804904CE00C98806868B9FFE70A9871
:101DE00001380C99496801EB4101B0FBF1F0013079
:101DF0006FF31F3003900DE00A9801380C99496881
:101E000019225143B0FBF1F00130042161F31F307E
:101E10000390FFE70398000518B9FFE7012002903F
:101E200023E00C98806868B9FFE70A9801380C999C
:101E3000496801EB4101B0FBF1F001306FF31F3055
:101E400001900DE00A9801380C9949681922514314
:101E5000B0FBF1F00130042161F31F300190FFE786
:101E6000019840F400400290FFE702980490FFE7D9
:101E70000698049908430C990968C8610C98006891
:101E8000006820F0C0000C9B1968DA691B6A1A43CD
:101E9000104308600C980068806848F2FF3188435E
:101EA0000C9A1168D36812691A43104388600C9821
:101EB0000068C06820F0FF000C9B19685A699B6994
:101EC0001A431043C8600C980168086840F001008C
:101ED00008600C99002008640C9A202182F83D10BB
:101EE0000C9908630C9981F83E008DF83700FFE7E4
:101EF0009DF837000EB080BD80B588B007900020F7
:101F000006900590049003900798006845F2004100
:101F1000C4F2000188423ED1FFE7FFE741F218001A
:101F2000C4F20200016841F008010160006800F09D
:101F3000080002900298FFE74FF4407003901220CF
:101F400004900320069040F60040C4F2010003A96B
:101F5000FFF7D2FCFFE70421C4F2010108680190F9
:101F6000019840F0E0600190019840F0020001907B
:101F700001980860FFE7FFE741F21C00C4F202008D
:101F8000016841F400110160006800F40010009045
:101F90000098FFE7FFE708B080BD000040F2E800CE
:101FA000C2F20000027840F62851C2F2000108682F
:101FB000104408607047000080B542F20001C4F28E
:101FC0000201086840F010000860032000F096F855
:101FD0000F2000F005F800F03BF8002080BD000065
:101FE00080B582B0009040F21000C2F2000000689C
:101FF00040F2E801C2F200010A784FF47A71B1FBB5
:10200000F2F1B0FBF1F000F073FD20B1FFE7012029
:102010008DF8070018E000980F280DD8FFE7009909
:102020004FF0FF30002200F04FF8009840F2EC0132
:10203000C2F20001086003E001208DF8070003E010
:1020400000208DF80700FFE79DF8070002B080BD73
:1020500083B0FFE741F21800C4F20200016841F0CA
:1020600001010160006800F0010002900298FFE7A2
:10207000FFE741F21C00C4F20200016841F0805108
:102080000160006800F0805001900198FFE7FFE7D1
:102090000421C4F2010108680090009820F0E0607B
:1020A0000090009840F00070009000980860FFE7F2
:1020B00003B0704780B582B08DF807009DF9070026
:1020C00003F09EF902B080BD80B586B08DF8170090
:1020D000049103920020029003F0AAF902909DF966
:1020E0001700019002980499039A01F0ADFD014692
:1020F000019803F0A5F906B080BD000080B582B05C
:102100000190019803F0BEF902B080BD80B584B0A3
:1021100002900191029820B9FFE701208DF80F008D
:102120001BE1019842F20001C4F20201096801F0CA
:102130000701884216D9FFE742F20000C4F202000C
:10214000016821F00701019A11430160006800F065
:1021500007000199884204D0FFE701208DF80F00A5
:10216000FBE0FFE702980078800700282AD5FFE708
:10217000029800784007002809D5FFE741F20401E2
:10218000C4F20201086840F4E0600860FFE70298CA
:1021900000780007002809D5FFE741F20401C4F2E6
:1021A0000201086840F460500860FFE741F2040152
:1021B000C4F20201086820F0F000029A926810430D
:1021C0000860FFE702980078C007002860D0FFE7AA
:1021D0000298406801280ED1FFE741F20000C4F2E6
:1021E000020000688003002804D4FFE701208DF876
:1021F0000F00B2E021E00298406802280ED1FFE70C
:1022000041F20000C4F2020000688001002804D4FA
:10221000FFE701208DF80F009FE00DE041F2000084
:10222000C4F2020000688007002804D4FFE7012000
:102230008DF80F0091E0FFE7FFE741F20401C4F2DF
:102240000201086820F00300029A526810430860F7
:10225000FFF7FAFC0090FFE741F20400C4F202002D
:10226000006800F00C0002994968B0EB810F0ED0B5
:10227000FFE7FFF7E9FC0099401A41F289318842F3
:1022800004D3FFE703208DF80F0066E0E4E7FFE7E3
:10229000019842F20001C4F20201096801F007014D
:1022A000884216D2FFE742F20000C4F20200016841
:1022B00021F00701019A11430160006800F0070056
:1022C0000199884204D0FFE701208DF80F0044E017
:1022D000FFE702980078400700280CD5FFE741F29D
:1022E0000401C4F20201086820F4E060029AD26896
:1022F00010430860FFE702980078000700280DD51A
:10230000FFE741F20401C4F20201086820F46050C2
:10231000029A126940EAC2000860FFE700F04CF838
:1023200041F20401C4F202010968C9B20A094AF67D
:102330008411C0F60001895CC84040F21001C2F26D
:102340000001086040F2EC00C2F200000068FFF7F4
:1023500047FE00208DF80F00FFE79DF80F0004B046
:1023600080BD000040F21000C2F20000006870471B
:1023700080B5FFF7F7FF41F20401C4F202010968DA
:10238000C1F302224AF69411C0F60001895CC840EC
:1023900080BD000080B5FFF7E5FF41F20401C4F203
:1023A00002010968C1F3C2224AF69411C0F6000185
:1023B000895CC84080BD000086B000200590049074
:1023C00003900290019041F20400C4F20200006800
:1023D0000590059800F00C000146009100283FD0C0
:1023E000FFE70098042804D0FFE70098082806D0EB
:1023F00037E041F20020C0F27A00019037E0059802
:10240000C0F383414AF63C20C0F60000405C0290D5
:102410009DF81600C007C0B1FFE741F20400C4F206
:1024200002000068C0F340414AF64C20C0F60000AC
:10243000405C0490029841F20021C0F27A014843C6
:102440000499B0FBF1F0039007E0029840F6001108
:10245000C0F23D0148430390FFE70398019006E076
:10246000FFE741F20020C0F27A000190FFE70198F7
:1024700006B0704780B586B00490049820B9FFE795
:1024800001208DF817002EE304980078C00700287B
:1024900000F0AE80FFE741F20400C4F202000068E1
:1024A00000F00C00042813D0FFE741F20400C4F24E
:1024B0000200006800F00C0008281BD1FFE741F281
:1024C0000400C4F202000068C003002812D5FFE730
:1024D00041F20000C4F2020000688003002808D521
:1024E000FFE70498406820B9FFE701208DF8170046
:1024F000F9E27CE0FFE704984068B0F5803F09D13D
:10250000FFE741F20001C4F20201086840F48030A4
:10251000086032E00498406868B9FFE741F20001C2
:10252000C4F20201086820F480300860086820F4D2
:102530008020086020E004984068B0F5A02F0DD1FD
:10254000FFE741F20001C4F20201086840F4802074
:102550000860086840F4803008600CE041F2000137
:10256000C4F20201086820F480300860086820F492
:1025700080200860FFE7FFE7FFE7FFE70498406877
:10258000D0B1FFE7FFF760FB0390FFE741F20000E7
:10259000C4F202000068800300280CD4FFE7FFF7B4
:1025A00053FB0399401A652804D3FFE703208DF8F5
:1025B000170098E2EAE719E0FFF746FB0390FFE710
:1025C00041F20000C4F202000068800300280CD52C
:1025D000FFE7FFF739FB0399401A652804D3FFE7AB
:1025E00003208DF817007EE2EAE7FFE7FFE7FFE749
:1025F000049800788007002840F18D80FFE741F2C1
:102600000400C4F20200006810F00C0F13D0FFE7C2
:1026100041F20400C4F20200006800F00C00082837
:1026200029D1FFE741F20400C4F202000068C003B0
:10263000002820D4FFE741F20000C4F20200006845
:102640008007002809D5FFE704980069012804D015
:10265000FFE701208DF8170045E241F20001C4F2C6
:102660000201086820F0F800049A526940EAC200AA
:102670000860FFE74EE00498006958B3FFE70021C7
:10268000C4F2422101200860FFF7DEFA0390FFE761
:1026900041F20000C4F202000068800700280CD458
:1026A000FFE7FFF7D1FA0399401A032804D3FFE7A5
:1026B00003208DF8170016E2EAE741F20001C4F2A8
:1026C0000201086820F0F800049A526940EAC2004A
:1026D00008601EE00021C4F2422100200860FFF7DC
:1026E000B3FA0390FFE741F20000C4F20200006871
:1026F000800700280CD5FFE7FFF7A6FA0399401AD8
:10270000032804D3FFE703208DF81700EBE1EAE785
:10271000FFE7FFE7FFE7049800780007002848D5A7
:10272000FFE70498806918B3FFE740F28041C4F2E4
:10273000422101200860FFF787FA0390FFE741F28A
:102740002400C4F202000068800700280CD4FFE7D0
:10275000FFF77AFA0399401A032804D3FFE703200E
:102760008DF81700BFE1EAE7012001F067FE1FE0E6
:1027700040F28041C4F2422100200860FFF764FA71
:102780000390FFE741F22400C4F2020000688007D2
:1027900000280CD5FFE7FFF757FA0399401A0328E2
:1027A00004D3FFE703208DF817009CE1EAE7FFE779
:1027B000FFE7049800784007002840F1D880FFE741
:1027C00000208DF8070041F21C00C4F202000068EE
:1027D000C000002813D4FFE7FFE741F21C00C4F259
:1027E0000200016841F080510160006800F08050F3
:1027F00000900098FFE701208DF80700FFE747F2FF
:102800000000C4F200000068C005002822D4FFE7E1
:1028100047F20001C4F20001086840F480700860CB
:10282000FFF712FA0390FFE747F20000C4F200003E
:102830000068C00500280CD4FFE7FFF705FA0399EC
:10284000401A652804D3FFE703208DF817004AE1FA
:10285000EAE7FFE7FFE70498C068012809D1FFE72E
:1028600041F22001C4F20201086840F00100086052
:1028700031E00498C06868B9FFE741F22001C4F272
:102880000201086820F001000860086820F00400D8
:1028900008601FE00498C06805280DD1FFE741F2E9
:1028A0002001C4F20201086840F0040008600868D2
:1028B00040F0010008600CE041F22001C4F2020186
:1028C000086820F001000860086820F00400086033
:1028D000FFE7FFE7FFE7FFE70498C068E0B1FFE725
:1028E000FFF7B2F90390FFE741F22000C4F20200C3
:1028F0000068800700280ED4FFE7FFF7A5F90399C9
:10290000401A41F28931884204D3FFE703208DF851
:102910001700E8E0E8E71BE0FFF796F90390FFE710
:1029200041F22000C4F202000068800700280ED5A2
:10293000FFE7FFF789F90399401A41F2893188428C
:1029400004D3FFE703208DF81700CCE0E8E7FFE7AA
:102950009DF80700012809D1FFE741F21C01C4F2EC
:102960000201086820F080500860FFE7FFE7049844
:10297000C069002800F0B380FFE741F20400C4F210
:102980000200006800F00C00082800F08280FFE7D9
:102990000498C06902285CD1FFE76021C4F242219B
:1029A00000200860FFF750F90390FFE741F20000B4
:1029B000C4F202000068800100280CD5FFE7FFF791
:1029C00043F90399401A032804D3FFE703208DF845
:1029D000170088E0EAE70498006AB0F5803F0CD160
:1029E000FFE741F20401C4F20201086820F400305C
:1029F000049A926810430860FFE741F20401C4F2B0
:102A00000201086820F47410049B1A6A5B6A1A4376
:102A1000104308606021C4F2422101200860FFF7E2
:102A200013F90390FFE741F20000C4F202000068CE
:102A3000800100280CD4FFE7FFF706F90399401A3C
:102A4000032804D3FFE703208DF817004BE0EAE7E3
:102A50001EE06021C4F2422100200860FFF7F4F874
:102A60000390FFE741F20000C4F202000068800119
:102A700000280CD5FFE7FFF7E7F80399401A032871
:102A800004D3FFE703208DF817002CE0EAE7FFE707
:102A900024E00498C069012804D1FFE701208DF8E3
:102AA000170020E041F20400C4F202000068029026
:102AB000029800F480300499096A884208D1FFE73F
:102AC000029800F470100499496A884204D0FFE724
:102AD00001208DF8170006E0FFE7FFE7FFE7002081
:102AE0008DF81700FFE79DF8170006B080BD0000C5
:102AF00080B582B00190019801F0FCFD02B080BD6C
:102B000081B0009001B0704781B0009001B0704773
:102B100085B003900291FFE7039890F83C000128EC
:102B200004D1FFE702208DF813005BE00399012038
:102B300081F83C00FFE7FFE70399022081F83D00A0
:102B400003980068406801900398006880680090CE
:102B5000019820F0700001900298016801980843E4
:102B6000019001980399096848600398006842F64B
:102B70000041C4F20101884218D0FFE703980068C1
:102B8000B0F1804F12D0FFE70398006840F2004197
:102B9000C4F20001884209D0FFE70398006840F6BC
:102BA0000001C4F2000188420ED1FFE7009820F036
:102BB00080000090029841680098084300900098B7
:102BC000039909688860FFE70399012081F83D00B7
:102BD000FFE70399002081F83C00FFE700208DF813
:102BE0001300FFE79DF8130005B0704780B582B071
:102BF0000090009820B9FFE701208DF807003FE022
:102C0000009890F83D0040B9FFE70099002081F856
:102C10003C00009800F038F8FFE70099022081F8A6
:102C20003D00009951F8040B01F0D2FD00990120FC
:102C300081F84600FFE70099012081F83E000099E5
:102C400081F83F00009981F84000009981F8410027
:102C5000FFE7FFE70099012081F84200009981F821
:102C60004300009981F84400009981F84500FFE78E
:102C70000099012081F83D0000208DF80700FFE752
:102C80009DF8070002B080BD80B584B00390039822
:102C9000006840F60001C4F20001884219D1FFE744
:102CA000FFE741F21C00C4F20200016841F0040198
:102CB0000160006800F0040002900298FFE71E2007
:102CC000019000221146FFF7FFF90198FFF7F2F992
:102CD000FFE704B080BD000083B00190019890F838
:102CE0003D00012804D0FFE701208DF80B0047E0EC
:102CF0000199022081F83D0001980168C86840F000
:102D00000100C8600198006842F60041C4F2010168
:102D1000884218D0FFE701980068B0F1804F12D0C8
:102D2000FFE70198006840F20041C4F200018842C8
:102D300009D0FFE70198006840F60001C4F20001E5
:102D4000884212D1FFE701980068806800F0070010
:102D500000900098062807D0FFE7019801680868EE
:102D600040F001000860FFE706E00198016808688C
:102D700040F001000860FFE700208DF80B00FFE73E
:102D80009DF80B0003B0704781B0009001B0704710
:102D900080B584B0039003980068C06802900398DF
:102DA0000068006901909DF804008007002824D580
:102DB000FFE79DF80800800700281DD5FFE703986E
:102DC00001686FF0020008610399012008770398F9
:102DD00000688069800720B1FFE70398FFF7D4FF00
:102DE00006E0039800F00EF9039800F019FAFFE7E7
:102DF000039900200877FFE7FFE79DF804004007EC
:102E0000002825D5FFE79DF80800400700281ED5BB
:102E1000FFE7039801686FF004000861039902203E
:102E2000087703980068806910F4407F04D0FFE7BA
:102E30000398FFF7A9FF06E0039800F0E3F8039872
:102E400000F0EEF9FFE7039900200877FFE7FFE7BE
:102E50009DF804000007002824D5FFE79DF808002E
:102E6000000700281DD5FFE7039801686FF00800F0
:102E7000086103990420087703980068C0698007F7
:102E800020B1FFE70398FFF77FFF06E0039800F00B
:102E9000B9F8039800F0C4F9FFE703990020087718
:102EA000FFE7FFE79DF80400C006002825D5FFE7EF
:102EB0009DF80800C00600281ED5FFE703980168AA
:102EC0006FF01000086103990820087703980068E4
:102ED000C06910F4407F04D0FFE70398FFF754FF68
:102EE00006E0039800F08EF8039800F099F9FFE7E8
:102EF000039900200877FFE7FFE79DF80400C0076B
:102F000078B1FFE79DF80800C00748B1FFE70398D4
:102F100001686FF001000861039800F085F9FFE790
:102F2000FFE79DF804000006002810D5FFE79DF894
:102F300008000006002809D5FFE7039801686FF034
:102F4000800008610398FFF7DBFDFFE7FFE79DF8CE
:102F500004004006002810D5FFE79DF80800400651
:102F6000002809D5FFE7039801686FF04000086169
:102F7000039800F0B3F9FFE7FFE79DF8040080062F
:102F8000002810D5FFE79DF808008006002809D525
:102F9000FFE7039801686FF0200008610398FFF7CE
:102FA000B3FDFFE7FFE704B080BD000080B586B049
:102FB000059000200490039002900190059800680D
:102FC000B0F1804F1CD1FFE7FFE741F21800C4F2D7
:102FD0000200016841F004010160006800F0040093
:102FE00000900098FFE703200190022002900490D7
:102FF00040F60000C4F2010001A9FEF77DFCFFE7E6
:1030000006B080BD81B0009001B0704780B586B039
:1030100004900391029200208DF80700FFE70498C6
:1030200090F83C00012804D1FFE702208DF817003A
:1030300089E00499012081F83C00FFE7FFE702984E
:1030400000900C2800F270800099DFE801F0076D15
:103050006D6D206D6D6D3A6D6D6D53000498006857
:10306000039901F053FC04980168886940F0080056
:10307000886104980168886920F0040088610398D9
:1030800002690498016888691043886150E00498D7
:103090000068039901F0A2FC04980168886940F473
:1030A0000060886104980168886920F48060886104
:1030B0000398026904980168886940EA02208861DF
:1030C00036E004980068039901F0F4FC0498016864
:1030D000C86940F00800C86104980168C86920F018
:1030E0000400C8610398026904980168C869104324
:1030F000C8611DE004980068039901F047FD049839
:103100000168C86940F40060C86104980168C86932
:1031100020F48060C8610398026904980168C86956
:1031200040EA0220C86103E001208DF80700FFE7B4
:10313000FFE70499002081F83C00FFE79DF80700B5
:103140008DF81700FFE79DF8170006B080BD00005E
:1031500080B582B00090009820B9FFE701208DF87B
:1031600007003FE0009890F83D0040B9FFE7009964
:10317000002081F83C00009800F038F8FFE7009943
:10318000022081F83D00009951F8040B01F020FB6A
:103190000099012081F84600FFE70099012081F89D
:1031A0003E00009981F83F00009981F840000099A5
:1031B00081F84100FFE7FFE70099012081F8420014
:1031C000009981F84300009981F84400009981F842
:1031D0004500FFE70099012081F83D0000208DF8AF
:1031E0000700FFE79DF8070002B080BD82B00190A4
:1031F00001980068B0F1804F10D1FFE7FFE741F27E
:103200001C00C4F20200016841F001010160006885
:1032100000F0010000900098FFE7FFE702B0704760
:1032200081B0009001B0704781B0009000980068B4
:1032300040F60001C4F20001884201D1FFE7FFE738
:1032400001B0704780B584B002900191FFE7029809
:1032500090F83C00012804D1FFE702208DF80F0010
:1032600037E00299012081F83C00FFE7FFE702996F
:10327000022081F83D000298019901F0D3FC70B161
:10328000FFE70299012081F83D00FFE70299002045
:1032900081F83C00FFE701208DF80F0019E002984B
:1032A0000168C86820F04000C86002980168C868DA
:1032B00020F48040C8600299012081F83D00FFE7BA
:1032C0000299002081F83C00FFE700208DF80F00F4
:1032D000FFE79DF80F0004B080BD000081B00090B2
:1032E00001B0704780B582B00090009820B9FFE728
:1032F00001208DF8070040E00098806908B1FFE7E1
:1033000000E0FFE7009890F8410040B9FFE700991E
:10331000002081F84000009800F034F8FFE70099A1
:10332000242081F8410000980168C86820F400500A
:10333000C860009801F050FE00980168086920F408
:103340009040086100980168486920F02A004861AF
:1033500000980168C86840F40050C86000990020D7
:103360004864009A202182F84110009A82F84210A5
:10337000009948638DF80700FFE79DF8070002B049
:1033800080BD000080B592B01190002010900F9089
:103390000E900D901198006843F60001C4F20101EF
:1033A00088425ED1FFE7FFE741F21800C4F2020055
:1033B000016841F480410160006800F480400C9095
:1033C0000C98FFE7FFE741F21800C4F20200016821
:1033D00041F004010160006800F004000B900B98BC
:1033E000FFE74FF400700D9002200E900320109024
:1033F00040F60000C4F2010005900DA90691FEF709
:103400007BFA059806994FF480620D92002207928C
:103410000E920F92FEF770FA079940F21C20C2F24A
:10342000000008905822C4F20202026041608160EC
:103430008022C2600161416120228261C161FEF788
:10344000E1F918B1FFE7FEF767F8FFE7FFE711982A
:1034500040F21C21C2F20001C16311984862FFE7EB
:103460004AE01198006844F20041C4F20001884229
:1034700041D1FFE7FFE741F21C00C4F202000168FE
:1034800041F400310160006800F400300A900A98AD
:10349000FFE7FFE741F21800C4F20200016841F0C3
:1034A00004010160006800F0040009900998FFE73A
:1034B00004200D9002200E900320109040F6000092
:1034C000C4F2010001900DA90291FEF715FA0198CE
:1034D000029908220D92002203920E920F92FEF79B
:1034E0000BFA039A262004901146FEF7EDFD04988E
:1034F000FEF7E0FDFFE7FFE712B080BD80B58AB0C0
:1035000008900791ADF81A200593002002900898C2
:1035100090F84100202840F08180FFE7079820B113
:10352000FFE7BDF81A0020B9FFE701208DF827005A
:1035300078E00899002048640899212081F841002A
:10354000FEF782FB0290BDF81A0008998884BDF846
:103550001A000899C88408988068B0F5805F09D17E
:10356000FFE70898006928B9FFE700200490079852
:10357000039004E00798049000200390FFE7FFE722
:103580000898C08C78B3FFE70898029B05996A46B3
:1035900011608021002201F07DFD40B1FFE7089914
:1035A000202081F8410003208DF827003AE004989C
:1035B00058B9FFE7039800886FF35F2008990968FE
:1035C000486003980230039008E004980078089956
:1035D00009684860049801300490FFE70899C88C96
:1035E0000138C884CCE70898029B05996A461160A7
:1035F0004021002201F04EFD40B1FFE70899202054
:1036000081F8410003208DF827000BE00899202065
:1036100081F8410000208DF8270003E002208DF89A
:103620002700FFE79DF827000AB080BDFFE7FEE70F
:1036300080B582B040F29030C2F200000190016883
:10364000C86820F02000C86040F28B41C2F200013F
:1036500000200090087040F21021C2F200010870B2
:1036600040F20011C2F20001086040F20411C2F2FF
:103670000001086040F2FC01C2F20001086040F263
:10368000F831C2F200014860086040F20041C2F225
:103690000001086040F20441C2F20001088040F2DB
:1036A0004B40C2F200004021FCF768FD0198016820
:1036B000C86840F02000C860FFE7FFE702B080BDA7
:1036C00080B582B08DF807009DF80700FDF72CFF4C
:1036D0008DF806009DF80600C0F3400002B080BDE2
:1036E00080B586B000200590049003900290FFE71B
:1036F00041F21800C4F20200016841F004010160C7
:10370000006800F0040001900198FFE74FF480701A
:103710000290012003900020009004900220059068
:1037200040F60000C4F2010002A9FEF7E5F8009897
:1037300040F2D831C2F20001087008740876487669
:1037400000F00AF8FFF774FF00F0D2F96420FEF7EA
:10375000B1F806B080BD000080B582B040F6000030
:10376000C4F201004FF4807100220192FEF754FA76
:10377000019840F2D831C2F20001887302B080BDD6
:1037800080B582B040F60000C4F201004FF48071B1
:1037900001220192FEF740FA019840F2D831C2F2BC
:1037A0000001887302B080BD80B582B0FFE741F2AE
:1037B0001400C4F20200016841F0010101600068D8
:1037C00000F0010001900198FFE70F200090002217
:1037D0001146FEF779FC0098FEF76CFC02B080BD44
:1037E00080B58EB000200D900C900B900A90FFE7F2
:1037F00041F21800C4F20200016841F020010160AA
:10380000006800F0200009900998FFE7FFE741F207
:103810001800C4F20200016841F004010160006870
:1038200000F0040008900898FFE7FFE741F2180055
:10383000C4F20200016841F008010160006800F074
:10384000080007900798FFE740F60000C4F2010067
:1038500005904FF4E07100220192FEF7DDF9019A24
:1038600040F60040C4F20100029071210091FEF781
:10387000D3F901990598C0220A92012203920B9272
:103880000C91022104910D910AA90691FEF734F8DA
:10389000019B0298DDF80CC0049A0699DDF800E05F
:1038A000CDF828E0CDF82CC00C930D92FEF724F84B
:1038B000019B0298049A06994FF4705CCDF828C0D9
:1038C0000B930C92FEF718F8039B049A059806993F
:1038D0004FF4807CCDF828C00B930C920D92FEF72C
:1038E0000BF80EB080BD000080B582B040F26420BD
:1038F000C2F20000019045F20041C4F200010160F3
:1039000041F68021C0F20601416000218160C16062
:103910004FF48042026141618161C1610162FEF741
:1039200099F918B1FFE7FDF7F7FDFFE702B080BD99
:1039300080B58AB000210091099108910791069104
:103940000591049103910291019140F2B820C2F2D5
:1039500000004FF08042026023224260816049F6FD
:103960003F42C260016180218161FFF7F1FB18B124
:10397000FFE7FDF7D1FDFFE700200890099040F236
:10398000B820C2F2000008A9FFF7C2F818B1FFE79B
:10399000FDF7C2FDFFE76020019000220292039232
:1039A000059240F2B820C2F2000001A9FFF72EFBF9
:1039B00018B1FFE7FDF7B0FDFFE740F2B820C2F213
:1039C000000001A90422FFF721FB18B1FFE7FDF772
:1039D000A3FDFFE740F2B820C2F20000FFF7E6FACD
:1039E0000AB080BD80B588B0002100910791069192
:1039F0000591049103910291019140F20030C2F2CD
:103A0000000040F60002C4F20002026041F61F42CC
:103A100042608160C722C260016180218161FFF73D
:103A2000E5F818B1FFE7FDF777FDFFE70020039009
:103A3000049040F20030C2F2000003A9FFF702FC3C
:103A400018B1FFE7FDF768FDFFE700200190029045
:103A500040F20030C2F2000001A9FFF759F818B196
:103A6000FFE7FDF759FDFFE708B080BD80B582B0E4
:103A700040F24830C2F20000019043F60001C4F267
:103A8000010101604FF4E131416000218160C160BA
:103A900001610C2242618161C161FFF723FC18B111
:103AA000FFE7FDF739FDFFE702B080BD80B582B0CA
:103AB00040F29030C2F20000019044F20041C4F2A2
:103AC000000101604FF4E131416000218160C1607B
:103AD00001610C2242618161C161FFF703FC18B1F1
:103AE000FFE7FDF719FDFFE702B080BDFFE7FEE746
:103AF00080B584B001210191002202920846FDF7B1
:103B000087FB0A200390FDF7D5FE0199029A022057
:103B1000FDF77EFB0398FDF7CDFE04B080BD0000ED
:103B200080B58AB0ADF82600ADF82410ADF822209B
:103B30000DF1260009A900F0A1FCBDF9260000281E
:103B400004D4FFE7BDF92600049004E0BDF9260087
:103B500040420490FFE704980790BDF92400002834
:103B600004D4FFE7BDF92400039004E0BDF924006C
:103B700040420390FFE703980690079820B9FFE7BB
:103B8000069808B9FFE747E0BDF92600B8B1FFE79E
:103B9000BDF92600C043C00F8DF817009DF817101F
:103BA000BDF82220079BEC460120CCF80800CCF899
:103BB0000400CCF800300023FDF756FBFFE7BDF909
:103BC0002400B8B1FFE7BDF92400C00F8DF816003E
:103BD0009DF81610BDF8222006986B464FF0010C98
:103BE000C3F808C0C3F804C0186002200023FDF722
:103BF0003BFBFFE70020FDF773FCBDF92600002822
:103C000018BF0120BDF92410002918BF012142F27C
:103C1000107201F093FBFFE70AB080BD80B582B05F
:103C2000ADF80600ADF80410ADF80220FFF794FDE2
:103C3000BDF90600BDF90410BDF80220FFF770FFC2
:103C400002B080BDFFE7FEE788B0079006910592BD
:103C5000079800F0070004900498C0F107000528B9
:103C600003D3FFE70420019004E00498C0F10700AB
:103C70000190FFE70198039004980430062803D8C8
:103C8000FFE70020009003E0049803380090FFE76E
:103C90000098029006980399012202FA01F1013975
:103CA0000840029B984005999A40013A1140084308
:103CB00008B0704780B584B00290019100920298DC
:103CC0000099C860019800990861009890F8480030
:103CD00028B9FFE7009800F00BF9039004E0009882
:103CE00000F038F80390FFE7039804B080BD0000AF
:103CF00080B584B0029001910198B0F8500018B9D5
:103D0000FFE70298039021E0029820F00040009025
:103D100000980199496CFCF701FD18B9FFE70020F4
:103D2000039013E002980021FCF7DCFC38B9FFE7B0
:103D300002980199496CFCF7D7FA039006E00298C3
:103D40000199496CFCF77EFA0390FFE7039804B0F1
:103D500080BD000080B58CB00B900B990491C868B1
:103D60000969FCF7C1FA049948610B994869FFF7A2
:103D7000BFFF0B9948610B990868059048698969EC
:103D8000FCF7B2FA01460598FCF7B4FA09900B99D2
:103D9000486900F06BF838B1FFE70B99486849694A
:103DA000FCF7A8FA089002E000200890FFE70B98C3
:103DB000416900918169C06901900846FCF742FAA7
:103DC00001460098FCF790FA0199FCF73BFA06903F
:103DD0000B9880680699FCF78DFA07900998089966
:103DE000FCF730FA0799FCF72DFA0A900B9803902C
:103DF000416B0291006C0A99FCF724FA0299FCF7D6
:103E000021FA039908630B9800F050F80B99886920
:103E1000C8610B99486988610B99086B08640B9815
:103E2000006B0CB080BD000080B582B0019001989D
:103E3000B0F84C0008B9FFE716E00199086A496A32
:103E4000FCF750FC20B9FFE70199486A08620BE0D3
:103E50000199086A896AFCF761FC20B9FFE70199BA
:103E6000886A0862FFE7FFE702B080BD80B584B0D2
:103E7000029001910198B0F84A0020B9FFE70120B3
:103E8000ADF80E000EE0029820F00040009000987F
:103E90000199C96AFCF734FC002818BF0120ADF86D
:103EA0000E00FFE7BDF80E0004B080BD80B582B003
:103EB00001900198B0F84E0008B9FFE716E00199AB
:103EC000086B896BFCF70EFC20B9FFE70199886B42
:103ED00008630BE00199086BC96BFCF71FFC20B964
:103EE000FFE70199C86B0863FFE7FFE702B080BDF9
:103EF00080B588B0079007990291C8680969FCF7F6
:103F0000F3F90299486107994869FFF7F1FE0799AB
:103F10004861079908684969FCF7ECF90690079928
:103F20004869FFF7A3FF60B1FFE707980190416977
:103F3000006AFCF787F9019908620798FFF774FF98
:103F4000FFE707994868096AFCF7D4F905900799D3
:103F500048698969FCF7C8F9039007988068039954
:103F6000FCF7C8F9049006980599FCF76BF90499D9
:103F7000FCF768F907990091496BFCF763F9009920
:103F800008630798FFF792FF0799486988610798C7
:103F9000006B08B080BD000080B584B003908DF840
:103FA0000B1000208DF80A00FFE79DF80A009DF82D
:103FB0000B10884275DAFFE7FFE79DF80A109DF8BD
:103FC0000B2000209142009012DAFFE703989DF841
:103FD0000A10415C00200129009009D0FFE70398F6
:103FE0009DF80A10405C023818BF01200090FFE7DE
:103FF0000098C00730B1FFE79DF80A0001308DF846
:104000000A00DAE79DF80A009DF80B10884201DBF0
:10401000FFE746E09DF80A008DF809009DF80900C9
:104020008DF808009DF8090001308DF80700FFE7C2
:104030009DF807009DF80B10884213DAFFE70398FC
:104040009DF80710405C6B2805D1FFE79DF807003D
:104050008DF8080006E0FFE79DF8070001308DF8B5
:104060000700E5E79DF808009DF80910884216DD75
:10407000FFE79DF808009DF80910401A01308DF8FF
:10408000060003989DF8091008449DF8061000F0FA
:104090000BF89DF8080001308DF80A0000E000E000
:1040A00083E704B080BD000080B586B005908DF830
:1040B00013109DF81300032803DCFFE7FFE7FFE779
:1040C00030E105989DF8131000F030F9059800785C
:1040D0008DF81200059840788DF81100FFE7FFE792
:1040E0009DF81200012805DBFFE79DF81200032868
:1040F00003DBFFE7FFE7FFE714E19DF8120001385B
:104100008DF8100040F20411C2F20001086801307D
:1041100008609DF8110050B9FFE7FFE7FFE740F2A4
:10412000FC01C2F20001086801300860FAE09DF865
:10413000110001460091352842D0FFE7009836284B
:1041400017D0FFE700983A2866D0FFE70098F328D9
:104150007DD0FFE70098F62800F09380FFE70098F5
:10416000FD2800F0A880FFE70098FE2800F0C68038
:10417000D5E09DF8130007281ED1FFE70598807849
:104180008DF80F000598D0F8030000BA02909DF852
:104190000F00012804D1FFE7029840420290FFE798
:1041A00002989DF8102040F2F831C2F2000141F867
:1041B0002200FFE7FFE702E0FFE7FFE7FFE7B1E0EC
:1041C0009DF81300052823D1FFE7059880788DF826
:1041D00007000598C178007940EA0120ADF8040095
:1041E0009DF80700012806D1FFE7BDF80400404212
:1041F000ADF80400FFE7BDF804009DF8102040F280
:104200000041C2F2000121F81200FFE7FFE702E0DF
:10421000FFE7FFE7FFE785E09DF81300042812D1D0
:10422000FFE7059880789DF8102040F20441C2F223
:1042300000018854FFE7FFE7FFE7FFE7FFE7FFE73D
:10424000FFE7FFE702E0FFE7FFE7FFE76AE09DF82F
:104250001300042814D1FFE7FFE7FFE705988078F3
:10426000022803D1FFE7FFE7FFE708E00598807821
:10427000E22803D1FFE7FFE7FFE7FFE7FFE7FFE7FC
:1042800050E09DF81300042814D1FFE7FFE7FFE793
:1042900005988078022803D1FFE7FFE7FFE708E0F1
:1042A00005988078E22803D1FFE7FFE7FFE7FFE703
:1042B000FFE7FFE736E09DF8130004281DD1FFE774
:1042C000FFE7FFE705988078022803D1FFE7FFE7C3
:1042D000FFE711E005988078E22803D1FFE7FFE7C8
:1042E000FFE708E0059880789F2803D1FFE7FFE704
:1042F000FFE7FFE7FFE7FFE7FFE713E09DF81300A5
:1043000004280BD1FFE7FFE7FFE705988078022834
:1043100003D1FFE7FFE7FFE7FFE7FFE702E0FFE783
:10432000FFE7FFE706B080BD7047000083B0029052
:104330008DF80710FFE7FFE700200090FFE70098E7
:104340009DF80710884207DAFFE7FFE7FFE7FFE77E
:10435000009801300090F2E7FFE7FFE703B07047F5
:1043600080B594B040F21020C2F20000007828B36B
:10437000FFE7EFF3108072B6139040F28B40C2F269
:104380000000009000788DF80B009DF80B2040F2A3
:104390004B41C2F2000103A80190FBF7D6FE009A40
:1043A00001980021117040F21022C2F20002117037
:1043B00062B69DF80B10FFF7EFFDFFE714B080BD6C
:1043C00082B08DF8070000910098008840F2FE71DD
:1043D00088422CDCFFE79DF80700009B1A88511CDF
:1043E000198040F22151C2F2000188549DF8070063
:1043F0007D281BD1FFE740F22150C2F20000007877
:104400007B280FD1FFE70098028840F22151C2F2C9
:1044100000010020885440F22051C2F20001012026
:104420000870FFE7009900200880FFE703E000998B
:1044300000200880FFE702B07047000082B00190C2
:10444000019840F21001C2F200010968C90844F65F
:10445000D352C1F26202A1FB0221890948430090B4
:10446000FFE700BFFFE70098411E00910028F8D148
:10447000FFE702B0704700007047000080B584B0CD
:1044800003900291039808B1FFE7FFE7029888B113
:10449000FFE702980190B0F90000FCF783F94EF2B3
:1044A0004811C3F69A71FBF725FFFCF784F90199CF
:1044B0000880FFE704B080BD80B588B00790069102
:1044C0000020C4F240000590079820F000400599B4
:1044D000FCF708F988B9FFE707980021FCF702F913
:1044E00018B9FFE70598029004E0059880F00040B5
:1044F0000290FFE702980790FFE7069820F000403F
:104500000599FCF7EFF888B9FFE706980021FCF75A
:10451000E9F818B9FFE70598019004E0059880F0E4
:1045200000400190FFE701980690FFE740F2F0009D
:10453000C2F2000000680799FBF784FE049040F285
:104540000C00C2F2000000680699FBF77BFE0390A6
:10455000049800F005F8039800F066F808B080BDF4
:1045600080B586B0059005980021C4F23431FCF77F
:10457000B9F828B9FFE70020C4F23430029012E005
:1045800005980021CCF23431FCF7C8F828B9FFE7D0
:104590000020CCF23430019002E005980190FFE752
:1045A00001980290FFE70298059005980021C4F257
:1045B0003431FBF747FE0021C4F2B431FBF7CCFEE7
:1045C000049004980021C4F2FA410091FBF792FE96
:1045D0000099FBF737FE4FF07C51FBF733FEFCF7F9
:1045E00003F90390039800097C2804D8FFE74FF4EF
:1045F000FA600390FFE70398B0F57A6F04D9FFE7FC
:104600004FF47A600390FFE7039840F2B821C2F2BA
:10461000000109684863059840F2F001C2F2000108
:10462000086006B080BD000080B588B0079007988C
:104630000021C4F23431FCF755F828B9FFE7002017
:10464000C4F23430039012E007980021CCF2F0114C
:10465000FCF764F828B9FFE70020CCF2F0100290D4
:1046600002E007980290FFE702980390FFE70398A3
:1046700007900020C4F25230069007980021C4F23F
:10468000F011FBF7DFFD0699FBF766FE0590059834
:104690000021C4F2FA410191FBF72CFE0199FBF7CE
:1046A000D1FD4FF07C51FBF7CDFDFCF79DF8049058
:1046B000049800097C2804D8FFE74FF4FA600490BE
:1046C000FFE70498B0F57A6F04D9FFE74FF47A60FA
:1046D0000490FFE7049840F2B821C2F20001096893
:1046E0008863079840F20C01C2F20001086008B02C
:1046F00080BD000080B582B0009000980138B0F114
:10470000807F03D3FFE70120019019E00098013872
:104710004EF21401CEF2000108604FF0FF300F217D
:1047200000F08EFE4EF21801CEF20001002008606B
:104730004EF21002CEF20002072111600190FFE755
:10474000019802B080BD000080B5FDF727FC80BD58
:1047500080B590B006A800902821FBF70FFD0098C7
:10476000002305930493039302930193012206927D
:104770004FF48031079108930A9202220D920E9114
:104780004FF4E0110F91FDF775FE18B1FFE7FCF74C
:10479000C3FEFFE70F200190022102910020039049
:1047A0004FF480620492059001A8FDF7AFFC18B1A8
:1047B000FFE7FCF7B1FEFFE710B080BD70470000D7
:1047C00080B540F20030C2F20000FEF7E1FA80BD91
:1047D00083B002900191029800680090029842F61E
:1047E0000041C4F20101884215D0FFE70298B0F100
:1047F000804F10D0FFE7029840F20041C4F2000160
:10480000884208D0FFE7029840F60001C4F2000198
:1048100088420AD1FFE7009820F0700000900198CC
:104820004168009808430090FFE7029842F6004173
:10483000C4F20101884215D0FFE70298B0F1804F21
:1048400010D0FFE7029840F20041C4F20001884214
:1048500008D0FFE7029840F60001C4F20001884248
:104860000AD1FFE7009820F4407000900198C168D9
:10487000009808430090FFE7009820F0800001991D
:10488000496908430090009802990860019880687F
:104890000299C8620198006802998862029842F6FB
:1048A0000041C4F20101884205D1FFE70198006987
:1048B00002990863FFE702990120486102980069A4
:1048C000C00730B1FFE70299086920F001000861D4
:1048D000FFE703B07047000085B004900391029297
:1048E0000193049880680090009820F47F40009025
:1048F00003980299019A41EA022101430098084372
:10490000009000980499886005B0704785B00490C5
:1049100003910498006A01900499086A20F001004C
:104920000862049840680090049880690290029898
:1049300020F070000290029820F00300029003988B
:104940000168029808430290019820F0020001904B
:1049500003988168019808430190049842F6004149
:10496000C4F2010188420ED1FFE7019820F008004F
:1049700001900398C168019808430190019820F0C4
:1049800004000190FFE7049842F60041C4F20101DF
:10499000884213D1FFE7009820F4807000900098BF
:1049A00020F400700090039841690098084300903B
:1049B00003988169009808430090FFE700980499E4
:1049C0004860029804998861039840680499486394
:1049D00001980499086205B07047000085B0049002
:1049E00003910498006A01900499086A20F010006D
:1049F00008620498406800900498806902900298C8
:104A000020F4E0400290029820F440700290039855
:104A10000168029840EA01200290019820F02000ED
:104A2000019003988168019840EA01100190049870
:104A300042F60041C4F2010188420FD1FFE701981C
:104A400020F0800001900398C168019840EA0110AD
:104A50000190019820F040000190FFE7049842F691
:104A60000041C4F20101884215D1FFE7009820F40B
:104A700080600090009820F40060009003984169E5
:104A8000009840EA8100009003988169009840EA0C
:104A900081000090FFE7009804994860029804990B
:104AA00088610398406804998863019804990862B2
:104AB00005B0704785B0049003910498006A019096
:104AC0000499086A20F48070086204984068009095
:104AD0000498C0690290029820F070000290029839
:104AE00020F00300029003980168029808430290A6
:104AF000019820F40070019003988168019840EAC1
:104B000001200190049842F60041C4F2010188425C
:104B10000FD1FFE7019820F4006001900398C1686D
:104B2000019840EA01200190019820F480600190F2
:104B3000FFE7049842F60041C4F20101884215D112
:104B4000FFE7009820F480500090009820F4005077
:104B5000009003984169009840EA01100090039882
:104B60008169009840EA01100090FFE700980499DD
:104B7000486002980499C861039840680499C86322
:104B800001980499086205B07047000085B0049050
:104B900003910498006A01900499086A20F48050F7
:104BA00008620498406800900498C06902900298D6
:104BB00020F4E0400290029820F4407002900398A4
:104BC0000168029840EA01200290019820F4005008
:104BD000019003988168019840EA0130019004989F
:104BE00042F60041C4F2010188420BD1FFE7009870
:104BF00020F48040009003984169009840EA8110B9
:104C00000090FFE700980499486002980499C861F1
:104C1000039840680499086401980499086205B0F3
:104C20007047000080B588B00690059100208DF88F
:104C300013000698006880680390039820F07000C5
:104C4000039005984168039808430390039820F067
:104C500007000390059801680398084303900398A0
:104C600006990968886005984068009000285FD020
:104C7000FFE7009810285BD0FFE70098202857D066
:104C8000FFE70098302853D0FFE70098402815D060
:104C9000FFE7009850283BD0FFE7009860283FD0FE
:104CA000FFE70098702844D1FFE706980068059B4D
:104CB0009A68D9681B69FFF70FFE3EE00598006807
:104CC000052804D1FFE701208DF81F003AE006987F
:104CD0000068006A019006980168086A20F00100E7
:104CE00008620698006880690290029820F0F0003F
:104CF000029005980169029840EA0110029002981A
:104D0000069909688861019806990968086214E0A3
:104D100006980068059A9168126900F017F80CE08F
:104D200006980068059A9168126900F037F804E067
:104D300003E001208DF81300FFE79DF813008DF8C4
:104D40001F00FFE79DF81F0008B080BD85B00490EC
:104D5000039102920498006A00900499086A20F076
:104D600001000862049880690190019820F0F00029
:104D700001900299019840EA01100190009820F0FA
:104D80000A00009003990098084300900198049944
:104D9000886100980499086205B0704785B0049056
:104DA000039102920498006A00900499086A20F026
:104DB00010000862049880690190019820F4704006
:104DC00001900299019840EA01300190009820F08A
:104DD000A00000900399009840EA0110009001980B
:104DE0000499886100980499086205B07047000032
:104DF00084B00390FFE7FFE70398006850E8030FD3
:104E000020F490700290FFE702990398026842E84C
:104E100003100028F0D1FFE7FFE7FFE7FFE7039863
:104E2000006850E8050F20F001000190FFE70199AC
:104E30000398026842E805100028F0D1FFE7FFE779
:104E40000398006B012814D1FFE7FFE7FFE7039801
:104E5000006850E8030F20F010000090FFE7009971
:104E60000398026842E803100028F0D1FFE7FFE74B
:104E7000FFE70399202081F842000399002008638E
:104E800004B0704780B584B040F24830C2F20000F0
:104E9000C06B00684068C0F58070ADF80E00BDF8CA
:104EA0000E0040F24841C2F200010988884200F039
:104EB0009180FFE7BDF80E0040F24841C2F20001C8
:104EC0000988884230DDFFE7BDF80E0040F2484116
:104ED000C2F200010988401AADF80C000020ADF8BC
:104EE0000A00FFE7BDF80A00BDF80C1088421ADA84
:104EF000FFE740F24840C2F200000088BDF80A1007
:104F0000014440F20810C2F20000405C40F2F4019B
:104F1000C2F20001FFF754FAFFE7BDF80A000130C2
:104F2000ADF80A00DEE74DE040F24840C2F2000072
:104F30000088C0F58070ADF80C000020ADF80800C6
:104F4000FFE7BDF80800BDF80C1088421ADAFFE749
:104F500040F24840C2F200000088BDF80810014449
:104F600040F20810C2F20000405C40F2F401C2F2CC
:104F70000001FFF725FAFFE7BDF808000130ADF8A2
:104F80000800DEE70020ADF80600FFE7BDF80600E8
:104F9000BDF80E10884214DAFFE7BDF8061040F2A3
:104FA0000810C2F20000405C40F2F401C2F20001BD
:104FB000FFF706FAFFE7BDF806000130ADF806007E
:104FC000E4E7FFE7BDF80E0040F24841C2F20001FD
:104FD0000880FFE704B080BD80B584B003900398DB
:104FE0000068006920F44050039A1168D2681043A9
:104FF0000861039988680A69496910430843029067
:1050000003980068C06841F20C6188430299084324
:1050100003990968C86003980068406920F44070EB
:10502000039A11689269104348610398006843F637
:105030000001C4F20101884204D1FFE7FDF7AAF99B
:10504000019003E0FDF794F90190FFE70198192121
:105050004843039A116852689200B0FBF2FC48F290
:105060001F52C5F2EB12ACFB02304309642003FB74
:1050700010CC322000EB0C10A0FB0202F02000EA62
:10508000521000EB0310C2F343121044886004B0C6
:1050900080BD000080B586B0DDF820C0049003918B
:1050A0008DF80B200193FFE70498006800680399CE
:1050B0000840401AB0FA80F040099DF80B10884271
:1050C0004DD1FFE708980130002847D0FFE7FCF7F3
:1050D000BBFD0199401A0899884203D8FFE7089858
:1050E00020B9FFE703208DF817003CE00498006822
:1050F000C0684007002830D5FFE7039880282CD0EF
:10510000FFE70398402828D0FFE70498006800686C
:1051100000F008010120B0EBD10F1DD1FFE7FFE740
:1051200000200090049800680068009004980068CF
:10513000406800900098FFE70498FFF759FE049933
:1051400008204864FFE70499002081F84000FFE749
:1051500001208DF8170006E0FFE7FFE7A4E7002035
:105160008DF81700FFE79DF8170006B080BD00001E
:1051700082B040F29030C2F2000000680068800601
:10518000002840F18180FFE740F29030C2F2000039
:10519000006840688DF807009DF80700012805D0D9
:1051A000FFE79DF8070002282CD1FFE740F28B4073
:1051B000C2F200000078012824DBFFE740F28B40B8
:1051C000C2F20000007840F24B41C2F200010844F4
:1051D00010F8010C6B2814D1FFE740F21021C2F245
:1051E00000010120087040F20011C2F200010868BD
:1051F0000130086040F28B41C2F2000100200870CB
:10520000FFE7FFE740F28B40C2F2000000783E2843
:105210002BDCFFE79DF8070040F28B41C2F2000152
:105220000B7840F24B42C2F20002D05408780130B1
:1052300008709DF807006B2816D1FFE740F28B40FD
:10524000C2F20000007804280EDBFFE740F21021D4
:10525000C2F200010120087040F20011C2F2000108
:10526000086801300860FFE70DE040F28B41C2F2B0
:1052700000010020087040F2FC01C2F20001086841
:1052800001300860FFE7FFE740F29030C2F2000013
:10529000006800680007002817D5FFE7FFE7002037
:1052A000009040F29030C2F200000168096800915D
:1052B0000068406800900098FFE740F2FC01C2F2ED
:1052C0000001086801300860FFE740F29030C2F248
:1052D0000000006800684007002810D5FFE740F292
:1052E0009030C2F2000001686FF00400086040F2E4
:1052F000FC01C2F20001086801300860FFE740F2DB
:105300009030C2F20000006800688007002810D5C5
:10531000FFE740F29030C2F2000001686FF0020037
:10532000086040F2FC01C2F2000108680130086028
:10533000FFE702B070470000FFE7FEE780B586B0E8
:105340008DF817008DF816100492FCF77DFC049977
:1053500008440390FFE7FCF777FC039988424CD29E
:10536000FFE79DF81700C00738B1FFE701200D21C6
:10537000FBF7CEFFFEF7F4FFFFE79DF81600C0072E
:1053800038B1FFE702200D21FBF7C2FFFEF7E8FF6F
:10539000FFE79DF817100120C907019041B1FFE711
:1053A0000120FEF78DF9002818BF01200190FFE7CA
:1053B000019800F001008DF80B009DF816100120F7
:1053C000C907009041B1FFE70220FEF779F90028F4
:1053D00018BF01200090FFE7009800F001008DF851
:1053E0000A009DF80B00C00730B1FFE79DF80A00E6
:1053F000C00708B1FFE700E0ADE706B080BD0000E0
:1054000081B08DF803009DF9030000280ED4FFE75A
:105410009DF9031001F01F02012090404A094EF24D
:105420000011CEF2000141F82200FFE701B0704701
:105430004EF60C50CEF200000068C0F30220704718
:1054400082B08DF8070000919DF9070000280AD46A
:10545000FFE7009800019DF907104EF20042CEF2DE
:10546000000288540BE0009800019DF8071001F03D
:105470000F014EF61452CEF200028854FFE702B03C
:105480007047000083B00290029800F0070000907F
:105490004EF60C51CEF200010868019001984FF6CB
:1054A000FF02104001900198009A40EA0220002279
:1054B000C0F2FA52104301900198086003B070479F
:1054C00083B00190019820B1FFE70198006818B9F6
:1054D000FFE7002002903AE0019830B1FFE7019821
:1054E00041688068884203D3FFE7019802902EE06C
:1054F000FFE701990020009091B1FFE70198426811
:1055000081680020914200900AD2FFE70199086863
:105510008968415C00202129B8BF01200090FFE785
:105520000098C00728B1FFE70199886801308860BA
:10553000DFE7019841688068884205D1FFE701995B
:10554000886801388860FFE701980290FFE70298B9
:1055500003B0704780B584B00390039881680079E8
:1055600088478DF80B000398C07800F007000128E9
:1055700005DBFFE70399088801300880FFE79DF805
:105580000B000399C978B0EBD11F1FD0FFE7039A36
:10559000D178012000EBD10000F0070001F0C70135
:1055A00041EAC001D17001280FDBFFE79DF80B2015
:1055B0000399C87800F07F0040EAC210C8700399D0
:1055C000C87800F0C700C870FFE705E00399C87805
:1055D00000F0C700C870FFE70398C07800F007002C
:1055E00001460191052800F24A810199DFE811F096
:1055F000060033006F00E10047011B010398C178EA
:10560000C1F38010B0EBD11F1DD1FFE7039988785B
:1056100000F00F0088700398C06820B1FFE703987E
:10562000C1688847FFE703990020088003998878BC
:1056300000F0F000013088700399C87800F0F8009D
:105640000130C87006E003998878082262F31F10C1
:105650008870FFE719E10398C178C1F38010B0EBBF
:10566000D11F18D0FFE703998878012262F31F1039
:1056700088700398006920B1FFE7039801698847A3
:10568000FFE70399002008800399C87800F0F8002C
:105690000230C8701AE003980088152815DBFFE770
:1056A00003998878052262F31F1088700398006AB6
:1056B00020B1FFE70398016A8847FFE70399C8789C
:1056C00000F0F8000530C870FFE7FFE7DDE0039861
:1056D000C178C1F38010B0EBD11F30D1FFE703993F
:1056E000887800F00F0088700398C06820B1FFE749
:1056F0000398C1688847FFE70398807800F00F009F
:105700000F280AD0FFE703998878421C02F00F02A5
:1057100000F0F00010448870FFE70398406920B162
:10572000FFE7039841698847FFE703990020088055
:105730000399C87800F0F8000330C87038E0039887
:1057400000880D2833DBFFE70398807800F00F0016
:1057500001280FD1FFE703998878032262F31F1015
:1057600088700398806920B1FFE7039881698847B2
:10577000FFE716E00398807800F00F0002280FD1B1
:10578000FFE703998878042262F31F10887003985A
:10579000C06920B1FFE70398C1698847FFE7FFE7C9
:1057A000FFE70399C87800F0F800C870FFE7FFE74B
:1057B0006BE00398C178C1F38010B0EBD11F24D007
:1057C000FFE703998878012262F31F10887003981D
:1057D000006920B1FFE7039801698847FFE7039854
:1057E00000880B280ADCFFE7039900200880039952
:1057F000C87800F0F8000230C87005E00399C87856
:1058000000F0F800C870FFE70CE0039800880D284E
:1058100007DBFFE70399C87800F0F8000130C87093
:10582000FFE7FFE731E00398C178C1F38010B0EBE8
:10583000D11F0FD1FFE703998878062262F31F106A
:1058400088700398406A20B1FFE70398416A88474F
:10585000FFE713E003998878012262F31F10887034
:105860000398006920B1FFE7039801698847FFE7C3
:105870000399C87800F0F800C870FFE705E00399C5
:10588000C87800F0F800C870FFE704B080BD0000E1
:1058900080B582B040F26020C2F200000068019042
:1058A000FFE7019840B1FFE70198FFF753FEFFE7DC
:1058B0000198806A0190F4E702B080BD80B582B0A3
:1058C000019000200090FFE70198002846D0FFE7F4
:1058D0000198006800900198407BC00748B9FFE735
:1058E0000198806828B1FFE701988068FFF7E6FF1C
:1058F000FFE70198407BC00780B9FFE70198006986
:1059000060B1FFE740F21400C2F200004168019864
:1059100000698847019900200861FFE70198407BF2
:105920008007002810D4FFE70198006A60B1FFE704
:1059300040F21400C2F2000041680198006A8847F2
:10594000019900200862FFE740F21400C2F2000053
:1059500041680198884700980190B5E702B080BD82
:1059600080B582B00190009101980099002201F069
:10597000E7F902B080BD000082B00090009818B92D
:10598000FFE70020019007E00098007B0838B0FA9C
:1059900080F040090190FFE7019802B070470000D5
:1059A00080B582B001900198016828208847009056
:1059B000009828B1FFE700982821FAF7DFFBFFE7FE
:1059C000009802B080BD000080B582B001900198BF
:1059D0000022114600F098F802B080BD80B592B068
:1059E00010900F910E920D93002002900C900B904E
:1059F0000A900990089007900690059040F21421B3
:105A0000C2F2000108604860109818B1FFE70F98D3
:105A100008B9FFE742E0109806900F980790002021
:105A2000089040F21400C2F20000016842688368E6
:105A30000C930B920A91FFF7B3FF0590059808B9F4
:105A4000FFE72BE00598019006A802F0E9F8FFF7C0
:105A500037FD0146019801F087FF08B9FFE71DE017
:105A60000D9878B1FFE706A8FFF72AFD0799089877
:105A7000884205D2FFE706980899405C08B1FFE725
:105A80000CE0FFE70E9830B1FFE70698089908444C
:105A90000E990860FFE70598119032E0059820B153
:105AA000FFE70598FFF70AFFFFE7109830B3FFE71D
:105AB000109803900020049007990898884203D218
:105AC000FFE70898049007E0079820B1FFE70798E0
:105AD00001380490FFE7FFE70E9830B1FFE7039825
