:020000040800F2
:1000000020100020BD010008EB340008AD330008CB
:10001000E934000865240008793A0008000000006F
:10002000000000000000000000000000EF340008A5
:100030006724000800000000ED340008D9350008EE
:10004000D7010008D7010008D7010008D701000830
:10005000D7010008D7010008D7010008D701000820
:10006000D7010008D7010008D7010008D701000810
:10007000D7010008D7010008D7010008D701000800
:10008000D7010008D7010008D7010008D7010008F0
:10009000D7010008D7010008D7010008D7010008E0
:1000A000D7010008D7010008D7010008D7010008D0
:1000B000D7010008D7010008D7010008D7010008C0
:1000C000D7010008D7010008D7010008D7010008B0
:1000D000D7010008253A0008D7010008D701000819
:1000E000D7010008D7010008D701000800F002F886
:1000F00000F054F80AA090E8000C82448344AAF16E
:100100000107DA4501D100F049F8AFF2090EBAE86B
:100110000F0013F0010F18BFFB1A43F0010318473B
:100120003C9700005C970000103A24BF78C878C163
:10013000FAD8520724BF30C830C144BF04680C60ED
:10014000704700000023002400250026103A28BF35
:1001500078C1FBD8520728BF30C148BF0B60704739
:10016000662907F0BF85642900F0248100207047CC
:100170001FB59DE8030000F087FB01F047F904007C
:100180000020002106F088FF401C60600020002154
:1001900006F098FFE0601FBD10B510BD01F060FAD9
:1001A0001146FFF7E5FF04F0ABFD01F0A9FC03B435
:1001B000FFF7F2FF03BC01F0D9FC000009488047BB
:1001C00009480047FEE7FEE7FEE7FEE7FEE7FEE739
:1001D000FEE7FEE7FEE7FEE704480549054A064B51
:1001E000704700003B360008ED000008200A0020A0
:1001F00020100020200C0020200C002070B50646A6
:1002000000F026FB056806F10B0020F00704B4425D
:100210009CBF002070BD2B466A68BAB11068A0422E
:1002200010D304F1080188423CBF5068586007D3DE
:100230005168101941601168091B01605860146011
:10024000101D70BD13465268002AE7D1214628468A
:1002500000F006FB0028DED170BD70B50446051F16
:1002600000F0F6FA0068002C14BF446870BD002C42
:1002700018BFAC423CBF20466468F8D301680A1836
:10028000AA4218BF456003D12A680546114401609F
:1002900028684119A1421CBF6C6070BD616869602B
:1002A00021680844286070BD70B50D460646041FDD
:1002B00000F0CEFAD0F800C0C5B1E6B105F10B00F0
:1002C00020F00703AB423CBF002070BD206898427D
:1002D00038BFDCF8042013D3C11A08292FD3E01843
:1002E00040F8041B2360FFF7B8FF28E03046FFF713
:1002F000B4FF002070BD2846BDE87040FFF77EBF08
:10030000002A18BFA2423CBF94465268F8D3011994
:10031000914216D111680844984212D3C11A082993
:100320003CBF2060506808D35168E01841602168E4
:1003300012681144C91A01602360CCF80400201D22
:1003400070BD181FFFF75AFF050007D021680A1F6C
:10035000211D00F0B6F9201DFFF77FFF284670BD74
:1003600010B5044600F06CFA0068005DC00602D5C6
:1003700004F1200010BD204610BD00000FB47CB574
:100380000C0009AA009001D02044401E084B7B4479
:1003900069460190089800F026FD05461CB1002032
:1003A000694600F033FD28467CBC5DF814FB000074
:1003B000850A00002DE9F0410646002410687529E1
:1003C000314616A510D0AFF30080002802DA404273
:1003D00013A507E031688A0701D512A502E0490795
:1003E00004D511A5012401E0AFF3008000210A2209
:1003F00006F1240709E0B0FBF2FCB0FBF2F302FBCC
:100400001C00303078541846491C0028F3D123468C
:100410002A463046BDE8F04100F077BA00000000FF
:100420002D0000002B000000200000002DE9F05FEF
:10043000894604464FF0000ADFF824B1FB44C0F8B7
:1004400020A02046E168884700287DD0252806D0D6
:10045000D4E901219047206A401C2062F1E7002581
:100460005F462046E16888472028064607DB312E94
:1004700005D2B81910F8200C08B10543F1E7A80718
:1004800001D525F00405C4F81CA00027C4F818A065
:100490002A2E09D0304603F068FC38B304EB8708F5
:1004A000303EC8F8186019E059F8041B204604EBE8
:1004B00087029161E1688847012F064618D1E069FB
:1004C000002820DA25F020051DE0D8F8180000EB00
:1004D000800006EB40003038C8F818002046E1687C
:1004E0008847064603F041FC0028EED1012F0AD0D0
:1004F0002E2E08D12046E16888477F1C0646022F31
:1005000045F02005C4DBA069002803DA404245F02D
:100510000105A061E80701D025F01005A6B1A6F1FC
:100520004100192802D8203645F400654A46314674
:10053000204625604D46FFF713FE60B1012807D025
:10054000ED1D25F0070000E007E000F1080978E75D
:1005500005F1040975E730467AE7206ABDE8F09FA7
:100560001493000010B5431C02E010F8011B71B198
:100570008107FAD14FF0013202C88C1A8C4314EA79
:10058000C211F9D0C01A0A0603D0C01E10BDC01A8D
:1005900010BD0A0401D0801E10BD0902FCD0401E0F
:1005A00010BD40EA010370B59B072ED14FF0013614
:1005B000042A2AD308C810C99D1B9D43121F15EA9F
:1005C000C61517D0D8B2E1B2401A50EA056110D171
:1005D00098B2A1B2401A50EA05410AD123F07F40F7
:1005E00024F07F41401A50EA052102D1180EA0EBF9
:1005F000146070BDA342DBD018BA21BA884201D979
:10060000012070BD4FF0FF3070BD0AB9002070BDF1
:1006100010F8013B11F8014B63B1A3420AD1521EFD
:1006200008D010F8013B11F8014B1BB1A34201D1D6
:10063000521EEDD1181B70BD032A40F2308010F01D
:10064000030C00F0158011F8013BBCF1020F62446D
:1006500098BF11F801CB00F8013B38BF11F8013BFE
:10066000A2F1040298BF00F801CB38BF00F8013BAB
:1006700011F0030300F02580083AC0F0088051F81B
:10068000043B083A51F804CBA0E80810F5E7121D26
:100690005CBF51F8043B40F8043BAFF30080D20745
:1006A00024BF11F8013B11F801CB48BF11F8012B11
:1006B00024BF00F8013B00F801CB48BF00F8012B34
:1006C000704710B5203AC0F00B80B1E81850203ABE
:1006D000A0E81850B1E81850A0E81850BFF4F5AFE2
:1006E0005FEA027C24BFB1E81850A0E8185044BF6C
:1006F00018C918C0BDE810405FEA827C24BF51F8D9
:10070000043B40F8043B08BF7047D20728BF31F8CC
:10071000023B48BF11F8012B28BF20F8023B48BF1D
:1007200000F8012B70474FF000020429C0F012803E
:1007300010F0030C00F01B80CCF1040CBCF1020F94
:1007400018BF00F8012BA8BF20F8022BA1EB0C0169
:1007500000F00DB85FEAC17C24BF00F8012B00F85F
:10076000012B48BF00F8012B70474FF0000200B585
:10077000134694469646203922BFA0E80C50A0E8C4
:100780000C50B1F12001BFF4F7AF090728BFA0E872
:100790000C5048BF0CC05DF804EB890028BF40F83E
:1007A000042B08BF704748BF20F8022B11F0804F80
:1007B00018BF00F8012B70474FF0013C50F8042B94
:1007C00051F8043B9A4221D1A2EB0C03934313EA64
:1007D000CC1317D150F8042B51F8043B9A4215D191
:1007E000A2EB0C03934313EACC130BD150F8042B68
:1007F00051F8043B9A4209D1A2EB0C03934313EA4C
:10080000CC13DBD04FF00000704700BFD01A01BA04
:10081000B1FA81F101F0180122FA01F0CB40C1F1E7
:100820002001DBB2C0B2C01A2CFA01F3D11A9143F5
:1008300011EAC311E6D17047704770477047000056
:1008400010B500F0E3FD001D10BD00BF4D680000B5
:1008500000487047C80900207047704770477047CC
:1008600038B504460A4600206946AFF300800028E8
:1008700008BF38BD02460099204600F0CFFD012098
:1008800038BD012000F0E4BEF8B5AFF300800546A6
:1008900000200C46102000BF0646A819A0420DD922
:1008A000324669460020AFF30080070008BF00F021
:1008B000CFFE0098A04218BF0546C419FFF7C8FF35
:1008C00005600746F01D20F007004619284600F095
:1008D0000AF8B44208BFF8BDA21B31463868BDE82B
:1008E000F84000F09BBD00210160C0E90110704795
:1008F0001020704710B500F08DFD006810BD10B5D8
:10090000044600F087FD046010BD2DE9F0470D4658
:1009100099469246044600F124080168880604D5E9
:10092000E06921F01001216000E00120A84201DD12
:10093000471B00E00027A1697A1902EB0900081A99
:10094000A0612078C00602D42046AFF300800026C4
:1009500008E0D4E901211AF806009047206A401CFB
:10096000761C20624E45F4DB2078C0060AD520466E
:10097000AFF3008006E0D4E9012130209047206ADF
:10098000401C2062381EA7F10107F4DC07E0D4E91F
:10099000012118F805009047206A401C2062281E9B
:1009A000A5F10105F3DC2046AFF3008020780006B6
:1009B00002D50220BDE8F0870120FBE770472DE952
:1009C000FF4F0C461E464FF0FF378BB0D2E90001B7
:1009D000DDF860800A908A46C1F30A5505B93D46A4
:1009E000002108464FF00000BAF1000F00F440006B
:1009F00005DA00EB80004FF4400101EA50004FEAB5
:100A00009059B9F1010F00DDB9460A9850EA4A0041
:100A10000ED044F61050A5F2FF3545432F14B8F11F
:100A2000000F1ED07542291E1EDDC9F100021CE018
:100A3000B8F1010F4FF0000001D0302103E0F24384
:100A400005E02154401CB042FBDB3046002200216F
:100A500021540B99C1F80880C1E900200FB0BDE80E
:100A6000F08FBD1B6D1CDEE74A4600DA694206A81E
:100A700000F07CFD06AB93E8070003AB83E80700BA
:100A800050460A9901F0B9F88DE80700A0F500502A
:100A90001F3800900398002D0ADD42F21F014A46DC
:100AA0000844002303A90390684601F065FB09E0B0
:100AB000A0F500504A461F38002303A9039068465A
:100AC00001F084FB8DE807000004000C03D04FF018
:100AD000FF30410800E01046B8F1000F03D00022BB
:100AE000009215461EE0751E05D400F0B1FC3032B0
:100AF00062556D1EF9D5B3460122084302D000228B
:100B00007F1C04E02078302801D100227F1E002ABB
:100B1000099784D01DE0112D07DA00F099FC3032DE
:100B200062556D1C50EA0102F5D1084302D00098CD
:100B3000C8B10EE00021681E05E0235C625C6354CE
:100B40002254401E491C8142F7DBAB46A81B401EC5
:100B50000990002004F80B000B98099AC0F808804F
:100B6000C0E9002B7AE711264FF0000857E72DE97E
:100B7000F04F88460446D21D22F0070191B0D1E91A
:100B80000001CDE90A0102F078FF02460B98C00F80
:100B900001D02D2007E02068810701D52B2002E03D
:100BA000202101EAC000032A099001D0072A05DBB1
:100BB00003464146204600F099FC0BE12078800670
:100BC00001D5E06900E00620B8F1650F814606D046
:100BD000B8F1660F18D0B8F1670F70D131E000207E
:100BE000B9F1110F009001DB112301E009F10103BC
:100BF0000AAA01A90CA8FFF7E2FEDDE90C700026A5
:100C000009F10105834647E001204B4600904FF073
:100C100000470AAA01A90CA8FFF7D1FEDDE90DB033
:100C20000C995D46002610B909F101000D18B9EBC9
:100C3000050003D4C0F1FF3609F10105A5EB090059
:100C40002BE0B9F1010F01DA4FF001090020B9F1F1
:100C5000110F0090484601DD112300E003460AAA67
:100C600001A90CA8FFF7ABFEDDE90C704D4600268C
:100C70008346207800070AD4AB4500DA5D4601A818
:100C8000012D04DD411911F8011C302907D04F4511
:100C900002DA17F1040F04DA012082460FE06D1E1C
:100CA000EEE7002F02DCED1B3E4403E0781CA84277
:100CB00000DD7D1CB81B00F1010A4FF000472078D1
:100CC000000703D4AA4501DB4FF0FF3A0021B7F13A
:100CD000004F0DF143088DF8431024D002202B2340
:100CE000002F01DA7F422D230A21021EA0F101000C
:100CF00000DC5FB197FBF1FC97FBF1F201FB1C7C80
:100D000017460CF1300C08F801CDEEE7A8F1010010
:100D100003702188090501D5452100E06521A0F176
:100D2000010800F8011C09980FA9A1EB0807FF1D95
:100D300000B10120411901EBEA70A1693844081A99
:100D4000401EA0612078C00602D42046AFF3008088
:100D5000099828B1D4E901219047206A401C2062FB
:100D60002078C00622D52046AFF300801EE0002E7A
:100D700004DBB34502DD01A8805D00E03020D4E94A
:100D800001219047206A401C2062761CAAF10100D4
:100D90005FEA000A0AD100F039FBC0680168405CD4
:100DA000D4E901219047206A401C2062281EA5F149
:100DB0000105DCDC07E0D4E9012118F8010B9047BC
:100DC000206A401C2062381EA7F10107F3DC204690
:100DD000AFF30080032011B041E6000001694A1C16
:100DE00002610878704700B58FB0CDE9013100216C
:100DF000059105497944CDE9031011466846FFF78E
:100E000015FB0FB000BD0000E5FFFFFF0A6802F808
:100E1000010B0A607047D1E900239A4202D2531CA9
:100E20000B601070704700002DE9FF4F06468BB035
:100E30000878FF2806D0491C2D2805D000244FF043
:100E4000000908E000200CE00124F8E709EB890321
:100E5000491C00EB43090878FF28F7D114B1C9F108
:100E600000008146107800252C46AA4629462D28E8
:100E700001D02B2804D1521C2D2813D000208246EB
:100E80008B461078FF280FD04FF0000C0A21521C1F
:100E9000A5FB017804FB018105FB0C11C5194BEB87
:100EA0000104EEE70120EAE7002108464FF00000C8
:100EB000BAF1000F02D000EB80004008C0F3815768
:100EC000012F01DD4FF0FF370E9955EA040009EBC1
:100ED00001080BD04FF0020918F5FA7F16DA4FEA35
:100EE000CA70002F706008DD012007E04FEACA7069
:100EF000C6E900B00FB0BDE8F08F0020306000F010
:100F000089FAC0F800901821084616E0B8F5FA7F73
:100F100018DD002F02DAF748784401E0F6487844FB
:100F2000D0E90010C6E9001040EACA70706000F015
:100F300071FAC0F80090142108460FB0BDE8F04FD8
:100F400006F0CDBE002108464FF00000B8F10001C8
:100F5000099002DAC7F1000200E03A4601DAC8F16E
:100F6000000106A800F002FB06AB93E8070003AB04
:100F700083E8070044F23E005BEA04010090584613
:100F800004D144F21E012C465D460091210C090457
:100F9000014306D10099240444EA15442D04103974
:100FA000009104F07F41014306D10099240244EAF4
:100FB00015642D020839009104F07041014306D1F7
:100FC0000099240144EA15742D01091F009104F0D1
:100FD0004041014306D10099A40044EA9574AD0054
:100FE000891E009104F00041084304D100986D1956
:100FF0006441401E00904FF001033A466846B8F144
:10100000000FCDE9014503A902DD01F0F4F801E08C
:1010100001F0C7F8BAF1000F04460D4601D084F084
:101020000044002108464FF00000099940F2FF7784
:10103000484010F00C0F07D124F00040284303D0A3
:10104000C4F30A50B84212D100F0E4F9C0F800909D
:10105000C4F30A50B8420AD1A8487844D0E9001035
:10106000C6E9001004F000410843706042E7C6E999
:1010700000543FE72DE9FF4F1F464FF0000A4FF0A5
:10108000FF38454691B0D7E90146CDF83CA000F0C5
:10109000BDF9C0680168405C1090B96912986D1C78
:1010A0008847396A814688470028F6D1B9F1FF3F61
:1010B0000AD0002E24F4D06411DDB9F12B0F08D032
:1010C000B9F12D0F0BD102E0404615B013E744F4FF
:1010D0008064B96912986D1C8847761E8146600548
:1010E00004A901D52D2000E02B20002E01F1010BD9
:1010F0000DF130088DF810003FDDB9F1690F08D00F
:10110000B9F1490F05D0B9F16E0F02D0B9F14E0F08
:101110001CD13B4601A8009580E85002DDE912127F
:101120006FF0020006F06AFEC11CCED10EE0B96974
:1011300012986D1C884781461398761E44F40074FB
:1011400005600F98401C002E0F9016DDB9F1300F8E
:10115000EDD0B9F1780F02D0B9F1580F0DD10F9839
:1011600001280AD13B46CDE90054DDE91212001FE7
:10117000029606F041FEC11CA7D1109989453ED1C7
:1011800044F0800406E01399681CAAF1010A44F4B3
:1011900000740860B9696D1C1298761E8847302863
:1011A0008146F0D02BE01099894505D1200603D463
:1011B000761E44F0800418E0484602F0D6FD08B3DD
:1011C000761E0DF123018B4544F4007408D2A9F179
:1011D00030000BF8010B200607D5AAF1010003E04F
:1011E000200602D40AF101008246A00502D5139917
:1011F000681C0860B96912986D1C88478146002EEA
:10120000D1DC53E0002E51DDB9F1650F02D0B9F108
:10121000450F4BD1A00549D5B9696D1C1298761EB2
:1012200024F440748847002E81460CDD2B2804D01E
:10123000B9F12D0F07D144F48074B96912986D1C6F
:101240008847761E8146E00501D52D2100E02B213F
:1012500008F8011BCDF8008021E0761E0DF1390160
:10126000884544F400740CD2A9F1300010F0FF005E
:1012700088F8000002D10099884509D908F10108D1
:1012800006E0E00501D51E4801E042F20F708246FB
:10129000B96912986D1C8847814613980560002E25
:1012A00004DD484602F061FD0028D6D1F9691298A4
:1012B0008847FF2053468BF8000088F80000002084
:1012C0000A900B9004AA0CA90AA8FFF7ADFDA0058F
:1012D00002D46FF00100F8E614F0240F12D0E007FA
:1012E0001CD13868DDE90A12031D3B600068C0E9C3
:1012F000001213E0688900005A8900001E8800006F
:10130000F1D8FFFF0AA9684602F00AFCE00705D100
:101310003868009A011D3960006802602846D4E6EA
:10132000426842B1016811F8013B23B1521EC0E985
:101330000012184670470121C160881E704742683C
:101340005AB1C368016843B983688B4205D0491E0E
:10135000521CC0E90012002070474FF0FF30704768
:101360000FB4002300B589B00CA900910B99CB6094
:10137000214B7B440693214B7B44079304236FF05E
:101380000042CDE901321E4A7A446B460892024679
:10139000002006F02FFD09B05DF814FB70B506467D
:1013A0004FF0FF3015460C46324686B00091CDE92D
:1013B000010169460020049004A8FFF7D1FF02460E
:1013C0000498211825B108B1084600E0204628609D
:1013D000049800280DD0002A02DD0098884208D029
:1013E0003246081B69460094CDE9010404A8FFF7C2
:1013F000B7FF06B070BD0000ABFFFFFFC3FFFFFFEC
:101400004F01000000487047C009002000487047A5
:10141000E009002000487047C009002003464068EA
:101420008C46002818BF88423CBF03464068F8D36A
:1014300018681844884207D00CF1030020F0070018
:10144000001D411A521A0146081D0A60FEF705BF29
:1014500030B5B0F10A024FEA900E71F100034EEA86
:10146000817EB0EB0E0061EB91014FEA101E4EEA57
:10147000017E10EB0E0041EB11114FEA102E4EEAE7
:10148000016E10EB0E0041EB11214FEA104E4EEAB7
:10149000014E10EB0E0041EB1141401841F10001EB
:1014A0004FEAD00040EA41704FEAD10110EB8005CD
:1014B0004FEA810444EA907444EB01046D1944EB53
:1014C0000404521BA3414FF0000348BF0A3200D569
:1014D00030BD401C41F1000130BD10B50446FFF79E
:1014E000AFF90068005D00F0010010BD2DE9F0418A
:1014F0001F46044603260168072A01F4006004DB46
:1015000008B116A505E016A503E008B115A500E091
:1015100015A521F010002060A069C01EA0610FB1C8
:10152000401EA0612046AFF300804FB1D4E90121F5
:1015300038469047206A401C2062C01C206206E0AA
:10154000206AFAE7D4E9012115F8010B9047761ECD
:10155000F8D22046AFF30080BDE8F0814E414E0046
:101560006E616E00494E4600696E66002DE9F047D7
:10157000814616468AB0354878440DC88DE80D007E
:1015800032487844801C03AC0DC884E80D0041F655
:101590009B300844372190FBF1F290FBF1F5A5F167
:1015A000800501FB12041B3C02D56442012000E0CF
:1015B0000020DFF898A080460027FA44AAF1BE0A6E
:1015C0000EE0E0070AD03246684607EB47010123E8
:1015D0000AEB810100F0FAFD8DE8070064107F1C22
:1015E000002CEED1194F7F44AE3F19E0E80715D02B
:1015F00007EB04100DF1180A90E80E008AE80E00BF
:10160000C068F04201D1981908903246012306A91A
:1016100003A800F0DBFD03AB83E807006D10641C3A
:10162000002DE3D14FF0010332466946B8F1000FB7
:1016300003A802D000F0A0FD01E000F0C7FDC9E959
:101640000001C9F808200AB0BDE8F08788820000D0
:1016500010B500F063FABDE8104000F05ABA7047C8
:101660007546FFF7CFFEAE4605006946534620F0AB
:101670000700854618B020B5FEF7AEFDBDE8204056
:101680004FF000064FF000074FF000084FF0000B3E
:1016900021F00701AC46ACE8C009ACE8C009ACE8F1
:1016A000C009ACE8C0098D46704700002DE9FF4F26
:1016B0001F464FF03C0987B04FF00042DDE914109F
:1016C00001F10108DDF858A002EA40500390002023
:1016D00005908346054604460490B969461E08985D
:1016E0008847AAF1010A0290BAF1000F3BDD029887
:1016F0002E2815D0102100F052FA00282EDB4FF0D2
:10170000010B0599014317D0B9F1000F0BDB4A46D5
:10171000C11700F031FA05430C43A9F1040905E0B3
:10172000012004900BE008B145F00105012005906F
:10173000049820B9361D02E0049800B1361FB9693B
:10174000089808F101088847BBF1000FAAF1010AC7
:101750000290C9D00999C1F80080C5E702987028A5
:1017600008D0502806D0F96908988847BBF1000FC7
:1017700014D04FE0002002900120BBF1000F049034
:1017800009D0B969089808F101088847AAF1010948
:10179000B9F1000F07DCF969089888476FF001007C
:1017A0000BB0BDE8F08F2B2804D02D280CD14FF0C2
:1017B000FF300490B969089808F101088847A9F139
:1017C0000109B9F1000FE6DD411CE4D00A2100F067
:1017D000E6F90028DFDB029908F1010801EB81013D
:1017E00000EB41000290B969089888470A2100F08F
:1017F000D6F9099AA9F10109B9F1000FC2F80080E0
:1018000001DD0028E7DAF969089888470499029809
:1018100000FB016655EA040004D004F040410900D1
:1018200002D006E0039898E0A40044EA9574AD0065
:10183000B61E04F00041080002D16D196441761E05
:10184000159810F0240F03D04FF00B095C4803E00B
:101850004FF028096FF07D008246564507DAAAEB63
:1018600006018944B9F1410F01DD4FF04109012022
:101870000021A9F1010200F07FF9024628400B4641
:101880002140084301D0012100E00021501E0291B7
:1018900043F1FF3128402140084301D0012000E0FE
:1018A00000200299834651EA0B014FD000210846DF
:1018B0004FF00000039900F4400039B100EB8000C4
:1018C0004FF4400100EBD07001EA60008015012860
:1018D00002DD4FF0FF3000E013D0401C36D00298FC
:1018E00060B3BBF1000F0CD14A460120002100F08B
:1018F00043F928402140084301D0012000E00020A6
:10190000E0B101204A46002100F036F903464019B3
:101910000A4661412D1A8C4111D3B9F1400F09DDFE
:10192000159810F0240F02D0AAF1340603E0AAF1B2
:10193000170600E0761C00254FF0004406E05B1E11
:1019400042F1FF3220EA030521EA0204CAF1010054
:10195000B04206DA1B49039808430190002000902A
:101960000EE0039AC4F3D321E80A0A43164940EA79
:1019700044500A433146CDE90002684602F0EAF9D4
:10198000159810F0240F0BD01598C00715D13868A2
:10199000DDE90012031D3B600068C0E900120CE0A5
:1019A00002A8694602F0BCF81598C00705D138684E
:1019B000029A011D3960006802604046F0E60000AE
:1019C00002FCFFFF0000F07F0000F03F2DE9FF4F19
:1019D00092461D4685B04FF00041DDE9124BDDE92E
:1019E00014727F1E01EA4B50414940F0FF4940EA22
:1019F0000108002122F020004928049102D04E283D
:101A000028D04CE03BA0012607C88DE80700A96953
:101A10000698641C88477F1E014606D41DF8060000
:101A200018B121F0200181420BD0E969069888475E
:101A3000032E34D0082E32D06FF0010009B0BDE87B
:101A4000F08F761C032E01D0082EE0D1601CCAF85E
:101A50000000DCE7A9690698641C88477F1E2AD429
:101A600020F02000412826D1A9690698641C8847E7
:101A70007F1E20D420F020004E281CD1A969069892
:101A8000641C88477F1E48F4002849F48009CAF87E
:101A9000004001D4282806D0E969069888475FEA03
:101AA000CB7012D022E0A9690698641C88477F1E7B
:101AB00001D4002803DAE96906988847BCE7292899
:101AC000F1D1641CCAF80040E9E71BF0240F07D0ED
:101AD00028680499031D2B600068C0E9001805E020
:101AE0002868021D2A600068C0F800902046A5E71B
:101AF0000000F07F494E46494E495459000000000D
:101B000010B50446AFF300802046BDE81040FEF754
:101B10004EBB002801D000F029B8704710B501284D
:101B200005D0002103A000F048F8012010BD09A154
:101B3000F8E7000053494752544D454D3A204F7540
:101B400074206F662068656170206D656D6F7279B5
:101B5000000000003A2048656170206D656D6F726D
:101B60007920636F72727570746564000149182082
:101B7000ABBEFEE726000200B2F120030AD5C2F197
:101B8000200301FA02F120FA03F300FA02F041EA1D
:101B90000301704700FA03F14FF0000070473A2844
:101BA00000D2303820F02002412A01D3A2F13700C0
:101BB000884201D34FF0FF30704770B505460C46A0
:101BC0000A2000E06D1C00F011F835B128780028DB
:101BD000F8D102E0641C00F009F814B12078002864
:101BE000F8D1BDE870400A20AFF3008008B569461F
:101BF0008DF800000320ABBE08BD5FEA400C08BFB3
:101C000091F0000F4FEA8C234FEAC12243EA515171
:101C10004FEA1C5018BF00F5F0404FEA300018BFE3
:101C200041F000415FEA6C5C00F02980BCF1FF3FAD
:101C300008BF40F080407047130C06BF12044FF0FD
:101C4000100C4FF0000C130E04BF12020CF1080C24
:101C5000130F04BF12010CF1040C930F04BF920088
:101C60000CF1020CD30F04BF52000CF1010C114611
:101C70004FF00002A0F11F00A0EB0C00704711F024
:101C8000004F08BF704731F000413FF4D5AF0B0C57
:101C900006BF09044FF0100C4FF0000C0B0E04BFF0
:101CA00009020CF1080C0B0F04BF09010CF1040C24
:101CB0008B0F04BF89000CF1020CCB0F04BF49004D
:101CC0000CF1010CCCF12003A0EB0C0022FA03F381
:101CD00002FA0CF241EA030100F10100704720F022
:101CE0007F4C80EA030023F07F47ACEB070303F54A
:101CF0007C5300F0004003F1FF032DE980494FEAD7
:101D0000154B09B44FEA144325EA0B4E24EA034865
:101D10000FF2042606EB132749083E785FEA3202E9
:101D200003FB0667C7F5000707FB06F64FEA5437C3
:101D30004FEAD64606F1020607FB066CCCF1005CC2
:101D40004FEA1C472CEA074C07FB06F40CFB06F590
:101D500004EB15464FEA961634BF00204FF00040C2
:101D60004FEAD13706FB07FC4FEA1C4C0CFB0BF784
:101D7000D21B03FB0CF761EB07010CFB0EF7B0EB7A
:101D8000074072EB17420CFB08F734BFA2EB074287
:101D9000B2EB074261EB17414FEA0C444FEA91075F
:101DA00006FB07FC4FEA1C4C0CFB0BF7B0EBC740E3
:101DB00072EB573203FB0CF734BFA2EBC742B2EB16
:101DC000C74261EB57310CFB0EF7B0EBC70072EB6B
:101DD00057720CFB08F734BFA2EBC702B2EBC70285
:101DE00061EB5771039F4FEA816141EA921104EB65
:101DF000CC044FEAD1374FEA826206FB07FC42EA85
:101E000090124FEA80604FEA1C4C0CFB0BF7D21B80
:101E100003FB0CF761EB07010CFB0EF7B0EB07407F
:101E200072EB17420CFB08F734BFA2EB0742B2EB90
:101E3000074261EB17414FEA8C554FEA910704EBDB
:101E40009C2406FB07FC4FEA1C4C0CFB0BF7B0EB89
:101E5000C74072EB573203FB0CF734BFA2EBC7420B
:101E6000B2EBC74261EB57310CFB0EF7B0EBC7008A
:101E700072EB57720CFB08F734BFA2EBC702B2EB50
:101E8000C70261EB577115EB4C254FEA816141EABE
:101E900092114FEA82624FEAD13742EA901206FB72
:101EA00007FC44F100044FEA80604FEA1C4C0CFB35
:101EB0000BF7D21B03FB0CF761EB07010CFB0EF7D2
:101EC000B0EB074072EB17420CFB08F734BFA2EBF4
:101ED0000742B2EB074261EB174115EB1C154FEAC5
:101EE000813141EA92414FEA823242EA90424FEA1E
:101EF00080304FEA0C7644F1000448EA03434EEA8E
:101F00000B484FF0000EB2EB080C71EB030724BF37
:101F1000624639464EEB0E0E4FF0000B0018524150
:101F200049414BEB0B0BB2EB080C71EB03077BF158
:101F3000000B24BF624639464EEB0E0E4FF0000BED
:101F40000018524149414BEB0B0BB2EB080C71EB03
:101F500003077BF1000B24BF624639464EEB0E0EA1
:101F600051EA020718BF46F0010616EB0E7655F14E
:101F7000000254F1000103D5BDE88901BDE80088E5
:101F8000BDE88901BDE80048B619524141EB0101A5
:101F9000A3F10103704780807F7E7D7C7B7A797816
:101FA000777676757473727171706F6E6E6D6C6C1E
:101FB0006B6A6A69686867666665646463636261C0
:101FC0006160605F5F5E5E5D5D5C5C5B5B5A5A5941
:101FD00059585857575656555555545453535252AD
:101FE0005251515050504F4F4F4E4E4D4D4D4C4C05
:101FF0004C4B4B4B4A4A4A4949494848484747474E
:10200000474646464545454444444443434343428A
:10201000424242414141000046EA0646A3F5705360
:102020004FEA164646EA42564FEAD22242EA415267
:1020300010B54FEAD121A3F1010300F02FF820F0F1
:10204000004000F1020C00F0004701EB0050114687
:10205000BCF5006F40EA070000D210BDBAF1000FD6
:102060000AD01CB503B44FF004004FF004014FF048
:1020700000000FBCBDE810404FF00001BBF1010FA4
:10208000B9BF04484FF0FF310348002140EA070080
:1020900010BD00BFFFFFEF7F0000F07F002B9C46CC
:1020A00030D477002BD01CB54FEA370703B44FF07C
:1020B00010004FF01001BAF1000F06D0BCF1000F74
:1020C000DCBF40F0080040F008014FF000000FBCFA
:1020D000BDE810400BF1010BBBF1010F08BF5FEA37
:1020E000170722BF12F1010211F101014FF0004167
:1020F00043F1000300F0004043EA00007047F9D3C9
:102100005708D0E746EA064613F1400F4FEA164655
:102110001FDD13F1200FDFBF16430A4600212033D5
:102120005B42BED0C3F1200746EA064602FA07F733
:102130004FEA164646EA0706C3F1200722FA03F2E1
:1021400001FA07F721FA03F14FF0000342EA070210
:10215000A7E746EA020646EA06464FEA164646EA78
:102160000106BCBF46EA0646360C4FF000034FF0AE
:1021700000024FF0000194E72DE9804C9A46934607
:1021800070B491E8380007C831EA400C48BF34EA1F
:10219000430C03D5FFF7A3FDFFF780FFF0BCBDE8BC
:1021A000008C2DE9804C9A46934670B491E8380033
:1021B00007C831EA400C48BF34EA430C03D5FFF7A7
:1021C0008EFDFFF729FFF0BCBDE8008C2DE9804CA7
:1021D0009A46934670B491E8380007C810F0804FD3
:1021E00008BF13F0804F03D100F01AF8FFF756FF35
:1021F000F0BCBDE8008C2DE9804C9A46934670B443
:1022000091E8380007C810F0804F08BF13F0804FE6
:1022100003D100F005F8FFF7FFFEF0BCBDE8008C2D
:1022200020F07F4780EA030023F07F4C07EB0C038C
:10223000A3F57C5300F00040A3F1FE0392F0000FE1
:1022400000F0B38095F0000F00F077802DE9014990
:102250004FEA11404FEA144621EA004800FB06FC11
:1022600024EA064708FB06F607FB08F800FB07F719
:1022700018EB06484CEB164C4FEA124B18EB07488C
:102280004FEA15464CEB174022EA0B4E0BFB06FCBF
:1022900025EA06470EFB06F607FB0EFE0BFB07F7CB
:1022A0001EEB064E4CEB164C4FF000061EEB074E95
:1022B0004CEB174B18EB0B0840F1000018EB0E0B22
:1022C00058EB000840F100008F1A4FF000013CBFAE
:1022D000C943661B14BFB5EB040C00213CBFC943C6
:1022E000F61B4FEA17444EEA8E0E27EA04454FEAE2
:1022F0001C4704FB07622CEA074C05FB07F70CFBA5
:1023000005F604FB0CFC16EB074642EB174216EBF6
:102310000C4642EB1C421BEB060658EB0202414105
:1023200046EA9E0601D5BDE80189B619524141EB46
:102330000101A3F10103BDE801894FEA14454FEA09
:10234000114724EA054621EA074C05FB07F406FB82
:1023500007F70CFB06F105FB0CFC11EB074144EB06
:1023600017444FEA124711EB0C4144EB1C4422EA9C
:10237000074C05FB07F206FB07F70CFB06F605FB0F
:102380000CFC16EB074642EB174216EB0C4642EBF1
:102390001C456A1854F1000148BF7047B6195241F4
:1023A00041EB0101A3F10103704795F0000F37D015
:1023B0004FEA11424FEA144721EA024624EA074C49
:1023C00002FB07F106FB07F70CFB06F402FB0CFC13
:1023D00014EB074441EB17414FEA154714EB0C444B
:1023E00041EB1C4125EA074C02FB07F506FB07F70A
:1023F0000CFB06F602FB0CFC16EB074645EB1745FB
:1024000016EB0C4645EB1C42121951F1000148BF76
:102410007047B619524141EB0101A3F10103704726
:102420004FEA14454FEA114724EA054621EA074CD2
:1024300005FB07F106FB07F70CFB06F24FF0000661
:1024400005FB0CFC12EB074241EB174112EB0C426F
:1024500051EB1C4148BF7047921841EB0101A3F1B9
:1024600001037047FEE7704772B6FEE710B590F8BB
:1024700021100022022905D00421816380F8202048
:10248000012010BD01680B6823F00E030B6001688A
:102490000B6823F001030B6090F84030C46B0121FE
:1024A00001FA03F3636080F8211080F820201046C1
:1024B00010BD000010B590F821100024022903D0AF
:1024C0000421816301243DE001680A6822F00E02C4
:1024D0000A6001680A6822F001020A601A4A01686B
:1024E000914201D1012121E0174A1432914201D1D8
:1024F00010211BE0144A2832914201D1891515E0C0
:10250000114A3C32914201D189140FE00E4A5032F7
:10251000914202D14FF4803108E00B4A643291427B
:1025200002D14FF4801101E04FF08071064A083A61
:102530005160012180F82110002180F82010416BAA
:1025400001B18847204610BD0800024070B504461E
:1025500000F008F90546601C02D0044800780444E5
:1025600000F000F9401BA042FAD370BD0C0000201F
:102570002DE9F84FDFF8B8910024A9F1040B2346A8
:102580000F2709F1040AABF1040EC9E00125A540AB
:102590002A40AA427DD1674ED1F804C0ACEB0608B0
:1025A000B44532D014DCBCF1030F3AD009DCBCF1E5
:1025B000000F2AD0BCF1010F1CD0BCF1020F31D1A9
:1025C0001DE0BCF1110F17D0BCF1120F2AD119E098
:1025D000B8F5881F19D006DCB8F5803F15D0B8F5DE
:1025E000801F1FD111E0B8F5001F0ED0B8F5041FF1
:1025F00018D10AE0CB6815E0CB681B1D12E0CB6850
:1026000008330FE0CB680C330CE08B682BB1012B47
:102610004FF0080303D0456104E0042302E00561A4
:1026200000E00023FF2A01D8064601E000F104067D
:102630004FEA840501D9A5F12005D6F8008007FAF4
:1026400005FC28EA0C0803FA05F548EA0508C6F86F
:1026500000804D68ED0062D5374DAE6946F0010649
:10266000AE61AD6924F0030605F001050095334D18
:1026700006EB050CDCF80850A607360F07FA06F83B
:1026800025EA0805DFF8B880404503D14FF000087F
:1026900017E044E0DFF8AC80404502D14FF001087C
:1026A0000FE0DFF8A480404502D14FF0020808E0B7
:1026B000DFF89880404502D14FF0030801E04FF069
:1026C000040808FA06F848EA0508CCF808804D68BE
:1026D000D9F80060ED024D4601D5164300E096435F
:1026E0002E604D68DAF80060AD02554601D51643FC
:1026F00000E096432E604D68DBF80060AD035D4658
:1027000001D5164300E096432E604D68DEF8006068
:10271000ED03754601D5164300E096432E60641C18
:102720000D682A46E5407FF431AFBDE8F88F000020
:102730000804014000001110001002400000014098
:1027400000080140000C014000100140001401404D
:102750008068084000D0012070470AB101617047CD
:102760000904FBE701488068704700000C00002066
:102770000248816802781144816070470C00002093
:10278000074810B5016841F010010160032000F016
:1027900075F80F2000F006F800F024F8002010BDB6
:1027A0000020024070B50D4D04464FF47A71287830
:1027B000B1FBF0F00A490968B1FBF0F000F0DCFA77
:1027C00048B9102C07D200222146501E00F036F8DE
:1027D00000206C6070BD012070BD00000C00002066
:1027E000180000200C4808B5816941F001018161A1
:1027F000816901F001010091C16941F08051C1611D
:10280000C06900F0805000900448416821F0E06108
:1028100041F00071416008BD00100240000001401D
:10282000002809DB00F01F020121914040098000CF
:1028300000F1E020C0F8001170470000F0B40E4B2A
:102840001B680C46C3F30223C3F10705042D00D90E
:102850000425191D072901D2002300E0DB1E0126F3
:1028600006FA05F1491E214099409E40761E164009
:102870003143F0BC01F028B90CED00E0064900F04E
:10288000070208684FF6FF03184040EA0220034A97
:1028900010430860704700000CED00E00000FA05EE
:1028A0002DE9F0470F46050061D0434E306800F037
:1028B0000700B84209D2306820F007003843306082
:1028C000306800F00700B84251D128683B4C8107BE
:1028D00012D5400703D5606840F4E0606060287856
:1028E000000703D5606840F4605060606068A968C4
:1028F00020F0F000084360602878C00728D068689E
:10290000012810D02168022810D0890700292EDA6A
:10291000616821F0030101436160FFF723FF8046F6
:1029200041F288390DE021688903EFE78901EDE77D
:10293000FFF718FFA0EB0801494502D90320BDE8C5
:10294000F0876068696800F00C00B0EB810FEFD190
:10295000306800F00700B8420BD9306820F007005B
:1029600038433060306800F00700B84201D00120E1
:10297000E5E72878400705D56068E96820F4E0605D
:10298000084360602878000706D56068296920F44C
:10299000605040EAC100606000F038F86168084AA1
:1029A000C1F30311515CC84006490860064800683D
:1029B000FFF7F8FE0020C2E70020024000100240AE
:1029C000427E00081800002010000020044805493D
:1029D00000684968044AC1F30221515CC84070474D
:1029E0001800002000100240527E000804480549EB
:1029F00000684968044AC1F3C221515CC84070476D
:102A00001800002000100240527E00080E4A516853
:102A10000E4801F00C03042B11D0082B0FD10C48E9
:102A2000C1F38343C903C05C0AD55168084AC1F3A6
:102A30004041921E515C054A5043B0FBF1F0704793
:102A400004494843704700000010024000127A0019
:102A5000327E000800093D002DE9F84F040070D0D7
:102A60002078C04DC00749D06868C0F381000128B4
:102A700007D06868C0F38100022809D16868C003E4
:102A800006D52868800339D560680028E7D035E08E
:102A90006068B0F5803F0BD010B1B0F5A02F11D019
:102AA000286820F480302860286820F4802002E024
:102AB000286840F480302860606890B1FFF752FECB
:102AC00006460AE0286840F480202860F0E700BF4E
:102AD000FFF748FE801B642873D828688003F7D569
:102AE0000CE0FFF73FFE064605E000BFFFF73AFEA9
:102AF000801B6428F0D828688003F7D420789A4E89
:102B000080074FF001094FF0000839D5686810F0D0
:102B10000C0F07D06868C0F38100022809D16868EB
:102B2000C00306D42868800714D52069012808D17D
:102B300010E02069B0B1C6F80090FFF713FE074619
:102B400005E00AE1FFF70EFEC01B0228C4D8286882
:102B50008007F7D52868616920F0F80040EAC100D5
:102B600028600DE0C6F80080FFF7FCFD074604E092
:102B7000FFF7F8FDC01B022823D828688007F7D488
:102B8000207800072CD57948A169D9B1C0F8009008
:102B9000FFF7E8FD074604E0FFF7E4FDC01B02284D
:102BA0000FD8686A8007F7D571484FF4FA5100686A
:102BB000B0FBF1F0009000BF0098411E0091FAD2E6
:102BC0000EE080E0C0F80080FFF7CCFD074604E08F
:102BD000FFF7C8FDC01B022875D8686A8007F7D4C4
:102BE0002078400760D5E8690027C00008D4E8696C
:102BF00040F08050E861E869012700F080500090C3
:102C00005C480168C90513D40168834641F48071AA
:102C10000160FFF7A7FD824606E000BFFFF7A2FDB7
:102C2000A0EB0A0064284ED8DBF80000C005F5D5FB
:102C3000E06801280AD008B1052813D0286A20F0DE
:102C400001002862286A20F0040002E0286A40F0AF
:102C500001002862E06841F2883B98B1FFF782FDED
:102C600082460BE0286A40F004002862EEE700BFCD
:102C7000FFF778FDA0EB0A0159455AD8286A80076A
:102C8000F6D50CE0FFF76EFD824605E0FFF76AFD22
:102C9000A0EB0A0159454CD8286A8007F6D41FB129
:102CA000E86920F08050E861E06988B36968C1F3A1
:102CB0008101022944D00228C6F8608004D0FFF7C1
:102CC00051FD044638E034E0FFF74CFD074604E0D0
:102CD000FFF748FDC01B02282BD828688001F7D4D5
:102CE000206AB0F5803F05D16868A16820F4003003
:102CF00008436860D4E908010843696821F4741145
:102D000008436860C6F86090FFF72CFD044606E0B3
:102D100025E000BFFFF726FD001B022809D8286820
:102D20008001F7D51BE000BFFFF71CFD001B022848
:102D300002D90320BDE8F88F28688001F4D40EE0A2
:102D40000128F7D06868226A00F48031914204D1EA
:102D5000616A00F47010884201D00120EAE7002087
:102D6000E8E70000001002400000424280044242B6
:102D7000180000200070004010B5401EB0F1807FA8
:102D800001D3012010BD4FF0E02460610F216017D6
:102D900000F09AFE0020A06107202061002010BDF5
:102DA00070B590F83C20012A26D0012480F83C40E0
:102DB000022280F83D2003685A689D6822F0700660
:102DC0000A6832435A600D4B02689A4208D0B2F149
:102DD000804F05D00A4B9A4202D00A4B9A4204D146
:102DE000496825F080031943916080F83D40002137
:102DF00080F83C10084670BD022070BD002C0140D8
:102E0000000400400008004000B585B0002100919A
:102E10000191029103910068B0F1804F11D10A48ED
:102E2000816941F0040181618069694600F0040014
:102E30000490032000900220019003900348FFF7C4
:102E400097FB05B000BD00000010024000080140E3
:102E500070B5044690F83C0000260D4601280FD0BE
:102E6000012084F83C006AB1042A1DD0082A2FD022
:102E70000C2A3FD00126002084F83C00304670BD6B
:102E8000022070BD206800F023FC2068816941F0B9
:102E9000080181612068816921F004018161206855
:102EA00081692A69114311E0206800F039FC20682B
:102EB000816941F4006181612068816921F4806148
:102EC0008161206881692A6941EA02218161D2E732
:102ED000206800F051FC2068C16941F00801C1611F
:102EE0002068C16921F00401C1612068C1692A69B3
:102EF000114311E0206800F06BFC2068C16941F4C7
:102F00000061C1612068C16921F48061C1612068EC
:102F1000C1692A6941EA0221C161ACE710B5040028
:102F200003D094F83D0010B107E0012010BD00204F
:102F300084F83C00204600F01FF8022084F83D0091
:102F4000211D206800F07AFB012084F8460084F8F7
:102F50003E0084F83F0084F8400084F8410084F883
:102F6000420084F8430084F8440084F8450084F863
:102F70003D00002010BD000008B50068B0F1804F92
:102F800008D10548C16941F00101C161C06900F083
:102F90000100009008BD00000010024010B504467A
:102FA000022249B104290ED0082913D094F8410017
:102FB000012816D0012010BD94F83E000128F9D157
:102FC00084F83E200FE094F83F000128F2D184F805
:102FD0003F2008E094F840000128EBD184F840201D
:102FE00001E084F841200122206800F063FB0F49D2
:102FF0002068884203D1426C42F400424264206857
:10300000884208D0B0F1804F05D00949884202D0EB
:103010000849884204D1816801F00701062903D0DC
:10302000016841F001010160002010BD002C014049
:10303000000400400008004070477047F8B5016880
:1030400004460868CA684B6910F00F0F4FF000057E
:1030500059D003F0010602F49077374365D0C107D9
:1030600005D0D10503D5616C41F0010161644107D0
:1030700005D5D90703D0616C41F002016164810775
:1030800005D5D90703D0616C41F0040161640107E3
:1030900007D502F02001314303D0616C41F00801F3
:1030A0006164616C00293AD0800604D5900602D58F
:1030B000204600F0DEFB20684069616CC0F38010A0
:1030C000090700D460B3204600F0ACFB20684069DB
:1030D000400621D52068143050E8001F21F040013F
:1030E00040E80012002AF5D1E06BA8B16D494163B8
:1030F000E06BFFF7DFF9002811D0E06B416B01B006
:10310000BDE8F040084783060FD593060DD520464D
:10311000BDE8F84000F0ADBB2046FFF78EFFF8BDDC
:103120002046FFF78AFF6564F8BD266B2023012E39
:103130007CD1C6067AD5D60678D50868486800904E
:1031400048694FF00206400640D5E16B08684068C8
:103150000004000CE8D0A28D8242E5D9E0858869A0
:1031600020282DD020680C3050E8001F21F48071F9
:1031700040E80012002AF5D12068143050E8001F02
:1031800021F0010140E80012002AF5D12068143036
:1031900050E8001F21F0400140E80012002AF5D15C
:1031A00084F84230256320680C3050E8001F21F07D
:1031B000100140E80012002AF5D1E06BFFF756F944
:1031C0006663A08DE18D401A81B22AE0A08DE18D69
:1031D000401A81B2E08D0028A6D00029A4D0226830
:1031E0000C3252E8000F20F4907042E80007002FE4
:1031F000F5D12068143050E8002F22F0010240E899
:103200000027002FF5D184F84230256320680C3068
:1032100050E8002F22F0100240E80023002BF5D1E7
:1032200066632046FFF708FFF8BDFFE705062BD5CC
:10323000150629D594F841002128F5D1A068B0F5EC
:10324000805F01D12069B0B1206A411C21622168F0
:1032500000784860E08C401E0004000CE084E3D15C
:103260002068C16821F08001C1602068C16841F018
:103270004001C160D8E7206A0088C0F308004860B8
:10328000206A801C2062E5E74006CDD55006CBD5EC
:10329000CA68204622F04002CA6084F8413000F03B
:1032A00084F8C1E71538000870B5040004D094F81C
:1032B0004100002510B106E0012070BD84F84050A7
:1032C000204600F023F8242084F841002068C168DB
:1032D00021F40051C160204600F02CFB20680169F8
:1032E00021F4904101612068416921F02A01416186
:1032F0002068C16841F40051C1606564202084F8F1
:10330000410084F842006563002070BD30B585B08F
:1033100000240094019402940394006818498842A0
:103320002CD11848816941F480418161816901F49F
:1033300080410491816941F0040181618069124DED
:1033400000F0040004904FF40070009002200190FF
:103350000320039069462846FFF70AF92815CDE9AE
:103360000004694628460294FFF702F9002211463C
:103370002520FFF763FA2520FFF752FA05B030BD8C
:1033800000380140001002400008014090F842302F
:10339000202B01D00220704721B11AB10023036312
:1033A00000F024BB0120704770477047FEE7000023
:1033B000F0B585B000241C48009401940294039455
:1033C000816941F020018161816901F0200104914E
:1033D000816941F004018161816901F00401049176
:1033E000816941F0080181618069104F00F0080097
:1033F0004FF440760490002231463846FFF7ADF98D
:103400004FF4705002258DE8310069463846FFF7C9
:10341000AFF801AA0120009682E8310069463846DB
:10342000FFF7A6F805B0F0BD00100240000C014007
:1034300010B58AB0002407941C2168460894FDF753
:1034400094F91A484FF0804101602321C0E901142A
:1034500049F63F41C0E9031480218161FFF75EFD19
:1034600008B1FFF701F8079407A910480894FFF77F
:1034700097FC08B1FEF7F8FF6020CDE90004029444
:103480000022694609480494FFF7E2FC08B1FEF700
:10349000EBFF042269460548FFF7DAFC08B1FEF7A6
:1034A000E3FF0248FFF7B0FC0AB010BDE4000020C3
:1034B0000C4810B50A4901604FF4E1314160002128
:1034C00081600C22C160C0E904128161C161FFF713
:1034D000EBFE002803D0BDE81040FEF7C5BF10BDCD
:1034E000003801402C010020FEE7FEE770477047DE
:1034F00010B500210448FFF751FDBDE8104004213C
:103500000148FFF74BBD0000E400002070B5084DF6
:10351000284600F013F8074C204600F037F806481C
:10352000C0E90054BDE870404FF4FA70FFF70EB8E0
:103530000000F0410000B442B800002070B50D4C0E
:10354000A04203DC0C4CA04200D804460B492046A4
:1035500004F020F90A4D294604F046FA294604F001
:10356000B1F804F0F5F907490968486306480460B2
:1035700070BD0000000034420000B4C200003443BB
:103580000000FA44E4000020B800002070B50D49A6
:10359000884201DD0C4603E00B4CA04200D80446F3
:1035A000204604F0F7F8094D294604F01DFA294693
:1035B00004F088F804F0CCF90549096888630548E7
:1035C000446070BD000034430000F0C10000FA44C4
:1035D000E4000020B8000020FFF7CAB830B58FB073
:1035E00028216846FDF7C1F814210AA8FDF7BDF8A7
:1035F00001210804CDE90010002402940225049161
:10360000CDE907504FF4E01009906846FFF724FA1F
:1036100008B172B6FEE70F20CDE90A054FF48060CD
:10362000CDE90C4002210AA80E94FFF739F90028D1
:1036300001D072B6FEE70FB030BD7047F0B502683A
:10364000194B1A4C1A4D4FF08047984205D0B8429A
:1036500003D0A04201D0A84203D122F070064A68EC
:103660003243984205D0B84203D0A04201D0A842CC
:1036700003D122F44074CA6822434C6922F08002CC
:10368000224302608A68C2620A688262984201D15B
:1036900009690163012141610169C90703D0016919
:1036A00021F001010161F0BD002C01400004004047
:1036B0000008004010B501F01F030121046A994081
:1036C0008C430462016A9A401143016210BD0000FC
:1036D00030B5036A026A22F001020262426884691C
:1036E00024F073050C682C4323F002058B682B43F0
:1036F0000A4DA8420BD123F00805CB6822F4407292
:103700002B434D6923F0040315438A692A43426021
:10371000846149684163036230BD0000002C0140B0
:1037200030B5026A036A23F01003036243688469B8
:103730000D6824F4E64444EA05248D6822F0200252
:1037400042EA05120B4DA8420ED1CD6822F080024C
:1037500042EA05124D6923F4406343EA85038D690B
:1037600022F0400243EA8503436084614968816333
:10377000026230BD002C014030B5036A026A22F4B7
:10378000807202624268C46923F4007324F07305F6
:103790000C682C438D6843EA05230C4DA8420ED1DA
:1037A000CD6823F4006343EA05234D6922F44052B7
:1037B00042EA05128D6923F4806342EA05124260F1
:1037C000C4614968C163036230BD0000002C014040
:1037D00030B5046A026A22F4805202624268C36908
:1037E0000D6823F4E64343EA05238D6824F400546E
:1037F00044EA0534064DA84204D14D6922F48042C2
:1038000042EA85124260C36149680164046230BDC6
:10381000002C014010B5406A0021C185C184FFF72A
:103820000CFC10BD01680C3151E8002F22F490729D
:1038300041E80023002BF5D10168143151E8002F35
:1038400022F0010241E80023002BF5D1016B012990
:1038500009D101680C3151E8002F22F0100241E833
:103860000023002BF5D1202180F8421000210163B4
:10387000704708B590F84210222901D0022008BDF7
:1038800082684FF480539A4201D1016921B1816A63
:103890009A421BD04AB10AE00268816A5268C2F3B8
:1038A00008020A80816A891C08E0026972B1026814
:1038B000526802F07F020A70816A491C8162C18DE0
:1038C000491E0904090CC18503D01BE00268526837
:1038D000F1E70168CA6822F02002CA600168CA687C
:1038E00022F48072CA6001684A6922F001024A61CA
:1038F000202180F8421000214163026B012A03D08D
:10390000FFF752FD002008BD016301680C3151E84A
:10391000002F22F0100241E80023002BF5D10168AE
:103920000A68D20602D50A6849680091818DFFF7BE
:1039300083FBE7E770B5044600680169E26821F49B
:103940004051114301612169A0680843616908433E
:103950002168CA6841F20C639A430243CA60206836
:103960004169A26921F44071114341611E492068F7
:10397000884202D1FFF73AF801E0FFF727F800EBA1
:10398000C00101EB0012606864218000B2FBF0F31B
:10399000B3FBF1F36FF018067343B2FBF0F5B2FB23
:1039A000F0F605EB8305322303EB0515B5FBF1F5C6
:1039B000B6FBF1F605F0F00505EB0615B2FBF0F6E7
:1039C000B2FBF0F0B0FBF1F06FF01802504306EBE1
:1039D000800003EB0010B0FBF1F0216800F00F0055
:1039E0002844886070BD00000038014081628285F3
:1039F000C28500214164222180F84210016921B171
:103A00000168CA6842F48072CA6001684A6942F07B
:103A100001024A610068C16841F02001C1600020D4
:103A200070470000114830B400680168C943890636
:103A300017D44068C4B20E488470027800217F2AEF
:103A40000ED202780B4B9D18521C02702C707D2CEC
:103A500007D11A787B2A03D1027899540122427047
:103A6000017030BC0148FFF7E9BA00002C010020CA
:103A70000800002074010020FEE7490050EAC12040
:103A800018BF04204A0D18BF40F0010040F2FF7239
:103A9000B2EB515F08BF40F00200012808BF0520CB
:103AA00070474100080218BF04200A0E18BF40F0FA
:103AB00001004FF07F4232EA010108BF40F00200EE
:103AC000012808BF052070470907090E002804DBFC
:103AD00000F1E02080F80014704700F00F0000F1C2
:103AE000E02080F8141D704740F2013200204FF0B2
:103AF000E04104F02BB90000024A0020110704F055
:103B000025B9000001FDFFFF012104F04DB900219E
:103B1000084603F03FBE6FF05E01080704F044B9A9
:103B200010B50446D1E9000100F0B6F8206010BDE0
:103B30002DE9F04D0D4614464FF07F41B1EB440F97
:103B40009EBF4FF0FF312960BDE8F08D4FF000407F
:103B500040EA0421C4F3C750783810F01F024A4BE2
:103B60004FEA601CC2F120067B44C4F3C750A0F1A9
:103B700078004FEA601003EB800053F82C3008BF48
:103B8000D0E901C612D0D0F804C093402CFA06F751
:103B90003B4387680CFA02FC27FA06F8C06807FA6C
:103BA00002F2F0404CEA080C42EA0006A3FB0132A4
:103BB000ACFB01C0A6FB016101EB0C068E4234BFD9
:103BC0004FF0010C4FF0000CC1186144BCF1000F24
:103BD00002D0814202D903E0814201D2012000E0FB
:103BE0000020104400F120024FEA92188006CA0C0F
:103BF00040EA42304F03C5F8008003F0C9FE824618
:103C0000384603F0DDFE6FF0120104F0CDF80746F0
:103C1000304603F0D5FE6FF0250104F0C5F8834669
:103C20003946504603F04EFD594603F04BFD00F572
:103C300000666FF30B065146304603F0DBFF394652
:103C400003F0D8FF594603F0CBFF104903F0CCFE38
:103C500007460F49304603F0C7FE394603F032FDF0
:103C600007460C49304603F0BFFE394603F02AFDF3
:103C700014F0004F08BFBDE8F08DC8F1805180F00E
:103C800000402960BDE8F08DFC5B0000DB0FC92F10
:103C900022AAFD290000C92FF8B504460D466A4640
:103CA00000F02AFE00987E30009000281EDC0022E2
:103CB00013462046294603F0FDFA17D0002140F6AE
:103CC00008004FF0000006462046294603F010FA8F
:103CD000044640F6080006EA00014FF0000034F008
:103CE000004004BF0220FCF70AFE29E00098FF28EC
:103CF00028DB002108464FF0000000F440060022B7
:103D000013462046294603F07BFC8CBF0025012585
:103D10000220FCF7F4FD4FF0FF4446B1002D0CBF2C
:103D20004FF400004FF48000B04218BF084C04214B
:103D300008464FF00000002D04BF84F00040F8BD9D
:103D40002046F8BD20462946BDE8F84003F0D0B92A
:103D5000FFFF7F7F10B504460A46D4E900031946E9
:103D600000F094FFC4E9000110BD30380A2801D2E8
:103D7000012070470020704770B50546FEF7F2FC41
:103D80000A4E04463068201A64280ED3084885423B
:103D900002D101F0C3FB05E005482C30854201D17A
:103DA00001F06CFB00F0F2FF346070BD20000020D9
:103DB000F40100200F4910B5884202D101F0AEFB9A
:103DC00013E00C492C31884202D101F057FB0CE082
:103DD00008495831884202D100F02AFD05E0054922
:103DE0008431884201D101F003FBBDE8104000F0AE
:103DF000CDBF0000F401002010B530B1036823B13D
:103E0000D0E90121914201D204E0002010BD491CFB
:103E1000816020B1914202D25C5C202CF7D99142A2
:103E2000F4D1491E816010BD00EB8100C260704773
:103E300070B504460079A1688847E1784A0702D046
:103E40002288521C2280B0EBD11F0BD04FF00052C1
:103E500002EBB1114FEAB161E17011F0380F04D0FB
:103E600060F3C71121F03800E070E078002500F021
:103E70000701062972D2DFE801F0031D3D7BB199ED
:103E8000C0F38011B1EBD01FA07820F0F0000ED16C
:103E9000A070E16809B1204688472580A07820F00D
:103EA0000F00401CA070E0787CE0E07070BD8030B6
:103EB000A07070BDC0F38011B1EBD01F09D0A07805
:103EC00020F0F0001030A0702169A9B32046884787
:103ED0005FE020881028ECD9A07820F0F000503066
:103EE000A070216A09B120468847E07820F00700D9
:103EF000401DDAE7C0F38011B1EBD01F1DD1A078CF
:103F000020F0F000A070E16809B120468847A07851
:103F1000C143090706D04FF0805101EB30104FEA42
:103F20003070A070616909B1204688472580E0782B
:103F300020F00700C01CB8E72BE020880A28B8D979
:103F4000A07800F00F01012902D0022907D044E037
:103F500020F0F0003030A070A16905E03EE020F0D4
:103F6000F0004030A070E16991B32046884734E00A
:103F7000C0F38011B1EBD01F11D0A07820F0F00079
:103F80001030A070216909B12046884720880A288E
:103F900023D22580E07820F00700801C85E7218867
:103FA0000A2986D920F00700401C7EE7C0F3801163
:103FB000B1EBD01FA07820F0F0000AD16030A070E3
:103FC000616A00293FF475AF2046BDE8704008479C
:103FD00003E01030A0702169C6E7E07820F0070008
:103FE00063E700002DE9F0410F461E4615460446E2
:103FF0002C21FCF7BAFBA07820F0F0008030A070F4
:10400000A760E07845B120F0800000BF65F386101E
:10401000E0702671BDE8F08140F08000F6E7000016
:10402000074A11680B4605E0814202D14FF0FF308C
:104030007047896A0029F7D18362106000207047B9
:10404000B4000020054810B5046803E02046FFF7DF
:10405000EFFEA46A002CF9D110BD0000B4000020CE
:104060002DE9F04104460027104E1BE0A089256889
:10407000C0050BD4A06820B1FFF7F2FFA089C005EE
:1040800004D4206910B1716888472761A089800530
:1040900004D4206A10B1716888472762716820468D
:1040A00088472C46002CE1D1BDE8F081C8000020F3
:1040B000002200F04DBC002803D0007B082801D06E
:1040C000002070470120704710B5016828208847FC
:1040D000040002D02821FCF748FB204610BD002236
:1040E000114600F06FB800002DE9F04788B00F4688
:1040F00004469A4616461C216846FCF736FB2F48B4
:104100000025002C0560456055D08146E7B3CDE918
:1041100000470295D9E90212D9F810000491CDE9BF
:10412000052009F10800FFF7CFFF5FEA00082BD058
:1041300000986F4608B1029808B100270BE001987B
:10414000042808D903221EA10098FCF72AFA10B906
:104150000298C01C02903846FFF74EFE01464046CA
:1041600001F09AF868B1BAF1000F13D06846FFF772
:1041700043FEDDE90101814203D202990098405CCF
:1041800040B14046FFF76CFFDDE9011088420AD2DA
:1041900005460BE01EB10299009808443060404685
:1041A00008B0BDE8F087081E00D0451E0EB16019AA
:1041B0003060C9E900450020F2E70000C00000209F
:1041C000EFBBBF0070B515460E46040009D0FCF7E2
:1041D000C9F9411C2B4632462046BDE87040FFF726
:1041E00083BF002070BD000010B5054C606001F079
:1041F000FBFE01F0D9F96068BDE8104000F0ECBAB0
:10420000AC0000202DE9FC478246254801F068FCFF
:104210002449234801F02DFF5146214801F0DEFEDC
:104220001F49C0B2142711F8442F121A897802EBE3
:10423000D2721430C2F347054C0800F0FF09A5F113
:104240000A0101F0FF080320A4F10E01CDE900707E
:10425000CEB24B46721C08F10101114801F00EFE6E
:1042600001210F4801F0FDFE0420CDE900704B460E
:10427000324641460A4801F08EFD0021084801F00F
:10428000F0FE534622462946054801F079FE0121F9
:10429000034801F0E6FEBDE8FC47014801F0D8BE46
:1042A0002C050020FB8B000870B504460C480D4916
:1042B00010F8446F85780A4801F0DBFE2146084873
:1042C00001F08CFEC0B2301A09356A082346BDE8F9
:1042D000704000EBD070C0F34701014801F050BEC0
:1042E0002C050020A19200087CB51A480022114636
:1042F00010F8445F84780220CDE900402B46154831
:1043000001F0BCFDAE1EB3B209220121114801F03B
:10431000CEFCE01F82B2B3B201210E4801F0C7FC0F
:10432000022211460B4801F01FFDED1EA9B2022228
:10433000084801F019FDE41EA2B20221054801F06F
:1043400013FD02B0A2B2A9B2BDE87040014801F06D
:104350000BBD00002C0500202DE9FC47064690F817
:104360003C0038B13249334801F083FE0025DFF8C4
:10437000C49054E0BDE8FC472FA0FFF795BF00BFF5
:1043800005EB450000EBC50430681134B8421FD17D
:104390004FF001084146274801F063FE0121092042
:1043A000CDE90001B9F844000221001F83B2A4F155
:1043B000080082B21F4801F0EEFC00211D4801F008
:1043C00050FEA2B21FA304211A4801F0D9FD01E05A
:1043D0004FF0000806EB8707A2B278690C218368CA
:1043E000144801F0CDFD786990F83C1021B9C168FE
:1043F00011B990F8440040B1B9F84400A2B20838AD
:1044000081B210A30B4801F0BBFDB8F1000F03D03F
:104410000121084801F025FE6D1C042D05DA7068A5
:10442000471996F83C008742AADBBDE8FC870000EC
:10443000A19200082C050020456D707479204D650F
:104440006E7500003E0000002DE9F8430746334832
:1044500010F8444F857897F84600012859D0022873
:1044600057D097F83C60042E56DDA5F11208A4F150
:1044700002091FFA88F31FFA89F10B22274801F07D
:1044800087FDA800483890FBF6F0022800DA0220E9
:10449000A8EB00017A6880B24A43311F92FBF1F128
:1044A0000B318AB200901FFA89F101231B4801F0F9
:1044B00020FB7868002811DD201F81B20C221748EC
:1044C00001F052FCE01E81B20B22144801F04CFCBA
:1044D000601F81B20B22114801F046FC7868001D74
:1044E000B04219DAA5F1090082B2201F81B20B484F
:1044F00001F03AFCE01E083D81B2AAB2074801F083
:1045000033FC641FAAB2A1B2BDE8F843034801F02E
:104510002BBC97F84460A6E7BDE8F8832C05002083
:104520007FB504462C48012110F8446F85782A484D
:1045300001F097FD05200090B01E83B2A81F82B243
:104540000121254801F0D5FA0021234801F089FD19
:104550002249214801F08DFD94F84600012825D01C
:10456000022823D094F83C00002815DD0090236831
:104570001BA20C2101A85B1CFBF700FF01A9164838
:1045800001F02CFDC0B2A91E301A8AB2C01E81B241
:1045900001AB114801F0F4FC94F84600012808D062
:1045A000022808D0206940B10FA307E094F8440026
:1045B000DAE70EA302E00EA300E00FA3AD1EAAB23D
:1045C0000321054801F0DCFC04B00121BDE8704086
:1045D000014801F046BD00002C050020CE8F0008E8
:1045E00025642F25640000005355420056415200B7
:1045F0004544495400000000524F4F540000000051
:1046000038B505461548012190F8444001F029FDD0
:1046100007200090A01E83B2012211460F4801F02E
:1046200068FA00210D4801F01CFD0D490B4801F00E
:1046300020FD2946094801F0D1FCC0B2201A00EB48
:10464000D070C0F347012B460722044801F098FCC4
:10465000BDE838400121014801F003BD2C050020D0
:10466000CE8F00082DE9F04F044690F8440087B043
:1046700058B14F494F4801F0FCFC00274FF00109A9
:104680004FF0090ADFF82C8188E007B04AA0BDE8A6
:10469000F04FFFF709BE00BF07EB470000EBC7056F
:1046A000206C1135002876D050F83600002872D0E2
:1046B00094F94500411C03D0B04201D1012000E033
:1046C000002083462068B04201D1012000E0002094
:1046D0000690BBF1000F17D00121364801F0C1FC54
:1046E000CDE900A9B8F844000221001F83B2A5F16A
:1046F000080082B22F4801F04EFB00212D4801F046
:10470000B0FC069878B919E00698B8B1CDE900A9CF
:10471000B8F844000221001F83B2A5F1080082B25C
:10472000244801F0ABFBBBF1000F01D026A300E051
:1047300026A3AAB204211F4801F022FC206CAAB2D1
:104740000C2150F836301B4801F01AFC0421206C73
:1047500001EBC6014058006802F088FFCDE9000176
:104760001BA2102102A8FBF709FE02A9114801F0C3
:1047700035FCB8F84410C0B2081A001F81B2AAB2C2
:1047800002AB0C4801F0FCFBBBF1000F03D0012190
:10479000084801F066FC7F1C042F06DA6068C61921
:1047A00094F844008642FFF677AF07B0BDE8F08F7B
:1047B000A19200082C0500204E6F2056617269619D
:1047C000626C6573000000002A0000003E000000DB
:1047D000252E32660000000010B50446134801F093
:1047E0007FF9E06810B194F84600A8B1FFF77CFDAE
:1047F00094F84610A068FFF703FF94F846000128DC
:104800000FD002280DD02046FFF7A6FD2046FFF767
:104810001BFE2046FFF784FEBDE81040034801F070
:1048200017BC2046FFF71EFFF0E700002C05002014
:104830000A4A506890F8461029B1022902D101783D
:1048400080F84510704790F83C100029FAD00168B4
:1048500000EB81004069506070470000AC00002010
:1048600003484068C168002901D00020084770470C
:10487000AC0000202DE9F04114461D4606460F46C7
:1048800002F0A1FC00F07040B0F1005F0FD0201CDE
:1048900018BF0120284320F00040C0F17F6000F1E4
:1048A000E040C00F02BF20462946BDE8F0813046F7
:1048B0003946BDE8F0812DE9F04114461D46064613
:1048C0000F4602F080FC00F07040B0F1004F0FD0B6
:1048D000201C18BF0120284320F00040C0F17F6059
:1048E00000F1E040C00F02BF20462946BDE8F0813C
:1048F00030463946BDE8F08110B5144600222260EA
:10490000114A21F000439342A8BF10BD53EA0002B0
:1049100008BF10BDB3F5801FA8BF226807DA362292
:1049200003F014FA6FF0350221F000432260DFF843
:104930001CC06FF31E510CEB23531A4441F0FF517E
:1049400041F00051226010BD0000F07F02FCFFFF2B
:104950002DE9F0418846A8B3B8F1000F33D0846840
:104960000AB90AE024686CB3216A59B34046FBF7E0
:1049700023FF0028F6D120E024681CB3266A5FEAF2
:104980000805F9D0002EF7D0B54218D002E098B152
:104990006D1C761C2878FBF7E3FC07463078FBF7A4
:1049A000DFFC87422878F2D0FBF7DAFC0546307846
:1049B000FBF7D6FC8542DFD124B1206A10B1204636
:1049C000BDE8F081FFE70020FAE700224C2102F069
:1049D000A9BA00224D2102F0A5BA01684A7B2D2117
:1049E00002F0A0BA10B5044601224C2102F09AFA56
:1049F0002046BDE81040FFF7F0BF01224D2102F034
:104A000091BA10B5044611B1FFF7F7FF01E0FFF7C7
:104A1000E0FF2046FFF7E1FF2046FFF7E3FF2046D7
:104A2000BDE81040FFF7D1BF70B50C46054601F058
:104A30008001FFF7E6FF04F040012846FFF7E1FFA1
:104A400004F020012846FFF7DCFF04F0100128469F
:104A5000FFF7D7FF04F008012846FFF7D2FF04F064
:104A600004012846FFF7CDFF04F002012846FFF7B6
:104A7000C8FF04F001012846FFF7C3FF2846FFF7EF
:104A8000BCFF2846FFF7A9FF2846FFF7ABFF2846E3
:104A9000FFF7B3FF2846FFF7A0FF2846BDE87040A8
:104AA000FFF793BFFEB500243A4804260094CDE9F1
:104AB00001602346224638A13A4800F0B5F835484F
:104AC000384D10380095CDE9016000231A4636A113
:104AD00005F1480000F0A8F82E490522103105F133
:104AE000900000F0CFF8CDE900540123314A32A103
:104AF00005F19000029400F097F826490522403114
:104B000005F1D80000F0BEF8CDE9005402230022E0
:104B10002DA105F1D800029400F086F81D49052268
:104B2000403105F5907000F0ADF8CDE90054022356
:104B3000002229A105F59070029400F075F848351F
:104B4000CDE900540023284A28A105F5907002946D
:104B500000F06AF8CDE900540023274A27A105F5A3
:104B6000B470029400F060F8CDE900540023264AA6
:104B700026A105F5D870029400F056F8CDE900544E
:104B80000023254A25A105F5FC70029400F04CF89D
:104B9000FEBD0000340000204D61696E204D656E41
:104BA00075000000A402002052756E205461736BE2
:104BB0007300000093700008566965772056617293
:104BC0006961626C657300005365742050696420EC
:104BD000537065656400000053657420506964205B
:104BE0004D696C65616765001D54000872756E2023
:104BF0005461736B303100003554000872756E20BB
:104C00005461736B303200004D54000872756E2091
:104C10005461736B303300006554000872756E2068
:104C20005461736B303400002DE9F0410446DDE936
:104C300007560020069F20606060FF2084F8450032
:104C4000C4E9021284F84630276184F83C502821D8
:104C500004F11400FBF789FD002E11D0002D0FD0B8
:104C60004FF000000CD900BF56F8201004EB800272
:104C700000F10100C0B25161A84201D20A28F3D369
:104C8000BDE8F081016480F8442070472DE9F041CF
:104C900006460C4640F2FF75174635EA14502BD0F5
:104CA00000221346304602F005FB25D03A46304636
:104CB000214603F04BF806460C4635EA145010D056
:104CC00000221346304602F0F5FA15D10220FBF718
:104CD00016FEFEF711FF0A46214662F31E01BDE8EB
:104CE000F0810220FBF70BFEFEF7FEFE0A4621468E
:104CF00062F31E01BDE8F08130462146BDE8F08137
:104D000008B5FDF73DFDFEF769FCFEF751FBFEF728
:104D10008FFBFEF7CDFBFEF7EBFBFEF7F7FB00F09A
:104D200023F8012269460E48FEF730FB0D4C4FF484
:104D30007A7500BFFFF786F900F03EF800F02AFB15
:104D4000FDF710FD20606168401AA84203D300F00F
:104D5000B3FE206860601420FDF7F8FBEAE700006E
:104D60002C0100200000002010B5FFF79BFE044935
:104D7000044802F0F7F8BDE810400348FFF734BAE2
:104D8000793D0008B53D0008A4020020014901203A
:104D900008707047AC00002010B5064C012251028B
:104DA0002046FDF7DAFC20460122BDE81040110242
:104DB000FDF7D3BC000C0140094910B50878002864
:104DC0000DD000220A70486890F84630012B00D0C0
:104DD0000A70FFF701FDBDE81040FFF741BD10BDAF
:104DE000AC0000202DE9F04107460025C8680C46BC
:104DF0002E46B0F57A7F5BD2401CE0602168A06847
:104E0000095C5B2954D1401CA0602046FEF7F4FFEA
:104E10004CB1D4E90110884203D22268125C5D2AA9
:104E200033D0884203D3A068401EA06040E0401EFB
:104E300004F11008A0604046FFF746F998B30DB39F
:104E4000306046600646A068401CA0602046FEF721
:104E5000D3FF2146304600F01FFA30B32046FEF75C
:104E6000CBFF14B3D4E90110884203D22168095C56
:104E70002C29E0D06268904217D22168085C5D2836
:104E800013D102E005462E46DDE7E068401EE060F3
:104E900005B16E602020C7E90250A068401CA060E8
:104EA0000120BDE8F081FFE715B12846FFF7D8F8EB
:104EB0000020F6E7034610B500200246995CA1F1F8
:104EC0003004092C01D830380AE0A1F14104052C46
:104ED00001D8373804E0A1F16104052C08D857380F
:104EE0000844032A00D20001521C042AE6D310BD54
:104EF000002010BD2DE9F84F4FF0000980460C004E
:104F00004FF02E0A48464D464F46CDF800903ED011
:104F10002668CEB3D4E9012122E07318C35C342B98
:104F20001BD00ADCA3F12B03092B1CD2DFE803F012
:104F3000151B152D1B1515151500382B0DD006DC6E
:104F4000352B0AD0362B08D0372B0CD105E0392B66
:104F500003D0452B01D0652B05D16D1C401C14B12D
:104F60000B189342D9D32169681C884706000ED0DC
:104F7000A16820682A4601443046FBF75DFB06F82D
:104F800005907FB100200BE001E00127E5E700205C
:104F9000BDE8F88F315C2E2901D106F800A0401C35
:104FA000A842F7D36946304600F08CFD05460098CC
:104FB0000F46864203D1616930468847E7E7C8E972
:104FC0000657144A144B2846394602F019FB02D8FA
:104FD0006FF0004108E00022104B2846394602F0ED
:104FE000D5F904D84FF00041C8F8141005E0284660
:104FF000394602F09BF9C8F814000821C8F80C10D3
:105000000099A068891B0844A06061693046884700
:105010000120BDE70000C0FFFFFFDF410000E0C14D
:105020002DE9F04107460026C8680C463546B0F524
:105030007A7F7BD2401CE060002C77D0D4E901104D
:10504000884273D22168095C7B296FD1401CA06023
:105050002046FEF7D1FED4E90110884203D222682F
:10506000125C7D2A4FD08842A0F10100A0605DD281
:1050700004F110084046FFF727F8E8B30EB32860A4
:1050800045600546CCB3D4E90110401C88424AD2A1
:10509000A0602046FEF7B0FE2146284600F076F8D4
:1050A00058B32046FEF7A8FE286928620020286130
:1050B000D4E90110884236D22168095C3A2932D1FC
:1050C00002E006463546DDE7401CA0602046FEF7BC
:1050D00093FE2146284600F0DFF870B12046FEF727
:1050E0008BFED4E90110884203D22168095C2C2987
:1050F000C0D06268904201E014E014E013D221684D
:10510000085C7D280FD1E068401EE06006B1756044
:105110004020C7E90260A068401CA0600120BDE8F3
:10512000F08103E016B13046FEF79AFF0020F6E763
:105130002DE9F041FEF7D3FF04001ED010A1FEF7C9
:10514000B7FF06460FA12046FEF7B2FF05463046E0
:10515000FEF7B1FF0C4F18B1706902F019FC38600E
:105160002846FEF7A8FF18B1686902F011FC7860C4
:105170002046BDE8F041FEF773BFBDE8F0810000B6
:105180007800000079000000D40000202DE9F843E9
:1051900080468B6808684FF00009C418CDF800906D
:1051A00008680E46651CC15C641C22296ED1002271
:1051B000716808E0BCF15C0F04D17F1C8F4265D29E
:1051C000521C641C641C271A8F4204D294F800C03D
:1051D000BCF1220FEED1271A8F4257D22178222913
:1051E00054D11844201A801A3169401C884707009E
:1051F0004CD0009737E029785C2905D000986D1CC9
:1052000000F8011B00902EE00220611B012939DB10
:105210006A78662A14D008DC222A12D02F2A10D0ED
:105220005C2A0ED0622A2DD108E06E2A0ED0722A96
:105230000ED0742A0ED0752A24D10DE0082200E089
:105240000C22009901F8012B00910BE00A22F8E7EB
:105250000D22F6E70922F4E76A462146284601F0C6
:10526000AFFE78B10544A542C5D3009981F80090FE
:105270001021C8E903173068201A401CB0600120D3
:10528000BDE8F88317B171693846884715B13068B1
:10529000281AB0600020F3E770B50C0005465ED018
:1052A000206800285BD0A16863680A1D9A4205D86F
:1052B0000844042231A1FBF774F978B3A06862684E
:1052C000411D0126914206D82168052208442DA1DE
:1052D000FBF767F928B3A0686268011D914206D800
:1052E00021680422084429A1FBF75BF9E8B1D4E95D
:1052F0000101814203D22268525C222A1DD08142E0
:1053000021D22268525C2D2A02D0303A092A1AD8BA
:1053100021462846BDE87040FFF7ECBD0420E86058
:1053200006E0EE60A068401D04E002206E61E860C7
:10533000A068001DA060012070BD21462846BDE880
:105340007040FFF723BF814203D22268525C5B2A80
:1053500007D0814203D22068405C7B2807D0002020
:1053600070BD21462846BDE87040FFF73BBD214691
:105370002846BDE87040FFF753BE00006E756C6CA8
:105380000000000066616C73650000007472756552
:105390000000000004480178002904D000210170B9
:1053A0000248FFF7C5BE70470900002074010020C5
:1053B000010010B50D4806D0012907D002290DD0F3
:1053C000032911D10DE04FF4806101E04FF4006139
:1053D000FDF7BEF9012807D0012010BD4FF4805120
:1053E000F6E74FF40051F3E7002010BD000C014038
:1053F0000949486890F846204AB190F945305B1C4D
:1054000005D0022A02D1FF2180F8451070470069BB
:105410000028FBD048607047AC00002001A0FEF7D8
:10542000F1BE000052756E6E696E67204661696C50
:105430006564000001A0FEF7E5BE000052756E6EC7
:10544000696E67204661696C6564000001A0FEF723
:10545000D9BE000052756E6E696E67204661696C38
:105460006564000001A0FEF7CDBE000052756E6EAF
:10547000696E67204661696C6564000070B52148FB
:10548000406890F84610022901D049B32BE090F90A
:1054900045104A1C27D0026C042000EBC1001558AF
:1054A0002868044602F0E2F8174A184B01F0AAFFF8
:1054B00001F01EFE02F0DAF802460B4614481549C8
:1054C000FFF7D8F902460B4600201349FFF7F3F91E
:1054D00001F00EFE0146204602F0F4F8286070BD8F
:1054E00090F83C2001E090F844200168521E91425F
:1054F000F5DA491C01604268121D9142EFDBC91EBA
:10550000416070BDAC0000207B14AE47E17AB43F2F
:105510009A9999999999B93F0000594070B51C48DA
:10552000406890F84610022928D190F945104A1C8D
:1055300024D0026C042000EBC10015582C682046D2
:1055400002F094F8134A144B01F05CFF01F0D0FD17
:1055500002F08CF802460B4610481149FFF78AF911
:1055600002460B4600200F49FFF7A5F901F0C0FDE8
:105570000146204602F03EFB286070BD016800290C
:1055800001DD491E016042689142F6DA416070BD5A
:10559000AC0000207B14AE47E17AB43F9A99999908
:1055A0009999B93F000059402DE9F04F85B000208E
:1055B0000190FDF7D7F882464FF0400BC84800F045
:1055C0008FFAFDF7CFF8A0EB0A06C649C44800F0F1
:1055D00050FDC5A73946C24800F000FD05464FF012
:1055E0007F51019802F000FA02F096F9052190FB34
:1055F000F1F201FB120905EBD5710024ABEB61055B
:105600004AE000200290385D8DF8080002A9B448F5
:1056100000F0E4FC0390204602F0BAF9B44902F02D
:10562000E3F9019902F04EF800F082F9032102F04B
:10563000BBFBB04902F046F802F06EF980464C45DB
:1056400020D10121A64800F00CFD13200090039802
:10565000001D83B2A8F10F0082B2A81E81B2A0483B
:1056600000F047FA00219E4800F0FBFC1FFA88F288
:10567000A9B202AB9A4800F083FC0121984800F0DF
:10568000F0FC06E01FFA88F2A9B202AB944800F0E1
:1056900077FC0398641C0544385D0028B1D140F2C2
:1056A000DC50864200D2304602F08AF9924902F07C
:1056B00071F8049091498A4800F0DBFC90A52946D6
:1056C000874800F08BFC00EBD0710024ABEB610845
:1056D000019802F021F902903EE000200090285D40
:1056E0008DF8000069467E4800F078FC0390204663
:1056F00002F04EF94FF0FF3102F056FB019901F034
:10570000E1FF00F015F9012102F04EFB7E4901F0A6
:10571000D9FF02F001F9814604EB840000EBC402DA
:10572000029902EB090001440A2091FBF0F200FB10
:1057300012177649049802F057F902F0EDF8874203
:1057400007DA1FFA89F21FFA88F16B46644800F005
:1057500017FC0399641C8844285D0028BDD1029879
:10576000DFF8AC8100EB4001002401EBC0074FF0F3
:105770007F09204602F00CF96649009002F034F9E6
:10578000019901F09FFF00F0D3F8414602F02CF997
:10579000614901F097FF02F0BFF8054682B2A1B25D
:1057A0004F4800F0E1FA0298C4EB041101EBC0008D
:1057B000712190FBF1F201FB120070B94FF41670E9
:1057C000B6FBF0F100FB1160B0F5C87F05D2AD1E4D
:1057D000AAB2A1B2424800F0C7FA5049009802F0BC
:1057E00003F9019901F06EFF4D4901F06BFF00F0E4
:1057F0009FF8414602F0F8F84A4901F063FF02F0D1
:105800008BF8054682B2A1B2354800F0ADFA04EB40
:10581000C400384490FBF9F209FB120070B94FF450
:105820002F70B6FBF0F100FB1160B0F5967F05D24A
:10583000AD1CAAB2A1B22A4800F096FA641C802CD2
:1058400097DB7620464340F6B830B6FBF0F5762D70
:1058500000DD76250220009076233E220521204897
:1058600000F0A9F900241DE0204602F091F86FF045
:10587000010102F099FA019901F024FF00F058F8B3
:10588000294902F0B1F802F047F83E3082B2661DB5
:10589000B1B2134800F068FAB1B23F22104800F0EC
:1058A00063FA641CAC42DFDB0D4800F0D1FB1F49FA
:1058B000019801F007FF01903220FCF747FEFCF74A
:1058C00051FFA0EB0A00B0F5FA6FFFF477AE044881
:1058D00000F006F905B00248BDE8F04F00F0B8BB93
:1058E0002C0500205A7E00084D53504D300000001A
:1058F0003333333F0000F0410080BB442988000867
:1059000057656C636F6D65000000484200002041E0
:1059100000004040EC51B83D00007042CDCCCC3D81
:10592000D00F49400000E040CDCC8C3FCDCC4C3E68
:105930002DE9F8430446024652486946B0EB420F4F
:1059400009D94FF0E640B0EB420F94BF00204FF072
:10595000FF30009030E04C4B22F00040834271D980
:105960004A49204602F040F802F00AF9804601F068
:10597000D3FF00F0030000904549404602F034F8A0
:1059800005464449404602F02FF806464249404643
:1059900002F02AF807464149404602F025F8214620
:1059A00002F01EF9394602F025F9314602F022F9DB
:1059B000294602F01FF904462546009C002C45DBD1
:1059C000294614F0010F08461ED002F00DF80546D6
:1059D000334902F009F8334901F074FE294602F018
:1059E00003F8314901F06EFE294601F0FDFF4FF04A
:1059F0007E5101F067FE14F0020F08BFBDE8F88386
:105A000080F00040BDE8F88301F0EEFF064627492C
:105A100001F0EAFF264902F0E3F8314601F0E4FF25
:105A2000244901F04FFE314601F0DEFF294601F026
:105A3000DBFF294601F046FE14F0020FE0D1BDE87D
:105A4000F883FFE71046FEF773F8B4E76800B0F19B
:105A50007F4F09D22846FEF724F8042808BFFEF736
:105A60005AF82846BDE8F88306D10120FAF747FF27
:105A7000BDE8F843FEF74BB82846BDE8F843FEF70B
:105A800043B80000B61F927E490E494683F9223F73
:105A90001A61342C0020A23300A0FD390000C93F58
:105AA000B93AB2BACA9F2A3DDDFFFFBE336D4C3909
:105AB000DA82083CA0AA2ABE01490120087070477A
:105AC000AC00002000B583B00A460021CDE90011EA
:105AD00001466846FBF762FCDDE9000103B000BD4A
