:020000040800F2
:10000000581E0020050100086F2600083122000854
:100010006D26000807100008793000080000000075
:10002000000000000000000000000000D5280008CB
:100030003F100008000000009B2800086D2A0008FF
:100040001F0100081F0100081F0100081F01000810
:100050001F0100081F0100081F0100081F01000800
:100060001F0100081F0100081F0100081F010008F0
:100070001F0100081F0100081F01000809100008E7
:100080001F0100081F0100081F0100081F010008D0
:100090001F0100081F0100081F0100081F010008C0
:1000A0001F0100081F0100081F0100081F010008B0
:1000B0001F0100081F0100081F0100081F010008A0
:1000C0001F0100081F0100081F0100081F01000890
:1000D0001F0100081F0100081F0100081F01000880
:1000E0001F0100081F0100081F010008DFF810D0E1
:1000F00000F00AFF004800471D4C0008AFF30080E5
:10010000581E00200648804706480047FEE7FEE7E5
:10011000FEE7FEE7FEE7FEE7FEE7FEE7FEE7FEE7B7
:10012000CD2A0008ED000008202A04DB203A21FA3D
:1001300002F00021704721FA02F3D040C2F1200200
:100140009140084319467047A0F14101192900D890
:100150002030704710B540EA01040346A40703D0DD
:1001600009E010C9121F10C3042AFAD203E011F8E3
:10017000014B03F8014B521EF9D210BDD2B201E07F
:1001800000F8012B491EFBD270470022F6E710B59C
:1001900013460A4604461946FFF7F0FF204610BDF5
:1001A000421E12F8013F002BFBD111F8013B02F86F
:1001B000013B002BF9D1704710B5044604E00B78E1
:1001C00000F8013B03B1491C521EF8D2204610BD75
:1001D000421C10F8011B0029FBD1801A704710B592
:1001E000002200E0521C835C8C5CA34201D1002BF6
:1001F000F8D1D8B2E1B2401A10BD10B5044600E003
:10020000401C0378002BFBD100E0401C521E04D39D
:1002100011F8013B0370002BF7D10021017020463B
:1002200010BD034611F8012B00F8012B002AF9D16B
:100230001846704730B505460020034600E05B1CB9
:10024000934205D2EC5CC85C201A01D1002CF6D197
:1002500030BDF0B480EA0102D40F4200B2EB410F8E
:1002600002D20246084611464A0042D0C30DDDB212
:10027000C1F3C752AD1A202D35DAC1F3160141F48E
:10028000000204B15242C5F1200602FA06F12A41E9
:100290001044B3EBD05F23D0C4B1012DA0EBC35009
:1002A00009DCF0BC4FF0004202EAC352DBB200F5B9
:1002B000000000F08ABC400000F1807000EBC350E9
:1002C000A0F1807040EAD170490009E0490841EA94
:1002D000C071A0EBC35000F50000400800EBC35014
:1002E000F0BC00F069BC6142012202EB4101001B3D
:1002F000F6E7F0BC704781F00041AAE780F00040CB
:10030000A7E780EA010210B502F00043400022D0C6
:100310004A001FD0010E01EB1261C0F35600C2F378
:10032000560240F4000042F40002A0FB0220000448
:100330007F39140400D0401C50EA124001D4400020
:10034000491EC2B20C0604EBD010401C4008802AA3
:1003500002D003E0002010BD20F00100002900DAE7
:100360000020184310BD30B480EA010202F00045BD
:1003700030F0004221F0004013D090B1C30DD40DF5
:10038000C2F31601C0F31600E41A41F4000140F470
:1003900000027D34914201D3641C00E04900002C2E
:1003A00002DA30BC002070474FF400000023914275
:1003B00001D3891A034340084FEA4101F7D151B1F3
:1003C000914202D14FF0004105E002D24FF001010D
:1003D00001E06FF0010103EBC450284430BC00F091
:1003E000EBBB420005D0C0F3C7525242914201DC40
:1003F0000020704700EBC15070472DE9FE4F80464A
:1004000081EA0300C00F0C46009021F0004123F068
:100410000045B8EB0200A94105D24046214690466E
:100420001C460B46024623F00040104347D0270DE0
:10043000C7F30A00C3F30A510290401A0190402802
:100440006BDAC3F3130040F4801B0098924620B18E
:100450000023D2EB030A63EB0B0B01985946C0F162
:100460004002504600F069F906460D46504659468E
:10047000019A00F071F910EB08006141002487EA4D
:10048000115284EAE7731A4340D0009A62B3019A8A
:10049000012A4FEA075215DC001B61EB02014FF005
:1004A000004202EA0752CDE90042001C41F58011EA
:1004B00032462B4600F0C6FB03B0BDE8F08F404645
:1004C0002146F9E7001B61EB0201001C41F5801396
:1004D00000185B412018A2F5001747EB030140EA22
:1004E000D570B6196D4111E06D084FEA360645EA40
:1004F000C0754FEA0752001B61EB0201001C41F579
:10050000801149084FEA30000019514132462B460C
:1005100003B0BDE8F04F00F086BB00980122400018
:100520000023D0EB020263EBE073009821464FEA10
:10053000E074B8EB000061EB0401E9E783F00043ED
:100540005BE781F0004158E7C10F80EAE0700844A2
:10055000CA079623002100F038BB962300221146DB
:1005600000F033BB00F0004220F00040C10DC0F3AA
:10057000160040F400007F2901DA00207047962918
:1005800003DCC1F19601C84001E096398840002A99
:10059000F4D04042704720F00040C10DC0F3160077
:1005A00040F400007F2901DA00207047962903DC1F
:1005B000C1F19601C840704796398840704770B5C0
:1005C000C1F30A5201F000450024C1F3130140F2C7
:1005D000FF3341F480119A4201DA002070BD40F2ED
:1005E00033439A42A2F2334203DC5242FFF79CFDAE
:1005F00000E090402C43F1D0404270BD00F000423A
:1006000030F000400AD0C10D01F56071C0F3160052
:1006100042EA0151C20840071143704700200146D9
:100620007047000030B5041E71F1000404DB4FF088
:100630000044404264EB0101141E73F1000405DB29
:100640001C464FF00043524263EB04038B4208BF49
:10065000824230BD30B5041E71F1000404DB4FF05E
:100660000044404264EB0101141E73F1000405DBF9
:100670001C464FF00043524263EB0403994208BF0B
:10068000904230BD002801DBC0F10040002901DBB1
:10069000C1F1004181427047002801DBC0F10040F8
:1006A000002901DBC1F100418842704730B50B469B
:1006B000014600202022012409E021FA02F59D4292
:1006C00005D303FA02F5491B04FA02F52844151E66
:1006D000A2F10102F1DC30BD2DE9F05F05460020FA
:1006E00092469B4688460646814640241BE02846A3
:1006F000414647462246FFF717FD53465A46C01A61
:10070000914110D311461846224600F016F82D1AD2
:1007100067EB01084F4622460120002100F00DF84A
:1007200017EB00094E41201EA4F10104DFDC48460E
:1007300031462A464346BDE8F09F202A04DB203A92
:1007400000FA02F1002070479140C2F1200320FA24
:1007500003F3194390407047202A06DBCB17203A59
:1007600041FA02F043EAE07306E041FA02F3D040B6
:10077000C2F1200291400843194670472DE9FF4F0E
:10078000087883B09946FF2805D0491C2D2804D04D
:100790000024002008E000200BE00124F9E700EB32
:1007A000800003EB4000491C0B78FF2BF7D104B10C
:1007B000404200230293147819461D462D2C01D087
:1007C0002B2C04D1521C2D2C13D000240294AA46A9
:1007D0001478FF2C0FD00A25A3FB057801FB0581B7
:1007E0004FF0000C03FB0C11521CE3194AEB010102
:1007F000EEE70124EAE7814453EA010002D019F54B
:10080000C87F06DA03980021C0E9001107B0BDE8EF
:10081000F08F0025AE4E2F46DFF8B882184600F064
:100820008AFBCDE90001B9F1000002DAC9F1000448
:1008300000E004460023A74A1AEB030B42EB045ADC
:1008400012E0E00707D02A4633463846414600F01A
:1008500047FA074688462A4633461046194600F0AE
:100860003FFA05460E466410002CEAD1DDE900018E
:10087000B9F1000F5A46534606DA00F0A3FA3A4699
:10088000434600F09FFA05E000F02AFA3A46434654
:1008900000F026FA029A0AB181F00041039AC2E9F7
:1008A0000001B3E72DE9FF4F1F468DB0D7E90146A0
:1008B0004FF0FF382E2045464FF000090B90B969E4
:1008C0006D1C0E988847396A824688470028F6D101
:1008D000BAF1FF3F0AD024F4D064002E11DDBAF142
:1008E0002B0F08D0BAF12D0F0BD102E0404611B00A
:1008F0008DE744F48064B9696D1C0E988847824680
:10090000761E6946600501D52D2000E02B208DF86C
:10091000000001F1010B0DF1200809E0B9696D1C1F
:100920000E98884782460F9844F40074761E05603E
:10093000002E02DDBAF1300FF0D00B998A453ED17E
:1009400044F0800406E00F99681CA9F1010944F401
:1009500000740860B9696D1C761E0E98884782463F
:100960003028F0D02BE00B998A4505D1200603D41E
:1009700044F08004761E18E0504602F0E1FC08B313
:100980000DF11301761E44F400748B4508D2AAF1D0
:1009900030000BF8010B200607D5A9F1010003E098
:1009A000200602D409F101008146A00502D50F9965
:1009B000681C0860B9696D1C0E9888478246002E35
:1009C000D1DC53E0002E51DDBAF1650F02D0BAF14F
:1009D000450F4BD1A00549D5B9696D1C24F440746D
:1009E000761E0E9888478246002E0CDD2B2804D0F8
:1009F000BAF12D0F07D144F48074B9696D1C0E98BB
:100A000088478246761EE00501D52D2100E02B2186
:100A100008F8011BCDF82C8021E00DF12901761E8C
:100A200044F4007488450CD2AAF1300010F0FF00A5
:100A300088F8000002D10B99884509D908F101080E
:100A400006E0E00501D5244801E042F20F7081463E
:100A5000B9696D1C0E98884782460F980560002E74
:100A600004DD504602F06CFC0028D6D1F9690E98DE
:100A70008847FF208BF8000088F8000000200690CF
:100A800007904B466A4608A906A8FFF777FEA0051F
:100A900002D46FF001002AE714F0240F0AD0E00717
:100AA00014D1DDE906123868031D3B600068C0E917
:100AB00000120BE0DDE9060100F049FA0146E0070B
:100AC00004D13868021D3A600068016028460EE7CC
:100AD000000014400000F03FF1D8FFFF426842B12F
:100AE000016811F8013B23B1521EC0E900121846FB
:100AF00070470121C160881E704742685AB1C368BF
:100B0000016843B983688B4205D0491E521CC0E975
:100B10000012002070474FF0FF3070470FB40023E1
:100B200000B589B00CA900910B996FF00042CB6021
:100B30001E4B06931E4B07930423CDE901321D4A39
:100B4000089202466B460020FFF7ACFE09B05DF844
:100B500014FB70B586B006464FF0FF300091CDE92A
:100B60000101002015460C4604903246694604A84F
:100B7000FFF7D4FF02460498211825B108B10846B2
:100B800000E020462860049800280DD0002A02DDED
:100B90000098884208D0081B0094CDE90104324631
:100BA000694604A8FFF7BAFF06B070BDDD0A000869
:100BB000FB0A00082D0F00080029A8BF7047401C41
:100BC000490008BF20F00100704710B4B0FA80FC63
:100BD00000FA0CF050EA010404BF10BC704749B1A0
:100BE000CCF1200421FA04F411FA0CF118BF012110
:100BF00021430843A3EB0C01CB1D4FEA00614FEAF0
:100C0000102042BF002010BC704700EBC3501044BE
:100C10000029A4BF10BC7047401C490008BF20F049
:100C2000010010BC704710B5141E73F1000408DAFF
:100C3000401C41F1000192185B411A4301D120F0A0
:100C4000010010BD2DE9F04D92469B4611B1B1FA5D
:100C500081F202E0B0FA80F220329046FFF76DFD9B
:100C600004460F4640EA0A0041EA0B0153465A4641
:100C7000084313D0114653EA010019D0C8F14002CD
:100C80005046FFF751FA05460E4650465946424631
:100C9000FFF753FD084305D0012004E02046394604
:100CA000BDE8F08D0020054346EAE0762C4337434B
:100CB0000A986305E40AA0EB08000022FD0A44EA52
:100CC00047540A3002D500200146E9E70105101912
:100CD0006941DDE9084500196941BDE8F04DA2E729
:100CE0002DE9FE4F81EA030404F0004421F00041A5
:100CF00000944FF0000B23F0004350EA01045ED053
:100D000052EA03045BD0C3F30A54C1F30A552C44DE
:100D1000A4F2F3340194A0FB0254C1F3130141F493
:100D20008011C3F3130343F4801301FB024400FB5F
:100D3000034E840A970A44EA815447EA8357A4FB86
:100D4000076802958D0A05FB07854FEA932C04FB83
:100D50000C542705029D4FEA065847EA1637B5EBB3
:100D600008056EEB070C870E920E47EA811742EAE0
:100D70008312A7FB0201B6EB0B0164EB00042B0D01
:100D800043EA0C335E1844EB1C50DA465146E7FB4D
:100D90000201C5F313044FEA0B3343EA14534FEA3D
:100DA0000432019C43EA0603A4F10C040294009C63
:100DB000CDE900B4FFF746FF03B0BDE8F08F002097
:100DC0000146F9E72DE9F04D81EA030404F0004BF8
:100DD00021F0004514464FF0000A23F0004150EA8C
:100DE000050220D054EA01021DD0C5F30A5702467D
:100DF000C5F31303C1F31300C1F30A5640F4801581
:100E000043F48013A7EB0608101BD64608F2FD3802
:100E100073EB050002D308F1010801E092185B4171
:100E2000B8F1000F03DA00200146BDE8F08D002084
:100E30004FF48011064684460EE0171B73EB05073E
:100E400005D3121B63EB050306434CEA010C49086A
:100E50004FEA300092185B4150EA0107EDD152EAA7
:100E6000030012D082EA040083EA0501084305D09A
:100E7000101BAB4106D20122002306E000224FF0F6
:100E8000004302E06FF0010253101AEB06004CEB36
:100E9000085110EB0A0041EB0B01BDE8F04DFFF7E4
:100EA000C2BEC1F30A52C1F3130140F2FF3341F451
:100EB00080119A4202DA00200146704740F2334323
:100EC0009A42A2F2334202DC5242FFF72DB9FFF7F9
:100ED00034BC002801DBC0F10040002901DBC1F176
:100EE0000041814202D24FF0004004E04FF0005038
:100EF00001D14FF0C0404FEA2062EFF3008162F36E
:100F00001F6181F300887047064C074D06E0E068DA
:100F100040F0010394E8070098471034AC42F6D340
:100F2000FFF7E8F85C7E00087C7E0008C0B24FF452
:100F3000F05100F029B80EB540F23342029200227F
:100F4000CDE900221346FFF77DFE03B000BD01F09E
:100F5000004330B421F0004150EA010206D00A0DEE
:100F6000A2F56072C1F31301002A02DC30BC00203C
:100F70007047440F44EAC104C100E01830BC00EBE4
:100F8000C250FFF719BE00007F2801D9002208E0F7
:100F9000064A02EB5002C007127800D1120902F093
:100FA0000F0201209040084070470000687D000853
:100FB00070B58C1810F8015B15F0070301D110F81B
:100FC000013B2A1106D110F8012B03E010F8016B48
:100FD00001F8016B5B1EF9D12B0705D40023521ECB
:100FE0000DD401F8013BFAE710F8013BCB1A921C33
:100FF00003E013F8015B01F8015B521EF9D5A14231
:10100000D8D3002070BDFEE7014800F01BB80000F7
:101010007404002030B590F840500124AC40C56BFA
:101020006C60046863604368102B036803D09960A8
:101030000068C26030BD9A600068C16030BD704712
:1010400072B6FEE72DE9F05FC16B0B6801680A68B4
:10105000046C4FF0040C0CFA04FC4A4DDFF828A194
:101060004A4E4B4FDFF82CB1DFF82CE11CEA030F9E
:101070002DD05FEA427C2AD50A68920603D40A681A
:1010800022F004020A600168A94201D1042119E09A
:10109000514501D1402115E0B14202D14FF48061A8
:1010A00010E0B94202D14FF480410BE0594502D122
:1010B0004FF4802106E0714502D14FF4800101E038
:1010C0004FF080612F4A083A5160C16A3BE04FF00F
:1010D000020808FA04F818EA030F4FF000094FF06D
:1010E000010C35D05FEA827832D50A68920605D4C1
:1010F0000A6822F00A020A6080F821C00168A94249
:1011000001D1022119E0514501D1202115E0B14260
:1011100002D14FF4007110E0B94202D14FF40051F6
:101120000BE0594502D14FF4003106E0714502D180
:101130004FF4001101E04FF00071124A083A51607B
:1011400080F82090816A00291AD0BDE8F05F084736
:101150000825A5401D4213D0120711D50A6822F0B8
:101160000E020A6090F84010C26B0CFA01F1516057
:10117000C0F838C080F821C080F82090016BE2E709
:10118000BDE8F09F080002401C0002403000024011
:1011900044000240580002406C00024030B528B3C1
:1011A00002C8134A14230A44B2FBF3F29200C2634A
:1011B000104A8263022242770B6843F6F07293432F
:1011C000D0E900242243D0E902452C43224304699C
:1011D000224344692243846922431A430A6000215E
:1011E0004163012242770177084630BD012030BDBE
:1011F000F8FFFDBF0000024070B5044690F82000E3
:10120000002501280CD0012084F8200094F82160EA
:101210000020012E06D084F820000225284670BD4B
:10122000022070BD022684F82160A0632068066851
:1012300026F0010606602046FFF7ECFEE06A002873
:101240002068016802D041F00E0106E021F004019F
:1012500001602068016841F00A01016020680168AE
:1012600041F001010160D9E770B5044600F0FAF8D9
:101270000546601C02D004480078044400F0F2F8EF
:10128000401BA042FAD370BDC80000202DE9F84FE2
:10129000DFF8A4910024A9F1040B23464FF00F08B6
:1012A00009F1040AABF1040EBEE00127A7403A4061
:1012B000BA4272D1DFF884C14D68A5EB0C066545D2
:1012C0002BD00DDC032D34D005DC35B3012D19D026
:1012D000022D2FD11BE0112D16D0122D2AD119E08D
:1012E000B6F5881F19D006DCB6F5803F15D0B6F5E7
:1012F000801F1FD111E0B6F5001F0ED0B6F5041FF8
:1013000018D10AE0CB6815E0CB681B1D12E0CB6852
:1013100008330FE0CB680C330CE08B682BB1012B4A
:101320004FF0080303D0476104E0042302E00761A3
:1013300000E00023FF2A01D8064601E000F1040680
:101340004FEA840501D9A5F12005376808FA05FCA4
:1013500027EA0C0703FA05F547EA050737604D68E9
:10136000ED0060D5364DAE6946F00106AE61AD695F
:1013700024F0030605F001050095324D7719BE688B
:10138000A5072D0F08FA05FC26EA0C06DFF8B8C001
:10139000604503D14FF0000C17E044E0DFF8ACC02B
:1013A000604502D14FF0010C0FE0DFF8A4C06045AA
:1013B00002D14FF0020C08E0DFF898C0604502D17E
:1013C0004FF0030C01E04FF0040C0CFA05FC4CEA62
:1013D000060CC7F808C04D68D9F80060ED024D460C
:1013E00001D5164300E096432E604D68DAF80060A0
:1013F000AD02554601D5164300E096432E604D6878
:10140000DBF80060AD035D4601D5164300E096436E
:101410002E604D68DEF80060ED03754601D5164379
:1014200000E096432E60641C0A6832FA04F57FF4EB
:101430003CAFBDE8F88F0000080401400000111027
:10144000001002400000014000080140000C014073
:1014500000100140001401408068084000D00120C5
:10146000704700000148806870470000C8000020F5
:1014700070B5040025D094F83D00002520B984F80B
:101480003C50204600F04EF9242084F83D002068AE
:10149000016821F0010101602068016841F4004108
:1014A00001602068016821F40041016000F0A6FAA3
:1014B0004D4B6168994201D84C4900E04C49884243
:1014C00001D2012070BD4B492268B0FBF1F1566892
:1014D00026F03F060E43566062689A4206D94FF4E2
:1014E000967251434FF47A72B1FBF2F12268491CB3
:1014F000166A26F03F06314311626168994210D89E
:101500004900401EB0FBF1F2521CC2F30B02042A48
:1015100001D2042022E0B0FBF1F0401CC0F30B002C
:101520001CE0A268F2B301EBC10303EB0116431EFA
:10153000B3FBF6F35B1C43F480431B0549D092B325
:1015400001EBC10202EB0111401EB0FBF1F0401CA7
:10155000C0F30B0040F4804040F400402168CA69A9
:101560004CF6FF739A431043C861D4E90710014356
:101570002068026822F0C00211430160D4E903012F
:1015800001432068826848F2FF339A431143816027
:10159000D4E9051001432068C26822F0FF0211431C
:1015A000C16001E00EE016E02068016841F0010131
:1015B00001602564202084F83D00256384F83E50B6
:1015C000002070BD01EB4106431EB3FBF6F35B1C2C
:1015D000B3E70120C2E701EB4101401EB0FBF1F08F
:1015E000401CC0F30B00B7E7A086010080841E00FA
:1015F00000093D0040420F002DE9F84F1F4690467C
:101600008A460446DDF82890FFF72CFF054694F83B
:101610003D0020287FD11923012240492046009512
:1016200000F097FE002876D194F83C00012872D093
:10163000012084F83C0020680168C90703D10168D3
:1016400041F0010101602068016821F4006101603E
:10165000212084F83D00102084F83E0000262664F6
:10166000C4F824806785608D20852D48E0622B4674
:101670004A465146204600F0F3FD90B92068416982
:101680008069009036E02A464946204600F002FF75
:1016900050B1206C042804D12068016841F4007125
:1016A00001600120BDE8F88F606A21680078086158
:1016B000626A521C6262608D401E6085208D401EF1
:1016C00080B2208521684B69DB435B070BD450B1A6
:1016D00010780861606A401C6062608D401E608501
:1016E000208D401E20852A464946204600F006FEF1
:1016F0000028CED1208D0028C5D154F83D0B0168BB
:1017000041F400710160202004F81E09E677667735
:101710000020C7E7FFE70220C4E700000200100036
:101720000000FFFF10B586B00021009101910291E9
:10173000039100681349884222D1134CA06940F0FC
:101740000800A061A069694600F0080004904FF409
:101750004070009012200190032003900B48FFF787
:1017600095FD0B49486840F0E06040F00200486099
:10177000E06940F40010E061E06900F400100490BA
:1017800006B010BD0054004000100240000C0140A3
:10179000000001400248816802781144816070476E
:1017A000C8000020074810B5016841F01001016031
:1017B000032000F075F80F2000F006F800F024F880
:1017C000002010BD0020024070B50D4D04464FF4BE
:1017D0007A712878B1FBF0F00A490968B1FBF0F0A2
:1017E00000F0DEFA48B9102C07D200222146501E24
:1017F00000F036F800206C6070BD012070BD000064
:10180000C8000020D40000200C4808B5816941F0D0
:1018100001018161816901F001010091C16941F01B
:101820008051C161C069064900F08050009048684D
:1018300020F0E06040F00070486008BD00100240F9
:1018400000000140002809DB00F01F020121914047
:101850004009800000F1E020C0F80011704700004E
:10186000F0B40E4B1B68C3F30223C3F10704042C2E
:1018700000D904241D1D072D01D2002300E0DB1E2A
:10188000012606FA04F56D1E0D409D409E40761E11
:10189000164045EA0601F0BC01F01ABC0CED00E070
:1018A000064A00F0070110684FF6FF03184040EAAF
:1018B0000120034908431060704700000CED00E070
:1018C0000000FA052DE9F0470D46040067D0DFF867
:1018D0001881D8F8000000F00700A8420CD2D8F810
:1018E000001021F007012943C8F80010D8F80000C3
:1018F00000F00700A84252D120683C4E810712D563
:10190000400703D5706840F4E060706020780007FD
:1019100003D5706840F4605070607068A16820F072
:10192000F000084370602078C00727D06068012865
:1019300010D03168022810D0890700292FDA716889
:1019400021F0030101437160FFF78CFD074641F26E
:1019500088390CE031688903EFE78901EDE7FFF78B
:1019600081FDC11B494502D90320BDE8F08770689D
:10197000616800F00C00B0EB810FF0D1D8F80010D6
:10198000404601F00701A9420BD9016821F0070187
:1019900029430160006800F00700A84201D001203F
:1019A000E3E72078400705D57068E16820F4E0603F
:1019B000084370602078000706D57068216920F41C
:1019C000605040EAC100706000F038F87168084A61
:1019D000C1F30311515CC84006490860064800681D
:1019E000FFF7F2FE0020C0E7002002400010024096
:1019F000FA710008D4000020CC00002004480549FA
:101A000000684968044AC1F30221515CC84070472C
:101A1000D4000020001002400A7200080448054962
:101A200000684968044AC1F3C221515CC84070474C
:101A3000D4000020001002400A7200080E4B5968C2
:101A40000E4801F00C02042A11D0082A0FD10C48CC
:101A5000C1F38342C903805C0AD55968084AC1F3BF
:101A60004041921E515C054A5043B0FBF1F0704773
:101A700004494843704700000010024000127A00F9
:101A8000EA71000800093D002DE9F84F04006FD00D
:101A90002078BE4DC00747D06868C0F38100012898
:101AA00007D06868C0F38100022809D16868C003C4
:101AB00006D52868800337D560680028E7D033E072
:101AC0006068B0F5803F0BD010B1B0F5A02F11D0F9
:101AD000286820F480302860286820F4802002E004
:101AE000286840F480302860606888B1FFF7BAFC4D
:101AF000064609E0286840F480202860F0E7FFF7F8
:101B0000B1FC801B642873D828688003F7D50BE0EC
:101B1000FFF7A8FC064604E0FFF7A4FC801B64283E
:101B2000F1D828688003F7D42078DFF86482800732
:101B30004FF0010A4FF0000939D5686810F00C0F1A
:101B400007D06868C0F38100022809D16868C00323
:101B500006D42868800714D52069012808D110E030
:101B60002069B0B1C8F800A0FFF77CFC064605E08C
:101B700007E1FFF777FC801B0228C4D8286880079C
:101B8000F7D52868616920F0F80040EAC1002860B4
:101B90000DE0C8F80090FFF765FC064604E0FFF78B
:101BA00061FC801B022823D828688007F7D420789E
:101BB00000072CD57748A169D9B1C0F800A0FFF77C
:101BC00051FC064604E0FFF74DFC801B02280FD8AD
:101BD000686A8007F7D570484FF4FA510068B0FB87
:101BE000F1F0009000BF0098411E0091FAD20EE083
:101BF0007CE0C0F80090FFF735FC064604E0FFF7F4
:101C000031FC801B022871D8686A8007F7D42078DD
:101C100040075BD5E8690027C00008D4E86940F0B8
:101C20008050E861E869012700F0805000905B482F
:101C30000168C90511D40168834641F480710160CF
:101C4000FFF710FC064604E0FFF70CFC801B64283D
:101C50004CD8DBF80000C005F6D5E06801280AD0B2
:101C600008B1052813D0286A20F001002862286AEC
:101C700020F0040002E0286A40F001002862E068D9
:101C800041F2883B88B1FFF7EDFB064609E0286A80
:101C900040F004002862EEE7FFF7E4FB811B5945A2
:101CA0005BD8286A8007F7D50BE0FFF7DBFB064619
:101CB00004E0FFF7D7FB811B59454ED8286A8007FF
:101CC000F7D41FB1E86920F08050E861E069A8B35B
:101CD0006968C1F38101022946D00228484606D02E
:101CE000C8F86000FFF7BEFB044639E035E0474620
:101CF000C8F86000FFF7B6FB064604E0FFF7B2FB4A
:101D0000801B022829D828688001F7D4206AB0F502
:101D1000803F05D16868A16820F4003008436860FE
:101D2000D4E908010843696821F474110843686024
:101D3000C7F860A0FFF796FB044605E023E0FFF735
:101D400091FB001B022808D828688001F7D51AE00B
:101D5000FFF788FB001B022802D90320BDE8F88F9B
:101D600028688001F4D40EE00128F7D06868226A60
:101D700000F48031914204D1616A00F4701088420D
:101D800001D00120EAE70020E8E70000001002404F
:101D90000000424280044242D40000200070004013
:101DA00010B5401EB0F1807F01D3012010BD4FF06F
:101DB000E02460610F21601701F08AF90020A06122
:101DC00007202061002010BD70B590F83C20012A4A
:101DD00026D0012580F83C50022280F83D20026880
:101DE0005368946823F070060B68334353600D4BBF
:101DF00002689A4208D0B2F1804F05D00A4B9A424D
:101E000002D00A4B9A4204D1496824F08003194356
:101E1000916080F83D50002180F83C10084670BD6C
:101E2000022070BD002C014000040040000800406A
:101E300000B585B0002100910191029103910068E5
:101E4000B0F1804F11D10A48816941F004018161EC
:101E50008069694600F0040004900320009002208D
:101E6000019003900348FFF711FA05B000BD000090
:101E7000001002400008014070B5044690F83C0094
:101E800000260D4601280FD0012084F83C006AB1DD
:101E9000042A1DD0082A2FD00C2A3FD0012600206A
:101EA00084F83C00304670BD022070BD206800F010
:101EB00059FE2068816941F00801816120688169CB
:101EC00021F004018161206881692A69114311E0D0
:101ED000206800F073FE2068816941F4006181612F
:101EE0002068816921F480618161206881692A69A3
:101EF00041EA02218161D2E7206800F08DFE20686E
:101F0000C16941F00801C1612068C16921F0040183
:101F1000C1612068C1692A69114311E0206800F09D
:101F2000A7FE2068C16941F40061C1612068C169F0
:101F300021F48061C1612068C1692A6941EA0221F6
:101F4000C161ACE710B5040003D094F83D0010B1B6
:101F500007E0012010BD002084F83C00204600F07E
:101F60001FF8022084F83D00211D206800F0B0FD1C
:101F7000012084F8460084F83E0084F83F0084F88D
:101F8000400084F8410084F8420084F8430084F85B
:101F9000440084F8450084F83D00002010BD000096
:101FA00008B50068B0F1804F08D10548C16941F01B
:101FB0000101C161C06900F00100009008BD00008E
:101FC0000010024010B5044649B104290AD008297E
:101FD0000BD094F8410001280AD0012010BD94F8DC
:101FE0003E00F8E794F83F00F5E794F84000F2E788
:101FF000022041B3042929D008292AD084F84100BD
:102000000122206800F0A0FD13492068884203D116
:10201000426C42F4004242642068884208D0B0F129
:10202000804F05D00D49884202D00D49884204D125
:10203000816801F00701062903D0016841F0010120
:102040000160002010BD84F83E00D9E784F83F000D
:10205000D6E784F84000D3E7002C0140000400409C
:10206000000800407047704770B5040004D094F831
:102070004100002510B106E0012070BD84F84050F9
:10208000204600F023F8242084F841002068C1682D
:1020900021F40051C160204600F010FF2068016962
:1020A00021F4904101612068416921F02A014161D8
:1020B0002068C16841F40051C1606564202084F843
:1020C000410084F842006563002070BD70B586B0A1
:1020D00000240646009401940294039400681F496A
:1020E000884238D11E48816941F48041816181690B
:1020F00001F480410491816941F0040181618069AA
:10210000184D00F0040004904FF40070009002207D
:1021100001900320039069462846FFF7B7F8281579
:10212000CDE90004694628460294FFF7AFF80F4D49
:102130000D48C5E900048020C5E9024020202C613B
:10214000C5E905402846EC61FFF728F808B1FEF71D
:1021500077FFF5636E6206B070BD00000038014085
:1021600000100240000801405800024074040020A2
:1021700090F84230202B01D00220704721B11AB1D3
:102180000023036300F0F6BE0120704770477047DC
:102190002DE9F843044690F841001F4615460E46C7
:1021A000202802D00220BDE8F8838EB185B100203E
:1021B0006064212084F84100FFF754F9A58481462A
:1021C000E584A0684FF02008B0F5805F02D003E0FE
:1021D0000120E8E7206910B1354600260EE0002511
:1021E0000CE08021204600F00FFFA0B9BDB115F82A
:1021F000010B21684860E08C401EE084E08C4B4677
:102200004FF0000200970028EBD14FF0400120462C
:1022100000F0FAFE40B184F841800320C3E736F8AD
:10222000020BC0F30800E4E784F841800020BAE71D
:10223000FEE701684A69D24352050FD46FF4806209
:102240004A61002140F8301F2022427381730269E5
:1022500042F00402026101730120704700207047C0
:10226000F8B50446C06A1E460D461746082807D032
:10227000012805D010F5803F02D0206B122804D130
:102280002068016841F480710160134600224FF01C
:1022900001112046009600F05CF840B1206800680B
:1022A000C00502D54FF4007020640320F8BD2069FA
:1022B000B0F5804F0ED00620216800EAD51040F01E
:1022C000F000086133463A460B49204600F085F895
:1022D00078B902E005F0FE0000E0E8B2216808618C
:1022E000054933463A46891F204600F076F8002813
:1022F000DCD00120F8BD00000800010070B51646D2
:102300000D4604461EE02046FFF793FF08B101206A
:1023100070BD681C16D0FFF7A5F8801BA84200D836
:1023200085B920684069C04340070BD5002044F8B8
:10233000300F20216173A073216941F020012161D8
:102340002073E4E720684069C0434007DBD40020E5
:1023500070BD2DE9F0471E4690460D460446C1F378
:102360000747DDF8209026E0701C24D0FFF77AF8AC
:10237000A0EB0900B04200D8EEB92068012F16D0BA
:10238000806925EA00000004000C12D000204045BE
:1023900011D1002044F8300F20216173A07321690E
:1023A00041F02001216120730120BDE8F0874069E0
:1023B000E7E70120EBE72068012F0AD0806925EAD2
:1023C00000000004000C06D000204045CCD00020C6
:1023D000EBE74069F3E70120F7E72DE9F04798467E
:1023E00016460D4604464FF000094FF0200AC1F38F
:1023F000074723E020684069C043400515D42068A2
:10240000016841F40071016021686FF480604861E7
:10241000C4F8309084F83DA084F83E90216C41F0DF
:102420000401216484F83C9020E0701C06D0FFF782
:1024300019F8A0EB0800B04203D816B1012F1ED046
:1024400020E02068012F14D0806925EA00000004F4
:10245000000C17D044F8309F84F80DA084F80E903B
:10246000216941F02001216184F80C900120BDE830
:10247000F087406925EA00000004000CEAD12068DA
:10248000406901E02068806925EA00000004000C32
:10249000B0D1ECE770B516460D4604461EE0204666
:1024A000FFF7C7FE08B1012070BD681C16D0FEF70B
:1024B000D9FF801BA84200D885B920684069C04375
:1024C00000060BD5002044F8300F20216173A07363
:1024D000216941F0200121612073E4E7206840690F
:1024E000C0430006DBD4002070BD0000094808B5D9
:1024F000416941F0010141614069002200F00100A1
:10250000009011460F20FFF7ABF9BDE808400F20FF
:10251000FFF798B90010024000B585B00020019087
:1025200003901248816941F020018161816901F0C5
:1025300020010491816941F004018161816901F008
:1025400004010491816941F0080181618069694653
:1025500000F0080004904FF47050009002200290A8
:102560000348FEF793FE05B000BD000000100240D6
:10257000000C01400D4810B50B4901600C49416049
:1025800000214FF480428160C0E903124161816102
:10259000C1610162FEF76CFF002803D0BDE8104066
:1025A000FEF74EBD10BD0000005400409003002017
:1025B000801A060010B58AB0002407941C216846D2
:1025C0000894FDF7E2FD1A484FF080410160232195
:1025D000C0E9011449F63F41C0E90314802181613B
:1025E000FFF7B0FC08B1FEF72BFD079407A91048D0
:1025F0000894FFF7E9FB08B1FEF722FD6020CDE962
:10260000000402940022694609480494FFF734FC50
:1026100008B1FEF715FD042269460548FFF72CFCBA
:1026200008B1FEF70DFD0248FFF702FC0AB010BD2D
:10263000E40300200C4810B50A4901604FF4E13171
:102640004160002181600C22C160C0E904128161F7
:10265000C161FFF709FD002803D0BDE81040FEF777
:10266000EFBC10BD003801402C040020FEE7FEE75F
:10267000C2E9030192F848000028104601D000F09A
:102680001FB800F0B0B870B50546B1F850000C4660
:1026900038B125F00040616CFDF7F4FF03D2002053
:1026A00070BD284670BD616CB5F5000F284603DB90
:1026B000BDE87040FDF71FBEBDE87040FDF7C9BD25
:1026C0002DE9F0410446D4E90301FDF714FE21464B
:1026D0006061FFF7D8FF60610546A169FDF70BFE59
:1026E0002168FDF70EFE06462146284600F058F800
:1026F00028B161696068FDF704FE054600E0002529
:102700000121A069FDF76DFE6169FDF7F7FDE16943
:10271000FDF79FFD0146A068FDF7F3FD074629463A
:102720003046FDF796FD3946FDF793FD0146206CD6
:10273000FDF78FFD616BFDF78CFD2063204600F0F7
:102740003DF8A069E0616069A061206B2064BDE88C
:10275000F081000010B50022026042608260C26019
:102760000261426182610C4CC261C0E908240B4BDA
:10277000C0E90A320263C0E90D24C0E90F324264A5
:1027800080F84810A0F84A20A0F84C20A0F84E206D
:10279000A0F8502010BD000000803B4500803BC5E4
:1027A00010B5B1F84A202AB120F00040C96AFDF7FF
:1027B00069FF01D2012010BD002010BD10B50446F4
:1027C000B0F84E0000280DD0A16B206BFDF764FF20
:1027D00001D2A06B05E0E16B206BFDF753FF01D246
:1027E000E06B206310BD2DE9F0410446D4E90301FC
:1027F000FDF781FD21466061FFF745FF05466061F9
:1028000029462068FDF77DFD064621462846FFF74C
:10281000C7FFA0B16169206AFDF71BFD2062B4F813
:102820004C1061B1616AFDF737FF01D2606A05E0C3
:10283000A16A206AFDF726FF01D2A06A2062216A00
:102840006068FDF75EFD0546D4E90501FDF753FD1F
:102850000146A068FDF755FD074629463046FDF7BD
:10286000F8FC3946FDF7F5FC616BFDF7F2FC2063DF
:102870002046FFF7A3FF6069A061206BBDE8F081EF
:102880004164B1F5000F01DB012100E00021A0F857
:102890005010704780E80E007047704730B50A88C6
:1028A00040F2FF740023A2420DD2084C551C0D804B
:1028B000A0547D2808D120787B2804D10888044AB8
:1028C0002354012010700B8030BD0000580C0020F4
:1028D000780300207047000010B500210448FFF77E
:1028E00071FBBDE8104004210148FFF76BBB0000FD
:1028F000E40300202DE9F041184E0C4605464FF444
:102900000008154F20F000403146FDF7C5FE04D207
:10291000454501DB354600E03D4624F000403146A8
:10292000FDF7BAFE04D2444501DB344600E03C46E4
:102930000B4E28463168FDF78CFC05462146706831
:10294000FDF787FC0446284600F01EF82046BDE847
:10295000F04100F051B80000000040C000004040CD
:102960005403002010B5064800F00EF8054800F0AA
:1029700043F8BDE810404FF4FA70FEF775BC000054
:102980000000BE420000B44270B51549884201DD26
:102990000C4603E0134CA04200D804462046FDF745
:1029A00058FC1149FDF7DFFC104D2946FDF7A9FC45
:1029B0002946FDF74EFC4FF07C51FDF74AFCFDF730
:1029C000EAFD4FF4FA61884202D34900884200D9F7
:1029D00008460749096848630648046070BD00005E
:1029E00000003443000034C30000B4430000FA4444
:1029F000E40300205403002070B51649164A8842AB
:102A000001DD084602E0904200D910460446134D0D
:102A10001146FDF770FC2946FDF7A5FC104D29462F
:102A2000FDF76FFC2946FDF714FC4FF07C51FDF7D4
:102A300010FCFDF7B0FD4FF4FA61884202D3490063
:102A4000884200D9084607490968886306484460F7
:102A500070BD0000000034430000F0C1000052438C
:102A60000000FA44E403002054030020FEF792BE65
:102A700030B58FB028216846FDF787FB14210AA8DE
:102A8000FDF783FB0120010400248DE8130004906E
:102A90004FF4E010CDE90810022507956846FEF7CF
:102AA000F3FF08B172B6FEE70F20CDE90A054FF437
:102AB0008060CDE90C4002210AA80E94FEF702FFC7
:102AC000002801D072B6FEE70FB030BD704700009D
:102AD000F0B50268194C1A4D1A4E4FF08047A042CB
:102AE00005D0B84203D0A84201D0B04203D122F0B1
:102AF00070034A681A43A04205D0B84203D0A842E6
:102B000001D0B04203D122F44073CA681A434B6922
:102B100022F080021A4302608A68C2620A688262F6
:102B2000A04201D109690163012141610169C9071D
:102B300003D0016921F001010161F0BD002C0140C9
:102B4000000400400008004010B501F01F010123FF
:102B5000046A8B409C430462036A8A401343036205
:102B600010BD000030B5026A036A23F0010303625E
:102B70004368846924F073050C682C4322F0020535
:102B80008A682A430C4DA84206D122F00805CA687B
:102B900042EA050222F0040207D14D6923F4407392
:102BA00045EA03058B6943EA05034360846149688C
:102BB0004163026230BD0000002C014030B5036A61
:102BC000026A22F010020262426884690D6824F4ED
:102BD000E64444EA05248D6823F0200343EA051304
:102BE0000C4DA84206D1CD6823F0800343EA0513BB
:102BF00023F0400307D14D6922F4406242EA850286
:102C00008D6942EA8502426084614968816303629A
:102C100030BD0000002C014030B5026A036A23F485
:102C2000807303624368C46922F4007224F0730560
:102C30000C682C438D6842EA05220C4DA84206D14F
:102C4000CD6822F4006242EA052222F4806207D1B4
:102C50004D6923F4405343EA05138D6943EA051394
:102C60004360C4614968C163026230BD002C014009
:102C700030B5046A026A22F4805202624268C36973
:102C80000D6823F4E64343EA05238D6824F40054D9
:102C900044EA0534064DA84204D14D6922F480422D
:102CA00042EA85124260C36149680164046230BD32
:102CB000002C014070B5446A2068406994F84110C6
:102CC000C0F3C0100025212904D118B1E5842046A5
:102CD00000F099F82068406994F84210C0F3801021
:102CE000222904D118B1E585204600F065F8606C12
:102CF00040F0100060642046FFF7B5F970BD10B5D4
:102D00000146406A096809684FF0000389062ED41D
:102D1000C38501680C3151E8002F22F4807241E82C
:102D20000024002CF5D10168143151E8002F22F065
:102D3000010241E80024002CF5D10168143151E86A
:102D4000002F22F0400241E80024002CF5D1202180
:102D500080F84210016B012909D101680C3151E85A
:102D6000002F22F0100241E80024002CF5D143632B
:102D7000016B012902D0FFF709FA10BD818DFFF721
:102D800071F910BD10B5406A01214163016B012941
:102D900002D0FFF7FCF910BD818D4908FFF762F9F9
:102DA00010BD00004FF4807201490248FFF7E0B9FE
:102DB000580B00202C04002001680C3151E8002F32
:102DC00022F4907241E80023002BF5D10168143100
:102DD00051E8002F22F0010241E80023002BF5D139
:102DE000016B012909D101680C3151E8002F22F053
:102DF000100241E80023002BF5D1202180F8421079
:102E000000210163704701680C3151E8002F22F066
:102E1000C00241E80023002BF5D1202180F84110A9
:102E2000704700002DE9F0412148C06B0068406800
:102E3000204EC0F5807085B27088854235D071888B
:102E40001D488D42718811D9691A8FB200248046BD
:102E500009E07088011918F801001649091DFFF7EB
:102E60001DFD641CA4B2BC42F3D31DE0C1F580710A
:102E70008FB20024804609E07088011918F801001B
:102E80000C49091DFFF70AFD641CA4B2BC42F3D330
:102E90000024474606E00749385D091DFFF7FEFCA0
:102EA000641CA4B2AC42F6D37580BDE8F08100008A
:102EB0002C04002078030020580B002070B5044635
:102EC00000680169E26821F4405111430161A16881
:102ED00020690143606901432068C26841F20C63C4
:102EE0009A430A43C26020684169A26921F4407193
:102EF000114341611E492068884202D1FEF78EFDD0
:102F000001E0FEF77BFD00EBC00101EB0011606802
:102F100064228000B1FBF0F3B3FBF2F36FF018060C
:102F20007343B1FBF0F5B1FBF0F605EB83053223FB
:102F300003EB0515B5FBF2F5B6FBF2F605F0F0056F
:102F400005EB0615B1FBF0F6B1FBF0F0B0FBF2F0CB
:102F50006FF01801484306EB800003EB0010B0FB54
:102F6000F2F0216800F00F002844886070BD000076
:102F70000038014037B582B01346039A8262044696
:102F8000838500206064222184F84210E56B1B4990
:102F9000A962E56B1A49E962E56B1A492963E16B9D
:102FA00048632168E06B091DFEF726F92068016877
:102FB00040680090206948B120680C3050E8001F3C
:102FC00041F4807140E80012002AF5D120681430E5
:102FD00050E8001F41F0010140E80012002AF5D13D
:102FE0002068143050E8001F41F0400140E8001212
:102FF000002AF5D105B0002030BD0000FF2C0008EC
:10300000852D0008B52C00082DE9F8431F46904691
:103010000D460446089E23E0701C21D0FEF722FADC
:10302000C01BB0421AD8CEB12068C168490717D575
:10303000802D15D0402D13D00168C94309070FD446
:1030400001680025406800902046FFF7B5FE082083
:10305000606484F840500120BDE8F8830320FBE75A
:103060002068006835EA000004D000204045D3D035
:103070000020F1E70120F9E7FEE700000FB4054B5F
:1030800010B503A9044A029800F062F910BC5DF87B
:1030900014FB0000754A0008840300200FB47CB5BF
:1030A0000C0009AD01D0611E00E00021CDE9000156
:1030B000064B6A462946089800F04AF9002C02D0CF
:1030C000009A002111707CBC5DF814FB573A00088F
:1030D0000907090E002804DB00F1E02080F8001445
:1030E000704700F00F0000F1E02080F8141D7047D9
:1030F00030B528B1144C031F002021680A4605E0B2
:10310000084630BD9A4203D810465268002AF9D1C9
:10311000002800D041680BD00468A3EB0005A5424D
:1031200004D11B681C440346046002E0436000E0D5
:1031300023603AB11C68D51AA54203D115682C4406
:103140001C6052685A6030BD880300202DE9F047AA
:1031500082460F4C10480D4E0E4F001B4FF00008DA
:1031600020F007054FF0010900221146504601F0FA
:1031700015FD002802D1306810B10020BDE8F087AD
:103180003C60C4E90058C6F80090EDE78C030020CD
:103190005C18002088030020581A002002E008C8AC
:1031A000121F08C1002AFAD170477047002001E0C1
:1031B00001C1121F002AFBD1704700002DE9FF5FFB
:1031C00082B00021DDE90430020DDDF840B0034398
:1031D00018D044F61050A2F2FF3242431514119851
:1031E00001281FD0A5EB0B00401C5FEA000A4FF03E
:1031F00000064E4FDFF83891B046504615D5CAF15B
:10320000000413E0119801244AA3012801D16FEAB8
:103210000B010298119AC0E90031C0E9024206B0E0
:10322000BDE8F09FCBF10000DFE704460021404AF3
:10323000491842EB0450CDE9001012E0E00707D036
:1032400032463B4640464946FDF74AFD80468946A0
:1032500032463B4610461946FDF742FD06460F46EC
:103260006410002CEAD1DDE90401DDE90023BAF1A4
:10327000000F06DAFDF734FD42464B46FDF730FD00
:1032800005E0FDF79FFD42464B46FDF79BFD0446DA
:103290000E460022284BFDF7DDF903D84FF0FF3032
:1032A000014607E00022254B20463146FDF7A5F8F0
:1032B000FDF7F7FD102409E0002C0ADB0A220023A9
:1032C000FDF70AFA039B30321A55641E50EA0102D8
:1032D000F2D1641C039AC4F111031444119A012A17
:1032E00003D0012208430DD10AE0084304D0002096
:1032F0004FF0110B119072E7A3EB0B056D1E0DE063
:103300005B4504DD4FF0000205F1010504E003DA3E
:103310004FF00002A5F10105002AECD002981199A6
:10332000C0E90231C0E9004579E70000000014401F
:103330000000F03F300000000000F0430000E03FDC
:1033400030380A2801D20120704700207047000061
:103350002DE9FF4F95B09A46884606460025EEE1D6
:10336000252877D100242746F94A0121039400E05B
:10337000044316F8013F203B01FA03F01042F7D155
:1033800030782A2811D06FF02F033078A0F1300266
:10339000092A16D8039A44F0020402EB820203EBD6
:1033A00042021044761C0390EFE758F8042B039276
:1033B000002A03DA504244F40054039044F002041B
:1033C000761C30782E2816D116F8010F44F004042C
:1033D0002A280DD06FF02F023078A0F13003092B8E
:1033E00009D807EB870302EB4303C718761CF3E702
:1033F00058F8047B761C30786C280FD006DC4C28FB
:1034000017D068280DD06A2814D104E0742810D091
:103410007A280FD10DE044F400140AE044F480143B
:1034200001E044F440147278824202D104F5801421
:10343000761C761C307866280BD013DC582877D0A1
:1034400009DC002875D04528F6D04628F4D0472856
:103450001AD193E118E0632835D0642879D0652823
:1034600012D18BE1702873D008DC6728F1D069286D
:103470006FD06E280DD06F2806D1ACE073282CD009
:10348000752874D0782853D05246179990476D1CF0
:1034900054E1C4F30250022809D003280DD0D8F813
:1034A000001004280DD00D6008F1040846E1D8F89A
:1034B0000010EA17C1E90052F6E7D8F800100D80B5
:1034C000F2E70D70F0E718F8041B8DF800100020EB
:1034D0008DF80100EB46012003E058F804BB4FF0E3
:1034E000FF3061074FF0000102D40DE009F1010146
:1034F0008946B9420FDA8145F8DB1BF8091000292B
:10350000F4D108E009F1010189468142FADB1BF898
:1035100009100029F6D103985346A0EB090721466C
:103520003846179A00F080FA284400EB090507E0B6
:1035300044E008E10DE01BF8010B52461799904753
:10354000B9F10109F7D2534621463846179AF2E0FD
:1035500039E00A21C4F302524FF0000B0091022A15
:1035600006D058F8040BC117032A09D00AE023E05B
:1035700008F1070020F00702F2E80201904605E09A
:1035800000B2C117042A01D140B2C117002906DADE
:103590000A460021404261EB02012D2202E0220591
:1035A00004D52B228DF80420012203E0E20701D08C
:1035B0002022F7E7914657E00A2100E010214FF062
:1035C000000B00910BE010214FF0000B44F00404BD
:1035D0000827009103E008204FF0000B0090C4F38F
:1035E0000252022A05D058F8040B0021032A08D001
:1035F00008E008F1070020F00702F2E80201904617
:1036000003E080B2042A00D1C0B24FF000092207C3
:103610002AD53278702A07D0DDF800C08CF0100C63
:103620005CEA0B0C05D00EE040228DF8042001224C
:1036300008E050EA010306D030238DF804308DF8FD
:10364000052002229146009B83F0080353EA0B03F6
:103650000AD150EA010201D1620705D530228DF866
:1036600004204FF001097F1E3278582A04D039A275
:103670000C920CAA02920BE03BA2F9E75B46009A7F
:10368000FDF72AF80C9B9B5C029A521E0292137063
:1036900050EA0102F2D1029804A9081A00F1200BA5
:1036A000600702D524F4803400E001275F4502DD85
:1036B000A7EB0B0000E0002000EB0B01009003984B
:1036C0004944401A0390E00306D453462146179A12
:1036D000039800F0A9F90544002706E001A8524626
:1036E000C05D179990476D1C7F1C4F45F6DBE003CA
:1036F0000CD553462146179A039800F095F90544D6
:1037000004E030205246179990476D1C0099481EDE
:1037100000900029F5DC08E00298029952460078F2
:10372000491C0291179990476D1CBBF10001ABF148
:10373000010BF1DC5BE100F065F90544761C3078A3
:1037400000287FF40DAE19B02846BDE8F08F0000C8
:103750000928010030313233343536373839616267
:10376000636465660000000030313233343536372B
:10377000383941424344454600000000600700D408
:10378000062708F1070020F00700F0E80223804632
:1037900003F0004C5FEA0C0001D097A009E020057F
:1037A00001D596A005E0E00701D095A001E0AFF2B9
:1037B0004C001390307823F0004365280CD006DCD1
:1037C000452809D046281DD047287FD13BE06628F0
:1037D00018D067287AD136E00021112F01DB1120A3
:1037E00000E0781CCDE9000104A90CA8FFF7E6FC75
:1037F000DDE90D010C9A4FF0000B07F10109109261
:1038000000914EE04FF000400097CDE9011004A96F
:103810000CA8FFF7D3FCDDE90D020C9B0F994FF0CC
:10382000000B91461093009211B9791C00EB01092D
:10383000B7EB090003D4C0F1FF3B07F10109A9EB85
:103840000700019042E0012F00DA01270021112F2B
:1038500001DD112000E03846CDE9000104A90CA8E3
:10386000FFF7ACFCDDE90D010C9A00914FF0000B65
:10387000B946109221070FD4009A4A4503DA9146BF
:1038800001E0A9F10109B9F1010F05DD109AA9F1D3
:103890000101515C3029F4D0B84202DA10F1040F72
:1038A00003DA0121CDE9011010E0002803DC834494
:1038B000A9EB000102E0411C494500DD8946A0EB6F
:1038C0000B00401C01904FF000400290200705D4EF
:1038D0000198484502DB4FF0FF30019000208DF841
:1038E0004B0002980DF14B07B0F1004F25D002209C
:1038F0000C902B200D90029800280CDA4042029088
:103900002D200D9007E00A210298FCF7CFFE303100
:10391000029007F8011D0C99481E0C900029F2DC5A
:1039200002980028EFD1791E0D980870307800F0C9
:10393000200040F0450007F8020D11A8C01BC01D73
:1039400002901398007800B1012000EB0901019862
:1039500001EBE071029801440398401A401E039065
:10396000E00306D453462146179A039800F05CF80A
:1039700005441398007818B15246179990476D1C6A
:10398000E00323D553462146179A039800F04CF8DC
:1039900005441BE0BBF1000F07DB0098584504DD30
:1039A0001098179910F80B0001E017993020524633
:1039B000904701980BF1010B401E05F101050190A4
:1039C00004D12E205246179990476D1CB9F1000181
:1039D000A9F10109DEDC05E017F8010B5246179941
:1039E00090476D1C0299481E02900029F4DC534652
:1039F0002146179A03989EE62D0000002B00000038
:103A0000200000002DE9F041044600251E4617461F
:103A1000880404D405E039462020B0476D1C641E9C
:103A2000F9D52846BDE8F0812DE9F041044600258E
:103A30001E469046C80301D5302700E020278804A1
:103A400004D505E041463846B0476D1C641EF9D5E3
:103A50002846BDE8F0814A68002A06D00A68531C4F
:103A60000B6010704868401E4860704700280DD0F9
:103A700000290BD090F83C200A2A07D200EB8202E2
:103A80005161086110F83C1F491C0170704700002B
:103A900070B50446FDF7E6FC104E05463069281A5D
:103AA00064281AD30E48844202D101F015F913E0BC
:103AB0000B482C30844202D101F0F2F80CE00848A7
:103AC0005830844202D101F0F9F805E0044884300E
:103AD000844201D101F0D6F8356170BD3C0300206D
:103AE000BC0900200B49884201D101F0F5B8094911
:103AF0002C31884201D101F0D3B8064958318842AF
:103B000001D101F0DBB803498431884201D101F0D1
:103B1000B9B87047BC09002010B530B1036823B1B3
:103B2000D0E90121914201D204E0002010BD491CDE
:103B3000816020B1914202D25C5C202CF7D9914285
:103B4000F4D1491E816010BD00EB8100C260704756
:103B500070B504460079A16888470146E0784207BD
:103B600002D02288521C2280B1EBD01F0BD04FF024
:103B7000005202EBB0104FEAB0608206E070520FC4
:103B800004D061F3C71020F03800E070C0B200F03C
:103B900007010025062972D2DFE801F0031D3D7BF5
:103BA000B199C0F38011B1EBD01FA07820F0F000E4
:103BB0000ED1A070E16809B1204688472580A07821
:103BC00020F00F00401CA070E0787CE0E07070BD39
:103BD0008030A07070BDC0F38011B1EBD01F09D050
:103BE000A07820F0F0001030A0702169A9B3204621
:103BF00088475FE020881428ECD9A07820F0F000F6
:103C00005030A070216A09B120468847E07820F042
:103C10000700401DDAE7C0F38011B1EBD01F1DD1C2
:103C2000A07820F0F000A070E16809B12046884734
:103C3000A078C143090706D04FF0805101EB301046
:103C40004FEA3070A070616909B12046884725802D
:103C5000E07820F00700C01CB8E72BE020880C2893
:103C6000B8D9A07800F00F01012902D0022907D0AD
:103C700044E020F0F0003030A070A16905E03EE0A3
:103C800020F0F0004030A070E16991B320468847F1
:103C900034E0C0F38011B1EBD01F11D0A07820F038
:103CA000F0001030A070216909B1204688472088B3
:103CB0000C2823D22580E07820F00700801C85E7BF
:103CC00021880C2986D920F00700401C7EE7C0F32C
:103CD0008011B1EBD01FA07820F0F0000AD1603045
:103CE000A070616A00293FF475AF2046BDE87040BE
:103CF000084703E01030A0702169C6E7E07820F0A3
:103D0000070063E72DE9F0410F461E4615460446BD
:103D10002C21FCF73AFAA07820F0F0008030A07057
:103D2000A760E0783DB120F0800065F38610E07078
:103D30002671BDE8F08140F08000F6E7074B196876
:103D40000A4605E0814202D14FF0FF307047896A90
:103D50000029F7D18262186000207047D800002047
:103D6000054810B5046803E02046FFF7F1FEA46A99
:103D7000002CF9D110BD0000D80000202DE9F04141
:103D800004460027104E1BE0A0892568C0050BD40F
:103D9000A06820B1FFF7F2FFA089C00504D4206914
:103DA00010B1716888472761A089800504D4206A12
:103DB00010B17168884727627168204688472C4691
:103DC000002CE1D1BDE8F08164030020002200F066
:103DD0005DBE002803D0007B082801D0002070477A
:103DE0000120704710B5016828208847040003D0DF
:103DF00028220021FCF7CBF9204610BD00221146F5
:103E000000F06EB82DE9F04788B00F4606469A4696
:103E100015461C216846FCF7B8F92F480024002EEF
:103E20000460446055D08146E7B30096CDE9017443
:103E3000D9E90212D9F810000491CDE9052009F161
:103E40000800FFF7CFFF5FEA00082BD000986F460D
:103E500008B1029808B100200CE00198042808D9A4
:103E600003221EA10098FCF7E5F910B90298C01CC6
:103E700002903846FFF750FE0146404601F018FC1C
:103E800068B1BAF1000F13D06846FFF745FEDDE9CF
:103E90000101814203D202990098405C40B1404642
:103EA000FFF76CFFDDE9011088420AD204460BE0FF
:103EB0001DB10299009808442860404608B0BDE84A
:103EC000F087081E00D0441E0DB130192860C9E9E2
:103ED00000640020F2E700005C030020EFBBBF009D
:103EE00070B515460E46040009D0FCF771F9411C67
:103EF0002B4632462046BDE87040FFF783BF0020C6
:103F000070BD70B5060002D000252C4608E00020E8
:103F100070BD2146304600F069FE00B16D1C641C86
:103F200096F83C00A042F4DC284670BD70B5040051
:103F30000CD002F025F9064D064907486C6003F0E5
:103F4000BDF86868BDE8704000F066BC70BD000058
:103F50003C030020913A0008E53A00082DE9F047BB
:103F600082462248224910F8444F85781F4802F0C3
:103F70004CF951461D4802F0FDF8C0B2211A01EB80
:103F8000D171C1F3470709356E0807EB00097C1FA3
:103F9000A6F10A0509F105080AE0AAB2A1B2134880
:103FA00001F0AEFFA1B2F21C104801F0A9FFA41C61
:103FB000A045F2DCA7F10508F41C0CE0AAB21FFA38
:103FC00088F10A4801F09CFFAAB209F105010748EF
:103FD00001F096FFAD1CA542F0DB53463246394650
:103FE000BDE8F047014802F097B80000380500200E
:103FF000B87800087CB51A480022114610F8445FD2
:1040000084780220CDE900402B46154802F002F8E2
:10401000AE1EB3B209220121114801F0C1FEE01F1A
:1040200082B2B3B201210E4801F0BAFE022211465B
:104030000B4801F065FFED1EA9B20222084801F00D
:104040005FFFE41EA2B20221054801F059FF02B051
:10405000A2B2A9B2BDE87040014801F051BF000012
:10406000380500202DE9F04F87B08246FFF749FF61
:1040700048B16349634802F0C8F84FF0000847466A
:10408000DAF844B0AFE007B05FA0BDE8F04FFFF74B
:1040900065BF3946504600F0A9FD002804D0BBF1A9
:1040A000000F02DDABF1010B9CE008EB480101EBD6
:1040B000C805DAF840001135B84201D1012000E00E
:1040C00000205FEA00090AEB8700446946D094F8B3
:1040D0004E00800720D5A5F10800022600900BE0D5
:1040E0000098B1B282B2474801F00AFFAAB2B1B259
:1040F000444801F005FFB61C4248B0F84400801E59
:10410000B042EDDCB9F1000F28D094F84E008007E2
:104110001BD5AAB23FA31DE001213A4802F06DF879
:1041200001210920CDE9000136480221B0F8440000
:10413000001F83B2A5F1080082B2324801F0F7FEF9
:104140000021304802F059F8DFE72079AAB20328AD
:104150001BD031A304212B4801F0DEFF206868B199
:10416000014617226846FCF727F800208DF8170053
:10417000AAB26B460C21234801F0CEFF94F84E0002
:1041800026A6400703D526A611E026A3E2E794F869
:104190003C0008B120A60AE0A06808B122A606E00B
:1041A00094F84C0018B12079022827D01FA6304679
:1041B000FCF70EF848B11348AAB23346B0F84400F1
:1041C000083881B20F4801F0A7FFB9F1000F07D0FE
:1041D00094F84E00800703D401210A4802F00DF83C
:1041E00008F101087F1C9AF83C00B84203DDB8F1E1
:1041F000040FFFF64EAF07B0BDE8F08F0CA6D6E770
:10420000B878000838050020456D707479204D6538
:104210006E750000780000003E0000000000000005
:1042200023000000210000002E00000056000000C6
:10423000450000002DE9F84307463B4810F8444F7D
:1042400085783879012869D0022867D03846FFF789
:1042500058FE0646042E64DDA01EA5F1120881B2A8
:104260001FFA88F30B22304801F05EFFA80048389F
:1042700090FBF6F0032800DA0320A8EB00017A6C2B
:1042800080B24A43311F92FBF1F10B3100908AB2A8
:10429000E01E81B20223244801F0E8FC786C00287B
:1042A00019DDA01F81B20C221F4801F029FE0D204C
:1042B0000090601F83B2E01F81B20D221A4801F006
:1042C000CAFD0E200090201F83B2001F81B20E2273
:1042D000154801F0C0FD786C001DB04221DAA5F14F
:1042E0000B0082B2201F83B2001F81B20E480092E1
:1042F00001F0B1FDA5F10A0082B2601F83B2E01F98
:1043000081B20948009201F0A6FD093DA41FAAB29E
:10431000A1B2BDE8F843044801F0F2BD97F84C6043
:1043200098E7BDE8F88300003805002070B5044622
:104330004A4886B0012110F8445F8678474801F06A
:104340005CFF05200090A81E83B2B01F82B201213D
:10435000424801F08BFC0021404801F04EFF4049EB
:104360003E4801F052FF2079012827D0022825D0AD
:104370002046FFF7C6FD002815DD0090236C39A20A
:10438000102101A85B1CFEF789FE01A9334801F04A
:10439000F1FEC0B2B11E281A8AB2C01E81B201ABB2
:1043A0002E4801F0B9FE207901280AD002280AD04F
:1043B000032810D0206980B12CA30FE094F84C00A2
:1043C000D9E72BA30AE094F94D00401C01D02AA3A1
:1043D00004E02BA302E02CA300E02CA3B61EB2B293
:1043E00003211E4801F098FE207902282FD194F96C
:1043F0004D00411C2BD0A16C49B300EB800001EBB8
:10440000C000407A38B1012807D0022807D003281D
:104410000AD020A004E020A002E020A105E020A016
:104420000088ADF8000003E01EA16846FBF7F9FE26
:1044300069460A4801F09EFEC0B2281A00EBD0700F
:10444000C0F34F01B2B26B46044801F065FE06B0FE
:104450000121BDE87040014801F0CFBE38050020C1
:10446000E575000825642F256400000053554200BF
:104470005649455700000000454449542A000000B1
:10448000454449540000000041435400524F4F54EA
:10449000000000003F00000025000000C2B1000045
:1044A0007E000000C3970000F0B5074633480D4674
:1044B00089B090F84440012101F09FFE0720009050
:1044C000A01E83B2012211462C4801F0CFFB00212F
:1044D0002A4801F092FE2A49284801F096FE012D53
:1044E00028D0022D28D0032D28D026A52B46072220
:1044F0000221224801F010FECFB339461F4801F0D7
:1045000039FEC6B229461D4801F034FEC5B2601B13
:10451000801FC4B230460026A04211D91C22394661
:104520006846FBF749FE8DF81C6017A16846FBF74B
:1045300037FE0CE015A5D9E715A5D7E715A5D5E7F2
:104540001F2239466846FBF737FE8DF81F60694623
:104550000A4801F00FFE201A00EBD07005EB600056
:10456000001DC1B26B460722044801F0D5FD09B019
:104570000121BDE8F040014801F03FBE38050020B0
:10458000E57500085B4D5D002E2E2E005B565D002C
:104590005B455D005B415D002DE9F04F064690F8FC
:1045A0004C008BB028B18B498B4801F02EFE0027C0
:1045B00006E10BB089A0BDE8F04FFFF7CFBC07EBD9
:1045C000470101EBC704B26C1134002A74D000EB30
:1045D000800152F83120002AF8D0B26C02EBC109F8
:1045E00096F94D104A1C03D0814201D1012100E00F
:1045F0000021326C824201D1012000E000200A90AB
:1046000099F8080004281FD00020824621EA0A01F8
:104610005FEA01081AD001216F4801F0EEFD012187
:104620000920CDE900016C480221B0F84400001FC8
:1046300083B2A4F1080082B2674801F078FC00213F
:10464000654801F0DAFD2FE00120DEE70A98A0B30B
:10465000BAF1000F32D00225A4F1080B0BE01FFACB
:104660008BF2A9B25C4801F04BFCA2B2A9B25A4845
:1046700001F046FCAD1C5849B1F84400801EA84228
:10468000EDDC5D468B460DE0AAB20221524801F0F6
:1046900037FCBBF84400AAB2C01E81B24E4801F0FC
:1046A0002FFCAD1CA542EFDD0A9830B1B8F1000F28
:1046B00015D0A2B24DA31AE07FE01CE00121092031
:1046C000CDE9000144480221B0F84400001F83B244
:1046D000A4F1080082B2404801F09CFC05E0BAF168
:1046E000000F02D0A2B242A301E0A2B241A3042172
:1046F000394801F011FDA2B20C213748D9F8003039
:1047000001F00AFD3C49344801F07FFD99F80800AA
:1047100005280ED2DFE800F0030507090B0037A3D8
:1047200008E037A306E037A304E037A302E037A38D
:1047300000E037A3DFF8A0A0E01E82B2BAF8440080
:104740000A3881B2504601F0E7FC2249504601F098
:104750005CFD202202A9484600F026F930B302A9E8
:10476000504601F007FDC5B2BAF84400A2B2401BA2
:104770000E3881B202AB504601F0CEFCB8F1000F0A
:104780001BD0BAF84400A2B2401B163881B2D04602
:1047900020A3504601F0C0FCB8F84400A2B20C3887
:1047A00081B214A3504601F0B7FC02E0B8F1000F4B
:1047B00003D00121084801F020FD7F1C042F06DAF8
:1047C000706C96F84C1038448842FFF6F8AE0BB087
:1047D000BDE8F08FB8780008380500204E6F2056ED
:1047E00061726961626C6573000000002A0000005C
:1047F0006F0000003E000000E57500084600000064
:104800004900000055000000420000005200000076
:104810003F0000003C00000010B5040023D0124807
:1048200001F01BFAA06808B1207998B1FFF7E2FB0C
:1048300021792068FFF738FE207901280FD002285F
:104840000DD02046FFF70EFC2046FFF7F3FC204674
:10485000FFF76CFDBDE81040034801F0C5BC2046E1
:10486000FFF79AFEF0E710BD380500202DE9FC4166
:10487000184801F0F2F91849164801F0C6FC174E25
:104880001448711C01F076FC124AC0B2032712F8DA
:10489000441F091A92781030C3B2102001EBD17175
:1048A000CDE90007C1F347055408A5F10801A4F1BB
:1048B0000C02C9B2D2B2074801F0ACFB731C22460D
:1048C0002946044801F028FCBDE8FC41014801F0FC
:1048D0008BBC000038050020127200086C0A002012
:1048E0002DE9F041254A506800280AD0017951B1DC
:1048F000022906D190F84C20016C914201DA80F82F
:104900004D10BDE8F08190F83C000028F9D0002758
:104910003E463D46904618E000EB8500446994B160
:1049200094F84E00C1070ED180070CD4E06808B19E
:10493000804740B1D8F80400006CB84201D1264647
:104940000BE07F1CFFB26D1CEDB2D8F8040090F8AC
:104950003C20AA42E0D8002ED3D03079032807D1DA
:10496000B16809B1306D884796F84E004007C8D449
:104970000020C8F8046030647064C2E73C03002083
:1049800070B50C460546FCF7A4FA00F07040B0F193
:10499000005F07D024F00040C0F1FF40C00F04BF0B
:1049A000204670BD284670BD2DE9FC4115460E46D7
:1049B000040011D086B1606870B1217A29B1012953
:1049C00030D0022933D003293BD00068676A5FB139
:1049D000FBF714FE3A460AE01DA229463046FEF7D0
:1049E0005DFB0020BDE8FC81FBF708FE1AA2CDE9C3
:1049F000000129463046FEF751FB206A80B1FBF7E3
:104A0000E7FB68B13046FBF7E3FB2D1A206AFBF7A2
:104A1000DFFBA84204D26A1E3046216AFBF7EDFB99
:104A20000120DFE70368626A22B90DA202E0036891
:104A3000626A22B129463046FEF730FBDDE709A263
:104A4000F8E7007808B108A300E008A308A2F1E79E
:104A50004E554C4C00000000252E32660000000030
:104A600025640000257500004F4E00004F464600AB
:104A70002573000013B54FF0FF3301226946024849
:104A8000FDF786FB00981CBD2C0400202DE9F041A9
:104A90008846A8B3B8F1000F33D085680AB90AE098
:104AA0002D686DB3296A59B34046FBF798FB00287F
:104AB000F6D120E02D681DB32E6A5FEA0804F9D014
:104AC000002EF7D0B44218D002E098B1641C761CD6
:104AD0002078FBF739FB07463078FBF735FB874238
:104AE0002078F2D0FBF730FB04463078FBF72CFB44
:104AF0008442DFD125B1286A10B12846BDE8F08193
:104B0000FFE70020FAE700000548017829B10021FD
:104B100001700449012008707047002070470000B0
:104B20006C0A00203C0300202DE9F0471F46DDE918
:104B30000965DDF820A09046894604002BD0542159
:104B4000FBF723FBC4F80090277100202064C4F811
:104B500010A0C4F808806064FF2084F84D000A2E7D
:104B600001D90A2000E0304684F83C00002D12D024
:104B7000002E10D000200AE004EB800255F820102F
:104B8000516155F8201001B10C61401CC0B294F87D
:104B90003C108142F0D8BDE8F08700002DE9F041DB
:104BA0000B3020F00706104D19E02068B04215D3F5
:104BB000B0420AD9871B201DD4F80480FBF7CAFA3B
:104BC000A019C0E90078286004E060682860201D12
:104BD000FBF7C0FA201D2660BDE8F081251D2C687A
:104BE000002CE2D10020F7E78803002010B560B167
:104BF00090F83C208A4208DD00EB810040690028E3
:104C000004D090F84E10C90701D0002010BDC06834
:104C100010B180470028F9D0012010BDFCF7C2FD7B
:104C2000FDF726FFFDF778FCFDF760FCFDF7C2FC01
:104C3000FDF700FDFDF79EFC00F0ECFAFEF7B2F880
:104C4000FDF74AFEFDF78EFE00F008FF00F052F877
:104C50000B4EFCF707FC0546002404EB840006EB32
:104C60008001087B40B108694A68281A904203D342
:104C700015B10D6188688047641C0A2CEDDBE8E7FC
:104C80000000002010B5FFF73FFF002804D100F01E
:104C90003FFE02490120087010BD00003C030020C7
:104CA00010B5FFF731FF002804D100F047FE02499C
:104CB0000120087010BD00003C03002010B5FFF774
:104CC00023FF002804D1FFF70BFE024901200870E2
:104CD00010BD00003C03002010B5FFF715FF0028B1
:104CE00004D100F073FE02490120087010BD0000DD
:104CF0003C030020FEB50024009401942346224684
:104D00007DA180480294FFF70FFF7E4FCDE900742C
:104D100000231A467CA107F154000294FFF704FF18
:104D200007F154013846FEF7A1FE07F15406CDE91C
:104D300000640323774A78A106F154000294FFF738
:104D4000F3FE06F15400042580F84E500146543815
:104D5000FEF78CFECDE900640323734A73A106F1CC
:104D6000A8000294FFF7E0FE06F1A800014680F8D3
:104D70004E50A838FEF77AFECDE900640323704A4E
:104D800070A106F1FC000294FFF7CEFE06F1FC00D4
:104D9000014680F84E50FC38FEF768FECDE900640D
:104DA00003236B4A6BA106F5A8700294FFF7BCFEC3
:104DB00006F5A870014680F84E503046FEF756FEC4
:104DC000CDE9007400231A4664A106F5D27002945E
:104DD000FFF7AAFE06F5D2713846FEF747FE06F544
:104DE000D270CDE90004012300225EA15430029468
:104DF000FFF79AFE06F5FC705D498164052180F895
:104E00004C1001465438FEF731FECDE90074002302
:104E10001A4658A106F513700294FFF785FE06F5B1
:104E200013713846FEF722FE06F51376CDE90064CD
:104E30000223002252A106F154000294FFF774FEEF
:104E40004B4906F15400F0318164032780F84C701F
:104E500001465438FEF70AFECDE900640223002221
:104E60004AA106F1A8000294FFF75EFE06F1A80031
:104E70004949816480F84C700146A838FEF7F6FD78
:104E8000CDE900640323454A45A106F1FC000294E4
:104E9000FFF74AFE06F1FC00014680F84E50FC3850
:104EA000FEF7E4FD414A002106F1540000F002FE45
:104EB0003E4A012106F1540000F0FCFD3B4A02216C
:104EC00006F1540000F0F6FD394A002106F1A80071
:104ED00000F0F0FD364A012106F1A80000F0EAFDDD
:104EE000334A022106F1A80000F0E4FDBDE8FE40CF
:104EF0000448FFF71BB800004D61696E204D656ED8
:104F000075000000CC05002052756E205461736B53
:104F100073000000255B00084D414E55414C204D6B
:104F200041524B494E470000995B0008545241439F
:104F30004B20504F494E542043454E54455200009B
:104F4000D95B0008526563762050617468000000E8
:104F5000155C000852657365740000005379737422
:104F6000656D000056696577205374617475730030
:104F7000FC0000205049442054756E696E670000A3
:104F80005370656564205049440000004D696C65AC
:104F900061676520504944008C020020CD5800080C
:104FA000526573657420504944000000AD510008FB
:104FB000455100082DE9F0478946040059D065683D
:104FC000002D56D0267A042E53D0617ADFF80C815A
:104FD000002031B101290AD0022918D0032938D183
:104FE0002CE056BB2868A16920F0004020E026B1E3
:104FF000012E04D0022E06D02BE0606929E0606902
:10500000FBF7A2FA25E06069FBF7A7FA21E016B1E9
:105010004FF07E501DE0D4E903102F68FBF76BF9C9
:10502000B0F5000F01DB2E4911E027F000402D49BB
:10503000FBF767F94146FFF7A3FC0AE04EB9286881
:1050400020F000424046824203DB10462649FBF72F
:1050500058F9B9F1000F01D180F000405EB1012E86
:105060001CD0022E29D0032E03D1287898B300201B
:105070002870BDE8F0872A6801461046FBF7E9F87A
:105080002860E168FBF7FEFA01D2E0682860216938
:105090002868FBF701FBECD220691AE0FBF762FA03
:1050A000296808442860E168884201DB014600E085
:1050B0002960206981420CDCDBE7FBF753FA2968A1
:1050C0000844E168814200DD08462169814200DA36
:1050D00008462860CDE7FFE70120C9E76F12833A51
:1050E0000AD7233CCDCC4C3DCDCCCC3D10B5FCF704
:1050F000B9F9124CE0601248007800281CD12078E1
:1051000058B1002020706068FFF786FB60680028B7
:1051100012D0816821B1006D8847606800280BD0EB
:105120000079012808D1D4E90210411AB1F57A7F3B
:1051300002D3A0600120207010BD00003C030020BD
:105140006C0A00202DE9FF410B4CA069FBF756FAD1
:10515000074688466069FBF751FA05460E46206906
:10516000FBF74CFA8DE8E00102460B4603A0FDF781
:1051700085FFBDE8FF810000E00000204D696C65FF
:105180006167652050494420757064617465643AB4
:10519000204B703D252E33662C204B693D252E3348
:1051A000662C204B643D252E33660A002DE9FF4115
:1051B0000B4CE068FBF722FA07468846A068FBF72D
:1051C0001DFA05460E466068FBF718FA8DE8E00107
:1051D00002460B4603A0FDF751FFBDE8FF8100002A
:1051E000E0000020537065656420504944207570CC
:1051F00064617465643A204B703D252E33662C2023
:105200004B693D252E33662C204B643D252E33669D
:105210000A00000003480068C16841F02001C16035
:10522000704700002C0400202DE9F04107460026BD
:10523000C8680C463546B0F57A7F5BD2401CE0600A
:105240002168A068095C5B2954D1401CA0602046FD
:10525000FEF762FC4CB1D4E90110884203D2226807
:10526000125C5D2A33D0884203D3A068401EA06040
:1052700040E0401E04F11008A0604046FEF7B2FD79
:1052800098B30EB3286045600546A068401CA06036
:105290002046FEF741FC2146284600F009FA30B3CB
:1052A0002046FEF739FC14B3D4E90110884203D23A
:1052B0002168095C2C29E0D06268904217D22168ED
:1052C000085C5D2813D102E006463546DDE7E0685C
:1052D000401EE06006B175602020C7E90260A0684A
:1052E000401CA0600120BDE8F081FFE716B1304608
:1052F000FEF744FD0020F6E7034610B50020024605
:10530000995CA1F13004092C01D830380AE0A1F1F0
:105310004104052C01D8373804E0A1F16104052CC3
:1053200008D857380844032A00D20001521C042A26
:10533000E6D310BD002010BD2DE9F84F4FF0000A54
:1053400080460C004FF02E09504655465646CDF883
:1053500000A03ED02768CFB3D4E9012122E07B181A
:10536000C35C342B1BD00ADCA3F12B03092B1CD20A
:10537000DFE803F0151B152D1B1515151500382B2F
:105380000DD006DC352B0AD0362B08D0372B0CD1AC
:1053900005E0392B03D0452B01D0652B05D16D1CC1
:1053A000401C14B10B189342D9D32169681C88475B
:1053B00007000ED0A16820682A4601443846FAF753
:1053C000C9FE07F805A07EB100200BE001E0012630
:1053D000E5E70020BDE8F88F395C2E2901D107F8F8
:1053E0000090401CA842F7D36946384600F08CFB79
:1053F000054600980E46874203D1616938468847C2
:10540000E7E7C8E90656144A144B28463146FBF72D
:1054100021F902D86FF0004108E00022104B284625
:105420003146FBF7FFF804D84FF00041C8F81410DC
:1054300005E028463146FBF7C2F8C8F814000821F9
:10544000C8F80C100099A068C91B0844A0606169E5
:10545000384688470120BDE70000C0FFFFFFDF415D
:105460000000E0C12DE9F04107460026C8680C465F
:105470003546B0F57A7F7BD2401CE060002C77D0B7
:10548000D4E90110884273D22168095C7B296FD16D
:10549000401CA0602046FEF73FFBD4E90110884283
:1054A00003D22268125C7D2A4FD08842A0F101000D
:1054B000A0605DD204F110084046FEF793FCE8B30B
:1054C0000EB3286045600546CCB3D4E90110401CFA
:1054D00088424AD2A0602046FEF71EFB214628469D
:1054E00000F052F858B32046FEF716FB28692862F0
:1054F00000202861D4E90110884236D22168095C75
:105500003A2932D102E006463546DDE7401CA0606C
:105510002046FEF701FB2146284600F0C9F870B18D
:105520002046FEF7F9FAD4E90110884203D2216837
:10553000095C2C29C0D06268904201E014E014E0BC
:1055400013D22168085C7D280FD1E068401EE0601E
:1055500006B175604020C7E90260A068401CA060E9
:105560000120BDE8F08103E016B13046FEF706FCED
:105570000020F6E7024A0348111F00F017B90000A7
:1055800074030020580C00202DE9F84F8146D1F813
:10559000088008684FF0000ACDF800A0D1F800C0DC
:1055A00000EB0804651C1CF80800641C0E465746F6
:1055B000222876D10021706807E05C2B04D1521CB0
:1055C00082426AD2491C641C641CA4EB0C02824215
:1055D00002D22378222BF0D1A4EB0C0282425CD2BF
:1055E0002078222859D10CEB0800201A401A316982
:1055F000401C8847070054D000973DE029785C297B
:1056000005D000986D1C00F8011B009034E00221C9
:10561000601B012841DB6878662814D008DC22284A
:105620001DD02F281BD05C2819D0622835D108E066
:105630006E280ED072280ED074280ED075282CD16A
:1056400012E0082200E00C22009800F8012B0090E4
:1056500011E00A22F8E70D22F6E70922F4E7009AA2
:1056600002F8010B009206E06A462146284601F046
:1056700053FD010011D00D44A542BFD3009981F81C
:1056800000A01021C9E903173068201A401CB0603F
:105690000120BDE8F88F04E0FFE717B171693846D3
:1056A000884715B13068281AB0600020F1E7000083
:1056B00070B50C0005465ED0216800295BD0A0685B
:1056C0006368021D9A4205D80844042231A1FAF702
:1056D000B1FD78B3A0686268411D0126914206D8E9
:1056E0002168052208442DA1FAF7A4FD28B3A0687B
:1056F0006268011D914206D821680422084429A14C
:10570000FAF798FDE8B1D4E90101814203D2226899
:10571000525C222A1DD0814221D22268525C2D2A5D
:1057200002D0303A092A1AD821462846BDE87040EE
:10573000FFF702BE0420E86006E0EE60A068401DAE
:1057400004E002206E61E860A068001DA0600120F6
:1057500070BD21462846BDE87040FFF715BF814265
:1057600003D22268525C5B2A07D0814203D22068B0
:10577000405C7B2807D0002070BD21462846BDE84C
:105780007040FFF751BD21462846BDE87040FFF745
:1057900069BE00006E756C6C0000000066616C7381
:1057A0006500000074727565000000002DE9F0418D
:1057B00090460D46FEF722FB04001ED010A1FEF716
:1057C00005FB07460FA12046FEF700FB06463846BC
:1057D000FEF7FFFA18B17869FAF7B6FE286030468E
:1057E000FEF7F7FA20B17069FAF7AEFEC8F80000CC
:1057F0002046BDE8F041FEF7C1BABDE8F0810000E7
:10580000780000007900000004480178002903D0E6
:1058100000210170FFF7AEBE704700007803002042
:1058200010B50E4A30B1012807D002280DD0032848
:1058300009D10DE04FF4006101E04FF480611046A2
:10584000FBF70AFE38B1002010BD4FF48051F6E797
:105850004FF40051F3E7012010BD0000000C01409F
:105860002DE9F04704008A4616D054F8047CD4F899
:1058700000903E1F564500D956462046FDF738FC9D
:1058800005468846324621465046FFF787F940B123
:10589000C0F80090BDE8F087BDE8F0470846FDF786
:1058A00055BC44E9017955B129686A18211F8A421B
:1058B00002D9611B091F2960C5F80480EAE7024A82
:1058C000C2F80080E6E700008803002008484FF097
:1058D0007E514160074981600749C1604FF07F51A7
:1058E0000161064941610649816106A000F0F4B8F2
:1058F000E0000020CDCCCC3D0AD7233CCDCC4C3EA3
:10590000CDCC4C3D50494420526573657421000054
:1059100009494868002809D00279022A07D190F97C
:105920004D20521C03D0FF2180F84D1070470069B4
:105930000028FBD0486070473C03002070B5224E21
:105940007068002826D00279022A11D190F94D10F2
:105950004B1C0DD0806C01EB810100EBC1040121D7
:105960002046FFF727FB2046BDE8704000F06CB9E9
:10597000002582B190F84C50002D0BD0016C6D1EAB
:10598000A94207DA491C0164426C121D914201DBF5
:10599000C91E416470BD00240FE000EB8400406923
:1059A00048B190F84E10C90705D1C06808B18047CA
:1059B00008B16D1CEDB2641CE4B2706890F83C1044
:1059C000A142EAD8D8E700003C030020114810B5F6
:1059D000406800281DD00179022911D190F94D109D
:1059E0004A1C0DD0806C01EB810100EBC104002149
:1059F0002046FFF7DFFA2046BDE8104000F024B94A
:105A0000016C002905DD491E0164426C914200DAF7
:105A1000416410BD3C0300200C4810B500780028FC
:105A200013D00C480A4A01680020FCF721FE044606
:105A30000948074A016854320020FCF719FE014664
:105A40002046BDE81040FCF755BF10BD50030020B4
:105A5000B00A0020700300207403002070B50021FC
:105A60001148FCF777FE114C114D234600222946C0
:105A70000D48FCF70FFF4FF0824631460A48FCF70D
:105A8000FFFE094800215430FCF764FE0648234617
:105A9000002229465430FCF7FDFE3146BDE8704037
:105AA00001485430FCF7ECBEB00A0020CDCCCC3D10
:105AB0006F12033C00280ED0836C002B0BD0002902
:105AC00009DB90F84C00884205DD01EB81001C21C8
:105AD00001EBC0001A50704710B5074C0122014677
