:020000040800F2
:1000000090330020050100087326000861220008D3
:1000100071260008870F0008992E000800000000D4
:100020000000000000000000000000009928000807
:10003000890F00080000000097280008AD2900087B
:100040001F0100081F0100081F0100081F01000810
:100050001F0100081F0100081F0100081F01000800
:100060001F0100081F0100081F0100081F010008F0
:100070001F0100081F0100081F0100081F010008E0
:100080001F0100081F0100081F0100081F010008D0
:100090001F0100081F0100081F0100081F010008C0
:1000A0001F0100081F0100081F0100081F010008B0
:1000B0001F0100081F0100081F0100081F010008A0
:1000C0001F0100081F0100081F0100081F01000890
:1000D0001F0100083D2E00081F0100081F01000835
:1000E0001F0100081F0100081F010008DFF810D0E1
:1000F00000F0F2FE0048004711470008AFF300800F
:10010000903300200648804706480047FEE7FEE798
:10011000FEE7FEE7FEE7FEE7FEE7FEE7FEE7FEE7B7
:100120000D2A0008ED000008202A04DB203A21FAFD
:1001300002F00021704721FA02F3D040C2F1200200
:100140009140084319467047A0F14101192900D890
:100150002030704740EA01039B0703D009E008C93B
:10016000121F08C0042AFAD203E011F8013B00F87C
:10017000013B521EF9D27047D2B201E000F8012BC8
:10018000491EFBD270470022F6E710B513460A4617
:1001900004461946FFF7F0FF204610BD421C10F838
:1001A000011B0029FBD1801A704710B5002200E026
:1001B000521C835C8C5CA34201D1002BF8D1D8B2D5
:1001C000E1B2401A10BD30B505460020034600E0FC
:1001D0005B1C934205D2EC5CC85C201A01D1002C58
:1001E000F6D130BD2DE9FF4F087883B09946FF283E
:1001F00005D0491C2D2804D00024002008E0002050
:100200000BE00124F9E700EB800003EB4000491C00
:100210000B78FF2BF7D104B14042002302931478EE
:1002200019461D462D2C01D02B2C04D1521C2D2CEF
:1002300013D000240294AA461478FF2C0FD00A256C
:10024000A3FB057801FB05814FF0000C03FB0C11AB
:10025000521CE3194AEB0101EEE70124EAE781446D
:1002600053EA010002D019F5C87F06DA039800218D
:10027000C0E9001107B0BDE8F08F0025AE4E2F4653
:10028000DFF8B882184600F0D2FDCDE90001B9F1DF
:10029000000002DAC9F1000400E004460023A74A86
:1002A0001AEB030B42EB045A12E0E00707D02A4690
:1002B00033463846414600F0C0FA074688462A468B
:1002C00033461046194600F0B8FA05460E4664104B
:1002D000002CEAD1DDE90001B9F1000F5A4653467E
:1002E00006DA00F035FD3A46434600F031FD05E000
:1002F00000F0A3FA3A46434600F09FFA029A0AB188
:1003000081F00041039AC2E90001B3E72DE9FF4FF4
:100310001F468DB0D7E901464FF0FF382E204546E5
:100320004FF000090B90B9696D1C0E988847396A27
:10033000824688470028F6D1BAF1FF3F0AD024F45C
:10034000D064002E11DDBAF12B0F08D0BAF12D0FB9
:100350000BD102E0404611B08DE744F48064B969E6
:100360006D1C0E9888478246761E6946600501D549
:100370002D2000E02B208DF8000001F1010B0DF184
:10038000200809E0B9696D1C0E98884782460F98CD
:1003900044F40074761E0560002E02DDBAF1300FC1
:1003A000F0D00B998A453ED144F0800406E00F99C5
:1003B000681CA9F1010944F400740860B9696D1C56
:1003C000761E0E98884782463028F0D02BE00B9995
:1003D0008A4505D1200603D444F08004761E18E037
:1003E000504602F0BDFE08B30DF11301761E44F431
:1003F00000748B4508D2AAF130000BF8010B2006DF
:1004000007D5A9F1010003E0200602D409F101009B
:100410008146A00502D50F99681C0860B9696D1C5A
:100420000E9888478246002ED1DC53E0002E51DD25
:10043000BAF1650F02D0BAF1450F4BD1A00549D5ED
:10044000B9696D1C24F44074761E0E988847824664
:10045000002E0CDD2B2804D0BAF12D0F07D144F467
:100460008074B9696D1C0E9888478246761EE00537
:1004700001D52D2100E02B2108F8011BCDF82C809F
:1004800021E00DF12901761E44F4007488450CD258
:10049000AAF1300010F0FF0088F8000002D10B999B
:1004A000884509D908F1010806E0E00501D524488E
:1004B00001E042F20F708146B9696D1C0E988847C1
:1004C00082460F980560002E04DD504602F048FE7B
:1004D0000028D6D1F9690E988847FF208BF80000D4
:1004E00088F800000020069007904B466A4608A94D
:1004F00006A8FFF777FEA00502D46FF001002AE7F7
:1005000014F0240F0AD0E00714D1DDE90612386890
:10051000031D3B600068C0E900120BE0DDE9060145
:1005200000F07CFA0146E00704D13868021D3A6009
:100530000068016028460EE7000014400000F03F0C
:10054000F1D8FFFFF0B480EA0102D40F4200B2EB11
:10055000410F02D20246084611464A0042D0C30D5E
:10056000DDB2C1F3C752AD1A202D35DAC1F3160141
:1005700041F4000204B15242C5F1200602FA06F12C
:100580002A411044B3EBD05F23D0C4B1012DA0EBBE
:10059000C35009DCF0BC4FF0004202EAC352DBB2A8
:1005A00000F5000000F049BB400000F1807000EB56
:1005B000C350A0F1807040EAD170490009E04908B9
:1005C00041EAC071A0EBC35000F50000400800EB09
:1005D000C350F0BC00F028BB6142012202EB410194
:1005E000001BF6E7F0BC704781F00041AAE780F0FD
:1005F0000040A7E780EA010210B502F00043400086
:1006000022D04A001FD0010E01EB1261C0F3560048
:10061000C2F3560240F4000042F40002A0FB0220A4
:1006200000047F39140400D0401C50EA124001D469
:100630004000491EC2B20C0604EBD010401C40081A
:10064000802A02D003E0002010BD20F00100002924
:1006500000DA0020184310BD30B480EA010202F035
:10066000004530F0004221F0004013D090B1C30D9E
:10067000D40DC2F31601C0F31600E41A41F40001D0
:1006800040F400027D34914201D3641C00E0490033
:10069000002C02DA30BC002070474FF40000002329
:1006A000914201D3891A034340084FEA4101F7D12F
:1006B00051B1914202D14FF0004105E002D24FF01A
:1006C000010101E06FF0010103EBC450284430BC8C
:1006D00000F0AABA420005D0C0F3C752524291427C
:1006E00001DC0020704700EBC15070472DE9FE4F40
:1006F000804681EA0300C00F0C46009021F00041C3
:1007000023F00045B8EB0200A94105D2404621463E
:1007100090461C460B46024623F00040104347D04B
:10072000270DC7F30A00C3F30A510290401A019043
:1007300040286BDAC3F3130040F4801B0098924604
:1007400020B10023D2EB030A63EB0B0B019859464F
:10075000C0F14002504600F0D8F906460D4650461A
:100760005946019A00F0E0F910EB080061410024BD
:1007700087EA115284EAE7731A4340D0009A62B3C1
:10078000019A012A4FEA075215DC001B61EB0201B6
:100790004FF0004202EA0752CDE90042001C41F549
:1007A000801132462B4600F085FA03B0BDE8F08F89
:1007B00040462146F9E7001B61EB0201001C41F5B0
:1007C000801300185B412018A2F5001747EB0301C6
:1007D00040EAD570B6196D4111E06D084FEA360652
:1007E00045EAC0754FEA0752001B61EB0201001C8D
:1007F00041F5801149084FEA300000195141324655
:100800002B4603B0BDE8F04F00F045BA0098012236
:1008100040000023D0EB020263EBE0730098214616
:100820004FEAE074B8EB000061EB0401E9E783F004
:1008300000435BE781F0004158E72DE9FE4F81EA74
:10084000030404F0004421F0004100944FF0000B39
:1008500023F0004350EA01045ED052EA03045BD067
:10086000C3F30A54C1F30A552C44A4F2F33401949F
:10087000A0FB0254C1F3130141F48011C3F313032D
:1008800043F4801301FB024400FB034E840A970AE1
:1008900044EA815447EA8357A4FB076802958D0A0E
:1008A00005FB07854FEA932C04FB0C542705029D9A
:1008B0004FEA065847EA1637B5EB08056EEB070C0A
:1008C000870E920E47EA811742EA8312A7FB0201C4
:1008D000B6EB0B0164EB00042B0D43EA0C335E18FE
:1008E00044EB1C50DA465146E7FB0201C5F3130402
:1008F0004FEA0B3343EA14534FEA0432019C43EAB4
:100900000603A4F10C040294009CCDE900B400F0AD
:10091000D1F903B0BDE8F08F00200146F9E7C10F1F
:1009200080EAE0700844CA079623002100F085B9E8
:1009300020F00040C10DC0F3160040F400007F29F4
:1009400001DA00207047962903DCC1F19601C84006
:10095000704796398840704770B5C1F30A5201F06C
:1009600000450024C1F3130140F2FF3341F480112C
:100970009A4201DA002070BD40F233439A42A2F25B
:10098000334203DC5242FFF7CFFB00E090402C43A0
:10099000F1D0404270BD00F0004230F000400AD07B
:1009A000C10D01F56071C0F3160042EA0151C208A1
:1009B00040071143704700200146704730B5041EC0
:1009C00071F1000404DB4FF00044404264EB01018C
:1009D000141E73F1000405DB1C464FF00043524225
:1009E00063EB04038B4208BF824230BD30B5041E66
:1009F00071F1000404DB4FF00044404264EB01015C
:100A0000141E73F1000405DB1C464FF000435242F4
:100A100063EB0403994208BF904230BD01F00043EC
:100A200030B421F0004150EA010206D00A0DA2F5CF
:100A30006072C1F31301002A02DC30BC0020704751
:100A4000440F44EAC104C100E01830BC00EBC250BE
:100A500000F0EAB8002801DBC0F10040002901DB0A
:100A6000C1F1004181427047002801DBC0F1004024
:100A7000002901DBC1F100418842704730B50B46C7
:100A8000014600202022012409E021FA02F59D42BE
:100A900005D303FA02F5491B04FA02F52844151E92
:100AA000A2F10102F1DC30BD2DE9F05F0546002026
:100AB00092469B4688460646814640241BE02846CF
:100AC000414647462246FFF72FFB53465A46C01A77
:100AD000914110D311461846224600F016F82D1AFF
:100AE00067EB01084F4622460120002100F00DF877
:100AF00017EB00094E41201EA4F10104DFDC48463B
:100B000031462A464346BDE8F09F202A04DB203ABE
:100B100000FA02F1002070479140C2F1200320FA50
:100B200003F3194390407047202A06DBCB17203A85
:100B300041FA02F043EAE07306E041FA02F3D040E2
:100B4000C2F120029140084319467047426842B101
:100B5000016811F8013B23B1521EC0E9001218468A
:100B600070470121C160881E704742685AB1C3684E
:100B7000016843B983688B4205D0491E521CC0E905
:100B80000012002070474FF0FF3070470FB4002371
:100B900000B589B00CA900910B996FF00042CB60B1
:100BA0001E4B06931E4B07930423CDE901321D4AC9
:100BB000089202466B460020FFF7A8FB09B05DF8DB
:100BC00014FB70B586B006464FF0FF300091CDE9BA
:100BD0000101002015460C4604903246694604A8DF
:100BE000FFF7D4FF02460498211825B108B1084642
:100BF00000E020462860049800280DD0002A02DD7D
:100C00000098884208D0081B0094CDE901043246C0
:100C1000694604A8FFF7BAFF06B070BD4D0B000887
:100C20006B0B0008FD0E00080029A8BF7047401C90
:100C3000490008BF20F00100704710B4B0FA80FCF2
:100C400000FA0CF050EA010404BF10BC704749B12F
:100C5000CCF1200421FA04F411FA0CF118BF01219F
:100C600021430843A3EB0C01CB1D4FEA00614FEA7F
:100C7000102042BF002010BC704700EBC35010444E
:100C80000029A4BF10BC7047401C490008BF20F0D9
:100C9000010010BC704710B5141E73F1000408DA8F
:100CA000401C41F1000192185B411A4301D120F030
:100CB000010010BD2DE9F04D92469B4611B1B1FAED
:100CC00081F202E0B0FA80F220329046FFF71DFF79
:100CD00004460F4640EA0A0041EA0B0153465A46D1
:100CE000084313D0114653EA010019D0C8F140025D
:100CF0005046FFF719FA05460E46504659464246F9
:100D0000FFF703FF084305D0012004E020463946E1
:100D1000BDE8F08D0020054346EAE0762C433743DA
:100D20000A986305E40AA0EB08000022FD0A44EAE1
:100D300047540A3002D500200146E9E701051019A1
:100D40006941DDE9084500196941BDE8F04DA2E7B8
:100D50002DE9F04D81EA030404F0004B21F0004539
:100D600014464FF0000A23F0004150EA050220D05B
:100D700054EA01021DD0C5F30A570246C5F3130316
:100D8000C1F31300C1F30A5640F4801543F48013F5
:100D9000A7EB0608101BD64608F2FD3873EB0500DA
:100DA00002D308F1010801E092185B41B8F1000F8D
:100DB00003DA00200146BDE8F08D00204FF48011D9
:100DC000064684460EE0171B73EB050705D3121B7E
:100DD00063EB050306434CEA010C49084FEA300077
:100DE00092185B4150EA0107EDD152EA030012D09C
:100DF00082EA040083EA0501084305D0101BAB41D9
:100E000006D20122002306E000224FF0004302E058
:100E10006FF0010253101AEB06004CEB085110EB77
:100E20000A0041EB0B01BDE8F04DFFF734BF0EB5F2
:100E300040F2334202920022CDE900221346FFF72E
:100E400039FF03B000BDC1F30A52C1F3130140F2F0
:100E5000FF3341F480119A4202DA002001467047C4
:100E600040F233439A42A2F2334202DC5242FFF78D
:100E70005BB9FFF74ABE70B5044601F0004500209B
:100E8000054304D14FF00045644265EB010103F0D6
:100E90000045284305D118464FF00043524263EB0A
:100EA0000003101B73EB010002D24FF0004009E079
:100EB00082EA040283EA01034FF000501A4301D191
:100EC0004FF0C0404FEA2062EFF3008162F31F61F0
:100ED00081F3008870BD0000064C074D06E0E06815
:100EE00040F0010394E8070098471034AC42F6D371
:100EF000FFF700F9B8720008D8720008C0B24FF4CA
:100F0000F05100F001B800007F2801D9002208E06C
:100F1000064A02EB5002C007127800D1120902F013
:100F20000F0201209040084070470000F471000853
:100F300070B58C1810F8015B15F0070301D110F89B
:100F4000013B2A1106D110F8012B03E010F8016BC8
:100F500001F8016B5B1EF9D12B0705D40023521E4B
:100F60000DD401F8013BFAE710F8013BCB1A921CB3
:100F700003E013F8015B01F8015B521EF9D5A142B1
:100F8000D8D3002070BDFEE7704772B6FEE710B5FB
:100F900090F821100022022905D00421816380F8F5
:100FA0002020012010BD01680B6823F00E030B60A8
:100FB00001680B6823F001030B6090F840300124B6
:100FC00004FA03F1C36B596080F8214080F82020B7
:100FD000104610BD10B590F821100024022903D04E
:100FE0000421816301243DE001680A6822F00E02B9
:100FF0000A6001680A6822F001020A601A4A016860
:10100000914201D1012121E0174A1432914201D1CC
:1010100010211BE0144A2832914201D1891515E0B4
:10102000114A3C32914201D189140FE00E4A5032EC
:10103000914202D14FF4803108E00B4A6432914270
:1010400002D14FF4801101E04FF08071064A083A56
:101050005160012180F82110002180F82010416B9F
:1010600001B18847204610BD0800024070B5044613
:1010700000F0FAF80546601C02D0044800780444E9
:1010800000F0F2F8401BA042FAD370BDD00000205F
:101090002DE9F84FDFF8A4910024A9F1040B2346B1
:1010A0004FF00F0809F1040AABF1040EBEE001276E
:1010B000A7403A40BA4272D1DFF884C14D68A5EB2F
:1010C0000C0665452BD00DDC032D34D005DC35B383
:1010D000012D19D0022D2FD11BE0112D16D0122D6C
:1010E0002AD119E0B6F5881F19D006DCB6F5803F85
:1010F00015D0B6F5801F1FD111E0B6F5001F0ED038
:10110000B6F5041F18D10AE0CB6815E0CB681B1DAB
:1011100012E0CB6808330FE0CB680C330CE08B682F
:101120002BB1012B4FF0080303D0476104E00423E7
:1011300002E0076100E00023FF2A01D8064601E033
:1011400000F104064FEA840501D9A5F120053768AE
:1011500008FA05FC27EA0C0703FA05F547EA050734
:1011600037604D68ED0060D5364DAE6946F001063A
:10117000AE61AD6924F0030605F001050095324D1E
:101180007719BE68A5072D0F08FA05FC26EA0C069C
:10119000DFF8B8C0604503D14FF0000C17E044E021
:1011A000DFF8ACC0604502D14FF0010C0FE0DFF872
:1011B000A4C0604502D14FF0020C08E0DFF898C0EF
:1011C000604502D14FF0030C01E04FF0040C0CFA23
:1011D00005FC4CEA060CC7F808C04D68D9F8006059
:1011E000ED024D4601D5164300E096432E604D6852
:1011F000DAF80060AD02554601D5164300E096438B
:101200002E604D68DBF80060AD035D4601D51643E6
:1012100000E096432E604D68DEF80060ED037546F1
:1012200001D5164300E096432E60641C0A6832FA2A
:1012300004F57FF43CAFBDE8F88F000008040140DE
:1012400000001110001002400000014000080140A1
:10125000000C01400010014000140140806808406B
:1012600000D00120704700000148806870470000EE
:10127000D000002070B5040025D094F83D00002572
:1012800020B984F83C50204600F04EF9242084F820
:101290003D002068016821F00101016020680168BB
:1012A00041F4004101602068016821F400410160BF
:1012B00000F0A6FA4D4B6168994201D84C4900E014
:1012C0004C49884201D2012070BD4B492268B0FBD5
:1012D000F1F1566826F03F060E43566062689A4266
:1012E00006D94FF4967251434FF47A72B1FBF2F182
:1012F0002268491C166A26F03F0631431162616874
:10130000994210D84900401EB0FBF1F2521CC2F3C2
:101310000B02042A01D2042022E0B0FBF1F0401CB1
:10132000C0F30B001CE0A268F2B301EBC10303EBB6
:101330000116431EB3FBF6F35B1C43F480431B050D
:1013400049D092B301EBC10202EB0111401EB0FB88
:10135000F1F0401CC0F30B0040F4804040F400402A
:101360002168CA694CF6FF739A431043C861D4E9F7
:10137000071001432068026822F0C0021143016097
:10138000D4E9030101432068826848F2FF339A439D
:1013900011438160D4E9051001432068C26822F03E
:1013A000FF021143C16001E00EE016E02068016811
:1013B00041F0010101602564202084F83D0025638F
:1013C00084F83E50002070BD01EB4106431EB3FB84
:1013D000F6F35B1CB3E70120C2E701EB4101401EBD
:1013E000B0FBF1F0401CC0F30B00B7E7A086010092
:1013F00080841E0000093D0040420F002DE9F84F97
:101400001F4690468A460446DDF82890FFF72CFFD9
:10141000054694F83D0020287FD119230122404938
:101420002046009500F0ADFF002876D194F83C00EE
:10143000012872D0012084F83C0020680168C907A7
:1014400003D1016841F0010101602068016821F4C5
:1014500000610160212084F83D00102084F83E00E6
:1014600000262664C4F824806785608D20852D4879
:10147000E0622B464A465146204600F009FF90B9EB
:10148000206841698069009036E02A464946204636
:1014900001F018F850B1206C042804D120680168CC
:1014A00041F4007101600120BDE8F88F606A216895
:1014B00000780861626A521C6262608D401E60851D
:1014C000208D401E80B2208521684B69DB435B077D
:1014D0000BD450B110780861606A401C6062608D66
:1014E000401E6085208D401E20852A4649462046A4
:1014F00000F01CFF0028CED1208D0028C5D154F863
:101500003D0B016841F400710160202004F81E09C0
:10151000E67766770020C7E7FFE70220C4E7000010
:10152000020010000000FFFF10B586B000210091FE
:1015300001910291039100681349884222D1134C12
:10154000A06940F00800A061A069694600F00800A9
:1015500004904FF4407000901220019003200390FB
:101560000B48FFF795FD0B49486840F0E06040F0FC
:1015700002004860E06940F40010E061E06900F4B6
:101580000010049006B010BD00540040001002404E
:10159000000C0140000001400248816802781144BB
:1015A00081607047D0000020074810B5016841F005
:1015B00010010160032000F075F80F2000F006F81C
:1015C00000F024F8002010BD0020024070B50D4D41
:1015D00004464FF47A712878B1FBF0F00A490968A3
:1015E000B1FBF0F000F0DEFA48B9102C07D200226F
:1015F0002146501E00F036F800206C6070BD0120BE
:1016000070BD0000D0000020DC0000200C4808B5B0
:10161000816941F001018161816901F0010100915D
:10162000C16941F08051C161C069064900F0805034
:101630000090486820F0E06040F00070486008BD0D
:101640000010024000000140002809DB00F01F02EA
:10165000012191404009800000F1E020C0F8001114
:1016600070470000F0B40E4B1B68C3F30223C3F1B4
:101670000704042C00D904241D1D072D01D20023CA
:1016800000E0DB1E012606FA04F56D1E0D409D40AC
:101690009E40761E164045EA0601F0BC01F028BCCB
:1016A0000CED00E0064A00F0070110684FF6FF035A
:1016B000184040EA012003490843106070470000C9
:1016C0000CED00E00000FA052DE9F0470D4604009E
:1016D00067D0DFF81881D8F8000000F00700A842B2
:1016E0000CD2D8F8001021F007012943C8F80010E7
:1016F000D8F8000000F00700A84252D120683C4E04
:10170000810712D5400703D5706840F4E06070602F
:101710002078000703D5706840F4605070607068EE
:10172000A16820F0F000084370602078C00727D03F
:101730006068012810D03168022810D0890700297C
:101740002FDA716821F0030101437160FFF78CFD0E
:10175000074641F288390CE031688903EFE78901D7
:10176000EDE7FFF781FDC11B494502D90320BDE824
:10177000F0877068616800F00C00B0EB810FF0D169
:10178000D8F80010404601F00701A9420BD90168C2
:1017900021F0070129430160006800F00700A8421A
:1017A00001D00120E3E72078400705D57068E168A3
:1017B00020F4E060084370602078000706D5706868
:1017C000216920F4605040EAC100706000F038F8F0
:1017D0007168084AC1F30311515CC84006490860AA
:1017E00006480068FFF7F2FE0020C0E70020024034
:1017F0000010024086660008DC000020D4000020B3
:101800000448054900684968044AC1F30221515C53
:10181000C8407047DC0000200010024096660008B7
:101820000448054900684968044AC1F3C221515C73
:10183000C8407047DC000020001002409666000897
:101840000E4B59680E4801F00C02042A11D0082AE8
:101850000FD10C48C1F38342C903805C0AD5596893
:10186000084AC1F34041921E515C054A5043B0FB07
:10187000F1F07047044948437047000000100240EF
:1018800000127A007666000800093D002DE9F84F45
:1018900004006FD02078BE4DC00747D06868C0F301
:1018A0008100012807D06868C0F38100022809D1AF
:1018B0006868C00306D52868800337D560680028AB
:1018C000E7D033E06068B0F5803F0BD010B1B0F5E1
:1018D000A02F11D0286820F480302860286820F4D8
:1018E000802002E0286840F480302860606888B179
:1018F000FFF7BAFC064609E0286840F4802028601B
:10190000F0E7FFF7B1FC801B642873D828688003D8
:10191000F7D50BE0FFF7A8FC064604E0FFF7A4FCB0
:10192000801B6428F1D828688003F7D42078DFF87A
:10193000648280074FF0010A4FF0000939D56868CA
:1019400010F00C0F07D06868C0F38100022809D19D
:101950006868C00306D42868800714D52069012868
:1019600008D110E02069B0B1C8F800A0FFF77CFCF6
:10197000064605E007E1FFF777FC801B0228C4D884
:1019800028688007F7D52868616920F0F80040EAE8
:10199000C10028600DE0C8F80090FFF765FC06461E
:1019A00004E0FFF761FC801B022823D82868800729
:1019B000F7D4207800072CD57748A169D9B1C0F8B1
:1019C00000A0FFF751FC064604E0FFF74DFC801B2A
:1019D00002280FD8686A8007F7D570484FF4FA518B
:1019E0000068B0FBF1F0009000BF0098411E00912C
:1019F000FAD20EE07CE0C0F80090FFF735FC064616
:101A000004E0FFF731FC801B022871D8686A800768
:101A1000F7D4207840075BD5E8690027C00008D4D8
:101A2000E86940F08050E861E869012700F08050E3
:101A300000905B480168C90511D40168834641F4F0
:101A400080710160FFF710FC064604E0FFF70CFC14
:101A5000801B64284CD8DBF80000C005F6D5E06890
:101A600001280AD008B1052813D0286A20F0010007
:101A70002862286A20F0040002E0286A40F0010091
:101A80002862E06841F2883B88B1FFF7EDFB06462B
:101A900009E0286A40F004002862EEE7FFF7E4FB63
:101AA000811B59455BD8286A8007F7D50BE0FFF703
:101AB000DBFB064604E0FFF7D7FB811B59454ED8F8
:101AC000286A8007F7D41FB1E86920F08050E861E8
:101AD000E069A8B36968C1F38101022946D00228F0
:101AE000484606D0C8F86000FFF7BEFB044639E060
:101AF00035E04746C8F86000FFF7B6FB064604E04D
:101B0000FFF7B2FB801B022829D828688001F7D490
:101B1000206AB0F5803F05D16868A16820F40030E4
:101B200008436860D4E908010843696821F4741126
:101B300008436860C7F860A0FFF796FB044605E01D
:101B400023E0FFF791FB001B022808D828688001DA
:101B5000F7D51AE0FFF788FB001B022802D9032003
:101B6000BDE8F88F28688001F4D40EE00128F7D092
:101B70006868226A00F48031914204D1616A00F4FD
:101B80007010884201D00120EAE70020E8E7000059
:101B9000001002400000424280044242DC0000206B
:101BA0000070004010B5401EB0F1807F01D30120CD
:101BB00010BD4FF0E02460610F21601701F098F92B
:101BC0000020A06107202061002010BD70B590F8B2
:101BD0003C20012A26D0012580F83C50022280F8C2
:101BE0003D2002685368946823F070060B68334305
:101BF00053600D4B02689A4208D0B2F1804F05D075
:101C00000A4B9A4202D00A4B9A4204D1496824F006
:101C100080031943916080F83D50002180F83C100A
:101C2000084670BD022070BD002C01400004004039
:101C30000008004000B585B000210091019102919B
:101C400003910068B0F1804F11D10A48816941F0D9
:101C5000040181618069694600F00400049003205A
:101C600000900220019003900348FFF711FA05B09D
:101C700000BD0000001002400008014070B504469D
:101C800090F83C0000260D4601280FD0012084F872
:101C90003C006AB1042A1DD0082A2FD00C2A3FD05C
:101CA0000126002084F83C00304670BD022070BD43
:101CB000206800F0F7FE2068816941F00801816129
:101CC0002068816921F004018161206881692A69A5
:101CD000114311E0206800F011FF2068816941F490
:101CE000006181612068816921F4806181612068DF
:101CF00081692A6941EA02218161D2E7206800F006
:101D00002BFF2068C16941F00801C1612068C169E9
:101D100021F00401C1612068C1692A69114311E001
:101D2000206800F045FF2068C16941F40061C1618D
:101D30002068C16921F48061C1612068C1692A6994
:101D400041EA0221C161ACE710B5040003D094F868
:101D50003D0010B107E0012010BD002084F83C00D8
:101D6000204600F01FF8022084F83D00211D206865
:101D700000F04EFE012084F8460084F83E0084F80E
:101D80003F0084F8400084F8410084F8420084F861
:101D9000430084F8440084F8450084F83D000020A6
:101DA00010BD000008B50068B0F1804F08D10548AB
:101DB000C16941F00101C161C06900F001000090FA
:101DC00008BD00000010024010B5044649B10429C6
:101DD0000AD008290BD094F8410001280AD001202C
:101DE00010BD94F83E00F8E794F83F00F5E794F84A
:101DF0004000F2E7022041B3042929D008292AD063
:101E000084F841000122206800F03EFE134920685A
:101E1000884203D1426C42F4004242642068884206
:101E200008D0B0F1804F05D00D49884202D00D494D
:101E3000884204D1816801F00701062903D00168B6
:101E400041F001010160002010BD84F83E00D9E797
:101E500084F83F00D6E784F84000D3E7002C014027
:101E6000000400400008004070477047F8B5016862
:101E700004460868CA684B6910F00F0F4FF0000560
:101E800059D003F0010602F49077374365D0C107BB
:101E900005D0D10503D5616C41F0010161644107B2
:101EA00005D5D90703D0616C41F002016164810757
:101EB00005D5D90703D0616C41F0040161640107C5
:101EC00007D502F02001314303D0616C41F00801D5
:101ED0006164616C00293AD0800604D5900602D571
:101EE000204600F0B6FE20684069616CC0F38010A7
:101EF000090700D460B3204600F084FE20684069E2
:101F0000400621D52068143050E8001F21F0400120
:101F100040E80012002AF5D1E06BA8B16D49416399
:101F2000E06BFFF757F8002811D0E06B416B01B070
:101F3000BDE8F040084783060FD593060DD520462F
:101F4000BDE8F84000F085BE2046FFF78EFFF8BDE3
:101F50002046FFF78AFF6564F8BD266B2023012E1B
:101F60007CD1C6067AD5D60678D508684868009030
:101F700048694FF00206400640D5E16B08684068AA
:101F80000004000CE8D0A28D8242E5D9E085886982
:101F900020282DD020680C3050E8001F21F48071DB
:101FA00040E80012002AF5D12068143050E8001FE4
:101FB00021F0010140E80012002AF5D12068143018
:101FC00050E8001F21F0400140E80012002AF5D13E
:101FD00084F84230256320680C3050E8001F21F05F
:101FE000100140E80012002AF5D1E06BFEF7CFFFA8
:101FF0006663A08DE18D401A81B22AE0A08DE18D4B
:10200000401A81B2E08D0028A6D00029A4D0206813
:102010000C3050E8002F22F4907240E80027002F87
:10202000F5D12068143050E8002F22F0010240E87A
:102030000027002FF5D184F84230256320680C304A
:1020400050E8002F22F0100240E80023002BF5D1C9
:1020500066632046FFF708FFF8BDFFE705062BD5AE
:10206000150629D594F841002128F5D1A068B0F5CE
:10207000805F01D12069B0B1206A411C21622168D2
:1020800000784860E08C401E0004000CE084E3D13E
:102090002068C16821F08001C1602068C16841F0FA
:1020A0004001C160D8E7206A0088C0F3080048609A
:1020B000206A801C2062E5E74006CDD55006CBD5CE
:1020C000CA68204622F04002CA6084F8413000F01D
:1020D000C6F8C1E7F52B000870B5040004D094F8E9
:1020E0004100002510B106E0012070BD84F8405089
:1020F000204600F023F8242084F841002068C168BD
:1021000021F40051C160204600F004FE20680169FE
:1021100021F4904101612068416921F02A01416167
:102120002068C16841F40051C1606564202084F8D2
:10213000410084F842006563002070BD30B585B071
:102140000024009401940294039400681849884282
:102150002CD11848816941F480418161816901F481
:1021600080410491816941F0040181618069124DCF
:1021700000F0040004904FF40070009002200190E1
:102180000320039069462846FEF782FF2815CDE913
:102190000004694628460294FEF77AFF00221146A1
:1021A0002520FFF75FFA2520FFF74EFA05B030BD76
:1021B00000380140001002400008014070472DE93E
:1021C000F843044690F841001F4615460E46202865
:1021D00002D00220BDE8F8838EB185B10020606492
:1021E000212084F84100FFF73FF8A5848146E5846B
:1021F000A0684FF02008B0F5805F02D003E0012016
:10220000E8E7206910B1354600260EE000250CE015
:102210008021204600F0DAFDA0B9BDB115F8010B10
:1022200021684860E08C401EE084E08C4B464FF013
:10223000000200970028EBD14FF04001204600F04B
:10224000C5FD40B184F841800320C3E736F8020B96
:10225000C0F30800E4E784F841800020BAE7704743
:10226000FEE701684A69D24352050FD46FF48062D9
:102270004A61002140F8301F2022427381730269B5
:1022800042F0040202610173012070470020704790
:10229000F8B50446C06A1E460D461746082807D002
:1022A000012805D010F5803F02D0206B122804D100
:1022B0002068016841F480710160134600224FF0EC
:1022C00001112046009600F05CF840B120680068DB
:1022D000C00502D54FF4007020640320F8BD2069CA
:1022E000B0F5804F0ED00620216800EAD51040F0EE
:1022F000F000086133463A460B49204600F085F865
:1023000078B902E005F0FE0000E0E8B2216808615B
:10231000054933463A46891F204600F076F80028E2
:10232000DCD00120F8BD00000800010070B51646A1
:102330000D4604461EE02046FFF793FF08B101203A
:1023400070BD681C16D0FEF78FFF801BA84200D816
:1023500085B920684069C04340070BD5002044F888
:10236000300F20216173A073216941F020012161A8
:102370002073E4E720684069C0434007DBD40020B5
:1023800070BD2DE9F0471E4690460D460446C1F348
:102390000747DDF8209026E0701C24D0FEF764FF8C
:1023A000A0EB0900B04200D8EEB92068012F16D08A
:1023B000806925EA00000004000C12D0002040458E
:1023C00011D1002044F8300F20216173A0732169DE
:1023D00041F02001216120730120BDE8F0874069B0
:1023E000E7E70120EBE72068012F0AD0806925EAA2
:1023F00000000004000C06D000204045CCD0002096
:10240000EBE74069F3E70120F7E72DE9F04798464D
:1024100016460D4604464FF000094FF0200AC1F35E
:10242000074723E020684069C043400515D4206871
:10243000016841F40071016021686FF480604861B7
:10244000C4F8309084F83DA084F83E90216C41F0AF
:102450000401216484F83C9020E0701C06D0FEF753
:1024600003FFA0EB0800B04203D816B1012F1ED025
:1024700020E02068012F14D0806925EA00000004C4
:10248000000C17D044F8309F84F80DA084F80E900B
:10249000216941F02001216184F80C900120BDE800
:1024A000F087406925EA00000004000CEAD12068AA
:1024B000406901E02068806925EA00000004000C02
:1024C000B0D1ECE770B516460D4604461EE0204636
:1024D000FFF7C7FE08B1012070BD681C16D0FEF7DB
:1024E000C3FE801BA84200D885B920684069C0435C
:1024F00000060BD5002044F8300F20216173A07333
:10250000216941F0200121612073E4E720684069DE
:10251000C0430006DBD4002070BD000000B585B0CC
:102520000020019003901248816941F020018161EF
:10253000816901F020010491816941F00401816108
:10254000816901F004010491816941F00801816110
:102550008069694600F0080004904FF470500090C4
:10256000022002900348FEF793FD05B000BD000075
:1025700000100240000C01400D4810B50B490160ED
:102580000C49416000214FF480428160C0E9031290
:1025900041618161C1610162FEF76CFE002803D0D8
:1025A000BDE81040FEF7F1BC10BD00000054004033
:1025B000B8010020801A060010B58AB000240794E4
:1025C0001C2168460894FDF7DEFD1A484FF0804153
:1025D00001602321C0E9011449F63F41C0E9031419
:1025E00080218161FFF7B0FB08B1FEF7CEFC0794B4
:1025F00007A910480894FFF7E9FA08B1FEF7C5FCEF
:102600006020CDE900040294002269460948049440
:10261000FFF734FB08B1FEF7B8FC04226946054811
:10262000FFF72CFB08B1FEF7B0FC0248FFF702FBF6
:102630000AB010BD0C0200200C4810B50A49016018
:102640004FF4E1314160002181600C22C160C0E99A
:1026500004128161C161FFF73FFD002803D0BDE88E
:102660001040FEF792BC10BD00380140540200201B
:10267000FEE7FEE7C2E9030192F848000028104691
:1026800001D000F01FB800F0B0B870B50546B1F841
:1026900050000C4638B125F00040616CFEF7DAF9C5
:1026A00003D2002070BD284670BD616CB5F5000FE7
:1026B000284603DBBDE87040FDF796BFBDE87040DB
:1026C000FDF740BF2DE9F0410446D4E90301FDF7D1
:1026D0008BFF21466061FFF7D8FF60610546A16965
:1026E000FDF782FF2168FDF785FF06462146284653
:1026F00000F058F828B161696068FDF77BFF054676
:1027000000E000250121A069FDF7E4FF6169FDF704
:102710006EFFE169FDF716FF0146A068FDF76AFF4D
:10272000074629463046FDF70DFF3946FDF70AFFFB
:102730000146206CFDF706FF616BFDF703FF206388
:10274000204600F03DF8A069E0616069A061206B5F
:102750002064BDE8F081000010B5002202604260F4
:102760008260C2600261426182610C4CC261C0E958
:1027700008240B4BC0E90A320263C0E90D24C0E90A
:102780000F32426480F84810A0F84A20A0F84C208C
:10279000A0F84E20A0F8502010BD000000803B455E
:1027A00000803BC510B5B1F84A202AB120F00040A6
:1027B000C96AFEF74FF901D2012010BD002010BDFB
:1027C00010B50446B0F84E0000280DD0A16B206B68
:1027D000FEF74AF901D2A06B05E0E16B206BFEF732
:1027E00039F901D2E06B206310BD2DE9F0410446B8
:1027F000D4E90301FDF7F8FE21466061FFF745FFCC
:102800000546606129462068FDF7F4FE064621462C
:102810002846FFF7C7FFA0B16169206AFDF792FE65
:102820002062B4F84C1061B1616AFEF71DF901D263
:10283000606A05E0A16A206AFEF70CF901D2A06A7D
:102840002062216A6068FDF7D5FE0546D4E90501DE
:10285000FDF7CAFE0146A068FDF7CCFE07462946F3
:102860003046FDF76FFE3946FDF76CFE616BFDF7F4
:1028700069FE20632046FFF7A3FF6069A061206B1B
:10288000BDE8F081C0E90E120121A0F84E1070479A
:1028900080E80E00704770477047000010B50021B7
:1028A0000448FFF791FABDE8104004210148FFF702
:1028B0008BBA00000C02002070B5094C0E4621684E
:1028C000FDF740FE054631466068FDF73BFE0446D5
:1028D000284600F01FF82046BDE8704000F040B8E0
:1028E0008001002070B5084C204600F013F8074D19
:1028F000284600F035F80648C0E90045BDE87040BC
:102900004FF4FA70FEF7B2BB0000BE42000048422E
:102910008001002070B50D49884201DD0C4603E0BE
:102920000B4CA04200D804462046FDF795FE094D09
:102930002946FDF75FFE2946FDF704FEFDF7F8FF87
:102940000549096848630548046070BD00003443C8
:10295000000034C30000FA440C0200208001002073
:1029600070B50D49884201DD0C4603E00B4CA042D6
:1029700000D804462046FDF76FFE094D2946FDF7B5
:1029800039FE2946FDF7DEFDFDF7D2FF054909684E
:1029900088630548446070BD000034430000F0C106
:1029A0000000FA440C02002080010020FEF7F4BD74
:1029B00030B58FB028216846FDF7E5FB14210AA841
:1029C000FDF7E1FB0120010400248DE813000490D1
:1029D0004FF4E010CDE90810022507956846FEF790
:1029E00055FF08B172B6FEE70F20CDE90A054FF496
:1029F0008060CDE90C4002210AA80E94FEF764FE27
:102A0000002801D072B6FEE70FB030BD704700005D
:102A1000F0B50268194C1A4D1A4E4FF08047A0428B
:102A200005D0B84203D0A84201D0B04203D122F071
:102A300070034A681A43A04205D0B84203D0A842A6
:102A400001D0B04203D122F44073CA681A434B69E3
:102A500022F080021A4302608A68C2620A688262B7
:102A6000A04201D109690163012141610169C907DE
:102A700003D0016921F001010161F0BD002C01408A
:102A8000000400400008004010B501F01F010123C0
:102A9000046A8B409C430462036A8A4013430362C6
:102AA00010BD000030B5026A036A23F0010303621F
:102AB0004368846924F073050C682C4322F00205F6
:102AC0008A682A430C4DA84206D122F00805CA683C
:102AD00042EA050222F0040207D14D6923F4407353
:102AE00045EA03058B6943EA05034360846149684D
:102AF0004163026230BD0000002C014030B5036A22
:102B0000026A22F010020262426884690D6824F4AD
:102B1000E64444EA05248D6823F0200343EA0513C4
:102B20000C4DA84206D1CD6823F0800343EA05137B
:102B300023F0400307D14D6922F4406242EA850246
:102B40008D6942EA8502426084614968816303625B
:102B500030BD0000002C014030B5026A036A23F446
:102B6000807303624368C46922F4007224F0730521
:102B70000C682C438D6842EA05220C4DA84206D110
:102B8000CD6822F4006242EA052222F4806207D175
:102B90004D6923F4405343EA05138D6943EA051355
:102BA0004360C4614968C163026230BD002C0140CA
:102BB00030B5046A026A22F4805202624268C36934
:102BC0000D6823F4E64343EA05238D6824F400549A
:102BD00044EA0534064DA84204D14D6922F48042EE
:102BE00042EA85124260C36149680164046230BDF3
:102BF000002C014010B5406A0021C185C184FFF757
:102C000034F910BD01680C3151E8002F22F49072A4
:102C100041E80023002BF5D10168143151E8002F61
:102C200022F0010241E80023002BF5D1016B0129BC
:102C300009D101680C3151E8002F22F0100241E85F
:102C40000023002BF5D1202180F8421000210163E0
:102C5000704708B590F84210222901D0022008BD23
:102C600081684FF48053994201D1026922B1826A8E
:102C700099421BD049B10AE00268816A5268C2F3E6
:102C800008020A80816A891C08E0016971B1016843
:102C9000496801F07F011170816A491C8162C18D10
:102CA000491E0904090CC18503D01BE0016849686D
:102CB000F1E70168CA6822F02002CA600168CA68A8
:102CC00022F48072CA6001684A6922F001024A61F6
:102CD000202180F8421000214163026B012A03D0B9
:102CE000FFF76CFA002008BD016301680C3151E860
:102CF000002F22F0100241E80023002BF5D10168DB
:102D00000A68D20602D50A6849680091818DFFF7EA
:102D1000ABF8E7E770B5044600680169E26821F4A2
:102D2000405111430161A168206901436069014379
:102D30002068C26841F20C639A430A43C26020686B
:102D40004169A26921F44071114341611E49206823
:102D5000884202D1FEF764FD01E0FEF751FD00EB71
:102D6000C00101EB0011606864228000B1FBF0F348
:102D7000B3FBF2F36FF018067343B1FBF0F5B1FB50
:102D8000F0F605EB8305322303EB0515B5FBF2F5F1
:102D9000B6FBF2F605F0F00505EB0615B1FBF0F613
:102DA000B1FBF0F0B0FBF2F06FF01801484306EB16
:102DB000800003EB0010B0FBF2F0216800F00F0080
:102DC0002844886070BD0000003801402DE9F843B8
:102DD0001F4690460D460446089E23E0701C21D0F5
:102DE000FEF742FAC01BB0421AD8CEB12068C168C3
:102DF000490717D5802D15D0402D13D00168C94340
:102E000009070FD401680025406800902046FFF7AD
:102E1000F9FE0820606484F840500120BDE8F88382
:102E20000320FBE72068006835EA000004D000209A
:102E30004045D3D00020F1E70120F9E7124830B433
:102E4000006880061BD51048001D00680F4AC1B2FB
:102E50005170546840F2FF70002384420EDA5068CB
:102E60000B4C2518401C506029707D2907D1207813
:102E70007B2803D15068235401201070536030BC6C
:102E80000448FEF7F3BF000000380140C8000020EE
:102E90009C02002054020020FEE700000FB4054B06
:102EA00010B503A9044A029800F062F910BC5DF85D
:102EB00014FB000041440008AC0100200FB47CB5B5
:102EC0000C0009AD01D0611E00E00021CDE9000138
:102ED000064B6A462946089800F04AF9002C02D0B1
:102EE000009A002111707CBC5DF814FB7738000853
:102EF0000907090E002804DB00F1E02080F8001427
:102F0000704700F00F0000F1E02080F8141D7047BA
:102F100030B528B1144C031F002021680A4605E093
:102F2000084630BD9A4203D810465268002AF9D1AB
:102F3000002800D041680BD00468A3EB0005A5422F
:102F400004D11B681C440346046002E0436000E0B7
:102F500023603AB11C68D51AA54203D115682C44E8
:102F60001C6052685A6030BDB00100202DE9F04766
:102F700082460F4C10480D4E0E4F001B4FF00008BC
:102F800020F007054FF0010900221146504601F0DC
:102F900097FB002802D1306810B10020BDE8F0870F
:102FA0003C60C4E90058C6F80090EDE7B401002089
:102FB00094130020B00100209023002002E008C8F4
:102FC000121F08C1002AFAD170477047002001E0A3
:102FD00001C1121F002AFBD1704700002DE9FF5FDD
:102FE00082B00021DDE90430020DDDF840B003437A
:102FF00018D044F61050A2F2FF3242431514119833
:1030000001281FD0A5EB0B00401C5FEA000A4FF01F
:1030100000064E4FDFF83891B046504615D5CAF13C
:10302000000413E0119801244AA3012801D16FEA9A
:103030000B010298119AC0E90031C0E9024206B0C2
:10304000BDE8F09FCBF10000DFE704460021404AD5
:10305000491842EB0450CDE9001012E0E00707D018
:1030600032463B4640464946FDF7E7FB80468946E7
:1030700032463B4610461946FDF7DFFB06460F4633
:103080006410002CEAD1DDE90401DDE90023BAF186
:10309000000F06DAFDF7D1FB42464B46FDF7CDFBAC
:1030A00005E0FDF755FE42464B46FDF751FE04464E
:1030B0000E460022284BFDF799FC03D84FF0FF3055
:1030C000014607E00022254B20463146FDF70EFB66
:1030D000FDF7B9FE102409E0002C0ADB0A220023C8
:1030E000FDF7E2FC039B30321A55641E50EA0102E0
:1030F000F2D1641C039AC4F111031444119A012AF9
:1031000003D0012208430DD10AE0084304D0002077
:103110004FF0110B119072E7A3EB0B056D1E0DE044
:103120005B4504DD4FF0000205F1010504E003DA20
:103130004FF00002A5F10105002AECD00298119988
:10314000C0E90231C0E9004579E700000000144001
:103150000000F03F300000000000F0430000E03FBE
:1031600030380A2801D20120704700207047000043
:103170002DE9FF4F95B09A46884606460025EEE1B8
:10318000252877D100242746F94A0121039400E03D
:10319000044316F8013F203B01FA03F01042F7D137
:1031A00030782A2811D06FF02F033078A0F1300248
:1031B000092A16D8039A44F0020402EB820203EBB8
:1031C00042021044761C0390EFE758F8042B039258
:1031D000002A03DA504244F40054039044F00204FD
:1031E000761C30782E2816D116F8010F44F004040E
:1031F0002A280DD06FF02F023078A0F13003092B70
:1032000009D807EB870302EB4303C718761CF3E7E3
:1032100058F8047B761C30786C280FD006DC4C28DC
:1032200017D068280DD06A2814D104E0742810D073
:103230007A280FD10DE044F400140AE044F480141D
:1032400001E044F440147278824202D104F5801403
:10325000761C761C307866280BD013DC582877D083
:1032600009DC002875D04528F6D04628F4D0472838
:103270001AD193E118E0632835D0642879D0652805
:1032800012D18BE1702873D008DC6728F1D069284F
:103290006FD06E280DD06F2806D1ACE073282CD0EB
:1032A000752874D0782853D05246179990476D1CD2
:1032B00054E1C4F30250022809D003280DD0D8F8F5
:1032C000001004280DD00D6008F1040846E1D8F87C
:1032D0000010EA17C1E90052F6E7D8F800100D8097
:1032E000F2E70D70F0E718F8041B8DF800100020CD
:1032F0008DF80100EB46012003E058F804BB4FF0C5
:10330000FF3061074FF0000102D40DE009F1010127
:103310008946B9420FDA8145F8DB1BF8091000290C
:10332000F4D108E009F1010189468142FADB1BF87A
:1033300009100029F6D103985346A0EB090721464E
:103340003846179A00F080FA284400EB090507E098
:1033500044E008E10DE01BF8010B52461799904735
:10336000B9F10109F7D2534621463846179AF2E0DF
:1033700039E00A21C4F302524FF0000B0091022AF7
:1033800006D058F8040BC117032A09D00AE023E03D
:1033900008F1070020F00702F2E80201904605E07C
:1033A00000B2C117042A01D140B2C117002906DAC0
:1033B0000A460021404261EB02012D2202E0220573
:1033C00004D52B228DF80420012203E0E20701D06E
:1033D0002022F7E7914657E00A2100E010214FF044
:1033E000000B00910BE010214FF0000B44F004049F
:1033F0000827009103E008204FF0000B0090C4F371
:103400000252022A05D058F8040B0021032A08D0E2
:1034100008E008F1070020F00702F2E802019046F8
:1034200003E080B2042A00D1C0B24FF000092207A5
:103430002AD53278702A07D0DDF800C08CF0100C45
:103440005CEA0B0C05D00EE040228DF8042001222E
:1034500008E050EA010306D030238DF804308DF8DF
:10346000052002229146009B83F0080353EA0B03D8
:103470000AD150EA010201D1620705D530228DF848
:1034800004204FF001097F1E3278582A04D039A257
:103490000C920CAA02920BE03BA2F9E75B46009A61
:1034A000FDF702FB0C9B9B5C029A521E029213706A
:1034B00050EA0102F2D1029804A9081A00F1200B87
:1034C000600702D524F4803400E001275F4502DD67
:1034D000A7EB0B0000E0002000EB0B01009003982D
:1034E0004944401A0390E00306D453462146179AF4
:1034F000039800F0A9F90544002706E001A8524608
:10350000C05D179990476D1C7F1C4F45F6DBE003AB
:103510000CD553462146179A039800F095F90544B7
:1035200004E030205246179990476D1C0099481EC0
:1035300000900029F5DC08E00298029952460078D4
:10354000491C0291179990476D1CBBF10001ABF12A
:10355000010BF1DC5BE100F065F90544761C307885
:1035600000287FF40DAE19B02846BDE8F08F0000AA
:103570000928010030313233343536373839616249
:10358000636465660000000030313233343536370D
:10359000383941424344454600000000600700D4EA
:1035A000062708F1070020F00700F0E80223804614
:1035B00003F0004C5FEA0C0001D097A009E0200561
:1035C00001D596A005E0E00701D095A001E0AFF29B
:1035D0004C001390307823F0004365280CD006DCB3
:1035E000452809D046281DD047287FD13BE06628D2
:1035F00018D067287AD136E00021112F01DB112085
:1036000000E0781CCDE9000104A90CA8FFF7E6FC56
:10361000DDE90D010C9A4FF0000B07F10109109242
:1036200000914EE04FF000400097CDE9011004A951
:103630000CA8FFF7D3FCDDE90D020C9B0F994FF0AE
:10364000000B91461093009211B9791C00EB01090F
:10365000B7EB090003D4C0F1FF3B07F10109A9EB67
:103660000700019042E0012F00DA01270021112F0D
:1036700001DD112000E03846CDE9000104A90CA8C5
:10368000FFF7ACFCDDE90D010C9A00914FF0000B47
:10369000B946109221070FD4009A4A4503DA9146A1
:1036A00001E0A9F10109B9F1010F05DD109AA9F1B5
:1036B0000101515C3029F4D0B84202DA10F1040F54
:1036C00003DA0121CDE9011010E0002803DC834476
:1036D000A9EB000102E0411C494500DD8946A0EB51
:1036E0000B00401C01904FF000400290200705D4D1
:1036F0000198484502DB4FF0FF30019000208DF823
:103700004B0002980DF14B07B0F1004F25D002207D
:103710000C902B200D90029800280CDA4042029069
:103720002D200D9007E00A210298FDF7A7F930310E
:10373000029007F8011D0C99481E0C900029F2DC3C
:1037400002980028EFD1791E0D980870307800F0AB
:10375000200040F0450007F8020D11A8C01BC01D55
:1037600002901398007800B1012000EB0901019844
:1037700001EBE071029801440398401A401E039047
:10378000E00306D453462146179A039800F05CF8EC
:1037900005441398007818B15246179990476D1C4C
:1037A000E00323D553462146179A039800F04CF8BE
:1037B00005441BE0BBF1000F07DB0098584504DD12
:1037C0001098179910F80B0001E017993020524615
:1037D000904701980BF1010B401E05F10105019086
:1037E00004D12E205246179990476D1CB9F1000163
:1037F000A9F10109DEDC05E017F8010B5246179923
:1038000090476D1C0299481E02900029F4DC534633
:103810002146179A03989EE62D0000002B00000019
:10382000200000002DE9F041044600251E46174601
:10383000880404D405E039462020B0476D1C641E7E
:10384000F9D52846BDE8F0812DE9F0410446002570
:103850001E469046C80301D5302700E02027880483
:1038600004D505E041463846B0476D1C641EF9D5C5
:103870002846BDE8F0814A68002A06D00A68531C31
:103880000B6010704868401E4860704770B5044671
:10389000FDF7EAFC0A4E05463068281A64280ED364
:1038A0000848844202D101F0ADFB05E005482C3008
:1038B000844201D101F056FB00F06CFF356070BD11
:1038C000E40000209C0A00200F4910B5884202D174
:1038D00001F098FB13E00C492C31884202D101F031
:1038E00041FB0CE008495831884202D100F044FD08
:1038F00005E005498431884201D101F0C5FABDE8EF
:10390000104000F047BF00009C0A002010B530B105
:10391000036823B1D0E90121914201D204E00020E3
:1039200010BD491C816020B1914202D25C5C202C08
:10393000F7D99142F4D1491E816010BD00EB81009E
:10394000C260704770B504460079A1688847014697
:10395000E078420702D02288521C2280B1EBD01FAF
:103960000BD04FF0005202EBB0104FEAB06082066D
:10397000E070520F04D061F3C71020F03800E070FF
:10398000C0B200F007010025062972D2DFE801F07D
:10399000031D3D7BB199C0F38011B1EBD01FA0781E
:1039A00020F0F0000ED1A070E16809B120468847F0
:1039B0002580A07820F00F00401CA070E0787CE00B
:1039C000E07070BD8030A07070BDC0F38011B1EBAD
:1039D000D01F09D0A07820F0F0001030A07021692D
:1039E000A9B3204688475FE020881028ECD9A0784A
:1039F00020F0F0005030A070216A09B120468847BD
:103A0000E07820F00700401DDAE7C0F38011B1EB49
:103A1000D01F1DD1A07820F0F000A070E16809B19E
:103A200020468847A078C143090706D04FF080514F
:103A300001EB30104FEA3070A070616909B1204687
:103A400088472580E07820F00700C01CB8E72BE00D
:103A500020880A28B8D9A07800F00F01012902D0E7
:103A6000022907D044E020F0F0003030A070A169B6
:103A700005E03EE020F0F0004030A070E16991B335
:103A80002046884734E0C0F38011B1EBD01F11D03D
:103A9000A07820F0F0001030A070216909B1204614
:103AA000884720880A2823D22580E07820F0070064
:103AB000801C85E721880A2986D920F00700401C50
:103AC0007EE7C0F38011B1EBD01FA07820F0F000AA
:103AD0000AD16030A070616A00293FF475AF2046BA
:103AE000BDE87040084703E01030A0702169C6E7C8
:103AF000E07820F0070063E72DE9F0410F461E460D
:103B0000154604462C21FCF73EFBA07820F0F0007F
:103B10008030A070A760E0783DB120F0800065F3B0
:103B20008610E0702671BDE8F08140F08000F6E775
:103B3000074B19680A4605E0814202D14FF0FF3079
:103B40007047896A0029F7D18262186000207047A7
:103B500078010020054810B5046803E02046FFF70F
:103B6000F1FEA46A002CF9D110BD000078010020FC
:103B70002DE9F04104460027104E1BE0A08925687E
:103B8000C0050BD4A06820B1FFF7F2FFA089C005E3
:103B900004D4206910B1716888472761A089800525
:103BA00004D4206A10B17168884727627168204682
:103BB00088472C46002CE1D1BDE8F081900100201F
:103BC000002200F049BC002803D0007B082801D067
:103BD000002070470120704710B5016828208847F1
:103BE000040002D02821FCF7CEFA204610BD0022A6
:103BF000114600F06FB800002DE9F04788B00F467D
:103C000006469A4615461C216846FCF7BCFA2F4822
:103C10000024002E0460446055D08146E7B300962E
:103C2000CDE90174D9E90212D9F810000491CDE967
:103C3000052009F10800FFF7CFFF5FEA00082BD04D
:103C400000986F4608B1029808B100200CE0019876
:103C5000042808D903221EA10098FCF7B4FA10B971
:103C60000298C01C02903846FFF750FE01464046BD
:103C700000F0FCFF68B1BAF1000F13D06846FFF7FF
:103C800045FEDDE90101814203D202990098405CC2
:103C900040B14046FFF76CFFDDE9011088420AD2CF
:103CA00004460BE01DB10299009808442860404684
:103CB00008B0BDE8F087081E00D0441E0DB13019D1
:103CC0002860C9E900640020F2E7000088010020B4
:103CD000EFBBBF0070B515460E46040009D0FCF7D7
:103CE0005DFA411C2B4632462046BDE87040FFF786
:103CF00083BF002070BD000010B5044C606001F06F
:103D000081FC6068BDE8104000F0EEBA7001002050
:103D10002DE9FC478246254801F036FA244923481C
:103D200001F0B5FC5146214801F066FC1F4AC0B2C3
:103D3000142712F8441F091A927801EBD17114303C
:103D4000C1F3470500F0FF09A5F10A01540801F08D
:103D5000FF080320A4F10E01CDE90070CEB24B465E
:103D6000721C08F10101114801F096FB01210F4876
:103D700001F085FC0420CDE900704B4632464146F7
:103D80000A4801F016FB0021084801F078FC534670
:103D900022462946054801F001FC0121034801F0B3
:103DA0006EFCBDE8FC47014801F060BC540E0020E9
:103DB0009E66000870B506460C480D4910F8445F31
:103DC00084780A4801F063FC3146084801F014FC8D
:103DD000C0B22A1A02EBD270093462083346BDE839
:103DE0007040C0F34701014801F0D8BB540E0020D9
:103DF000446D00087CB51A480022114610F8445F53
:103E000084780220CDE900402B46154801F044FBA0
:103E1000AE1EB3B209220121114801F058FAE01F89
:103E200082B2B3B201210E4801F051FA02221146CA
:103E30000B4801F0A7FAED1EA9B20222084801F0D2
:103E4000A1FAE41EA2B20221054801F09BFA02B0D9
:103E5000A2B2A9B2BDE87040014801F093BA0000D7
:103E6000540E00202DE9FC47064690F83C0038B17E
:103E70003249334801F00BFC0024DFF8C49054E0D1
:103E8000BDE8FC472FA0FFF795BF04EB440000EB13
:103E9000C40530681135B84201D1012000E000208E
:103EA0005FEA00081CD00121254801F0E8FB012150
:103EB0000920CDE90001B9F844000221001F83B2B6
:103EC000A5F1080082B21E4801F073FA00211C48D7
:103ED00001F0D5FBAAB21EA30421194801F05EFB34
:103EE00006EB8707AAB278690C218368144801F0B1
:103EF00055FB786990F83C1021B9C16811B990F868
:103F0000440040B1B9F84400AAB2083881B210A305
:103F10000B4801F043FBB8F1000F03D00121084822
:103F200001F0ADFB641C042C05DA7068071996F8E3
:103F30003C008742A9DBBDE8FC870000446D000817
:103F4000540E0020456D707479204D656E7500002B
:103F50003E0000002DE9F8430546334810F8444F71
:103F6000867895F84600012859D0022857D095F850
:103F70003C70042F56DDA6F11208A4F102091FFAC5
:103F800088F31FFA89F10B22274801F00FFBB000DC
:103F9000483890FBF7F0022800DA0220A8EB000175
:103FA0006A6880B24A43391F92FBF1F10B318AB241
:103FB00000901FFA89F101231B4801F0EEF86868B0
:103FC000002811DD201F81B20C22174801F0DAF918
:103FD000E01E81B20B22144801F0D4F9601F81B2B7
:103FE0000B22114801F0CEF96868001DB84219DAB9
:103FF000A6F1090082B2201F81B20B4801F0C2F97C
:10400000E01E083E81B2B2B2074801F0BBF9641F5E
:10401000B2B2A1B2BDE8F843034801F0B3B995F8D4
:104020004470A6E7BDE8F883540E00207FB504462F
:104030002C48012110F8446F85782A4801F01FFBB5
:1040400005200090B01E83B2A81F82B2012125482E
:1040500001F0A3F80021234801F011FB2249214877
:1040600001F015FB94F84600012825D0022823D042
:1040700094F83C00002815DD009023681BA20C2159
:1040800001A85B1CFEF71AFF01A9164801F0B4FA5B
:10409000C0B2A91E301A8AB2C01E81B201AB11484B
:1040A00001F07CFA94F84600012808D0022808D0D4
:1040B000206940B10FA307E094F84400DAE70EA3AB
:1040C00002E00EA300E00FA3AD1EAAB20321054833
:1040D00001F064FA04B00121BDE87040014801F02C
:1040E000CEBA0000540E0020716A000825642F2506
:1040F0006400000053554200564152004544495463
:1041000000000000524F4F540000000038B5054633
:104110001548012190F8444001F0B1FA07200090C1
:10412000A01E83B2012211460F4801F036F800218B
:104130000D4801F0A4FA0D490B4801F0A8FA2946F0
:10414000094801F059FAC0B2211A01EBD170C0F34D
:1041500047012B460722044801F020FABDE8384009
:104160000121014801F08BBA540E0020716A000849
:104170002DE9F04F044690F8440087B048B150490B
:10418000504801F084FA00274FF0010BDFF834A10A
:104190008BE007B04CA0BDE8F04FFFF70BBE07EB7C
:1041A000470000EBC705206C113500287AD050F885
:1041B0003600002876D094F94500411C03D0B04267
:1041C00001D1012000E0002080462068B04201D1EA
:1041D000012000E000208146B8F1000F19D0012134
:1041E000384801F04CFA0921CDE9001BBAF8440027
:1041F0000221001F83B2A5F1080082B2314801F00C
:10420000D8F800212F4801F03AFAB9F1000F11D186
:104210001BE0B9F1000F18D00921CDE9001BBAF855
:1042200044000221001F83B2A5F1080082B2254894
:1042300001F032F9B8F1000F01D027A300E027A365
:10424000AAB204211F4801F0A9F9206CAAB20C21DE
:1042500050F836301B4801F0A1F90421206C01EB25
:10426000C60140580068FCF796FBCDE900011CA28E
:10427000102102A8FEF722FE02A9124801F0BCF9A3
:10428000BAF84410C0B2081A001F81B2AAB202AB39
:104290000C4801F083F9B8F1000F03D0012109485F
:1042A00001F0EDF97F1C042F06DA6068C61994F856
:1042B00044008642FFF673AF07B0BDE8F08F000000
:1042C000446D0008540E00204E6F205661726961E3
:1042D000626C6573000000002A0000003E000000D0
:1042E000252E32660000000010B50446134800F089
:1042F0004BFFE06810B194F84600A8B1FFF77AFDD3
:1043000094F84610A068FFF701FF94F846000128D2
:104310000FD002280DD02046FFF7A4FD2046FFF75E
:1043200019FE2046FFF782FEBDE81040034801F069
:104330009DB92046FFF71CFFF0E70000540E002057
:104340002DE9F0410B4D0E460746002404EB840096
:10435000394655F82000FBF728FF20B1641C0A2CD1
:10436000F4DBBDE8F08104EB840005EB800006730C
:10437000F7E70000000000200A4A506890F8461055
:1043800029B1022902D1017880F84510704790F8D0
:104390003C100029FAD0016800EB810040695060B0
:1043A000704700007001002003484068C168002980
:1043B00001D0002008477047700100202DE9F0412E
:1043C00014461D4606460F46FCF755FD00F07040AA
:1043D000B0F1005F0FD0201C18BF0120284320F04F
:1043E0000040C0F17F6000F1E040C00F02BF2046F6
:1043F0002946BDE8F08130463946BDE8F0812DE917
:10440000F04114461D4606460F46FCF734FD00F009
:104410007040B0F1004F0FD0201C18BF012028437E
:1044200020F00040C0F17F6000F1E040C00F02BF0B
:1044300020462946BDE8F08130463946BDE8F08186
:1044400013B54FF0FF33012269460248FDF7B7FE6E
:1044500000981CBD540200202DE9F0418846A8B305
:10446000B8F1000F33D085680AB90AE02D686DB342
:10447000296A59B34046FBF798FE0028F6D120E0A0
:104480002D681DB32E6A5FEA0804F9D0002EF7D01C
:10449000B44218D002E098B1641C761C2078FBF777
:1044A00053FE07463078FBF74FFE87422078F2D064
:1044B000FBF74AFE04463078FBF746FE8442DFD124
:1044C00025B1286A10B12846BDE8F081FFE7002039
:1044D000FAE70000FEB500243A4804260094CDE92E
:1044E00001602346224638A13A4800F0B9F8354821
:1044F000384D10380095CDE9016000231A4636A1E9
:1045000005F1480000F0ACF82E490422103105F105
:10451000900000F0D0F8CDE900540123314A32A1D7
:1045200005F19000029400F09BF8264905224031E5
:1045300005F1D80000F0BFF8CDE9005402230022B5
:104540002DA105F1D800029400F08AF81D4905223A
:10455000403105F5907000F0AEF8CDE9005402232B
:10456000002229A105F59070029400F079F84835F1
:10457000CDE900540023284A28A105F59070029443
:1045800000F06EF8CDE900540023284A28A105F573
:10459000B470029400F064F8CDE900540023284A76
:1045A00028A105F5D870029400F05AF8CDE900541E
:1045B0000023274A27A105F5FC70029400F050F86B
:1045C000FEBD0000F80000204D61696E204D656E53
:1045D000750000004C0B002052756E205461736B07
:1045E0007300000071660008566965772056617295
:1045F0006961626C657300005365742050696420C2
:104600005370656564000000536574205069642030
:104610004D696C6561676500B54E0008526563655C
:104620006976652043656E7465720000E94E000886
:10463000526563656976652050617468000000000A
:104640001D4F000872756E205461736B303100008D
:104650004D4F000872756E205461736B303200004C
:104660002DE9F0410446DDE907560020069F206051
:104670006060FF2084F84500C4E9021284F84630E7
:10468000276184F83C50282104F11400FBF77BFDDE
:10469000002E0ED0002D0CD0002106E056F821008F
:1046A00004EB8102491CC9B25061A94201D20A2916
:1046B000F4D3BDE8F081016480F844207047000025
:1046C0002DE9F0410B3020F00706104D19E020686D
:1046D000B04215D3B0420AD9871B201DD4F80480FC
:1046E000FBF738FDA019C0E90078286004E0606895
:1046F0002860201DFBF72EFD201D2660BDE8F081FF
:10470000251D2C68002CE2D10020F7E7B001002025
:10471000FCF74AFFFEF74CF9FDF700FFFDF74CFFF1
:10472000FDF78AFFFDF728FF00F052F8FEF7B6F814
:10473000FEF7D8F800F0D0FC00F01AF80B4EFCF7AA
:1047400093FD0546002404EB840006EB8001087B02
:1047500040B108694A68281A904203D315B10D6127
:1047600088688047641C0A2CEDDBE8E70000002025
:1047700010B5FFF7AFFE0449044801F0E1FEBDE8C3
:1047800010400348FFF7B8BA8D380008C938000850
:104790004C0B002001490120087070477001002077
:1047A00010B50A4C207800280FD0002020706068D7
:1047B000FFF79AFDFFF7F8FD606890F846000128C2
:1047C00003D0BDE8104000F0C7BC10BD7001002050
:1047D00003480068C16841F02001C16070470000D3
:1047E000540200202DE9F04107460026C8680C4617
:1047F0003546B0F57A7F5BD2401CE0602168A06846
:10480000095C5B2954D1401CA0602046FFF77EF86C
:104810004CB1D4E90110884203D22268125C5D2AAF
:1048200033D0884203D3A068401EA06040E0401E01
:1048300004F11008A0604046FFF7CEF998B30EB31C
:10484000286045600546A068401CA0602046FFF730
:104850005DF82146284600F009FA30B32046FFF7FC
:1048600055F814B3D4E90110884203D22168095CD9
:104870002C29E0D06268904217D22168085C5D283C
:1048800013D102E006463546DDE7E068401EE060F1
:1048900006B175602020C7E90260A068401CA060D6
:1048A0000120BDE8F081FFE716B13046FFF760F95F
:1048B0000020F6E7034610B500200246995CA1F1FE
:1048C0003004092C01D830380AE0A1F14104052C4C
:1048D00001D8373804E0A1F16104052C08D8573815
:1048E0000844032A00D20001521C042AE6D310BD5A
:1048F000002010BD2DE9F84F4FF0000A80460C0053
:104900004FF02E09504655465646CDF800A03ED0F1
:104910002768CFB3D4E9012122E07B18C35C342B94
:104920001BD00ADCA3F12B03092B1CD2DFE803F018
:10493000151B152D1B1515151500382B0DD006DC74
:10494000352B0AD0362B08D0372B0CD105E0392B6C
:1049500003D0452B01D0652B05D16D1C401C14B133
:104960000B189342D9D32169681C884707000ED0E1
:10497000A16820682A4601443846FBF7EBFB07F89C
:1049800005A07EB100200BE001E00126E5E7002054
:10499000BDE8F88F395C2E2901D107F80090401C42
:1049A000A842F7D36946384600F0E0FB0546009878
:1049B0000E46874203D1616938468847E7E7C8E970
:1049C0000656144A144B28463146FCF70FF802D815
:1049D0006FF0004108E00022104B28463146FBF7FB
:1049E000EDFF04D84FF00041C8F8141005E0284648
:1049F0003146FBF7B1FFC8F814000821C8F80C10C5
:104A00000099A068C91B0844A060616938468847BE
:104A10000120BDE70000C0FFFFFFDF410000E0C153
:104A20002DE9F04107460026C8680C463546B0F52A
:104A30007A7F7BD2401CE060002C77D0D4E9011053
:104A4000884273D22168095C7B296FD1401CA06029
:104A50002046FEF75BFFD4E90110884203D22268AA
:104A6000125C7D2A4FD08842A0F10100A0605DD287
:104A700004F110084046FFF7AFF8E8B30EB3286022
:104A800045600546CCB3D4E90110401C88424AD2A7
:104A9000A0602046FEF73AFF2146284600F052F873
:104AA00058B32046FEF732FF2869286200202861AB
:104AB000D4E90110884236D22168095C3A2932D102
:104AC00002E006463546DDE7401CA0602046FEF7C2
:104AD0001DFF2146284600F0C9F870B12046FEF7B8
:104AE00015FFD4E90110884203D22168095C2C2902
:104AF000C0D06268904201E014E014E013D2216853
:104B0000085C7D280FD1E068401EE06006B175604A
:104B10004020C7E90260A068401CA0600120BDE8F9
:104B2000F08103E016B13046FFF722F80020F6E7E7
:104B3000024A0348111F00F017B90000A00100202D
:104B40009C0200202DE9F84F8146D1F808800868C2
:104B50004FF0000ACDF800A0D1F800C000EB080427
:104B6000651C1CF80800641C0E465746222876D1A6
:104B70000021706807E05C2B04D1521C82426AD28B
:104B8000491C641C641CA4EB0C02824202D22378F0
:104B9000222BF0D1A4EB0C0282425CD22078222896
:104BA00059D10CEB0800201A401A3169401C884783
:104BB000070054D000973DE029785C2905D0009883
:104BC0006D1C00F8011B009034E00221601B0128DD
:104BD00041DB6878662814D008DC22281DD02F28F5
:104BE0001BD05C2819D0622835D108E06E280ED081
:104BF00072280ED074280ED075282CD112E008220D
:104C000000E00C22009800F8012B009011E00A222D
:104C1000F8E70D22F6E70922F4E7009A02F8010B03
:104C2000009206E06A462146284601F0B7FC0100E2
:104C300011D00D44A542BFD3009981F800A01021E6
:104C4000C9E903173068201A401CB0600120BDE894
:104C5000F88F04E0FFE717B171693846884715B14E
:104C60003068281AB0600020F1E7000070B50C0031
:104C700005465ED0216800295BD0A0686368021DEC
:104C80009A4205D80844042231A1FBF79CFA78B374
:104C9000A0686268411D0126914206D8216805225C
:104CA00008442DA1FBF78FFA28B3A0686268011DA4
:104CB000914206D821680422084429A1FBF783FA0F
:104CC000E8B1D4E90101814203D22268525C222A70
:104CD0001DD0814221D22268525C2D2A02D0303A66
:104CE000092A1AD821462846BDE87040FFF702BEBF
:104CF0000420E86006E0EE60A068401D04E00220A9
:104D00006E61E860A068001DA060012070BD2146B2
:104D10002846BDE87040FFF715BF814203D22268E4
:104D2000525C5B2A07D0814203D22068405C7B281A
:104D300007D0002070BD21462846BDE87040FFF72F
:104D400051BD21462846BDE87040FFF769BE00000E
:104D50006E756C6C0000000066616C73650000008D
:104D600074727565000000002DE9F04190460D4613
:104D7000FEF73DFF04001ED010A1FEF721FF0746FD
:104D80000FA12046FEF71CFF06463846FEF71BFF24
:104D900018B17869FBF7C3FD28603046FEF713FFB2
:104DA00020B17069FBF7BBFDC8F800002046BDE8E4
:104DB000F041FEF7DDBEBDE8F081000078000000A4
:104DC0007900000004480178002903D00021017017
:104DD000FFF7AEBE70470000C800002010B50E4AB5
:104DE00030B1012807D002280ED0032812D10EE0DE
:104DF0004FF4006101E04FF480611046FCF72EFA99
:104E0000012807D0012010BD4FF48051F5E74FF481
:104E10000051F2E7002010BD000C01402DE9F047E1
:104E200004008A4616D054F8047CD4F800903E1F43
:104E3000564500D956462046FEF76AF8054688468C
:104E4000324621465046FFF73BFC40B1C0F8009087
:104E5000BDE8F087BDE8F0470846FEF787B844E9AB
:104E6000017955B129686A18211F8A4202D9611B4C
:104E7000091F2960C5F80480EAE7024AC2F80080E9
:104E8000E6E70000B0010020094A506890F846109B
:104E900049B190F945305B1C05D0022902D1FF21B0
:104EA00080F84510704700690028FBD050607047BB
:104EB0007001002010B505A0FEF72AFF07A0FDF73E
:104EC000EDFFBDE8104000F041B900005265636598
:104ED0006976652043656E746572000051554553CF
:104EE00054494F4E3100000010B505A0FEF710FFE9
:104EF00007A0FDF7D3FFBDE8104000F027B9000080
:104F00005265636569766520506174680000000031
:104F10005155455354494F4E3200000010B505A07D
:104F2000FEF7F6FE06A0FDF7B9FFBDE8104000F061
:104F30000DB9000052756E205461736B00000000C3
:104F40005155455354494F4E3300000001A0FEF720
:104F5000DFBE000052756E6E696E67204661696C37
:104F60006564000070B52148406890F84610022939
:104F700001D049B32BE090F945104A1C27D0026CB0
:104F8000042000EBC100145820680546FBF703FD20
:104F9000174A184BFBF751FCFBF740FDFBF7FBFCF6
:104FA00002460B4614481549FFF708FA02460B461D
:104FB00000201349FFF723FAFBF730FD014628468E
:104FC000FBF7C0FA206070BD90F83C2001E090F83B
:104FD00044200168521E9142F5DA491C0160426882
:104FE000121D9142EFDBC91E416070BD70010020AF
:104FF0007B14AE47E17AB43F9A9999999999B93F50
:105000000000594070B51C48406890F846100229CD
:1050100028D190F945104A1C24D0026C042000EBE2
:10502000C100145820680546FBF7B5FC134A144B21
:10503000FBF703FCFBF7F2FCFBF7ADFC02460B466B
:1050400010481149FFF7BAF902460B4600200F49F4
:10505000FFF7D5F9FBF7E2FC01462846FBF7C4FA57
:10506000206070BD0168002901DD491E01604268B1
:105070009142F6DA416070BD700100207B14AE47AA
:10508000E17AB43F9A9999999999B93F00005940AA
:105090000D4810B50078002814D00D480B4A01685F
:1050A0000020FDF7E7FA04460A48084A016854322E
:1050B0000020FDF7DFFA80F000412046BDE81040F7
:1050C000FDF7FABB10BD00007D010020E80E0020B6
:1050D0009C010020A001002070B500211248FDF7BE
:1050E0003BFB124C00231A4621460F48FDF7D0FB2C
:1050F0000F4D104E2A4631460B48FDF7C3FB0A48B8
:1051000000215430FDF728FB074800231A462146AA
:105110005430FDF7BDFB2A463146BDE870400248D9
:105120005430FDF7AFBB0000E80E00206C09F93ADF
:105130000000A0C00000A040012101A0FFF700B9BD
:10514000564945575F564152000000000149012071
:10515000087070477D010020002101A0FFF7F0B822
:10516000564945575F5641520000000000B583B0D4
:105170000A460021CDE9001101466846FBF721FDF2
:10518000DDE9000103B000BD016890F83820406BF4
:10519000097C4A43D100FAF7F6BF2DE9F84381466E
:1051A000089C1F46101980B20090C81983B215469A
:1051B0008846484600F042FA00280ED00026002C0F
:1051C0000BD03B462A4641464846009600F085F8FB
:1051D0006D1C641EADB2A4B2F1E7BDE8F8832DE901
:1051E000F8431C4680461019401C80B200900819F4
:1051F000401C83B21546101B82B20E46081B81B2BA
:10520000089F404600F01AFA002806D023462A4696
:1052100031464046009700F039FBBDE8F8832DE9A0
:10522000F8431C4680461019401C80B200900819B3
:10523000401C83B21546101B82B20E46081B81B279
:10524000089F404600F0FAF9002806D023462A4677
:1052500031464046009700F0ABFBBDE8F8832DE9EE
:10526000F041044690F870001F4615460E4630B1D6
:10527000012809D002280CD0032815D10FE0E16DD8
:1052800020468847284408E0E16D20468847301AC8
:1052900009E0E16D20468847281A85B204E0E16DF7
:1052A00020468847304486B22846A4F86460A4F8B3
:1052B000660039460025204600F04EFD010003D06F
:1052C000204600F07BFC85B22846BDE8F08138B569
:1052D0000024009400F001F838BD3FB581B00446C9
:1052E00090F88C000899002839D0BDF810000028EB
:1052F00035D0012811D9022902D0032907D00CE0AA
:10530000BDF80820101A401CADF8080005E0BDF8F3
:105310000C20101A401CADF80C0011F0010520D033
:10532000B4F84810BDF80800814218D8B4F84A1003
:10533000814214D9B4F84E30B4F84C2004A903A823
:1053400000F086FA00280AD00095206BBDF81030D6
:10535000BDF80C208568BDF808102046A84705B0A8
:1053600030BDB4F84C10BDF80C008142F7D8B4F849
:105370004E108142F3D9B4F84A30B4F8482004A959
:1053800002A8DDE708B5B0F84C30934210D8B0F869
:105390004E3093420CD9B0F848308B4208D8B0F860
:1053A0004A308B4204D9002300930123FFF795FF75
:1053B00008BD2DE9FF4F83B01D46DDE910A402EBC7
:1053C0000A07B8B24E19009090468946B3B20398C6
:1053D00000F034F900285CD009EB04001FFA80FBD0
:1053E00008EB040081B2301B401E86B2381B401E01
:1053F00080B2CDE9011002200A46009023465946AA
:105400000398FFF70CFF0120009023463146019AD4
:105410000398FFF704FF04200090DDE902202346F3
:105420005946FFF7FCFE08200090DDE902202346E4
:105430003146FFF7F4FE0BF101011FFA81FB0199E0
:10544000281B491C001B80B289B20191032811D38B
:10545000801E87B2601C86B23B4642465946009683
:105460000398FFF79AFEDDE902203B465946009675
:10547000FFF793FEAAEB0400001B80B2032808D3B9
:10548000801E80B200902B464946019A0398FFF790
:1054900084FE07B0BDE8F08F2DE9FF4F83B01D46B5
:1054A000DDE9106402EB060A1FFA8AF001EB050938
:1054B0000090174688461FFA89F3039800F0BEF85B
:1054C000002867D008EB04001FFA80FB381981B26E
:1054D000A9EB0400401E80B2CDE90110AAEB040044
:1054E000401E1FFA80F902200A46009023465946C2
:1054F0000398FFF774FE01200090DDE902102346B7
:10550000019AFFF76CFE0420009023464A46594654
:105510000398FFF764FE08200090DDE9021023469F
:105520004A46FFF75CFE281B311B001B091B8CB28F
:105530000BF101011FFA81FA019980B2491C1FFA8F
:1055400081FB032810D3801E80B2814603463A4671
:105550005146761E0398FFF7BAFEB81982B24B4641
:1055600051460398FFF7B3FE032C13D3A41EA4B235
:1055700023465A4641466D1E039800F017F808EB83
:10558000050081B2039807B023465A46BDE8F04FA4
:1055900000F00CB807B0BDE8F08F000030B4024C4A
:1055A000446030BC00F0AEBA0161000838B5012497
:1055B0000094FFF792FE38BD70B5044600F0CCFBB6
:1055C000010016D0204600F00AFC04F1600094F8B7
:1055D0007A10054600F0CEFA84F8900014F87B1F8C
:1055E000284600F0C7FA61782846BDE8704000F010
:1055F000C1BA002070BD0000014A426000F0BDBC8D
:105600000161000810B5094B094A0A490A4800F02F
:1056100087F8094800F030FD0021074800F03CFD04
:10562000BDE810400448FFF7AFBD00009D640008CE
:105630004D61000890700008540E002070B50D46B2
:105640001E460446B0F84E10B0F84C00049B00F023
:10565000E0FB002809D0B4F84A10B4F848003346FB
:105660002A46BDE8704000F0D4BB70BD10B50446BA
:1056700000F05DFC2046BDE8104000F005BD80F85C
:105680009210032902D3012180F89210704710B5BF
:105690000446806D884209D004F17400A16500F0D1
:1056A00011FC2046BDE8104000F056B810BD0000C7
:1056B0000149C16570470000715B00080021A0F836
:1056C0005010A0F854104FF6FF71A0F85210A0F837
:1056D0005610016B4968084770B5044600250498C8
:1056E000A565E362616384F8382084F8395084F852
:1056F0006D5084F8915084F88D50012184F89210F7
:1057000084F8931020630168204688472046FFF7FD
:10571000D5FF2046FFF7CCFF84F8705070BD000025
:105720007CB50C46009313460546084A084900F02C
:10573000BBFC01A800F0C0FB0146064B00949DF89D
:1057400004202846FFF7C8FF7CBD00006D620008FA
:10575000956300082B5E000810B5816D00291AD0F2
:1057600090F9813080F88E3090F9822080F88F2077
:1057700090F88D1000290ED001290DD090F97E40AF
:1057800090F980100C449C4201DD80F88E408A42E2
:1057900001DD80F88F1010BD90F983108B4201DA83
:1057A00080F88E1090F98410F1E72BB1012B05D011
:1057B000022B06D0104402E0084400E0801A80B2B8
:1057C0007047401AFBE72BB1012B05D0022B06D006
:1057D000401A02E0104400E0084480B27047801A8A
:1057E000FBE738B50446B0F856000090B4F85230E4
:1057F000B4F85420B4F850102046FFF71FFF18B338
:10580000012084F88C00B4F84810B4F850008142AC
:1058100001D2A4F84800B4F84A10B4F8520081420A
:1058200001D9A4F84A00B4F84C10B4F854008142ED
:1058300001D2A4F84C00B4F84E10B4F856008142DE
:1058400001D9A4F84E0038BD002084F88C0038BD82
:1058500030B504880D882544ADB2AC4205D99C42D0
:1058600002D25D1EADB200E014469C4201D29542C8
:1058700001D8002030BD944200D214469D4200D988
:105880001D460480281B0880012030BD2DE9FF4FF4
:10589000C3F1010083B004B258429146DDF840A044
:1058A00040008B4601271D46CDE9009A00260FFADD
:1058B00080F85B462A46314615E0002C08DB08F1EB
:1058C00002000FFA80F86D1E04EB0800ADB204B2BE
:1058D000761CBF1C3FB2CDE9009AB6B2E01904B203
:1058E0005B462A463146039800F005F8AE42E4D301
:1058F00007B0BDE8F08F2DE9FF4F83B00E46DDE91C
:10590000108703EB060002901546A8EB06000190F5
:1059100003EB05001C46F907A8EB050B00900DD022
:1059200002981FFA8BF281B20398FFF72BFD0198C2
:1059300082B2009881B20398FFF724FDB907A4EB67
:10594000060AA4EB05090DD51FFA8BF21FFA8AF19E
:105950000398FFF717FD01981FFA89F182B20398A7
:10596000FFF710FD08EB0504390708EB06050BD51A
:105970000298A2B281B20398FFF704FD0098AAB280
:1059800081B20398FFF7FEFC78070ED5A2B21FFA8A
:105990008AF10398FFF7F6FC039807B0AAB21FFA42
:1059A00089F1BDE8F04FFFF7EDBC07B0BDE8F08F1F
:1059B0002DE9FF4FC3F1010083B004B25842914674
:1059C000DDF840A040008B4601271D46CDE9009A36
:1059D00000260FFA80F85B462A46314615E0002C77
:1059E00008DB08F102000FFA80F86D1E04EB0800D6
:1059F000ADB204B2761CBF1C3FB2CDE9009AB6B27C
:105A0000E01904B25B462A463146039800F005F8D7
:105A1000AE42E4D307B0BDE8F08F2DE9FF4F83B06D
:105A2000164610980F46A0EB060B03EB07000190FB
:105A30001098DDF84490A0EB070098465FEAC97122
:105A400003EB060A02F1010507F1010400900FD0F3
:105A50000198ABB281B21FFA8BF20398FFF7A6FD53
:105A60000098A3B282B21FFA8AF10398FFF79EFD55
:105A70005FEA8971A8EB0707A8EB06060DD5ABB264
:105A80001FFA8BF2B9B20398FFF790FD0098A3B20A
:105A900082B2B1B20398FFF789FD5FEA09700DD5B4
:105AA0000198ABB281B2109A0398FFF77FFDA3B2C1
:105AB0001FFA8AF1109A0398FFF778FD5FEA4970A0
:105AC0000ED5ABB2B9B2109A0398FFF76FFD109ADA
:105AD000039807B0A3B2B1B2BDE8F04FFFF766BDBF
