:020000040000FA
:10000000C0512020A1020000A502000075340000AC
:1000100000000000000000000000000000000000E0
:10002000000000000000000000000000A902000025
:100030000000000000000000AB020000E1450000ED
:10004000AF02000061340000AF020000094600006A
:10005000AF020000AF020000AF020000AF020000DC
:1000600000000000AF020000AF020000000000002E
:1000700000000000AF020000AF020000F1450000E8
:10008000AF020000AF020000AF020000AF020000AC
:10009000AF020000AF0200000000000000000000FE
:1000A000AF020000AF0200000000000000000000EE
:1000B000AF02000000000000AF020000AF0200002D
:1000C00000F002F800F0C1F812A030C80838241877
:1000D0002D18AC4201D100F0B8F80FCCA246AB46C7
:1000E0000CA730CF2D1B083F3F197C427F1E544484
:1000F0002D090426F441641EAC4201D300F0A5F89A
:100100000126334200D0FB1A3343984754465D46DC
:10011000DFE700008C050100AC05010000000000D5
:100120007047000000000000002300240025002686
:10013000103A01D378C1FBD8520700D330C100D5A3
:100140000B60704710B56E2902D101F087F910BD20
:10015000702902D100F0D3FA10BD662902D10DF04A
:10016000DDFE10BD652902D10DF0D8FE10BD672956
:1001700002D10DF0D3FE10BD612902D10DF0D6FEE3
:1001800010BD03681B0A01D380231943692902D1DA
:1001900000F0AAF910BD642902D100F0A5F910BD44
:1001A000752902D100F0A0F910BD6F2902D100F02D
:1001B00051FA10BD782902D100F08EFA10BDE9295C
:1001C00002D101F023FD10BDE42902D101F01EFD92
:1001D00010BDF52902D101F019FD10BDEF2902D1A2
:1001E00000F044FA10BDF82902D100F083FA10BDE6
:1001F0000368DB0901D380231943632902D101F08D
:10020000E2FC10BD732902D101F0E5FC10BDE32929
:1002100002D101F0EFFC10BDF32902D101F0F2FC94
:1002200010BD002010BD1FB502F0A6F9040000208B
:1002300000210DF037FC401C6060002000210DF013
:100240001BFCE0601FBD10B510BD02F073FE11462F
:10025000FFF7E9FF07F0A7FC02F08BFE03B4FFF7FE
:10026000F2FF03BC02F040FF70B505460C4616468F
:1002700002E00FCC0FC5103E102EFAD2082E02D38A
:1002800003CC03C5083E042E07D301CC01C5361F9D
:1002900003E021782970641C6D1C761EF9D270BDB4
:1002A00006480047FEE7FEE7FEE7FEE7FEE7FEE75B
:1002B00003480449044A054B70470000C100000090
:1002C000C01C2020C0512020C04C2020C04C202029
:1002D0004343514330B55C18010C130C0D4692B2E8
:1002E0005D4380B251432C19054655430A0C09045D
:1002F0004D1962415843010C00044019514130BD71
:1003000070B5054610460C4618430ED0002108462D
:10031000891A984127DA00210846491BA04118DABA
:100320002846214600F0AFFF70BD002C03DA012300
:100330000022DB0707E000210846491BA04102DA42
:100340000022D243530810461946C046C0462A46EA
:1003500027E000216842A14100F095FF00244042BF
:100360008C4121461AE000210846491BA0410CDAC5
:1003700021460020524298410346284600F083FF60
:10038000002440428C41214670BD002052429841D9
:10039000002103466842A14100F075FF002452424B
:1003A0009C41234670BD00007CB51D4616460C00DE
:1003B000009007D04142A14202D30019401E01E043
:1003C0000020C043064B7B442A46694601903046D4
:1003D00001F0D3FB002C02D0009A002111707CBDEB
:1003E000D71700000FB41CB50C0007AA009007D067
:1003F0004142A14202D30019401E01E00020C04347
:10040000074B7B4469460190069801F0B6FB00213A
:10041000002C01D0009A11701CBC08BC04B0184715
:100420009B17000070B5044685690068C10601D5B8
:10043000302600E02026C00707D070BD6268304635
:10044000A1689047206A401C20626D1EF6D570BDE1
:1004500070B5044685690078C00707D170BD626831
:10046000A16820209047206A401C20626D1EF6D5AE
:1004700070BD09684A0501D540B27047C905FCD571
:1004800000B2704709684A0501D5C0B27047C90576
:10049000FCD580B2704770B50C460546012A05D0E0
:1004A0002878800600D5EA69002302E0012305E0F0
:1004B0005B1C934202D2E05C0028F9D1A869E618DF
:1004C000C01AA861286AC01828622846FFF7AAFF48
:1004D00004E06A682078A968641C9047B442F8D3A5
:1004E0002846FFF7B5FF70BDF7B5002575291068E0
:1004F000009914A611D0FFF7BCFF002802DA404291
:1005000011A608E0009909688A0701D50FA602E044
:10051000490704D50EA6012501E0FFF7B3FF009FB0
:100520000024243704E001F0CAFB30313955641C43
:100530000028F8D12B4632462146009800F036FFBD
:10054000FEBD0000000000002D0000002B00000098
:1005500020000000F7B50446154686B02B487844C5
:10056000002703C83E460090019111E007986A46B3
:100570007100415A02A801F081FB411C07D021788B
:10058000890603D5E269391891420ED83F18761CC6
:100590002078800602D5E069B84206DDAE42E5DB90
:1005A00007987100405A0028E0D1A069C01BA061E3
:1005B0002046FFF737FF154878445A3803C80090A3
:1005C0000020019116E041006A460798415A02A8AE
:1005D00001F054FB0590401C0AD0002505E062683C
:1005E00002A8A168405D90476D1C05988542F6D32E
:1005F0000498401CB0420490E5DB206AC0192062D8
:100600002046FFF725FF09B0F0BD0000DAD9000051
:1006100070B504460021243408E05507D2086D0F58
:10062000303565545D072A43DB08491C15461D43D8
:10063000F3D10468002310A2250708D520252C40FB
:100640000C4304D0C46901230CA2641EC46100F0F1
:10065000ADFE70BD10B5044621461068FFF712FFCD
:10066000002302462046FFF7D3FF10BDD21DD1085C
:10067000C9000CC9CCE700000000000030000000F9
:10068000F8B50F460188090502D5224C7C4402E0EA
:10069000204C7C440E3405460021243508E0160722
:1006A0001209360FA65D6E541E0732431B09491C02
:1006B00016461E43F3D1224604780023240705D5AD
:1006C000702F06D0002901D00223113200F06EFEF7
:1006D000F8BD01231032F9E770B504460D462146F6
:1006E0001068FFF7CFFE0023024629462046FFF799
:1006F000C7FF70BDD21DD308DB000CCBC0E730B400
:10070000036820241268234303600823C36130BCBC
:100710000023B5E7B4D80000F3B50446002081B04B
:1007200020622046E1688847002872D0252802D040
:100730006268A168ABE0594F00267F442046E1681B
:1007400088472028054608DB312D06D27819203845
:100750000078002801D00643F0E7B00701D5042057
:1007600086430020E0610746A0612A2D0AD0284672
:100770000CF0C3FC002827D0B8000019303D0090D1
:10078000856119E00298BA00121902C891610290BD
:100790002046E1688847012F054617D1E069002807
:1007A0001FDA202086431CE000980A218069484314
:1007B00000994019303888612046E168884705462D
:1007C0000CF09BFC0028EFD1012F0AD02E2D08D170
:1007D0002046E16888470546202006437F1C022FFB
:1007E000C3DBA069002803DA4042A0610120064370
:1007F000F00701D0102086436C2D0BD0682D09D056
:100800004C2D3CD06A2D38D0742D38D07A2D36D06E
:1008100016E040E0E1682F4620468847B84205468A
:1008200009D16C2F29D001208002E16806432046BF
:100830008847054604E06C2F1DD0FF200130064399
:10084000002D28D028464138192803D80120C0029D
:1008500006432035204626602946029A1646FFF7B1
:1008600071FC002810D001280BD0F61DF008C00044
:100870000830029055E74020E1E78020D5E70020CE
:10088000D3E7361D02964CE762682846A168904778
:10089000206A401C44E7206AFEBD00002ED80000FC
:1008A00010B5431E5C785B1C002CFBD105E00C7876
:1008B000491C1C705B1C002C03D0521EF7D2002177
:1008C000197010BD034610B50B439B070FD1042AC6
:1008D0000DD308C810C9121FA342F8D018BA21BA04
:1008E000884201D9012010BD0020C04310BD002A5C
:1008F00003D0D30703D0521C07E0002010BD0378BB
:100900000C78401C491C1B1B07D103780C78401C39
:10091000491C1B1B01D1921EF1D1184610BD0000CD
:1009200030B5441C03E00178401C00290DD081073C
:10093000F9D10B4BDD0104C8D11A91432940FAD0FB
:10094000001B0A0603D0C01E30BD001B30BD0A04C8
:1009500001D0801E30BD0902FCD0401E30BD000019
:1009600001010101F8B5042A2CD3830712D00B78BA
:10097000491C0370401C521E83070BD00B78491C86
:100980000370401C521E830704D00B78491C03706F
:10099000401C521E8B079B0F05D0C91ADF00202375
:1009A000DE1B08C90AE0FFF75FFCF8BD1D4608C959
:1009B000FD401C46B4402C4310C0121F042AF5D23F
:1009C000F308C91A521EF0D40B78491C0370401C5E
:1009D000521EEAD40B78491C0370401C012AE4D44F
:1009E00009780170F8BD01E004C0091F0429FBD299
:1009F0008B0701D50280801CC90700D002707047A8
:100A000000290BD0C30702D00270401C491E0229E6
:100A100004D3830702D50280801C891EE3E70022ED
:100A2000EEE70022DFE70000F8B507460B4639463F
:100A30001943890713D1164CE601042A0FD302CBC0
:100A40000D1B8D43354202D102C0121FF5E7CBB218
:100A50000370401C521E002B13D0090AF7E7002A2E
:100A600014D01978521E5B1C0170401C002908D05C
:100A7000002A0BD01978521E5B1C0170401C002903
:100A8000EDD1002A02D01146FFF7C9FF3846F8BD64
:100A900001010101002203098B4273D3030A8B4237
:100AA00058D3030B8B423CD3030C8B4221D312E06F
:100AB00003460B437FD4002243088B4274D30309BF
:100AC0008B425FD3030A8B4244D3030B8B4228D360
:100AD000030C8B420DD30902FF2212BA030C8B4286
:100AE00002D31212090265D0030B8B4219D300E026
:100AF000090AC30B8B4201D3CB03C01A5241830BAB
:100B00008B4201D38B03C01A5241430B8B4201D35A
:100B10004B03C01A5241030B8B4201D30B03C01A83
:100B20005241C30A8B4201D3CB02C01A5241830AFD
:100B30008B4201D38B02C01A5241430A8B4201D32C
:100B40004B02C01A5241030A8B4201D30B02C01A56
:100B50005241CDD2C3098B4201D3CB01C01A5241BD
:100B600083098B4201D38B01C01A524143098B4246
:100B700001D34B01C01A524103098B4201D30B012F
:100B8000C01A5241C3088B4201D3CB00C01A524154
:100B900083088B4201D38B00C01A524143088B4219
:100BA00001D34B00C01A5241411A00D201465241B2
:100BB000104670475DE0CA0F00D04942031000D3D1
:100BC000404253409C46002203098B422DD3030A26
:100BD0008B4212D38901FC2212BA030A8B420CD336
:100BE000890192118B4208D3890192118B4204D35F
:100BF00089013AD0921100E08909C3098B4201D3DF
:100C0000CB01C01A524183098B4201D38B01C01A18
:100C1000524143098B4201D34B01C01A524103098F
:100C20008B4201D30B01C01A5241C3088B4201D33E
:100C3000CB00C01A524183088B4201D38B00C01AEB
:100C40005241D9D243088B4201D34B00C01A5241C2
:100C5000411A00D201465241104663465B1001D34F
:100C60004042002B00D54942704763465B1000D3D9
:100C7000404201B50449002802DC491C084000E05C
:100C80000846C046C04602BDFFFFFF7F7047704761
:100C9000704700000246C80FC00781434B0030B5C3
:100CA0004B405B009B0D20D01923DB06C9180123A4
:100CB0001B05994220DB0324A40704251346AB40FF
:100CC0000BD3002B04D1EB0613409B00E34204D46A
:100CD00001246407002312195941FF231B0599427F
:100CE0000BD2C9000143500F09E0CB0204D50143E8
:100CF0000803024305D0054830BDFF21C90508435C
:100D000030BD084607210905884330BD0000C07F7B
:100D10000346CA02400D10B510430A1504D0012441
:100D2000E4072043002A05DB0A4CA21A04D4D04071
:100D3000FF2A00DD002010BD4A00002B01D0012059
:100D400000E00020101801225205D042F2D8C81746
:100D5000C04310BD1E0400001F22030C02D10F224D
:100D6000000402D0030E03D004E0002001467047C7
:100D70000002083A030F01D10001121F830F01D1B5
:100D80008000921E002801DB4000521E12055118FF
:100D90004205C012411810467047C10FC90700D064
:100DA0004042012292071143D6E701218907D3E788
:100DB000F0B58B4C0F09254689B0BD437BD01D098A
:100DC0002646AE43FAD00E465E402740F60F3E431D
:100DD000254071D024012142FBD0FF24AD19A40489
:100DE0002D1B039501252D05DB02DB0AC9022B43D0
:100DF000C90A29431E010901040F130F05012143EC
:100E00001701880B820391432D098C46A90B1E43C1
:100E10008A039543B30B9A0396433F09BA0B940395
:100E2000A74302962E467E430497B6464E19D7191D
:100E30000C460196544305977E43371B7646BF1BED
:100E40003601B646BE0B361900967646BC043719F5
:100E5000009C01D3641C00946400002F01D0012683
:100E60003443029E049F754366467E430496760093
:100E700034196E0034190094029C019E1C196643BB
:100E8000751BAE46069465464519059C05956C4351
:100E9000594375460891691A0191049E01465143D0
:100EA000A41B0491611A009C0791E10605D0610919
:100EB0000122114302E072E06EE06109089D002703
:100EC0002C0A2D066918049D7C412A0A2D066918F2
:100ED000019D6241AC0DAD026D185441079A910D10
:100EE000920255196141029A644658435443069B45
:100EF000059A5A43121A131B9A0E9B015B187A41EA
:100F0000010B0005C3185141220A200644195A4119
:100F10009A4200D2491C01204002814203D315238A
:100F20000226F64302E014230326F6432020C51AC6
:100F3000A9401746AF40DA400A4320460399D840FB
:100F40000914731819055118039A3843D2075140F0
:100F5000AC4009D00122944006D30022401C5141EC
:100F6000002C01D1400840001E4A934212D30122B6
:100F700003989206904207DB0520400709181A489B
:100F80000143C012414004E0032040070818C10F8C
:100F9000C907002009B0F0BD0020F107FAE70518E5
:100FA0000C464C4111486D42A04115D394181A4685
:100FB0005A410E48644290410ED301204A00400538
:100FC000824209D35A00824206D35940C90F084AC7
:100FD000C90700201143DDE700200649DAE70000D9
:100FE0000000FF07FE070000FFFFFF7F0000E0FF9B
:100FF0000000F07F0000F87F0121C905012341189E
:1010000042001B06D3185B0E0AD0C1100722D2067D
:10101000891840075242D14201D5520089187047C1
:10102000090208D50146002A03D0C10FC9070020D4
:10103000704710467047420202D0002002497047B4
:10104000072109050143F4E70000F87FF0B5FF250B
:101050002D04C609C209FF2704462E400137CB09DB
:101060003E4348402A402B400746002A6BD0002BC5
:1010700069D0AA4267D0AB4265D0002800DA324678
:101080000125ED0529432C4309022002090AD21A41
:101090004B0C7F24E31A434C000A7C44E35C7D2420
:1010A0002404121914145B00A218884201D3521CA4
:1010B00000E0400049420C465C4324115C43DB01E4
:1010C0006415E318040A5C43C502200D0C46444332
:1010D0006419250A5D432303EC0C0D4665430003A8
:1010E0000019EB184C42A34201D35B18401CD405F5
:1010F0002018002B07D05B00C91804D3401C00291E
:1011000001D1400840003F2189048A4209D3002AC6
:1011100008DC1106090F04D0032149074018C00F4D
:10112000C007F0BD01224100120689187F22520635
:101130009142F6D205214907C84201D59010F0BD71
:10114000FF20C005F0BD002F00DA32461648AA4243
:1011500007D2AB4205D21902090E17D0F80FC0070B
:10116000F0BDFF2563002D06AB42F9D84900A94226
:10117000F6D8AB4201D1A942F2D0A94201D1002157
:1011800001E061004908D0050843F0BD1102090ED5
:10119000FBD0FF200243D005F0BD0A4601461046B1
:1011A00054E70000DFCE00000000C07F10B501460C
:1011B0009E240002CA15A307002A02D01843002A61
:1011C00004DBA21A002A0CDDD04010BD1206120E5C
:1011D00001D140004008A21A03D4D0404042002868
:1011E000F3DDFF2248001206904201D9002010BD15
:1011F000C817C043584010BD0102C21504D00123D6
:10120000DB071943002A0ADB9E239A1A02D40846F8
:10121000D0407047FF2241001206914201D90020C0
:101220007047C017C04370471F22030C02D10F2222
:1012300000041CD0030E01D10002083A030F01D1B3
:101240000001121F830F01D18000921E002801DBD4
:101250004000521ED2055118021251181922904016
:1012600004D3491C002801D14908490008467047A9
:10127000C10FC90700D04042012292071143D3E7B2
:1012800001218907D0E7FEB5044610460D461843F4
:1012900073D0A6468C460020A41A01469D4167D310
:1012A0006646002701243D46B61A9D4102D31346E7
:1012B0003A462124654676462F04360C3E432D0CD3
:1012C000B61A9D4104D3150C1B042B431204103491
:1012D000654676462F06360A3E432D0AB61A9D41CC
:1012E00004D3150E1B022B431202083465467646C2
:1012F0002F0736093E432D09B61A9D4104D3150F19
:101300001B012B431201241D65467646AF07B60824
:101310003E43AD08B61A9D4104D3950F9B002B4365
:101320009200A41C65467646EF0776083E436D089A
:10133000B61A9D411AD392185B41641C16E000183E
:10134000764665464941B71A9D410191009009D3FF
:101350006046B11A98418E4684460098019900254E
:10136000401C6941DD0752082A435B08641EE6D52C
:101370007246634603B0F0BDFFE72046284307D01E
:101380000020C0430146C046C04622462B46F1E736
:1013900000200146F7E710B501F0F2F8006810BD33
:1013A00010B5044601F0ECF8046010BDFFB504462A
:1013B0000D4681B0243000902168880604D51022A3
:1013C000E0699143216000E00120A84201DD471B54
:1013D00000E000270498A1697A191018081AA06182
:1013E0002078C00602D42046FFF71CF8002608E04B
:1013F00003986268A168805D9047206A401C761C53
:10140000206204988642F3DB2078C0060AD5204685
:10141000FFF708F806E06268A16830209047206A6C
:10142000401C206238467F1E0028F4DC07E000984C
:101430006268A168405D9047206A401C206228468F
:101440006D1E0028F3DC2046FFF702F82078000626
:1014500002D5022005B0F0BD0120FBE7116802684B
:10146000006A530501D5087009E0D30501D508804D
:1014700005E0130602D5C21705C100E0086001208F
:1014800070470000FFB50C461E468FB003CA089097
:1014900009914F007D0D00D16D1E002108460020EE
:1014A000C0460321099A89050840002A03DA820010
:1014B000801840080840800D01280A9002DD0020B5
:1014C000C0430A90089807430DD0F048F049281807
:1014D00048430714189800281DD07542291E1DDDA9
:1014E0000A9842421BE01898012802D000203021BF
:1014F00004E00020F24305E02154401CB042FBDB35
:1015000030460022189B002121540F998B600A60FD
:10151000486013B0F0BDBD1B6D1CDFE70A9A0029BF
:1015200000DA69420BA801F0B1F80BAB07CB03ABB3
:1015300007C30899099801F015F96B4607C30146DE
:10154000D4480918002D00910BDDD24903980A9A5E
:1015500049424018002303A90390684601F072FB3A
:1015600008E003990A9A0023081803A90390684623
:1015700001F012FB6B4607C30004000C03D00020EF
:10158000C043410800E01046189A002A03D0002208
:10159000009215461EE0751E05D400F0F5FF3032AE
:1015A00062556D1EF9D501220843079602D000222C
:1015B0007F1C04E02078302801D100227F1E002A01
:1015C000069787D01EE0112D07DA00F0DDFF3032DC
:1015D00062556D1C02460A43F5D1084303D00098BA
:1015E000002819D00EE00021681E05E0235C625C33
:1015F00063542254401E491C8142F7DBA81B401E45
:1016000007950690079A18990020A0540F98079BF9
:10161000069A81600CC07CE711260020189059E7DB
:10162000D21DF0B50D460446D10893B0C90003C9D8
:101630000C900D910BF0A8FB02460D98C00F01D045
:101640002D2007E02068810701D52B2002E040070C
:10165000C00F4001032A0F9001D0072A05DB034683
:101660002946204600F0CEFF0EE12078800601D505
:10167000E76900E006272846652D04D0662814D0C7
:10168000672D69D12DE00020112F009001DB11237F
:1016900000E07B1C0CAA03A910A8FFF7F3FE119928
:1016A000002610987D1C0E9142E001203B460CAABA
:1016B000C0070B900120009003A910A8FFF7E2FEDD
:1016C000119D12981099002600280E9501D1781CC2
:1016D0000D18781B02D446427D1C761EE81B009034
:1016E0003AE0012F00DA01270020112F009001DDE0
:1016F000112300E03B460CAA03A910A8FFF7C2FE85
:1017000011993D46109800260E91217809070BD4B7
:101710000E99A94200DA0D4603A9012D04DD4A19EC
:10172000203AD27F302A06D0B84201DA011D04DA0D
:10173000012100910FE06D1EEFE7002802DC861901
:101740002D1A03E0411CA94200DD0D46801B401C00
:1017500000900120C0070B902078000705D4009866
:10176000A84202DB0020C043009069460020C872F6
:101770000B98012102AF0337C907884225D0022008
:1017800010902B2011900B9800280BDA40420B9000
:101790002D20119006E00B9800F091FA30317F1E59
:1017A0000B9039701099481E00291090F3DC0B98AB
:1017B0000028F0D111987F1E38702088000501D5CF
:1017C000452000E065207F1E387001A8C01BC01DA9
:1017D0000B900F98002800D0012041190098C017E5
:1017E00009180B980818A169081A401EA0612078F2
:1017F000C00602D42046FEF715FE0F98002805D03B
:101800006268A1689047206A401C20622078C00668
:1018100025D52046FEF706FE21E0002E07DB0E98B8
:10182000B04204DD03A86268805DA16802E06268DE
:10183000A16830209047206A761C401C20620098E6
:10184000401E002800900AD100F096FEC068626831
:101850000168405CA1689047206A401C20622846CD
:101860006D1E0028D9DC07E062683878A1687F1C0B
:101870009047206A401C20620B99481E00290B905B
:10188000F2DC2046FEF7E4FD032042E601FCFFFF08
:10189000104D0000E1DFFFFFD21DF0B504460D46FC
:1018A000D0088DB0C00046680768314638460BF056
:1018B0006BFA0246F00F01D02D2307E02068810764
:1018C00001D52B2302E04007C00F43016846002BDF
:1018D000037001D0012000E00020032A0A9001D00B
:1018E000072A04DB2946204600F08CFE2DE12078F3
:1018F000800601D40D2500E0E5697000400D0D2D36
:1019000001904BDA300D00210B9008460020C046B4
:10191000032189050840002E05DA82008018C20FD5
:101920001018401008408015012801DD0020C04338
:10193000A9000023182906D39C460A460123183A19
:101940001B07D34003E001221205CA4094460C3124
:10195000202902D33A46203900E032468A40002846
:1019600002DD002A06D119E0002817D10121C9079C
:101970008A4213D3194663467F185E41002806D178
:101980000120C007824202D1084687439E430B983C
:10199000310D814202D00198401C01902088000541
:1019A00002D57149794402E06F49794419396B468F
:1019B0000A9830221A540A980A7C401C1A54401C77
:1019C0000A900198002801DC302000E031201872D4
:1019D000019A0120002A02D0644BD21804E0720060
:1019E0003A4302D0614A521C0192002D02DC227857
:1019F000120703D56A462E20507202200022864626
:101A000094460CE032033601120F6D1E8B5C02AA65
:101A100013546246521C401C9446052A01DA002DDC
:101A2000F0DC002202AE08E03B0F3F01CB5C521C11
:101A30006D1E3354401C082A01DA002DF4DC2368A3
:101A40009A0601D511E0401E704504DD3218203A97
:101A5000D27F302AF7D0002807DD3218203AD27F13
:101A60002E2A02D11A0700D4401E002D03DD3E228B
:101A70003254401C6D1E497C31540199401C002990
:101A800006DA2D21471C315401984042019003E0B1
:101A90002B21471C315401987D21C900884206DB67
:101AA000FFF706F83030F0557F1C019101E0642803
:101AB00008DB01986421FEF7FBFF3030F0557F1CF6
:101AC000019101E00A2806DB01980A21FEF7F0FFE8
:101AD0003030F0557F1C01980A21FEF7E9FF3031C4
:101AE000F1550A98A1697F1C7A191018081AA0618B
:101AF0002078C00602D42046FEF794FC216A6E4688
:101B00000A980818206204E062683078A168761CA0
:101B100090470A98401E0A90401CF5D12078C006D4
:101B200002D52046FEF77EFC02AE09E03078761C36
:101B30003E280DD06268A1689047206A401C206250
:101B40007F1EF3D22046FEF783FC0DB00320F0BDCC
:101B5000206A4019206203E06268A1683020904743
:101B60006D1EEDD3F8E700007BC6000001FCFFFF0F
:101B700001694A1C02610878704700B58FB0029174
:101B80000021059105490193794403911146049080
:101B90006846FEF7C1FD0FB000BD0000E5FFFFFF86
:101BA0000CC908399A4202D2531C0B60107070475E
:101BB00010B54369002B02D0C046C04601E0FEF7D5
:101BC0006AFC012010BD1278014624310A700022FF
:101BD0004A700122ECE711680022D243E8E710B511
:101BE0004369002B02D0C046C04601E0FEF7B2FCBC
:101BF000012010BD12880146243182840022C28453
:101C00000122ECE711680022D243E8E7F7B5D21DC4
:101C10000025D20815A6D200F52905CA11D0002A40
:101C200005DA00214042914111A60A4608E00099D8
:101C300009688B0701D50FA602E0490701D50EA65A
:101C400001251146009F0024243704E000F09CFC8D
:101C500030323A55641C02460A43F7D12B463246CD
:101C600021460098FFF7A2FBFEBD00000000000027
:101C70002D0000002B00000020000000F8B51646E3
:101C80000C46054600F070FC0368FF200230C05C83
:101C9000012807D0FF2C0FD8185D00280CD0012098
:101CA0002C70F8BDFF333246214608331868C71838
:101CB00028460023B847F8BD0020C043F8BD0146C0
:101CC0008008081A02091018020A1018020C1018CD
:101CD000C008820012185200891A01E0401C0A391B
:101CE0000A29FBD270470000F0B50C46871A9C41C8
:101CF0000D46861A9D4103D2C01BA141D2196341F2
:101D00000D0D1F0DC94EEC1BAE435CD07F057F0D42
:101D10000026002F51D02D05AC46A943DD0201233A
:101D2000ED0A1B051D4320231B1B24D41746E74047
:101D3000381871412F46E740CC199D40281831468C
:101D400061410C0D27D161449A4013D50023401CFA
:101D5000594152000ED14008400001224B0052056B
:101D6000D34207D305204007C14201D5B04900E066
:101D7000B0493046F0BD6B00002A00D001229A180D
:101D80001F23203C1B1B01D5002302E0E54028183F
:101D900071410C0DD7D0012424050919C407CD07C2
:101DA00040084908E40F28436144002CD5D00024A2
:101DB000401C61419A40D0D1CDE76A05520DD9D17E
:101DC000C90FC907D5E79C4D4E00002801D001245A
:101DD00000E0002434195F00002A01D0012600E051
:101DE0000026BE19954FAC420CD8AE420AD8B44278
:101DF00006D001256D05EC42BCD010461946F0BD59
:101E00009942FCD000203946F0BDF0B51FB40C4615
:101E10000F46811A9F412546861A9D4106D201250B
:101E2000ED076F40401ABC4152187B41210D1E0D39
:101E30008D1BAC467D4D8D437ED075056D0D7CD0E0
:101E40000D05AE46AC431B031B0B794D52429D4121
:101E5000202366469B1B14D31746F74038180026EC
:101E60000090744160462F460741E41900989D4058
:101E70002818664116D4714671189A4025D5012359
:101E800020E093182A466A415200002B00D0521CD1
:101E90001E23203E9B1B002B61DD3541EE172818C9
:101EA0006641E8D5001876415B1C9A4000D3401C7F
:101EB0004B05F3181524E34010D3002B52D0714684
:101EC0007118D30FC01802D3491C05B0F0BD01230F
:101ED000DB079A42F9D140084000F6E7012252059B
:101EE000B21801D1002853D00123CC0ADB02994358
:101EF000891E002A08D1020C03D0020C00041039FC
:101F000002E00246002020390023550B05D11202C1
:101F10000823550B01D152010D23550C01D112019B
:101F20001B1DD50C01D192009B1C150D01D1520037
:101F30005B1C2025EE1A01E02CE022E00546F5406E
:101F400015439840CA1AE10769181305C918002AF1
:101F5000BBDA032040070818C10FC9070FE071461C
:101F60006118B2E7F10740080843711071444A0054
:101F70000CD001235B059A42A7D2C90FC9070020E4
:101F8000A3E74905490D26D1002001E00028F4D13E
:101F900000219AE7284D6600002801D0012100E0C9
:101FA000002171185F00002A01D0012600E0002600
:101FB000BE19224FA94210D8AE420ED8B14208D065
:101FC00001256D05E94206D01946A8024140104698
:101FD0007BE79C4201D0214677E70020394674E731
:101FE00010B50C465C4005D50124E4076340FFF7BB
:101FF0000CFF10BDFFF778FE10BD30B40C465C40FE
:1020000004D50124E407634030BC6DE630BCFCE637
:1020100070B50124E40761400D465D4002D4FFF72E
:1020200063FE70BD6340FFF7F0FE70BDFF07000068
:102030000000F0FF0000F07F0000E0FF0000F87FEC
:10204000F0B5F94D0C091E092C402E402F468BB0DF
:10205000A7437DD0B543FCD0002E7AD0002CFCD015
:102060000D465D40ED0F2543AC1BFF25AD04641903
:102070000894C502440DC9022143500DDC020443FB
:102080000120C00701430443D2020191200C110C2E
:1020900000958C46010423468B430A91614609044E
:1020A000E24D8A430991010A7D4449198039097832
:1020B00005464D4301266D18F605751B6943C90C8D
:1020C000640B891C4C436418B5012C1B250C2E0491
:1020D000B4434C434D43210C691889090591009D77
:1020E000E90701D00121C90704912C46019967082D
:1020F000CD072F434C08059DE10B4D432D0C294680
:102100006646754302950D4645432E46029D7D1B4E
:10211000B44100950D465D4301942C0C2F040D46EF
:102120005543AE462D0C3D43029503947546049CE1
:102130002D04641B049406D2029C039D641C00269B
:1021400075410395029401AC70CC009F7D1B01E0AA
:102150003EE162E1B44109040095079101940599BB
:10216000A4086143090C0C464443650BE7040C4684
:1021700066467443A646640B3C430395029474463A
:10218000049DE4042C1B049406D2029C039D641C51
:10219000002675410395029401AC70CC009F7D1B15
:1021A000B44101940C465C430095650FE7000C4672
:1021B0005443A646640F3C43039502947446049D21
:1021C000E4002C1B049406D2029C039D641C002690
:1021D00075410395029401AC70CC009F7D1BB44106
:1021E000AE09AF06049DC900AD092F43049DA406A6
:1021F000AD060495079D344369180791059DE10BD1
:102200004D432D0C29466646754302950D464543C0
:102210002E46029D7D1BB44100950D465D43019401
:102220002C0C2F040D465543AE462D0C3D43029514
:1022300003947546049C2D04641B049406D2029CEE
:10224000039D641C002675410395029401AC70CC7B
:10225000009F7D1BB44101948C050694079C890A5C
:10226000611800950791019C0599A4086143090C28
:102270000D464543680BEF040D46644665436C0B01
:102280003C43049FED047D1BAC4602D20025641C38
:102290006841009E019D371B8541084658430195C2
:1022A0000C46460FC5005443600F28436546E400C2
:1022B0002C1B02D20025401C6E41019D3F1AB541E6
:1022C0002846BD09800628438446A009BF064E0261
:1022D0000699A40676180743079D002068410A99CD
:1022E000079019430020099B00906046FF19134393
:1022F0004041E20F64003A43A4460446D71A8C4199
:10230000A04203D90120009020463A46C70F9418F6
:1023100040416246D20F2243644664000494009C0C
:10232000BE466400D71AA446044602978C417746FD
:10233000002F01D1A04204D96046401C8446029A75
:102340002046C40FA64694184041049A0546D20F71
:10235000224364466400D31A8D417146002901D19D
:10236000A84202D928461A46641C104301220028BC
:1023700000D0164361020020079B891904465C4186
:102380000223002C02DB491813466441089DCE0A43
:102390002D145D194B056705E10A2C050D190899E7
:1023A0003E43C9076940002B08D0934006D3002262
:1023B000761C5141002B01D1760876001C4A002D75
:1023C00043DB154241D0AA433FD030460BB0F0BDAD
:1023D00006180D464D41174C7642AC411AD395185C
:1023E0001C465C41134A6D42A24113D3012252059F
:1023F0004C00D4420AD15C00D4420BD04B4002D5F1
:1024000092021143E2E749004908DFE75940C90F4A
:10241000C90718E000200849D8E7054801420DD156
:102420000342F7D0F2E700000000FF078ABF000078
:102430000000F07F0000E0FF0000F87F11485940E5
:102440000143C01241400020C0E70123089A9B06C7
:102450009A4205DC032252078918C90FC907B5E75C
:10246000052252078918074A1143D2125140ADE79D
:1024700070B515461C4602460B4628462146FFF716
:10248000DFFD70BDFFFFFF7F70B505464800440DBE
:10249000124B0020002C0AD0634008D09A4206DA82
:1024A0006642B24203DD12054019514170BD002C55
:1024B00008D0002B09D0C90FC907002AF6DB084A4B
:1024C000114370BDC90FC90770BD28460A031043E8
:1024D00002D00020034970BD284670BDFF070000F0
:1024E0000000F07F0000F87FC10D10B50906090E4D
:1024F0002ED0FF2931D07E292DD319D0962916D27E
:10250000024675398A4005D0002402468A4003D32A
:10251000012302E00124F8E700230222CA41511EF0
:102520008843002B03D08018002C00D0904310BDAE
:102530000121420201D1012200E00022C00FC007A8
:102540000029F4D0002AF2D17F21C905084310BD2B
:10255000C00FC00710BD0021EFE74102FAD00148CB
:1025600010BD00000000C07F10B500F005F8001D90
:1025700010BD00BF31B5000000487047F8022020B0
:1025800000487047D80220200B4670B502468907E4
:102590008008084319469D08141AA941250908070F
:1025A000054308092C194841250A01060D43010A73
:1025B0002C194141200C0D0428430D0C00194D41EC
:1025C000002140194D41C00869070843E908840FFC
:1025D0008D002543840024184D4124196D41121BA0
:1025E000AB4107E00925ED432C115219634100244A
:1025F000401C61411C460A250026551BB441F1D2FE
:1026000070BD0000F8B51F46044601230068DB02D8
:10261000032601461840072A05DB002801D017A52C
:1026200006E017A504E0002801D016A500E016A5D5
:10263000102081432160A069C01E002FA06101D03D
:10264000401EA0612046FDF7EDFE002F09D0384660
:102650006268A1689047206A401C2062C01C20620A
:1026600006E0206AFAE762682878A1686D1C904746
:10267000761EF8D22046FDF7EBFEF8BD4E414E0027
:102680006E616E00494E4600696E6600F7B51646EB
:102690008AB0334878446C4603467C33C06F5A682E
:1026A0009B680DC42E487844763003AC0DC80DC429
:1026B0003720C001081837211B30FEF7F9F905460D
:1026C0000C46803D1B3C02D56442012000E0002006
:1026D0000027099010E0E0070CD00C202049784337
:1026E000794432464C3941186846012300F054FAC7
:1026F0006B4607C364107F1C002CECD1184F7F443D
:102700002E3F16E0E80712D02001C0190EC806912E
:10271000089307920068F04201D198190890324658
:10272000012306A903A800F037FA03AB07C36D1015
:10273000641C002DE6D10998002806D0324669466F
:10274000012303A800F07EFA05E001233246694622
:1027500003A800F021FA0A9B07C30DB0F0BD0000EA
:10276000E0BA0000034640000A4610B5400D0BD009
:102770000121C9070F24A40200191C036408214386
:10278000540D2143D20207E000210120F2E7D40FCB
:10279000490021435200401E0029F8DADB0FDB0715
:1027A000184310BDFFB50D46144685B04868516802
:1027B0000AF0D1FA00910190A868A1680AF0CBFA5A
:1027C00002910390A86861680AF0C5FA029A12188B
:1027D0008242029201D2012000E00020019A0B18EF
:1027E000D2180028019202D08A4202D903E08A421C
:1027F00001D2012000E000200099081800906868CC
:10280000A1680AF0A8FA029A12188242029201D232
:10281000012000E00020019A0B18D2180028019234
:1028200002D08A4202D903E08A4201D2012000E0AC
:10283000002000990818009028682168400049008D
:10284000400849084018FA49471814E00199400027
:10285000C90F08430090019802994000C90F08432E
:102860000190029803994000C90F08430290039811
:1028700040007F1E039000980028E7DA089800289F
:1028800001D0EC4E00E00026B74201DA012000E062
:102890000020002804902AD0F71BF806C00E15D09F
:1028A000029B2021091A039A8B401A430392029A31
:1028B000019BC2408B401A430292019A009BC24086
:1028C0008B4000991A430192C14000917B110DD0B9
:1028D0006F460320C11A03D500218200B95003E0DE
:1028E0008A008100BA587A50401EF3D537460398C3
:1028F0000299002800D00120014308980291002885
:1029000008460CD0002800D001200199019A490501
:1029100008430121D20AC902D202019200E001213A
:102920000E9B0122D207012B02D0002B03D013E013
:10293000002807D120E0904204D890420CD1019B9E
:102940000B4209D0019B5918019105D10099491CEE
:10295000009101D17F1C009200280DD01021084663
:102960000020C0460498002806D00F98002803D005
:10297000082108460020C04628682168019B009A6B
:102980004840C10F0598C90739430EC009B0F0BDD2
:10299000FFB587B0099A089808995368926840680B
:1029A000896896460022039317469446089A12684F
:1029B0005300099A5B081268520052089A1A9E4BFB
:1029C000D4180A9A002A01D0352200E0402206924B
:1029D0000022012315460492DB07059324E0002D15
:1029E00005D175460346039E4D1BB34109D3754679
:1029F0006646039B491B049D9841059B7519AC468F
:102A00005F4163463B4308D0059B049EDD07760883
:102A10002E435B080496059301E0521E641EC50F09
:102A2000ED0749184041521C069B9A42D7DB002D06
:102A300004D17546039A6B1A824101D203200CE03F
:102A4000039A0B466B404240134303D0014303D02B
:102A5000012002E0022000E00020614601910021F7
:102A6000009702910A99002905D06146400201436E
:102A7000704B019102E08007002302909C4201DA32
:102A8000012000E0002007003AD01A1BD006C00E3B
:102A900015D0029D2021019C091AC5408C40254378
:102AA000029C8C4000D001242543019C0295009D8E
:102AB000C4408D4000992C430194C14000915411B1
:102AC0001DD06D460221002202290CD10320001BDB
:102AD00007E0002804DB8600AE59002E00D001225A
:102AE000401C0328F5DB081B02D588002A5004E0AF
:102AF0008000285810438A00A850491EE3D51C4680
:102B00000A98002802980CD0002800D001200199D2
:102B1000019A490508430121D20AC902D202019251
:102B200000E00121109B0122D207012B02D0002BD3
:102B300003D013E0002807D11FE0904204D8904250
:102B40000CD1019B0B4209D0019B5918019105D171
:102B50000099491C009101D1641C009200280CD0FE
:102B6000102108460020C046002F06D011980028EA
:102B700003D0082108460020C04608980999019A08
:102B8000009B006809684840C10F0798C9072143A6
:102B900082600AC00BB0F0BD00B585B00193009211
:102BA0000A460146002302A8FFF7FCFD02A807C859
:102BB00005B000BDFFB50A461F4685B007990193D1
:102BC00001230091014602A8FFF7ECFD029903984A
:102BD000049ECA0F4900D20700920F2249089202B0
:102BE0008C1A0021002800DB0C46450013486D08B4
:102BF000844214D3079A002A04DA441E0026104D9A
:102C0000F64302E004460D460E4610210846002019
:102C1000C046002F03D0042108460020C0462005EE
:102C2000E90A0843009908436905F20A1143ADE631
:102C300002C0FFFF013C0000FF3F0000FF07000053
:102C4000FFFFFF7F00B585B0019300920A46014661
:102C5000002302A8FFF79CFE02A807C8A8E7FFB55B
:102C60000A461F4685B0079901930123009101464A
:102C700002A8FFF78DFE02990398049ECA0F49002F
:102C8000D20700920F22490892028C1A00210028D4
:102C900000DB0C46450011486D08844214D3079AA6
:102CA000002A04DA441E00260D4DF64302E00446D5
:102CB0000D460E46102108460020C046002F03D0C6
:102CC000042108460020C0462005E90A084300996F
:102CD00008436905F20A114358E60000FF070000A7
:102CE000FFFFFF7FF8B5264C4E00069DA6420AD88E
:102CF000A64201D1002806D15E00A64203D8A64212
:102D00000AD1002A08D00D242404254233D02946B4
:102D1000002000F08FF9F8BD0C461C4311D49942F5
:102D200007D0C81A02D3EFF30080F8BDEFF300809C
:102D3000F8BD801A02D3EFF30080F8BDEFF30080F6
:102D4000F8BD09242407E5008B4207D0581A02D3A6
:102D5000EFF3008006E0EFF3008007E0101A03D3E2
:102D6000EFF30080A04303E0EFF30080A04328438B
:102D700080F30088F8BD009500F074F9F8BD0000FC
:102D80000000E0FFF0B53D4B02460C461C40002021
:102D9000002C63D03A4D8B4366D000296BDB0B0DC2
:102DA0001D05A94301252D0529430124FD33E340D9
:102DB00001D392184941FF3381339C468B02940D15
:102DC0000121234389074C42920200271B198C10D2
:102DD0005D1A04D42D1B02D42B46650049199218A4
:102DE0005B416408F4D15C1A08D40125ED07EE17A5
:102DF0005519744102D42A462346491C94185B4154
:102E0000012292071D46E61B8D4106D4B61A854164
:102E100003D42B46550034467F1924195B415208D0
:102E2000802AEFD1234300D0022338460A22D04023
:102E300001D3012213438A0510436246890A120511
:102E40008918002B09D00122D34002D30022401C54
:102E50005141002B01D140084000F0BD0B0313434A
:102E600007D0C90FC907F0BD0803104303D10029DB
:102E700001DB1046F0BD00202946F0BD0000F07FC8
:102E80000000F87F10B5FF231B0644009C421DD8AC
:102E90004C009C421AD80346124A0B4307D4401AEE
:102EA00002D3EFF3008010BDEFF3008010BD081ACD
:102EB00003D3EFF30080904305E0EFF3008001219E
:102EC0009043C907084380F3008810BD0D231B04FD
:102ED0001A4204D01146002000F0ACF810BD00F0FA
:102EE000CBF810BD0000009010B5FF22C30D1340B9
:102EF00009D05A4007D0914205DA5C42A14202DD76
:102F0000C905081810BDC40FE407002B06D0002A1D
:102F100006D0002902DBFF20C0050443204610BD77
:102F20004102FCD0004810BD0000C07F004870473F
:102F3000D80220207546FFF7F9FFAE460500694626
:102F40005346C008C000854618B020B5FDF7B0F95B
:102F500060BCB64600260027C0C5C0C5C0C5C0C5F8
:102F6000C0C5C0C5C0C5C0C5403D490849008D4663
:102F7000704710B50446C046C0462046FDF76EF9BE
:102F800010BD000082078B079A423FD170B5920FA7
:102F90000AD0032402780B78401C491C002A33D045
:102FA0009A4231D12042F5D1214EF40104C808C91A
:102FB000951B9543254018D19A420FD104C808C9E2
:102FC000951B9543254010D19A4207D104C808C9E2
:102FD000951B9543254008D19A42E7D012BA1BBAF7
:102FE00001209A4200D2404270BD12BA1BBA2DBADB
:102FF00018241000E0401900E140401A05D12E00CD
:10300000E64002D1083CF4D1D01A70BD02780B78AA
:10301000401C491C002A09D09A4207D102780B783B
:10302000401C491C002A01D09A42EFD0D01A7047A8
:1030300001010101C80212D54803400F002804D045
:10304000C803C043012188407047EFF300800001AE
:10305000000903210907084380F300887047002016
:103060007047000010B500200249029A00F00CF8E9
:1030700010BD00000000F87F10B5024800F004F811
:1030800010BD00000000C07F10B50C461107090FED
:10309000092904D00A290AD008290CD104E01146D4
:1030A0000820FFF7C7FF06E0510606D501E05106EC
:1030B00001D50120C007214610BDD10607D5010169
:1030C0000909CC084907000E0006044309E0410F36
:1030D00020024907000A0143200E00061D22D141AB
:1030E00001430846E7E7000001491820ABBEFEE7B0
:1030F00026000200704730B58C180278401C130778
:103100001B0F01D10378401C120906D10278401C24
:1031100003E00578401C0D70491C5B1EF9D101E0ED
:103120000B70491C521EFBD1A142E6D3002030BDDA
:10313000811E091F00BFFCD270470000B0B51122EC
:10314000120283580C4C1C400B894D881D438B790F
:103150002B430A4D1D402B1983508B88CC791C437F
:10316000097821435D239B001940801842689A43E7
:1031700089184160B0BDC04680CCFFFF7F3300009E
:1031800010B50122120383180C785C6049788150D5
:1031900010BD0000F0B584B0012422022A4B19684A
:1031A00003929143196035490D686D04FCD5457E45
:1031B00025409E69A64374199C612024045D032563
:1031C0002C40DE69AE433419DC61204C25680526AD
:1031D0002660466A37681F6276685E6207262E4060
:1031E0002660C4697F252D02DE69AE436406640C47
:1031F0003419DC610768456882680092C668026914
:103200000192426902929A69114C14403A07120BDA
:103210002D03ADB2AA183243009D2D072D0D154385
:10322000019A1543029A1543007E2843094A024039
:10323000101998611868039A10431860086880058F
:10324000FCD504B0F0BDC04608010B40001340405F
:103250008D00F0FF72FF0F00074988600748026881
:103260009202FCD5012212040B6813430B60016823
:10327000C906FCD57047C04604010B4004020B4050
:10328000F0B53C4A82183C4BC31808794E793B4D47
:103290003B4C002E23D0202804D00526F601002820
:1032A00003D003E0374E002800D18826576F2F4007
:1032B00037435767976F2F4037439767566B2640C2
:1032C0005663966B264096630026566596658F2654
:1032D000F6435F6837405F609F6837409F608E7934
:1032E000096820280BD0002819D1491E5160D76EDB
:1032F0002F4088210F43D7661746703719E0491EC3
:103300005160D16E29401F4F3943D166116F29405A
:1033100039431167012149071B4D174609E0490848
:103320005160D76E2F400521C9010F43D76617465C
:1033300070373C682C400C433C60D16A104C2140F3
:10334000D162116B214011630021D16411658F217D
:10335000C943D46F0C40D4671C680C401C60064302
:10336000BD2030401168094B0B40C018801C106014
:10337000F0BDC046041800008418000024493E0037
:103380008888FDFF01040000FFFFFFCF4000FFCF52
:1033900010B507239B04194092008018024A8458F4
:1033A0009C436118815010BD3018000010B5029C7C
:1033B000A400001911431943014A815010BDC046B1
:1033C0005018000092008018014A81507047C04692
:1033D0001018000010B50122120383180C789C60AD
:1033E0004B7883508978014A815010BD0C11000040
:1033F000B0B51122120283580124A34383500B88D5
:103400008C781C438B882343094C1C408358094DFE
:103410001D40631983508B79CC791C43097A214371
:103420007E231940801842689A4351184160B0BD0C
:1034300018670000E798FDFF10B5012212038318FA
:103440000C789C604978815010BD0000034A8018B8
:1034500002681206FCD481617047C0460811000062
:1034600080B503480068800701D503F023FC80BDC8
:103470004011404003A000F01DF80320012106F098
:10348000E9FAFEE721212120556E68616E646C65C2
:103490006420496E7465727275707420486172643C
:1034A0004661756C745F48616E646C6572202121A1
:1034B000210A000083B0B0B581B0044605A80EC053
:1034C00005AB009301200102074D28462246FCF778
:1034D0006BFF0648064907A22B4609F07BFA01B0AC
:1034E000B0BC01BC03B0004768072020008010403A
:1034F000DEF300005B4552524F525D0010B582B0C2
:1035000014460A46014600930848234600F06AFB29
:1035100002B010BD10B582B014460A4601460093B1
:103520000248234600F05AFD02B010BDA40120203D
:1035300080B5D06011614820105C002803D010468F
:1035400000F006F880BD104600F0F4F880BD0000E1
:10355000F0B585B00446C06821690AF077FC2746BB
:103560004A37F988064600291AD00121C90788433D
:10357000656C294609F0B6FD002801D000260FE051
:103580000021304609F0A1FD002804D1304629462B
:103590000AF05CFC03E0304629460AF02FFB0646A1
:1035A0006661A569304629460AF050FC014620684C
:1035B0000AF0E8FB0190388800280AD00120C107F2
:1035C00030468843E16A09F06AFD002801D00020F6
:1035D00003E0616830460AF0D5FB00902846039569
:1035E00029460AF00BFB0146049630460AF02EFCF1
:1035F000E1690AF003FB0146A0680AF0C3FB054637
:103600000297F87D002813D07F20C005676D3946EA
:103610000AF01CFCA16D0AF0B5FB064638462946A7
:103620000AF0B0FB31460AF0E9FA0546A065E0650C
:10363000019800990AF0E2FA29460AF0DFFA0546F5
:10364000266C31460AF0DAFA074624480178002948
:1036500006D101210170616B38460AF0CFFA0746A6
:10366000276302998888897D00291CD000282CD0E6
:10367000A16B384609F036FD002805D10021284607
:1036800009F018FD00280BD1E16B384609F012FD56
:1036900000280AD10021284609F001FD002804D1A4
:1036A0002663374601E000280FD0A56B384629462F
:1036B00009F000FD002806D1E56B3846294609F0DF
:1036C000EEFC002801D125632F4627640498A061F1
:1036D0000398E061384605B0F0BDC046E004202004
:1036E000B0B50D4604462421FDF79BF94A21002080
:1036F00060524821655421464A31C88088804880FC
:1037000009496165A065E06560640849084A62622C
:10371000A162E06220636063A263E16320644834D5
:10372000FF2002302083B0BD3333333F00803BC5E0
:1037300000803B45F0B585B00446C06821690AF0B9
:1037400085FB21464A310491C988054600291AD0D3
:103750000121C9078843666C314609F0C3FC002883
:1037600001D000250FE00021284609F0AEFC00281A
:1037700004D1284631460AF069FB03E02846314669
:103780000AF03CFA05466561216828460AF0FAFA13
:10379000064604980088002803960BD00120C10734
:1037A00028468843E16A09F09DFC002802D1216A7D
:1037B00067684AE06768216A384601910AF0E2FAD0
:1037C00031460AF01BFA616B0AF018FA06460498B3
:1037D000807D002819D0A16B304609F083FC0028B9
:1037E00005D10021284609F065FC00280BD1E16BCA
:1037F000304609F05FFC002807D10021284609F077
:1038000071FC002801D0019905E0284601990AF0D1
:10381000F5F901462062049840880028039E14D0E0
:103820000097676A08460191394609F043FC002871
:1038300006D1A76A0198394609F031FC002802D167
:103840002762394600E00199009F384600910AF04E
:1038500099FA0190A16928460AF0F8FA0146A06891
:103860000AF090FA07460498C07D0028029515D00A
:103870007F20C005656D29460AF0E8FAA16D0AF0BF
:1038800081FA06462846029D39460AF07BFA3146FF
:10389000039E0AF0B3F90746A065E065304601993A
:1038A0000AF0ACF939460AF0A9F9616B0AF0A6F9F9
:1038B0000646206304988088002832D0A56B3046E5
:1038C000294609F0F7FB00282F4606D1E76B304662
:1038D000394609F0E4FB002801D127633E460498ED
:1038E000807D002821D03046294609F0FBFB0028C6
:1038F000029D05D10021284609F0DCFB00280BD1F0
:10390000E16B304609F0D6FB00280AD10021284699
:1039100009F0C5FB002804D1064900980AF032FAE4
:103920002062A561304605B0F0BD029DA56130461C
:1039300005B0F0BD3333733F00218165C16501647B
:10394000016341618161C1610162704710B54C231F
:103950000124C4524162826210BDB0B50C460546D6
:103960000021204609F0A6FB411E88414A216852E9
:10397000EC62B0BD10B54E230124C4528163C26312
:1039800010BD0EC07047000010B5002812D081682D
:103990008900EB4A924B8B50816889008B58012437
:1039A00064061C438C50C1680269E64BCA5001682A
:1039B0004068C85010BDC046F0B591B00C910446A7
:1039C00080688000DE4B8649C150A0688000C158E5
:1039D000012252060A43C25003CCDA4D41519520D0
:1039E00046016068A1688151208A083C01F0DAFD37
:1039F000E068216941512720C70103CC1091C059CB
:103A00000F90208A083C01F0CDFDE06821698151CA
:103A1000208B01F0C7FDE0682169415103CC0E9174
:103A2000C0590D90208A083C01F0BCFDE068216976
:103A30008151208B01F0B6FDE0682169415103CC32
:103A40000B91C0590A90208A083C01F0ABFDE06858
:103A500021698151208B01F0A5FDE0682169415168
:103A600003CC0991C0590890208A083C01F09AFDC6
:103A7000E06821698151208B01F094FDE0682169A3
:103A8000415103CC0791C0590690208A083C01F0AF
:103A900089FDE06821698151208B01F083FDE06898
:103AA0002169415103CC0591C0590490208A083CFA
:103AB00001F078FDE06821698151208B01F072FDF1
:103AC000E0682169415103CC0391C0590290208ADA
:103AD000083C01F067FDE06821698151208B01F00D
:103AE00061FDE0682169415103CC0191C759208AE9
:103AF000083C01F057FDE16820698851A06880000A
:103B00008122F74BC25022686068F64BD05023697F
:103B10008B5151190C9A002A12D00861208B01F0A8
:103B200041FDE06821694151208B01F03BFDE068D7
:103B300021698151208B01F035FD03CC41510FE00B
:103B40000860208B01F02EFDE06821694151208B37
:103B500001F028FDE06821698151208B01F022FDF0
:103B60000E980D990140081A414241418800109970
:103B70000F9A0A40511A4A424A41D10008180B993B
:103B80000A9A0A40511A4A424A415100401809997A
:103B9000089A0A40511A4A424A41801880000799FF
:103BA000069A0A40511A4A424A4151004018059962
:103BB000049A0A40511A4A424A41801880000399E7
:103BC000029A0A40511A4A424A415100401801994A
:103BD0000F40791A4A424A418018C0B211B0F0BD74
:103BE00081000E00F0B585B00126002B69D0044697
:103BF000002866D00A9F002F63D01D460192A0685E
:103C00008000F34A029181210491815003CCF24A51
:103C10008150F04E8151208A083C01F0C3FCE068DD
:103C200021698151208B01F0BDFC9520460103CC18
:103C30008151208A083C01F0B5FCE06821690396B7
:103C40008151208B01F0AEFC02984600F1B2204673
:103C500000F07AF8204600F047F900280AD0022642
:103C6000DB49049ADC4BA06880000A5006CCCA509D
:103C7000083C12E02046019900F066F8204600F06A
:103C800033F9A1688900049AD14B5A5006CCD24B23
:103C9000CA50083C002817D00226E0682369039D1B
:103CA00043514A51208B01F07DFCE0682169C94DE8
:103CB0004151208B01F076FC03CC4151208A01F068
:103CC00071FC304605B0F0BDC24808180260208B78
:103CD00001F068FCE0682169BE4A8150208B01F048
:103CE00061FC03CC039A8150208A083C01F05AFC05
:103CF000E0682169039A8150208B01F053FC012078
:103D000002900643F1B2204600F01EF8204600F073
:103D1000EBF80028A3D1029E06E000212046FFF721
:103D20004BFE38707F1C6D1EE8B20128E749049AEB
:103D3000E74BF2D0002801D03146EFE7002692E7AA
:103D40000480424090120000F0B581B00D46044658
:103D500080688000DD498122425003CCDC4A8150DA
:103D6000952256016268A36893516AB2D94F103701
:103D7000083C002A3A4600DAD64A8150208B01F0EE
:103D800011FCE0682169D34A8150208B01F00AFCC4
:103D9000E06821698151208B01F004FC68063846F7
:103DA00000D5CC4806CC0A50208A083C01F0FAFB2A
:103DB000E0682169C74A8150208B01F0F3FBE0687D
:103DC00021698151208B01F0EDFBA806384600D512
:103DD000C04806CC0A50208A083C01F0E3FBE068AA
:103DE0002169BC4A8150208B01F0DCFBE06821692D
:103DF0008151208B01F0D6FBE806384600D5B54846
:103E000006CC0A50208A083C01F0CCFBE06821690E
:103E1000B04A8150208B01F0C5FBE06821698151D7
:103E2000208B01F0BFFB2807384600D5A94806CCF7
:103E30000A50208A083C01F0B5FBE0682169A54AD8
:103E40008150208B01F0AEFBE06821698151208B0D
:103E500001F0A8FB6807384600D59E4806CC0A50FA
:103E6000208A083C01F09EFBE0682169994A815054
:103E7000208B01F097FBE06821698151208B01F0D4
:103E800091FBA807384600D5924806CC0A50208AF4
:103E9000083C01F087FBE06821698E4A8150208B45
:103EA00001F080FBE06821698151208B01F07AFBF1
:103EB000E80700D0874F03CCC151208A083C01F0AD
:103EC00071FBE0682169834A8150208B01F06AFB15
:103ED000E06821698151208B01F064FB01B0F0BDE5
:103EE00004804240D0120000F0B587B004468068DC
:103EF0008000C94BCD49C150A0688000C15801263F
:103F000072060A43C25003CC724D41519520059070
:103F100042016068A16806928150208A083C01F045
:103F200041FBE06821694151208B01F03BFB2720D8
:103F3000C70103CCC0590840083C2546103523462C
:103F40000C330022884231D1039204930296201D43
:103F500001904B208600208B01F024FB03CCC2593A
:103F60000A40083C8A4225D1761EF4D105994901C0
:103F70004218574BC018A3689B008125A64EF550E8
:103F800063680360E068256945501360208B01F089
:103F900009FBE06821694F4A8150208B01F002FB48
:103FA000069A103A2346029D019807E028461546D6
:103FB000069A03E02846039D069A049B0068196848
:103FC0008850208B01F0EEFA284607B0F0BDC046BD
:103FD0000480424090120000D0120000F0B583B07F
:103FE00004460120002B6ED0002C6CD0089F002FBF
:103FF00069D01D460092A068800002918649812206
:104000000192425003CC324A8150324E8151208A73
:10401000083C01F0C7FAE06821698151208B01F06A
:10402000C1FA9520460103CC8151208A083C01F059
:10403000B9FAE06821698151208B01F0B3FA029846
:104040004006010E2046FFF77FFE2046FFF74CFF9B
:1040500002210291002819D120460099FFF774FE31
:104060002046FFF741FF002810D103E06D1E7F1CA2
:10407000002D09D039782046FFF766FE2046FFF76D
:1040800033FF0028F2D001E000200290A0688000F9
:104090006149019A0A5003CC0D4A81506268A368B5
:1040A00093518151208A083C01F07CFAE068216933
:1040B000084D4151208B01F075FA03CC4151208A03
:1040C00001F070FA029803B0F0BDC046048042408F
:1040D000D012000090120000F0B581B01C4C1D49B8
:1040E0002046FFF777F91C492046FFF7C9F81B481F
:1040F00001689A4A0A400260002500952046294638
:104100002A462B46FFF752F9204629462A46FFF752
:104110003FF97D20C600204631462A46FFF752F976
:1041200001270097204629462A462B46FFF73EF9ED
:10413000204629463A46FFF72BF9204631463A46B3
:10414000FFF740F9064887600321016001B0F0BD28
:1041500000A0864004EF000008EF000004B886408D
:1041600000B1864070B52C4984220A602B48012397
:1041700003604A60022404604A6380220260284A85
:10418000832494639D05056087251565DE0506601B
:10419000D566DB06036082230B65224D4D658B637C
:1041A000CD639461CC676B1C5361812313665366A6
:1041B000536413609362D3631B4C0C671B4D0D66F5
:1041C0004C668C660C644C648C65CC651463D4625C
:1041D00094644C67536093608B649366936513613A
:1041E000D36001463039124A0A6002601148124910
:1041F0000160016311480168114A0A4302600169C4
:10420000104A0A4302611048016A104A11430162D0
:1042100001681143016070BD04804240D0120A4021
:10422000848042408200040081000C0081000E0066
:1042300000F10006A0320A400000530C90330A40FF
:1042400000FF000CF0C0000028300A40F0208C0075
:1042500070B582B01B4C1C492046FFF7BBF81B49C8
:104260002046FFF70DF81A4801683C4A0A400260F0
:1042700000250095204629462A462B46FFF796F84A
:10428000204629462A46FFF783F8204629462A4633
:10429000FFF798F801260096204629462A462B4625
:1042A000FFF784F8204629463246FFF771F820468A
:1042B00029463246FFF786F80648866003210160EA
:1042C00002B070BD0000864010EF000014EF000047
:1042D000041886400011864070B582B01B4C1C4902
:1042E0002046FFF777F81B492046FEF7C9FF1A481A
:1042F00001681A4A0A4002600025009520462946B6
:104300002A462B46FFF752F8204629462A46FFF751
:104310003FF8204629462A46FFF754F80126009622
:10432000204629462A462B46FFF740F820462946D4
:104330003246FFF72DF8204629463246FFF742F86D
:10434000074886600321016002B070BD000009408B
:104350001CEF000020EF0000041809407F00FFFF61
:104360000011094010B50D4C0D492046FEF708FF1D
:104370000C492046FEF7E2FE0B4841680B4A0A4012
:1043800027324260816812220A432D218A438260CB
:10439000016801220A43026010BDC04600A04640E9
:1043A00028EF00002AEF000004B1464000FCFFFFA8
:1043B000B0B50F48002404600F2000020D4D29689D
:1043C000814301204002081828600320C043291FB0
:1043D0000A6802400A600848FEF7DCFE28681021DF
:1043E00001432020814329602046FEF735FFB0BD00
:1043F00008030B4004010B4034EF000010B5D74C0C
:104400001A492046FFF718F819492046FEF7F0FF31
:104410000320C103174802688A43026001693E4ACB
:104420000A401532026141692D220A4312218A4352
:104430004261426801210A4043688B439A184260F6
:104440008A020D4B1C6814431C604A040368134322
:104450000360C26870231343C360C2680723134319
:10446000C36002680A43026010BDC0465CEF0000F2
:104470005EEF0000009110402890104010B5224CD3
:1044800022492046FEF7D8FF21492046FEF7B0FF1B
:104490000320C1031F4802688A43026001691E4A63
:1044A0000A404121C90051180161416935220A437E
:1044B0000A218A434261426801210A4043688B43D2
:1044C0009A1842608A02154B1C6814431C60FF2234
:1044D0001206134B1C689443CA07A2181A604A04B8
:1044E000036813430360C26820231343502293439D
:1044F000C360C2680223134305229343C36002686A
:104500000A43026010BDC0460000504068EF000042
:104510006AEF0000001150400000FFFF28105040DB
:1045200000E400E080B500F023F8FFF71BFEFFF782
:104530003FFFFFF78DFEFFF7CFFEFFF7CDFDFFF743
:104540005DFFFFF79BFFFFF70DFF9C200549002251
:104550000A54B82004490A54542004490A54242017
:104560000A5480BD84092020240A20204C032020E6
:10457000F0B581B010481149416011484160114BBC
:104580005960114C6160114D6960114E7160114F9D
:104590007960114841601149074A1160084A116069
:1045A0001960216029603160396001601020FEF7D8
:1045B000BFFD01B0F0BDC04600080A40030000B1D5
:1045C00000280A40000886400008094000A88640EC
:1045D000008810400008504000A846400100002616
:1045E00002480168491C01607047C046BC17202082
:1045F000B0B5044D2868C4B2204600F0B1F8AC62F2
:10460000B0BDC04620901040B0B5044D2868C4B27B
:10461000204608F093FAAC62B0BDC046201050406E
:1046200010B500280DD000290BD02822825C042A66
:1046300007D803462833940004196161521C1A708C
:10464000086110BDB0B5164D6878012807D102F099
:10465000CBFC6968421A13490B889A4200D2B0BD5C
:104660006860E878002810D00024204603F05AF94A
:1046700000F02EF8EC70A878401CA8702978C0B221
:104680008842ECD3AC706C70B0BD8888897909041D
:10469000401803F047F900F027F80120E870B0BD9A
:1046A00060042020480020200120C1060D4A11602E
:1046B00013490A6882430A6004480021C16001610D
:1046C00041610181818001707047C046BC03202098
:1046D0000120C106034A116009490A6882430A6041
:1046E0007047C046A0120A400120C106034A11606B
:1046F00003490A6802430A607047C04690120A40A4
:1047000004B88640F0B503AF81B06E461F4C1C3430
:10471000204603F0A9F9002815D00246C01D072144
:1047200088436946316069460D1AAD4620462946E0
:1047300003F0AAF9002808D002460848294608F0E4
:104740006DF9002002E0002002E0FF2031688D4674
:1047500040B2FE1F053EB546F0BDC0460080104089
:10476000B0B582B00B280CD10748006801A90870C9
:10477000064D281D0124224603F0CAF9012800D164
:104780002C7002B0B0BDC04624911040D40320204C
:1047900080B582B001A908700748012203F0DEF855
:1047A000002803D0FF2040B202B080BDFFF7AAFF6F
:1047B00040B202B080BDC04648052020F0B581B0AF
:1047C000044602F011FC714D2969411A64294FD346
:1047D0006D498C421BD00A462C32944238D00A468E
:1047E000583294423CD084318C4240D1297D0129F9
:1047F00039D06968002938D00A79022A49D139228A
:104800008A5CFF2A45D03931FF220A702DE0297DCC
:10481000012928D06968002927D00A79022A29D1DC
:1048200039228A56531C25D02C2353434F6BFC1836
:1048300000210646204603F043FB3046002F14D0EB
:10484000E269002A11D0217A6068904730460CE076
:10485000297D012907D0044605F0A6FA204604E088
:10486000297D012910D10021297501212970286194
:1048700001B0F0BDCA6A012AF7DB531ECB620C6B94
:10488000A242F2DC0B63F0E7044602F05DFB204637
:10489000EBE709690029E8D06960E6E7B0B53A4975
:1048A00088420BD00A462C32904229D00A46583210
:1048B00090422FD08431884236D0B0BD3348017D3C
:1048C000012935D04068002820D00179022935D14E
:1048D000392141564A1C31D02C224A43456BAC1831
:1048E0000021204603F0ECFA002D0FD0E269002AE7
:1048F0000CD0217A60689047244801210170B0BD36
:104900002248017D012913D005F04EFA1F480121EC
:104910000170B0BD1D48017D012909D002F014FBD2
:104920001A4801210170B0BD1848017D012912D13A
:1049300000210175154801210170B0BDC16A01292E
:10494000E4DB4A1EC262036B9942DFDC02630F485C
:1049500001210170B0BD41680029D7D00A79022A2F
:104960000AD139228A5CFF2A06D03931FF2008702B
:10497000064801210170B0BD09690029C6D0416017
:10498000024801210170B0BD6808202008042020E1
:1049900080B5FEF7CDFB80BD89004018C26070472E
:1049A000F0B581B01E4615460F4604462C21FCF793
:1049B00038F8A7608020A070267168426841C00165
:1049C000E907490E0818E07001B0F0BD10B59A4B28
:1049D0001A68002A16D014460021C943844214D014
:1049E000A46A002C0ED084420FD0A46A002C09D0F7
:1049F00084420AD0A46A002C04D0844205D0A46A60
:104A0000002CE9D1186082620021084610BDC04622
:104A1000B0B58948046802E00140E170A46A002C46
:104A200000D108E12079A1688847E278510702D0D7
:104A30002188491C2180D109884203D1C720024026
:104A400011460EE0C7211140D3085B1C07251D400D
:104A5000EB005918E170002D04D047210A40C00135
:104A60001118E17007200840052806D8784400791D
:104A70004000874404441C5F026FF820CCE7A27812
:104A80000F2010404A06D20FCBB2DB09934200D070
:104A900084E0A070E268002A00D1BCE02046904784
:104AA000A178012008430E218843E178B4E048064C
:104AB000C00FCAB2D20982425FD1A0780F25284028
:104AC000A070E168002902D020468847A0780146FE
:104AD00029400F2905D0F0210140401C28404018F2
:104AE000A0706169002901D02046884700202080FD
:104AF000E078F8210140C81CE070A46A8FE74806FE
:104B0000C00FCAB2D20982424CD12088112800D2EB
:104B100084E7A0780F2202405032A270226A002A55
:104B200002D020469047E178F8200840401DE07010
:104B3000A46A74E74806C00FCAB2D209824244D1BF
:104B400020880B2800D269E7F8200140481CE0705B
:104B5000A46A64E7A2780F2010404A06D20FCBB2B5
:104B6000DB09934247D16030A070616A002900D10F
:104B700054E720468847A46A51E720880B2800D2D2
:104B80004CE7A2780F20104002284ED001283AD1DD
:104B90003120A070A269002A32D134E08030A070A8
:104BA000A46A3CE7A0780F2202401032A27022696A
:104BB000002A02D020469047E17800202080F8208B
:104BC0000840801CE070A46A29E7A0780F2101400A
:104BD0001031A1702169002901D020468847208822
:104BE000092815D800202080E078F8210140881C91
:104BF000E070A46A13E71030A0702269002A02D086
:104C000020469047E178F8200840E070A46A06E763
:104C1000E078F82100E70120A07000202080F82033
:104C20000840401CE070A46AF9E64220A070E269E6
:104C3000002AE5D1E7E7B0BDE00A2020B0B54B215E
:104C4000C900164A535C312B07D80C245C43042559
:104C500015555B1C535411194860B0BDB0B54B21BC
:104C6000C9000E4A535C312B07D80C245C43052540
:104C700015555B1C535411194860B0BDB0B54B219C
:104C8000C900064A535C312B07D80C245C4302252B
:104C900015555B1C535411194860B0BD6413202096
:104CA00070477047F0B585B001F0E2FF03F01AFAE3
:104CB00000F0E6F9FFF7F4FFE34D0026AE60019641
:104CC000E24C2046FEF738FEEE60E14F7E60029631
:104CD00020466430FEF730FE2E61BE60039620460B
:104CE000C830FEF729FE6E61FE6004964B208000FE
:104CF0002018FEF721FEAE613E61D648FEF71CFE8D
:104D0000D548FEF719FED548FEF716FED448FEF743
:104D100013FE01A803F0ECF905B0F0BDF0B585B0C5
:104D2000C94E32798A4201D1B46934E031710090C0
:104D300034460026A6600196C44D2846FEF7FCFDC9
:104D4000E660C34F7E60029628466430FEF7F4FDAD
:104D50002661BE6003962846C830FEF7EDFD666109
:104D6000FE6004964B2080002818FEF7E5FDA66142
:104D70003E612646009CF548FEF7DEFDB648FEF78C
:104D8000DBFDB648FEF7D8FDB548FEF7D5FD01A816
:104D900003F0AEF9B461AE4F7868B96808F02EFF41
:104DA000F96808F02BFF396908F028FF264908F058
:104DB000E9FF0146204608F021FF04460120C00714
:104DC00084437F20C5052046294608F073F9002852
:104DD00032D1009535460026AE6001969B48FEF71D
:104DE000ABFDEE607E60029698486430FEF7A4FD4D
:104DF0002E61BE6003969548C830FEF79DFD6E613A
:104E0000FE6004964B20800090490818FEF794FD40
:104E1000AE613E61CD48FEF78FFDD148FEF78CFDB7
:104E2000D348FEF789FDD548FEF786FD01A803F0BB
:104E30005FF903202871009D2046294608F045F9B6
:104E4000411E884105B0F0BD000080BEF0B585B0C0
:104E50000C46E94E3179032902D1307100283ED049
:104E600002F00AFC022C73D0012C30D00146002045
:104E7000002C00D0A8E0002900D1A5E0032030716B
:104E8000012004F0E3FF05F039FD0025B560019530
:104E9000DA4C2046FEF750FDF5603746D84E756077
:104EA000029520466430FEF747FD3D61B5600395ED
:104EB0002046C830FEF740FD7D61F56004954B202B
:104EC00080002018FEF738FDBD613561A4E00028A0
:104ED0005BD00020CA4900220A7005B0F0BD00274F
:104EE000B7600197C54D2846FEF726FDF760C44E12
:104EF0007760029728466430FEF71EFDBE480761C2
:104F0000B76003972846C830FEF716FDBA484761D8
:104F1000F76004974B2080002818FEF70DFDB64877
:104F200087613761B44EB748FEF706FDB648FEF715
:104F300003FDB648FEF700FDB548FEF7FDFC01A8ED
:104F400003F0D6F84748B06102F096FB022C8BD1F3
:104F5000AB4D0146FC3903290BD901467E390229A4
:104F600009D33F2807D0691C002000220A7005B031
:104F7000F0BD0129F1D06878401C68703178C0B26A
:104F8000884223D2002005B0F0BD9D4D2878401CFA
:104F90002870C1B20020022916D36A68A9680446A5
:104FA000104608F02BFEE96808F028FE296908F091
:104FB00025FE7D21C90508F0E5FE2B4908F092F891
:104FC00001462046002901D005B0F0BD0320307114
:104FD000012004F03BFF05F091FC0027B76001972A
:104FE000864C2046FEF7A8FCF7606F6002972046CB
:104FF0006430FEF7A1FC3761AF6003972046C830EC
:10500000FEF79AFC7761EF6004974B208000201830
:10501000FEF792FCB7612F617A48FEF78DFC7A4863
:10502000FEF78AFC7948FEF787FC7948FEF784FC96
:1050300001A803F05DF8724800210170411C0120B5
:1050400000220A7005B0F0BD50002020C8152020B5
:105050009C0420206012202058172020E4042020E7
:10506000C417202000007F430000F04280B5992043
:105070008100CF48FBF7D5FCD2480021017080BDEC
:10508000F0B581B005F0F8FA5E4D002428462146BF
:10509000FEF726FB8120C1052D4A28462346FEF750
:1050A00070FC2C4E2C4F284631463A46FEF762FCE7
:1050B000284631463A46FEF749FC28492846FEF77D
:1050C0004CFC514D28462146FEF70AFBFF20810586
:1050D000244B28462246FEF754FC2349234A2846FF
:1050E000FEF748FC494D28462146FEF7F9FA2149CA
:1050F000214B28462246FEF744FC284631463A46D4
:10510000FEF738FCF14F38462146FEF7E9FA1C4914
:10511000384622462346FEF734FC1A4D1A4E3846CE
:1051200029463246FEF726FC184F38462146FEF740
:10513000D7FA3846064922462346FEF722FC38466F
:1051400029463246FEF716FC01B0F0BD6012202061
:10515000CDCCCC3D00004842000048C20000A04039
:1051600058172020CDCC4C3E00002041000020C12B
:10517000E4042020CDCC8C3F9A99993EC41720207E
:10518000000060410000F0410000F0C12009202033
:10519000F0B585B0CC4D0026AE600196D34C2046CC
:1051A000FEF7CAFBEE60D04F7E6002962046643068
:1051B000FEF7C2FB2E61BE6003962046C830FEF7A4
:1051C000BBFB6E61FE6004964B2080002018FEF74A
:1051D000B3FBAE613E610B48FEF7AEFB0A48FEF73B
:1051E000ABFBC048FEF7A8FBB848FEF7A5FB01A83B
:1051F00002F07EFF05B0F0BD50002020C815202031
:105200009C0420206012202058172020E404202035
:10521000C41720206849664A505470474B20C1008B
:105220006348415C00290CD0644900224254614922
:10523000425497218900FF220232425261480121E3
:1052400001707047F0B581B097208000584E315CF6
:10525000012900D0A9E0574D715D4B22D200B25C0C
:1052600091420CD20C20484351490C185648085C16
:10527000C00715D12078401E0A281BD98BE04E4963
:10528000715C002906D04D4AB35C5B1CB354DAB2A2
:105290008A421FD24C4801213154002070553446B7
:1052A0001320470101F0A0FEF0512078401E0A288B
:1052B00000D970E078440079400087440541282FE8
:1052C00016474E37621D5900606800242146FFF7DB
:1052D00025FD28E000243454394803210170FFF7EC
:1052E00057FF3848047001B0F0BD20790121FFF765
:1052F000ADFD002855D04EE033482D49085C01280B
:105300004FD16068002846D0A168016043E0606822
:105310000221FFF703FD002843D03CE02079002460
:105320002146FFF793FD002835D13BE02648204970
:10533000085C012835D1606800282CD080472AE01D
:10534000606805F029FA002825D12AE02079022199
:10535000FFF77CFD002824D01DE01320460101F05A
:1053600043FE13498959401A6168884219D312E0F3
:1053700015480F49085C012813D12079FFF708FA76
:1053800009E011480A49085C01280AD16068002830
:1053900001D0217A01700648415D491C4155012424
:1053A00000E00024084802490C5401B0F0BDC0469A
:1053B00064132020590200005A0200005B02000022
:1053C00054002020C01720205D02000070B584B07A
:1053D00007F032FA3C4E307903284AD878440079F5
:1053E000400087440122041A07F0A0FA41E001F0CE
:1053F000A3FF01460020354AFEF79AF80446356AB5
:105400002846214608F022FD306170612046294679
:1054100008F0F4FBB060F0602BE007F083FA0020A6
:10542000B060F0603061706123E0F069284909687C
:1054300008F00CFD0446274907F047FE002801D17B
:10544000274906E02449204607F029FE002804D118
:105450002249204608F0D2FB04460020214A21467A
:10546000FEF766F80121C9074140B060F060316184
:1054700071611D4D696BB0681C4C2246FEF758F8EF
:10548000FBF794FE0090A96BF06822466432FEF7A9
:105490004FF8FBF78BFE0190E96B30692246C8326A
:1054A000FEF746F8FBF782FE02904B2080002218A0
:1054B000296C7069FEF73CF8FBF778FE03906846AC
:1054C00002F016FE04B070BD50002020C41720204A
:1054D0004003202000003443000034C30000B443E4
:1054E0000000B4C3E40420209C042020C815202020
:1054F000B0B500280DD0044606F004F8054D6C60E8
:105500000548064907F098FA04F004FD686801F0C0
:10551000F7FAB0BD080420209D480000BD470000F8
:1055200070B501F061FD154A1378002B24D00321DA
:1055300019405268042B01D2002412E0FC242340BD
:1055400015463C35002428602E46103E30602E461D
:10555000203E30602E46303E30604035241DA34250
:10556000F1D1002908D02301D218D060012903D03D
:10557000D061022900D0D06270BDC0464403202013
:1055800080B5FFF78EFB80BDB0B5002806D004467D
:10559000034D2846FFF7FCF9641EFAD1B0BDC046A2
:1055A0008038010010B500280CD004460A2804D227
:1055B00050206043FFF7ECF910BD5020FFF7E8F9E9
:1055C000641EFAD110BD0000F0B58DB0044607AFDF
:1055D0000920F870E320B870CA2078700220029089
:1055E0003870682004213A4604F0D4F8A321797277
:1055F0003972F971402323405C20C043002B0246DE
:1056000001D03D22D243FA70002B024601D037224E
:10561000D243BA703F250593002B024600D0EA43DF
:1056200001957A70397001252E0231468031214072
:105630000691014601D03921C943B9710699002963
:10564000014601D03321C94379710699002901D05F
:105650003B20C043387184480F300A213A4604F099
:1056600099F80320272120400490039101D02020A5
:1056700000E0C84338707C481E3029463A4604F0A2
:1056800089F89720C000A10605D4C7210C9179495B
:105690000B91794904E05D210C9174490B91744997
:1056A0000A9109210AAA04F075F80698002827D063
:1056B000264001D0642000E06F20C04307AAD070CC
:1056C000002E0BD04920C0439070002E0BD17F20BC
:1056D000C0435070002E0BD14F200AE04B20C04336
:1056E0009070002EF3D07420C0435070002EF3D081
:1056F0004D20C04310705C480A30042104F04AF881
:105700008B200001E10704D107AAD82111700121E3
:1057100049E007AAF82111700125294604F03AF85A
:105720000720FA2100F014FB0AAA01981070292022
:10573000C7003846294604F02DF80AAA002616703C
:10574000F81D294604F026F80AAA14205070167095
:1057500038469630029D294604F01CF80AAA6420B7
:105760005070167038469230294604F013F80AAA91
:105770009020D070F92090708E20507016703846AE
:105780001430042104F006F80AAA0820507016709C
:1057900038461230294603F0FDFF0AAA55701670EC
:1057A00010373846294603F0F5FF059EA0070398F9
:1057B00000D52620C04307AA10703048012103F00D
:1057C000E9FF600704D42E480A9004210AAA09E0E0
:1057D0000AAAC620D070C4209070C2205070C02089
:1057E00010700421204803F0D5FF03F003F9E00610
:1057F00006D424480A901C48801D04210AAA0BE004
:105800000AAA3820D07030209070282050702020B4
:1058100010701548801D042103F0BCFF03F0EAF866
:10582000082020438B4DA880002E0FD10698002819
:1058300010D11420044211D10498002800D0361D44
:1058400003F0D8F82E7000200DB0F0BD06260698A3
:105850000028EED0B61D14200442EDD010200643DF
:1058600004980028EBD1EBE7980A0000B4980D35B6
:10587000B8AAB38DB088C3C5B8AAAAAA3D070000CC
:105880008B8B8B8BA3A3A3A380B50120820203483B
:105890000349C82302F0AEFE80BDC046F60B0000EF
:1058A0000EE30000F0B58FB006920D460746149E39
:1058B000002434806748007807A9159A03F040F85F
:1058C0000146E043002901D00FB0F0BD02950596D6
:1058D0000397604DAA8801273902049114210A42D6
:1058E00049D0009207990A0607A901974B781B0433
:1058F0009F18CA788B781B029A18D219069E3260BC
:10590000089A12064B791B049A18CB798D792D02CF
:10591000EB189B187360099B1B064D7A2D04ED183C
:10592000CB7A8C7A2402E3185B19B3600A9B1B06BE
:105930004C7B2404E318CC7B897B09020919C91824
:10594000F160111449433A14524351182A14524336
:1059500089181A1452438918F12212068918019ADB
:10596000520691426CD805990888049A1043088021
:105970001024384D009A500602D42346059E1CE0A0
:1059800007A8011913464A78005D000280182E46C8
:10599000029D2880C8788A78120210181A466880FA
:1059A0004879097909020818A8803546059E30888B
:1059B00008210143318006232343049F80373A4264
:1059C000039F17D007A8C11814464A78C05C00028C
:1059D00080183880C8788A78120210182246788099
:1059E0004879097909020818B88030887021014384
:1059F00031809B1D0020910700D165E72F4607A944
:105A0000CD18EC786978CA070CD0BB68002B09D098
:105A100007212140491CA206520F0646104698470E
:105A200030466978090700D44EE7FA68002A00D1A9
:105A30004AE7A10904460846904720460FB0F0BD4A
:105A4000044602F0D7FF20460021059A11800FB0CE
:105A5000F0BDC046AC032020F0B58BB0054607ACC6
:105A6000204602F037FDB948068830090C2106911E
:105A7000084005952A58F00500D55242D3172088D2
:105A8000C403002120460491FAF722FC03900F463C
:105A9000880908ADA872880B6872880D2872700892
:105AA0000699084005990A58B00600D55242D31706
:105AB000029420460499FAF70BFC01900C468809E1
:105AC000A871880B6871880D2871B007000F0599BF
:105AD0000A58700700D55242D31702980499FAF772
