:020000040000FA
:10000000A8512020850C0000890C0000110300007D
:1000100000000000000000000000000000000000E0
:100020000000000000000000000000008D0C000037
:1000300000000000000000008F0C0000150600000A
:10004000930C000081030000930C00006903000082
:10005000930C0000930C0000930C0000930C000024
:1000600000000000930C0000930C00000000000052
:1000700000000000930C0000930C000051030000EE
:10008000930C0000930C0000930C0000930C0000F4
:10009000930C0000930C0000000000000000000022
:1000A000930C0000930C0000000000000000000012
:1000B000930C000000000000930C0000930C000063
:1000C00000F002F800F0C1F812A030C80838241877
:1000D0002D18AC4201D100F0B8F80FCCA246AB46C7
:1000E0000CA730CF2D1B083F3F197C427F1E544484
:1000F0002D090426F441641EAC4201D300F0A5F89A
:100100000126334200D0FB1A3343984754465D46DC
:10011000DFE70000741D0100941D010000000000D5
:100120007047000000000000002300240025002686
:10013000103A01D378C1FBD8520700D330C100D5A3
:100140000B60704710B56E2902D102F07FFA10BD26
:10015000702902D100F0C5FF10BD662902D10FF051
:10016000F7F910BD652902D10FF0F2F910BD67292A
:1001700002D10FF0EDF910BD612902D10FF0F0F9B5
:1001800010BD03681B0A01D380231943692902D1DA
:1001900000F09CFE10BD642902D100F097FE10BD56
:1001A000752902D100F092FE10BD6F2902D100F036
:1001B00043FF10BD782902D100F080FF10BDE9296E
:1001C00002D102F01BFE10BDE42902D102F016FE9E
:1001D00010BDF52902D102F011FE10BDEF2902D1A8
:1001E00000F036FF10BDF82902D100F075FF10BDF8
:1001F0000368DB0901D380231943632902D102F08C
:10020000DAFD10BD732902D102F0DDFD10BDE32936
:1002100002D102F0E7FD10BDF32902D102F0EAFDA0
:1002200010BD002010BD1FB502F0CEFE040000205E
:1002300000210EF051FF401C6060002000210EF0F4
:1002400035FFE0601FBD10B510BD03F09BFB1146EC
:10025000FFF7E9FF00F042F803F0B3FB03B4FFF748
:10026000F2FF03BC03F068FC70B505460C46164669
:1002700002E00FCC0FC5103E102EFAD2082E02D38A
:1002800003CC03C5083E042E07D301CC01C5361F9D
:1002900003E021782970641C6D1C761EF9D270BDB4
:1002A00080B500F0DFF905F025FB00F097F980BD7F
:1002B00080B509F089F809F0C7F90028FBD108F0EA
:1002C000E7FD08F03BFC06F01DF808F0DFF900F050
:1002D00093F880BD80B50AF0D1FC80BD00F0C2F972
:1002E00005F008FB00F07AF909F06EF809F0ACF9B6
:1002F0000028FBD108F0CCFD08F020FC06F002F845
:1003000008F0C4F900F078F800F0A6F8FCE7C04661
:1003100003A004F013FA032001210AF059FEFEE7BE
:1003200021212120556E68616E646C656420496EE0
:100330007465727275707420486172644661756C80
:10034000745F48616E646C6572202121210A00008F
:10035000B0B5044D2868C4B2204605F033FBAC624A
:10036000B0BDC04620901040B0B5044D2868C4B25E
:1003700020460DF0FDFEAC62B0BDC04620105040DE
:1003800080B503480068800701D507F049FE80BDAD
:100390004011404070B5174C2170606000F042F988
:1003A0002378002B24D0032119406268042B01D24A
:1003B000002412E0FC24234015463C35002428602C
:1003C0002E46103E30602E46203E30602E46303E97
:1003D00030604035241DA342F1D1002908D023010B
:1003E000D218D060012903D0D061022900D0D06298
:1003F00070BDC0463003202070B500F013F9154AD7
:100400001378002B24D0032119405268042B01D209
:10041000002412E0FC24234015463C3500242860CB
:100420002E46103E30602E46203E30602E46303E36
:1004300030604035241DA342F1D1002908D02301AA
:10044000D218D060012903D0D061022900D0D06237
:1004500070BDC04630032020F0B583B000F0E2F854
:10046000019013480378002B1FD04168002608270D
:1004700003E01037761C9E4217D2CD19EA1F12787E
:10048000002AF6D12A1F1268002AF2D00293CB5913
:100490006C680198041B9C42029BEAD39047019828
:1004A0006860034841680378E3E703B0F0BDC046E5
:1004B00030032020F0B583B02649097800292BD0DD
:1004C000244A52680B011946103902911946203905
:1004D0000191194630390091002603213446975D79
:1004E00087421BD0029DB54216D097193D7C8542AC
:1004F00018D0019DB5420FD020257D5D854217D0D3
:10050000009DB54208D030257D5D854216D0091D7D
:100510004036241DB342E2D103B0F0BD20011718CC
:10052000C91E0CE00120044320011718891E06E0B3
:100530000220044320011718491E00E03037002034
:1005400078700C0100F06EF8024949680919C8601A
:1005500003B0F0BD30032020F0B581B01E490A7809
:10056000002A22D0496812011346103B1446203C51
:100570001546303D009500268D5D854217D0B3426B
:1005800013D08F193D7C854216D0B4420DD0202562
:100590007D5D854215D0009DB54206D030257D5D3C
:1005A000854213D04036B242E6D101B0F0BD8F197A
:1005B0000120787001B0F0BD10370120787001B0D3
:1005C000F0BD20370120787001B0F0BD3037012038
:1005D000787001B0F0BDC0463003202009480A49B8
:1005E0004160FF210906094A13688B4303218907EB
:1005F00059181160002181600722026004480160DF
:100600007047C04610E000E07F38010020ED00E0B8
:100610009C17202002480168491C01607047C046B1
:100620009C172020014800687047C0469C17202076
:1006300010B5EFF3108072B60748046807480068E9
:100640000749081A50210DF0A5FD7D21C90061431D
:10065000401862B610BDC0469C17202018E000E08C
:100660008038010080B500F025F800F061F800F056
:10067000D9F800F0FDF800F041F900F085F900F03C
:10068000CBF900F00DFA00F05DFA00F081FA9C2041
:10069000054900220A54B82004490A545420044948
:1006A0000A5424200A5480BDF408202094092020F4
:1006B00038032020F0B581B01248134A4260134835
:1006C000426013484260134C6260134D6A60134EDF
:1006D0007260134F7A6013494A6013484260134AAC
:1006E000084B1A60094B1A60094B1A6022602A6095
:1006F00032603A600A600260102003F061FA01B0D3
:10070000F0BDC04600080A40030000B100280A40BE
:10071000000886400008094000A886400088104074
:100720000008504000A84640000800400100002694
:1007300070B52E4984220A602D48012303604A6067
:10074000022404604A63802202602A4A832494635C
:100750009D05056087251565DE0506604D61DB0793
:10076000036082230B65244D4D658B63CD639461DB
:10077000CC676B1C5361812313665366536413600B
:100780009362D3631D4C0C671D4D0D664C668C66E1
:100790000C644C648C65CC651463D46294644C67BF
:1007A000536093608B64936693651361D360536564
:1007B0000B61CB6001463039124A0A600260124870
:1007C00012490160016312480168124A0A4302603B
:1007D0000169114A0A4302611048016A104A114333
:1007E000016201681143016070BDC046048042404F
:1007F000D0120A40848042408200040081000C0034
:1008000081000E0000F10067A0320A400000530C86
:1008100090330A4000FF000CF0C0000028300A406E
:10082000F0208C00B0B50F48002404600F200002B7
:100830000D4D2968814301204002081828600320DB
:10084000C043291F0A6802400A60084803F042FAC0
:10085000286810210143202081432960204603F0AD
:100860009BFAB0BD08030B4004010B407405010066
:1008700070B582B01B4C1C49204603F041FD1B495A
:10088000204603F0A7FB1A4801681A4A0A40026092
:1008900000250095204629462A462B4603F01CFDDC
:1008A000204629462A4603F009FD204629462A46C5
:1008B00003F01EFD01260096204629462A462B46B7
:1008C00003F00AFD20462946324603F0F7FC204695
:1008D0002946324603F00CFD07488660032101607B
:1008E00002B070BD000086405005010054050100B3
:1008F000041886407F00FFFF0011864070B582B06B
:100900001B4C1C49204603F0FBFC1B49204603F00E
:1009100061FB1A4801681A4A0A40026000250095E6
:10092000204629462A462B4603F0D6FC2046294677
:100930002A4603F0C3FC204629462A4603F0D8FC89
:1009400001260096204629462A462B4603F0C4FC81
:1009500020462946324603F0B1FC2046294632465D
:1009600003F0C6FC074886600321016002B070BD39
:10097000000009405C050100600501000418094001
:100980007F00FFFF00110940F0B581B01C4C1D49EC
:10099000204603F0B5FC1C49204603F01BFB1B4816
:1009A00001681B4A0A40026000250095204629463E
:1009B0002A462B4603F090FC204629462A4603F09F
:1009C0007DFC7D20C600204631462A4603F090FC7F
:1009D00001270097204629462A462B4603F07CFC37
:1009E000204629463A4603F069FC204631463A46FD
:1009F00003F07EFC074887600321016001B0F0BD71
:100A000000A08640440501004805010004B8864066
:100A10007F00FFFF00B1864010B51B4C1B492046EC
:100A200003F002FD1A49204603F0DAFC0320C1035B
:100A3000184802688A4302600169174A0A40153261
:100A4000026141692D220A4312218A4342614268B0
:100A500001210A4043688B439A1842608A020F4B77
:100A60001C6814431C604A04036813430360C26893
:100A700070231343C360C26807231343C360026833
:100A80000A43026010BDC046008010409C05010072
:100A90009E050100009110400000FFFF28901040CB
:100AA00010B5214C2149204603F0BEFC20492046C8
:100AB00003F096FC0320C1031E4802688A430260CB
:100AC00001691D4A0A402B32026141691A220A4318
:100AD00025218A434261426801210A4043688B43D1
:100AE0009A1842608A02154B1C6814431C60FF224E
:100AF0001206134B1C689443CA07A2181A604A04D2
:100B0000036813430360C2682023134350229343B6
:100B1000C360C2680223134305229343C360026883
:100B20000A43026010BDC04600005040A805010005
:100B3000AA050100001150400000FFFF281050409E
:100B400000E400E010B50D4C0D49204603F0B8F864
:100B50000C49204603F03AF80B4841680B4A0A401A
:100B600027324260816812220A432D218A43826023
:100B7000016801220A43026010BDC04600A0464041
:100B8000680501006A05010004B1464000FCFFFF52
:100B900010B50124A0070C4902F0F2FF0B48416890
:100BA0000B4A0A406104511841608168094A0A40B1
:100BB0008260094900220A60210402680A43026037
:100BC00001682143016010BD3C0501000011004097
:100BD000FEFFECFFF8FFE0E08011004070B50C482C
:100BE0000C4903F073F904460B480C4903F0F0FA82
:100BF000054625400A4C214628310A4803F0C4FB2B
:100C000006462E400848214603F036F8304070BDB5
:100C1000000086409409202000A08640F40820208F
:100C2000380320200000504000A0464070B50E4818
:100C30000E490024224603F0C3F805460C480D492E
:100C4000224603F04FFA04462C400B4D294628312A
:100C50000A4803F061FB064626400948294602F08F
:100C6000D7FF304070BDC046000086409409202068
:100C700000A08640F40820203803202000005040C7
:100C800000A0464006480047FEE7FEE7FEE7FEE715
:100C9000FEE7FEE703480449044A054B704700009D
:100CA000C1000000A81C2020A8512020A84C202012
:100CB000A84C20204343514330B55C18010C130C61
:100CC0000D4692B25D4380B251432C1905465543FF
:100CD0000A0C09044D1962415843010C00044019E3
:100CE000514130BD70B5054610460C4618430ED034
:100CF00000210846891A984127DA00210846491B35
:100D0000A04118DA2846214601F0B5FB70BD002C41
:100D100003DA01230022DB0707E000210846491B14
:100D2000A04102DA0022D243530810461946C046B9
:100D3000C0462A4627E000216842A14101F09BFB02
:100D4000002440428C4121461AE000210846491BFC
:100D5000A0410CDA21460020524298410346284621
:100D600001F089FB002440428C41214670BD0020E7
:100D700052429841002103466842A14101F07BFBA9
:100D8000002452429C41234670BD00007CB51D46A4
:100D900016460C00009007D04142A14202D3001930
:100DA000401E01E00020C043064B7B442A466946B2
:100DB0000190304601F0D9FF002C02D0009A0021AA
:100DC00011707CBDE31F00000FB41CB50C0007AA16
:100DD000009007D04142A14202D30019401E01E019
:100DE0000020C043074B7B4469460190069801F000
:100DF000BCFF0021002C01D0009A11701CBC08BC63
:100E000004B01847A71F000070B504468569006844
:100E1000C10601D5302600E02026C00707D070BDEE
:100E200062683046A1689047206A401C20626D1EAF
:100E3000F6D570BD70B5044685690078C00707D146
:100E400070BD6268A16820209047206A401C206223
:100E50006D1EF6D570BD09684A0501D540B27047D0
:100E6000C905FCD500B2704709684A0501D5C0B272
:100E70007047C905FCD580B2704770B50C46054671
:100E8000012A05D02878800600D5EA69002302E00F
:100E9000012305E05B1C934202D2E05C0028F9D1FB
:100EA000A869E618C01AA861286AC01828622846EE
:100EB000FFF7AAFF04E06A682078A968641C9047DD
:100EC000B442F8D32846FFF7B5FF70BDF7B500254B
:100ED00075291068009914A611D0FFF7BCFF0028EF
:100EE00002DA404211A608E0009909688A0701D594
:100EF0000FA602E0490704D50EA6012501E0FFF781
:100F0000B3FF009F0024243704E001F0D0FF30310C
:100F10003955641C0028F8D12B46324621460098EA
:100F200001F03CFBFEBD0000000000002D000000B1
:100F30002B00000020000000F7B50446154686B0DF
:100F40002B487844002703C83E460090019111E0E9
:100F500007986A467100415A02A801F087FF411CB8
:100F600007D02178890603D5E269391891420ED855
:100F70003F18761C2078800602D5E069B84206DD6D
:100F8000AE42E5DB07987100405A0028E0D1A06925
:100F9000C01BA0612046FFF737FF154878445A3838
:100FA00003C800900020019116E041006A460798AE
:100FB000415A02A801F05AFF0590401C0AD00025B2
:100FC00005E0626802A8A168405D90476D1C059825
:100FD0008542F6D30498401CB0420490E5DB206AB9
:100FE000C01920622046FFF725FF09B0F0BD0000C0
:100FF0002AE6000070B504460021243408E05507B5
:10100000D2086D0F303565545D072A43DB08491C53
:1010100015461D43F3D10468002310A2250708D507
:1010200020252C400C4304D0C46901230CA2641E6B
:10103000C46101F0B3FA70BD10B5044621461068D2
:10104000FFF712FF002302462046FFF7D3FF10BD33
:10105000D21DD108C9000CC9CCE700000000000077
:1010600030000000F8B50F460188090502D5224C72
:101070007C4402E0204C7C440E340546002124359B
:1010800008E016071209360FA65D6E541E0732439C
:101090001B09491C16461E43F3D12246047800233F
:1010A000240705D5702F06D0002901D00223113264
:1010B00001F074FAF8BD01231032F9E770B5044667
:1010C0000D4621461068FFF7CFFE00230246294651
:1010D0002046FFF7C7FF70BDD21DD308DB000CCB45
:1010E000C0E730B403682024126823430360082358
:1010F000C36130BC0023B5E704E50000F3B5044646
:10110000002081B020622046E1688847002872D024
:10111000252802D06268A168ABE0594F00267F44C1
:101120002046E16888472028054608DB312D06D295
:10113000781920380078002801D00643F0E7B0077E
:1011400001D5042086430020E0610746A0612A2DD6
:101150000AD028460DF0EBFA002827D0B800001975
:10116000303D0090856119E00298BA00121902C85A
:10117000916102902046E1688847012F054617D10A
:10118000E06900281FDA202086431CE000980A212D
:101190008069484300994019303888612046E168E9
:1011A000884705460DF0C3FA0028EFD1012F0AD079
:1011B0002E2D08D12046E1688847054620200643A9
:1011C0007F1C022FC3DBA069002803DA4042A06124
:1011D00001200643F00701D0102086436C2D0BD070
:1011E000682D09D04C2D3CD06A2D38D0742D38D0C4
:1011F0007A2D36D016E040E0E1682F462046884739
:10120000B842054609D16C2F29D001208002E1683F
:10121000064320468847054604E06C2F1DD0FF207A
:1012200001300643002D28D028464138192803D81C
:101230000120C00206432035204626602946029A36
:101240001646FEF77FFF002810D001280BD0F61DB0
:10125000F008C0000830029055E74020E1E7802008
:10126000D5E70020D3E7361D02964CE76268284692
:10127000A1689047206A401C44E7206AFEBD000038
:101280007EE4000010B5431E5C785B1C002CFBD193
:1012900005E00C78491C1C705B1C002C03D0521E0E
:1012A000F7D20021197010BD034610B50B439B0700
:1012B0000FD1042A0DD308C810C9121FA342F8D0B9
:1012C00018BA21BA884201D9012010BD0020C043BC
:1012D00010BD002A03D0D30703D0521C07E0002022
:1012E00010BD03780C78401C491C1B1B07D10378E8
:1012F0000C78401C491C1B1B01D1921EF1D11846D1
:1013000010BD000030B5441C03E00178401C0029EA
:101310000DD08107F9D10B4BDD0104C8D11A9143DF
:101320002940FAD0001B0A0603D0C01E30BD001BA6
:1013300030BD0A0401D0801E30BD0902FCD0401E21
:1013400030BD000001010101F8B5042A2CD3830748
:1013500012D00B78491C0370401C521E83070BD01F
:101360000B78491C0370401C521E830704D00B7875
:10137000491C0370401C521E8B079B0F05D0C91AD5
:10138000DF002023DE1B08C90AE0FEF76DFFF8BD71
:101390001D4608C9FD401C46B4402C4310C0121F16
:1013A000042AF5D2F308C91A521EF0D40B78491C4E
:1013B0000370401C521EEAD40B78491C0370401C79
:1013C000012AE4D409780170F8BD01E004C0091FC6
:1013D0000429FBD28B0701D50280801CC90700D0ED
:1013E0000270704700290BD0C30702D00270401C66
:1013F000491E022904D3830702D50280801C891E5E
:10140000E3E70022EEE70022DFE70000F8B5074639
:101410000B4639461943890713D1164CE601042AB5
:101420000FD302CB0D1B8D43354202D102C0121FD8
:10143000F5E7CBB20370401C521E002B13D0090AF3
:10144000F7E7002A14D01978521E5B1C0170401C6B
:10145000002908D0002A0BD01978521E5B1C01709D
:10146000401C0029EDD1002A02D01146FFF7C9FF28
:101470003846F8BD01010101002203098B4273D3F4
:10148000030A8B4258D3030B8B423CD3030C8B4291
:1014900021D312E003460B437FD4002243088B4242
:1014A00074D303098B425FD3030A8B4244D3030BEB
:1014B0008B4228D3030C8B420DD30902FF2212BAB0
:1014C000030C8B4202D31212090265D0030B8B422C
:1014D00019D300E0090AC30B8B4201D3CB03C01A16
:1014E0005241830B8B4201D38B03C01A5241430BF1
:1014F0008B4201D34B03C01A5241030B8B4201D3E1
:101500000B03C01A5241C30A8B4201D3CB02C01A4B
:101510005241830A8B4201D38B02C01A5241430AC3
:101520008B4201D34B02C01A5241030A8B4201D3B2
:101530000B02C01A5241CDD2C3098B4201D3CB0159
:10154000C01A524183098B4201D38B01C01A524108
:1015500043098B4201D34B01C01A524103098B420C
:1015600001D30B01C01A5241C3088B4201D3CB00F7
:10157000C01A524183088B4201D38B00C01A5241DA
:1015800043088B4201D34B00C01A5241411A00D28A
:1015900001465241104670475DE0CA0F00D04942F3
:1015A000031000D3404253409C46002203098B4263
:1015B0002DD3030A8B4212D38901FC2212BA030AEB
:1015C0008B420CD3890192118B4208D3890192116D
:1015D0008B4204D389013AD0921100E08909C309F2
:1015E0008B4201D3CB01C01A524183098B4201D3F4
:1015F0008B01C01A524143098B4201D34B01C01ADF
:10160000524103098B4201D30B01C01A5241C30856
:101610008B4201D3CB00C01A524183088B4201D3C5
:101620008B00C01A5241D9D243088B4201D34B00E0
:10163000C01A5241411A00D2014652411046634637
:101640005B1001D34042002B00D5494270476346EE
:101650005B1000D3404201B50449002802DC491C5C
:10166000084000E00846C046C04602BDFFFFFF7FBD
:1016700070477047704700000246C80FC00781439B
:101680004B0030B54B405B009B0D20D01923DB068F
:10169000C91801231B05994220DB0324A407042554
:1016A0001346AB400BD3002B04D1EB0613409B0039
:1016B000E34204D401246407002312195941FF2393
:1016C0001B0599420BD2C9000143500F09E0CB0220
:1016D00004D501430803024305D0054830BDFF216E
:1016E000C905084330BD084607210905884330BDB8
:1016F0000000C07FF0B50C46871A9C410D46861A43
:101700009D4103D2C01BA141D21963410D0D1F0D94
:10171000C94EEC1BAE435CD07F057F0D0026002F29
:1017200051D02D05AC46A943DD020123ED0A1B056E
:101730001D4320231B1B24D41746E7403818714152
:101740002F46E740CC199D402818314661410C0DC9
:1017500027D161449A4013D50023401C59415200BF
:101760000ED14008400001224B005205D34207D35E
:1017700005204007C14201D5B04900E0B0493046DC
:10178000F0BD6B00002A00D001229A181F23203CD4
:101790001B1B01D5002302E0E540281871410C0D08
:1017A000D7D0012424050919C407CD0740084908EA
:1017B000E40F28436144002CD5D00024401C614133
:1017C0009A40D0D1CDE76A05520DD9D1C90FC907CA
:1017D000D5E79C4D4E00002801D0012400E00024F4
:1017E00034195F00002A01D0012600E00026BE194E
:1017F000954FAC420CD8AE420AD8B44206D001256F
:101800006D05EC42BCD010461946F0BD9942FCD0A3
:1018100000203946F0BDF0B51FB40C460F46811AC2
:101820009F412546861A9D4106D20125ED076F404E
:10183000401ABC4152187B41210D1E0D8D1BAC4638
:101840007D4D8D437ED075056D0D7CD00D05AE466A
:10185000AC431B031B0B794D52429D41202366462E
:101860009B1B14D31746F74038180026009074418C
:1018700060462F460741E41900989D4028186641AC
:1018800016D4714671189A4025D5012320E093188B
:101890002A466A415200002B00D0521C1E23203ED3
:1018A0009B1B002B61DD3541EE1728186641E8D5FA
:1018B000001876415B1C9A4000D3401C4B05F3187E
:1018C0001524E34010D3002B52D071467118D30F6A
:1018D000C01802D3491C05B0F0BD0123DB079A42B2
:1018E000F9D140084000F6E701225205B21801D1B3
:1018F000002853D00123CC0ADB029943891E002A19
:1019000008D1020C03D0020C0004103902E0024698
:10191000002020390023550B05D112020823550B56
:1019200001D152010D23550C01D112011B1DD50C03
:1019300001D192009B1C150D01D152005B1C20258A
:10194000EE1A01E02CE022E00546F54015439840F0
:10195000CA1AE10769181305C918002ABBDA03205F
:1019600040070818C10FC9070FE071466118B2E7B8
:10197000F10740080843711071444A000CD001235C
:101980005B059A42A7D2C90FC9070020A3E7490502
:10199000490D26D1002001E00028F4D100219AE76A
:1019A000284D6600002801D0012100E000217118B7
:1019B0005F00002A01D0012600E00026BE19224F58
:1019C000A94210D8AE420ED8B14208D001256D050B
:1019D000E94206D01946A802414010467BE79C42E6
:1019E00001D0214677E70020394674E710B50C4650
:1019F0005C4005D50124E4076340FFF70CFF10BDF0
:101A0000FFF778FE10BD30B40C465C4004D50124CD
:101A1000E407634030BC6DE630BCFCE670B50124E1
:101A2000E40761400D465D4002D4FFF763FE70BDE0
:101A30006340FFF7F0FE70BDFF0700000000F0FFFD
:101A40000000F07F0000E0FF0000F87FF0B5F94DE6
:101A50000C091E092C402E402F468BB0A7437DD089
:101A6000B543FCD0002E7AD0002CFCD00D465D4052
:101A7000ED0F2543AC1BFF25AD0464190894C50286
:101A8000440DC9022143500DDC0204430120C0076C
:101A900001430443D2020191200C110C00958C46A5
:101AA000010423468B430A9161460904E24D8A43AF
:101AB0000991010A7D4449198039097805464D4349
:101AC00001266D18F605751B6943C90C640B891C4A
:101AD0004C436418B5012C1B250C2E04B4434C4315
:101AE0004D43210C691889090591009DE90701D032
:101AF0000121C90704912C4601996708CD072F439E
:101B00004C08059DE10B4D432D0C29466646754357
:101B100002950D4645432E46029D7D1BB44100951E
:101B20000D465D4301942C0C2F040D465543AE46E3
:101B30002D0C3D43029503947546049C2D04641BB3
:101B4000049406D2029C039D641C002675410395F3
:101B5000029401AC70CC009F7D1B01E03EE162E18C
:101B6000B44109040095079101940599A4086143C3
:101B7000090C0C464443650BE7040C466646744367
:101B8000A646640B3C43039502947446049DE4040A
:101B90002C1B049406D2029C039D641C00267541F4
:101BA0000395029401AC70CC009F7D1BB44101945D
:101BB0000C465C430095650FE7000C465443A6466F
:101BC000640F3C43039502947446049DE4002C1B6F
:101BD000049406D2029C039D641C00267541039563
:101BE000029401AC70CC009F7D1BB441AE09AF06DE
:101BF000049DC900AD092F43049DA406AD060495BC
:101C0000079D344369180791059DE10B4D432D0C49
:101C100029466646754302950D4645432E46029D6C
:101C20007D1BB44100950D465D4301942C0C2F049F
:101C30000D465543AE462D0C3D4302950394754623
:101C4000049C2D04641B049406D2029C039D641C16
:101C5000002675410395029401AC70CC009F7D1B5A
:101C6000B44101948C050694079C890A611800957B
:101C70000791019C0599A4086143090C0D46454351
:101C8000680BEF040D46644665436C0B3C43049FB0
:101C9000ED047D1BAC4602D20025641C6841009E09
:101CA000019D371B85410846584301950C46460F58
:101CB000C5005443600F28436546E4002C1B02D244
:101CC0000025401C6E41019D3F1AB5412846BD09C3
:101CD000800628438446A009BF064E020699A40642
:101CE00076180743079D002068410A990790194319
:101CF0000020099B00906046FF1913434041E20F0A
:101D000064003A43A4460446D71A8C41A04203D942
:101D10000120009020463A46C70F94184041624681
:101D2000D20F2243644664000494009CBE466400C3
:101D3000D71AA446044602978C417746002F01D15A
:101D4000A04204D96046401C8446029A2046C40F33
:101D5000A64694184041049A0546D20F2243644691
:101D60006400D31A8D417146002901D1A84202D9DD
:101D700028461A46641C10430122002800D016434E
:101D800061020020079B891904465C410223002C54
:101D900002DB491813466441089DCE0A2D145D19D3
:101DA0004B056705E10A2C050D1908993E43C90743
:101DB0006940002B08D0934006D30022761C514185
:101DC000002B01D1760876001C4A002D43DB15421A
:101DD00041D0AA433FD030460BB0F0BD06180D46A7
:101DE0004D41174C7642AC411AD395181C465C41C4
:101DF000134A6D42A24113D3012252054C00D44232
:101E00000AD15C00D4420BD04B4002D59202114360
:101E1000E2E749004908DFE75940C90FC90718E060
:101E200000200849D8E7054801420DD10342F7D008
:101E3000F2E700000000FF07F9DA00000000F07F81
:101E40000000E0FF0000F87F114859400143C01234
:101E500041400020C0E70123089A9B069A4205DC16
:101E6000032252078918C90FC907B5E7052252078F
:101E70008918074A1143D2125140ADE770B5154693
:101E80001C4602460B4628462146FFF7DFFD70BD83
:101E9000FFFFFF7F30B50346CA02400D1043164DC9
:101EA000164C0A1502D02043002A06DBAA1A002A83
:101EB00012DDD040FF2A0BDC30BD5205520D01D19E
:101EC00040004008AA1A07D4D0404042FF2A01DD52
:101ED000002030BD0028FCDD4A00002B01D001208D
:101EE00000E00020101801225205D042F0D8C81797
:101EF000C043604030BD00001E04000000000080B0
:101F00000346CA02400D10B510430A1504D001243F
:101F1000E4072043002A05DB0A4CA21A04D4D0406F
:101F2000FF2A00DD002010BD4A00002B01D0012057
:101F300000E00020101801225205D042F2D8C81744
:101F4000C04310BD1E0400001F22030C02D10F224B
:101F5000000402D0030E03D004E0002001467047C5
:101F60000002083A030F01D10001121F830F01D1B3
:101F70008000921E002801DB4000521E12055118FD
:101F80004205C012411810467047C10FC90700D062
:101F90004042012292071143D6E701218907D3E786
:101FA000F0B58B4C0F09254689B0BD437BD01D0988
:101FB0002646AE43FAD00E465E402740F60F3E431B
:101FC000254071D024012142FBD0FF24AD19A40487
:101FD0002D1B039501252D05DB02DB0AC9022B43CE
:101FE000C90A29431E010901040F130F05012143EA
:101FF0001701880B820391432D098C46A90B1E43C0
:102000008A039543B30B9A0396433F09BA0B940393
:10201000A74302962E467E430497B6464E19D7191B
:102020000C460196544305977E43371B7646BF1BEB
:102030003601B646BE0B361900967646BC043719F3
:10204000009C01D3641C00946400002F01D0012681
:102050003443029E049F754366467E430496760091
:1020600034196E0034190094029C019E1C196643B9
:10207000751BAE46069465464519059C05956C434F
:10208000594375460891691A0191049E01465143CE
:10209000A41B0491611A009C0791E10605D0610917
:1020A0000122114302E072E06EE06109089D002701
:1020B0002C0A2D066918049D7C412A0A2D066918F0
:1020C000019D6241AC0DAD026D185441079A910D0E
:1020D000920255196141029A644658435443069B43
:1020E000059A5A43121A131B9A0E9B015B187A41E8
:1020F000010B0005C3185141220A200644195A4118
:102100009A4200D2491C01204002814203D3152388
:102110000226F64302E014230326F6432020C51AC4
:10212000A9401746AF40DA400A4320460399D840F9
:102130000914731819055118039A3843D2075140EE
:10214000AC4009D00122944006D30022401C5141EA
:10215000002C01D1400840001E4A934212D30122B4
:1021600003989206904207DB0520400709181A4899
:102170000143C012414004E0032040070818C10F8A
:10218000C907002009B0F0BD0020F107FAE70518E3
:102190000C464C4111486D42A04115D394181A4683
:1021A0005A410E48644290410ED301204A00400536
:1021B000824209D35A00824206D35940C90F084AC5
:1021C000C90700201143DDE700200649DAE70000D7
:1021D0000000FF07FE070000FFFFFF7F0000E0FF99
:1021E0000000F07F0000F87F0121C905012341189C
:1021F00042001B06D3185B0E0AD0C1100722D2067C
:10220000891840075242D14201D5520089187047BF
:10221000090208D50146002A03D0C10FC9070020D2
:10222000704710467047420202D0002002497047B2
:10223000072109050143F4E70000F87FF0B5FF2509
:102240002D04C609C209FF2704462E400137CB09D9
:102250003E4348402A402B400746002A6BD0002BC3
:1022600069D0AA4267D0AB4265D0002800DA324676
:102270000125ED0529432C4309022002090AD21A3F
:102280004B0C7F24E31A434C000A7C44E35C7D241E
:102290002404121914145B00A218884201D3521CA2
:1022A00000E0400049420C465C4324115C43DB01E2
:1022B0006415E318040A5C43C502200D0C46444330
:1022C0006419250A5D432303EC0C0D4665430003A6
:1022D0000019EB184C42A34201D35B18401CD405F3
:1022E0002018002B07D05B00C91804D3401C00291C
:1022F00001D1400840003F2189048A4209D3002AC5
:1023000008DC1106090F04D0032149074018C00F4B
:10231000C007F0BD01224100120689187F22520633
:102320009142F6D205214907C84201D59010F0BD6F
:10233000FF20C005F0BD002F00DA32461648AA4241
:1023400007D2AB4205D21902090E17D0F80FC00709
:10235000F0BDFF2563002D06AB42F9D84900A94224
:10236000F6D8AB4201D1A942F2D0A94201D1002155
:1023700001E061004908D0050843F0BD1102090ED3
:10238000FBD0FF200243D005F0BD0A4601461046AF
:1023900054E70000A3D300000000C07F10B5014641
:1023A0009E240002CA15A307002A02D01843002A5F
:1023B00004DBA21A002A0CDDD04010BD1206120E5A
:1023C00001D140004008A21A03D4D0404042002866
:1023D000F3DDFF2248001206904201D9002010BD13
:1023E000C817C043584010BD0102C21504D00123D4
:1023F000DB071943002A0ADB9E239A1A02D40846F7
:10240000D0407047FF2241001206914201D90020BE
:102410007047C017C04370471F22030C02D10F2220
:1024200000041CD0030E01D10002083A030F01D1B1
:102430000001121F830F01D18000921E002801DBD2
:102440004000521ED2055118021251181922904014
:1024500004D3491C002801D14908490008467047A7
:10246000C10FC90700D04042012292071143D3E7B0
:1024700001218907D0E7FEB5044610460D461843F2
:1024800073D0A6468C460020A41A01469D4167D30E
:102490006646002701243D46B61A9D4102D31346E5
:1024A0003A462124654676462F04360C3E432D0CD1
:1024B000B61A9D4104D3150C1B042B43120410348F
:1024C000654676462F06360A3E432D0AB61A9D41CA
:1024D00004D3150E1B022B431202083465467646C0
:1024E0002F0736093E432D09B61A9D4104D3150F17
:1024F0001B012B431201241D65467646AF07B60823
:102500003E43AD08B61A9D4104D3950F9B002B4363
:102510009200A41C65467646EF0776083E436D0898
:10252000B61A9D411AD392185B41641C16E000183C
:10253000764665464941B71A9D410191009009D3FD
:102540006046B11A98418E4684460098019900254C
:10255000401C6941DD0752082A435B08641EE6D52A
:102560007246634603B0F0BDFFE72046284307D01C
:102570000020C0430146C046C04622462B46F1E734
:1025800000200146F7E710B500F022FD006810BDFD
:1025900010B5044600F01CFD046010BDFFB50446F4
:1025A0000D4681B0243000902168880604D51022A1
:1025B000E0699143216000E00120A84201DD471B52
:1025C00000E000270498A1697A191018081AA06180
:1025D0002078C00602D42046FEF716FC002608E04C
:1025E00003986268A168805D9047206A401C761C51
:1025F000206204988642F3DB2078C0060AD5204684
:10260000FEF702FC06E06268A16830209047206A6D
:10261000401C206238467F1E0028F4DC07E000984A
:102620006268A168405D9047206A401C206228468D
:102630006D1E0028F3DC2046FEF7FCFB2078000628
:1026400002D5022005B0F0BD0120FBE71168026849
:10265000006A530501D5087009E0D30501D508804B
:1026600005E0130602D5C21705C100E0086001208D
:1026700070470000FFB50C461E468FB003CA089095
:1026800009914F007D0D00D16D1E002108460020EC
:10269000C0460321099A89050840002A03DA82000E
:1026A000801840080840800D01280A9002DD0020B3
:1026B000C0430A90089807430DD0F048F049281805
:1026C00048430714189800281DD07542291E1DDDA7
:1026D0000A9842421BE01898012802D000203021BD
:1026E00004E00020F24305E02154401CB042FBDB33
:1026F00030460022189B002121540F998B600A60FC
:10270000486013B0F0BDBD1B6D1CDFE70A9A0029BD
:1027100000DA69420BA800F0E1FC0BAB07CB03AB7E
:1027200007C30899099800F045FD6B4607C30146A9
:10273000D4480918002D00910BDDD24903980A9A5C
:1027400049424018002303A90390684600F0A2FF05
:1027500008E003990A9A0023081803A90390684621
:1027600000F042FF6B4607C30004000C03D00020BA
:10277000C043410800E01046189A002A03D0002206
:10278000009215461EE0751E05D400F025FC30327F
:1027900062556D1EF9D501220843079602D000222A
:1027A0007F1C04E02078302801D100227F1E002AFF
:1027B000069787D01EE0112D07DA00F00DFC3032AD
:1027C00062556D1C02460A43F5D1084303D00098B8
:1027D000002819D00EE00021681E05E0235C625C31
:1027E00063542254401E491C8142F7DBA81B401E43
:1027F00007950690079A18990020A0540F98079BF8
:10280000069A81600CC07CE711260020189059E7D9
:10281000D21DF0B50D460446D10893B0C90003C9D6
:102820000C900D910BF0CAFD02460D98C00F01D01F
:102830002D2007E02068810701D52B2002E040070A
:10284000C00F4001032A0F9001D0072A05DB034681
:102850002946204600F0FEFB0EE12078800601D5D7
:10286000E76900E006272846652D04D0662814D0C5
:10287000672D69D12DE00020112F009001DB11237D
:1028800000E07B1C0CAA03A910A8FFF7F3FE119926
:10289000002610987D1C0E9142E001203B460CAAB8
:1028A000C0070B900120009003A910A8FFF7E2FEDB
:1028B000119D12981099002600280E9501D1781CC0
:1028C0000D18781B02D446427D1C761EE81B009032
:1028D0003AE0012F00DA01270020112F009001DDDE
:1028E000112300E03B460CAA03A910A8FFF7C2FE83
:1028F00011993D46109800260E91217809070BD4B6
:102900000E99A94200DA0D4603A9012D04DD4A19EA
:10291000203AD27F302A06D0B84201DA011D04DA0B
:10292000012100910FE06D1EEFE7002802DC8619FF
:102930002D1A03E0411CA94200DD0D46801B401CFE
:1029400000900120C0070B902078000705D4009864
:10295000A84202DB0020C043009069460020C872F4
:102960000B98012102AF0337C907884225D0022006
:1029700010902B2011900B9800280BDA40420B90FE
:102980002D20119006E00B9800F091FA30317F1E57
:102990000B9039701099481E00291090F3DC0B98A9
:1029A0000028F0D111987F1E38702088000501D5CD
:1029B000452000E065207F1E387001A8C01BC01DA7
:1029C0000B900F98002800D0012041190098C017E3
:1029D00009180B980818A169081A401EA0612078F0
:1029E000C00602D42046FEF70FFA0F98002805D043
:1029F0006268A1689047206A401C20622078C00667
:102A000025D52046FEF700FA21E0002E07DB0E98C0
:102A1000B04204DD03A86268805DA16802E06268DC
:102A2000A16830209047206A761C401C20620098E4
:102A3000401E002800900AD100F0C6FAC068626803
:102A40000168405CA1689047206A401C20622846CB
:102A50006D1E0028D9DC07E062683878A1687F1C09
:102A60009047206A401C20620B99481E00290B9059
:102A7000F2DC2046FEF7DEF9032042E601FCFFFF10
:102A8000104D0000E1DFFFFFD21DF0B504460D46FA
:102A9000D0088DB0C00046680768314638460BF054
:102AA0008DFC0246F00F01D02D2307E0206881073E
:102AB00001D52B2302E04007C00F43016846002BDD
:102AC000037001D0012000E00020032A0A9001D009
:102AD000072A04DB2946204600F0BCFA2DE12078C5
:102AE000800601D40D2500E0E5697000400D0D2D34
:102AF00001904BDA300D00210B9008460020C046B3
:102B0000032189050840002E05DA82008018C20FD3
:102B10001018401008408015012801DD0020C04336
:102B2000A9000023182906D39C460A460123183A17
:102B30001B07D34003E001221205CA4094460C3122
:102B4000202902D33A46203900E032468A40002844
:102B500002DD002A06D119E0002817D10121C9079A
:102B60008A4213D3194663467F185E41002806D176
:102B70000120C007824202D1084687439E430B983A
:102B8000310D814202D00198401C0190208800053F
:102B900002D57149794402E06F49794419396B468D
:102BA0000A9830221A540A980A7C401C1A54401C75
:102BB0000A900198002801DC302000E031201872D2
:102BC000019A0120002A02D0644BD21804E072005E
:102BD0003A4302D0614A521C0192002D02DC227855
:102BE000120703D56A462E20507202200022864624
:102BF00094460CE032033601120F6D1E8B5C02AA64
:102C000013546246521C401C9446052A01DA002DDA
:102C1000F0DC002202AE08E03B0F3F01CB5C521C0F
:102C20006D1E3354401C082A01DA002DF4DC2368A1
:102C30009A0601D511E0401E704504DD3218203A95
:102C4000D27F302AF7D0002807DD3218203AD27F11
:102C50002E2A02D11A0700D4401E002D03DD3E2289
:102C60003254401C6D1E497C31540199401C00298E
:102C700006DA2D21471C315401984042019003E0AF
:102C80002B21471C315401987D21C900884206DB65
:102C9000FEF700FC3030F0557F1C019101E0642804
:102CA00008DB01986421FEF7F5FB3030F0557F1CFE
:102CB000019101E00A2806DB01980A21FEF7EAFBF0
:102CC0003030F0557F1C01980A21FEF7E3FB3031CC
:102CD000F1550A98A1697F1C7A191018081AA06189
:102CE0002078C00602D42046FEF78EF8216A6E4690
:102CF0000A980818206204E062683078A168761C9F
:102D000090470A98401E0A90401CF5D12078C006D2
:102D100002D52046FEF778F802AE09E03078761C3E
:102D20003E280DD06268A1689047206A401C20624E
:102D30007F1EF3D22046FEF77DF80DB00320F0BDD4
:102D4000206A4019206203E06268A1683020904741
:102D50006D1EEDD3F8E7000043CB000001FCFFFF40
:102D600001694A1C02610878704700B58FB0029172
:102D7000002105910549019379440391114604907E
:102D80006846FEF7BBF90FB000BD0000E5FFFFFF8E
:102D90000CC908399A4202D2531C0B60107070475C
:102DA00010B54369002B02D0C046C04601E0FEF7D3
:102DB00064F8012010BD1278014624310A70002207
:102DC0004A700122ECE711680022D243E8E710B50F
:102DD0004369002B02D0C046C04601E0FEF7ACF8C4
:102DE000012010BD12880146243182840022C28451
:102DF0000122ECE711680022D243E8E7F7B5D21DC3
:102E00000025D20815A6D200F52905CA11D0002A3E
:102E100005DA00214042914111A60A4608E00099D6
:102E200009688B0701D50FA602E0490701D50EA658
:102E300001251146009F0024243704E000F0CCF85F
:102E400030323A55641C02460A43F7D12B463246CB
:102E500021460098FFF7A2FBFEBD00000000000025
:102E60002D0000002B00000020000000F8B51646E1
:102E70000C46054600F0A0F80368FF200230C05C55
:102E8000012807D0FF2C0FD8185D00280CD0012096
:102E90002C70F8BDFF333246214608331868C71836
:102EA00028460023B847F8BD0020C043F8BD0146BE
:102EB0008008081A02091018020A1018020C1018CB
:102EC000C008820012185200891A01E0401C0A3919
:102ED0000A29FBD27047000070B505464800440D32
:102EE000124B0020002C0AD0634008D09A4206DA28
:102EF0006642B24203DD12054019514170BD002CFB
:102F000008D0002B09D0C90FC907002AF6DB084AF0
:102F1000114370BDC90FC90770BD28460A0310438D
:102F200002D00020034970BD284670BDFF07000095
:102F30000000F07F0000F87FC10D10B50906090EF2
:102F40002ED0FF2931D07E292DD319D0962916D223
:102F5000024675398A4005D0002402468A4003D3D0
:102F6000012302E00124F8E700230222CA41511E96
:102F70008843002B03D08018002C00D0904310BD54
:102F80000121420201D1012200E00022C00FC0074E
:102F90000029F4D0002AF2D17F21C905084310BDD1
:102FA000C00FC00710BD0021EFE74102FAD0014871
:102FB00010BD00000000C07F10B500F005F8001D36
:102FC00010BD00BF15C1000000487047F00220206E
:102FD00000487047D00220200B4670B50246890792
:102FE0008008084319469D08141AA94125090807B5
:102FF000054308092C194841250A01060D43010A19
:103000002C194141200C0D0428430D0C00194D4191
:10301000002140194D41C00869070843E908840FA1
:103020008D002543840024184D4124196D41121B45
:10303000AB4107E00925ED432C11521963410024EF
:10304000401C61411C460A250026551BB441F1D2A3
:1030500070BD0000F8B51F46044601230068DB027E
:10306000032601461840072A05DB002801D017A5D2
:1030700006E017A504E0002801D016A500E016A57B
:10308000102081432160A069C01E002FA06101D0E3
:10309000401EA0612046FDF7B7FE002F09D038463C
:1030A0006268A1689047206A401C2062C01C2062B0
:1030B00006E0206AFAE762682878A1686D1C9047EC
:1030C000761EF8D22046FDF7B5FEF8BD4E414E0003
:1030D0006E616E00494E4600696E6600F7B5164691
:1030E0008AB0334878446C4603467C33C06F5A68D4
:1030F0009B680DC42E487844763003AC0DC80DC4CF
:103100003720C001081837211B30FEF7C3F90546E8
:103110000C46803D1B3C02D56442012000E00020AB
:103120000027099010E0E0070CD00C2020497843DC
:10313000794432464C3941186846012300F054FA6C
:103140006B4607C364107F1C002CECD1184F7F44E2
:103150002E3F16E0E80712D02001C0190EC80691D4
:10316000089307920068F04201D1981908903246FE
:10317000012306A903A800F037FA03AB07C36D10BB
:10318000641C002DE6D10998002806D03246694615
:10319000012303A800F07EFA05E0012332466946C8
:1031A00003A800F021FA0A9B07C30DB0F0BD000090
:1031B000C8C60000034640000A4610B5400D0BD0BB
:1031C0000121C9070F24A40200191C03640821432C
:1031D000540D2143D20207E000210120F2E7D40F71
:1031E000490021435200401E0029F8DADB0FDB07BB
:1031F000184310BDFFB50D46144685B048685168A8
:103200000BF0C3F800910190A868A1680BF0BDF81D
:1032100002910390A86861680BF0B7F8029A12183F
:103220008242029201D2012000E00020019A0B1894
:10323000D2180028019202D08A4202D903E08A42C1
:1032400001D2012000E00020009908180090686871
:10325000A1680BF09AF8029A12188242029201D2E7
:10326000012000E00020019A0B18D21800280192DA
:1032700002D08A4202D903E08A4201D2012000E052
:103280000020009908180090286821684000490033
:10329000400849084018FA49471814E001994000CD
:1032A000C90F08430090019802994000C90F0843D4
:1032B0000190029803994000C90F084302900398B7
:1032C00040007F1E039000980028E7DA0898002845
:1032D00001D0EC4E00E00026B74201DA012000E008
:1032E0000020002804902AD0F71BF806C00E15D045
:1032F000029B2021091A039A8B401A430392029AD7
:10330000019BC2408B401A430292019A009BC2402B
:103310008B4000991A430192C14000917B110DD05E
:103320006F460320C11A03D500218200B95003E083
:103330008A008100BA587A50401EF3D53746039868
:103340000299002800D0012001430898029100282A
:1033500008460CD0002800D001200199019A4905A7
:1033600008430121D20AC902D202019200E00121E0
:103370000E9B0122D207012B02D0002B03D013E0B9
:10338000002807D120E0904204D890420CD1019B44
:103390000B4209D0019B5918019105D10099491C94
:1033A000009101D17F1C009200280DD01021084609
:1033B0000020C0460498002806D00F98002803D0AB
:1033C000082108460020C04628682168019B009A11
:1033D0004840C10F0598C90739430EC009B0F0BD78
:1033E000FFB587B0099A08980899536892684068B1
:1033F000896896460022039317469446089A1268F5
:103400005300099A5B081268520052089A1A9E4BA0
:10341000D4180A9A002A01D0352200E040220692F0
:103420000022012315460492DB07059324E0002DBA
:1034300005D175460346039E4D1BB34109D375461E
:103440006646039B491B049D9841059B7519AC4634
:103450005F4163463B4308D0059B049EDD07760829
:103460002E435B080496059301E0521E641EC50FAF
:10347000ED0749184041521C069B9A42D7DB002DAC
:1034800004D17546039A6B1A824101D203200CE0E5
:10349000039A0B466B404240134303D0014303D0D1
:1034A000012002E0022000E000206146019100219D
:1034B000009702910A99002905D061464002014314
:1034C000704B019102E08007002302909C4201DAD8
:1034D000012000E0002007003AD01A1BD006C00EE1
:1034E00015D0029D2021019C091AC5408C4025431E
:1034F000029C8C4000D001242543019C0295009D34
:10350000C4408D4000992C430194C1400091541156
:103510001DD06D460221002202290CD10320001B80
:1035200007E0002804DB8600AE59002E00D00122FF
:10353000401C0328F5DB081B02D588002A5004E054
:103540008000285810438A00A850491EE3D51C4625
:103550000A98002802980CD0002800D00120019978
:10356000019A490508430121D20AC902D2020192F7
:1035700000E00121109B0122D207012B02D0002B79
:1035800003D013E0002807D11FE0904204D89042F6
:103590000CD1019B0B4209D0019B5918019105D117
:1035A0000099491C009101D1641C009200280CD0A4
:1035B000102108460020C046002F06D01198002890
:1035C00003D0082108460020C04608980999019AAE
:1035D000009B006809684840C10F0798C90721434C
:1035E00082600AC00BB0F0BD00B585B001930092B7
:1035F0000A460146002302A8FFF7FCFD02A807C8FF
:1036000005B000BDFFB50A461F4685B00799019376
:1036100001230091014602A8FFF7ECFD02990398EF
:10362000049ECA0F4900D20700920F224908920255
:103630008C1A0021002800DB0C46450013486D0859
:10364000844214D3079A002A04DA441E0026104D3F
:10365000F64302E004460D460E46102108460020BF
:10366000C046002F03D0042108460020C046200594
:10367000E90A0843009908436905F20A1143ADE6D7
:1036800002C0FFFF013C0000FF3F0000FF070000F9
:10369000FFFFFF7F00B585B0019300920A46014607
:1036A000002302A8FFF79CFE02A807C8A8E7FFB501
:1036B0000A461F4685B007990193012300910146F0
:1036C00002A8FFF78DFE02990398049ECA0F4900D5
:1036D000D20700920F22490892028C1A002100287A
:1036E00000DB0C46450011486D08844214D3079A4C
:1036F000002A04DA441E00260D4DF64302E004467B
:103700000D460E46102108460020C046002F03D06B
:10371000042108460020C0462005E90A0843009914
:1037200008436905F20A114358E60000FF0700004C
:10373000FFFFFF7FF8B5264C4E00069DA6420AD833
:10374000A64201D1002806D15E00A64203D8A642B7
:103750000AD1002A08D00D242404254233D029465A
:10376000002000F08FF9F8BD0C461C4311D499429B
:1037700007D0C81A02D3EFF30080F8BDEFF3008042
:10378000F8BD801A02D3EFF30080F8BDEFF300809C
:10379000F8BD09242407E5008B4207D0581A02D34C
:1037A000EFF3008006E0EFF3008007E0101A03D388
:1037B000EFF30080A04303E0EFF30080A043284331
:1037C00080F30088F8BD009500F074F9F8BD0000A2
:1037D0000000E0FFF0B53D4B02460C461C400020C7
:1037E000002C63D03A4D8B4366D000296BDB0B0D68
:1037F0001D05A94301252D0529430124FD33E3407F
:1038000001D392184941FF3381339C468B02940DBA
:103810000121234389074C42920200271B198C1077
:103820005D1A04D42D1B02D42B4665004919921849
:103830005B416408F4D15C1A08D40125ED07EE174A
:103840005519744102D42A462346491C94185B41F9
:10385000012292071D46E61B8D4106D4B61A85410A
:1038600003D42B46550034467F1924195B41520876
:10387000802AEFD1234300D0022338460A22D040C9
:1038800001D3012213438A0510436246890A1205B7
:103890008918002B09D00122D34002D30022401CFA
:1038A0005141002B01D140084000F0BD0B031343F0
:1038B00007D0C90FC907F0BD0803104303D1002981
:1038C00001DB1046F0BD00202946F0BD0000F07F6E
:1038D0000000F87F10B5FF231B0644009C421DD852
:1038E0004C009C421AD80346124A0B4307D4401A94
:1038F00002D3EFF3008010BDEFF3008010BD081A73
:1039000003D3EFF30080904305E0EFF30080012143
:103910009043C907084380F3008810BD0D231B04A2
:103920001A4204D01146002000F0ACF810BD00F09F
:10393000CBF810BD0000009010B5FF22C30D13405E
:1039400009D05A4007D0914205DA5C42A14202DD1B
:10395000C905081810BDC40FE407002B06D0002AC3
:1039600006D0002902DBFF20C0050443204610BD1D
:103970004102FCD0004810BD0000C07F00487047E5
:10398000D00220207546FFF7F9FFAE4605006946D4
:103990005346C008C000854618B020B5FDF77AF937
:1039A00060BCB64600260027C0C5C0C5C0C5C0C59E
:1039B000C0C5C0C5C0C5C0C5403D490849008D4609
:1039C000704710B50446C046C0462046FCF746FC8A
:1039D00010BD000082078B079A423FD170B5920F4D
:1039E0000AD0032402780B78401C491C002A33D0EB
:1039F0009A4231D12042F5D1214EF40104C808C9C0
:103A0000951B9543254018D19A420FD104C808C987
:103A1000951B9543254010D19A4207D104C808C987
:103A2000951B9543254008D19A42E7D012BA1BBA9C
:103A300001209A4200D2404270BD12BA1BBA2DBA80
:103A400018241000E0401900E140401A05D12E0072
:103A5000E64002D1083CF4D1D01A70BD02780B7850
:103A6000401C491C002A09D09A4207D102780B78E1
:103A7000401C491C002A01D09A42EFD0D01A70474E
:103A800001010101C80212D54803400F002804D0EB
:103A9000C803C043012188407047EFF30080000154
:103AA000000903210907084380F3008870470020BC
:103AB0007047000010B500200249029A00F00CF88F
:103AC00010BD00000000F87F10B5024800F004F8B7
:103AD00010BD00000000C07F10B50C461107090F93
:103AE000092904D00A290AD008290CD104E011467A
:103AF0000820FFF7C7FF06E0510606D501E0510692
:103B000001D50120C007214610BDD10607D501010E
:103B10000909CC084907000E0006044309E0410FDB
:103B200020024907000A0143200E00061D22D14150
:103B300001430846E7E7000001491820ABBEFEE755
:103B400026000200704730B58C180278401C13071D
:103B50001B0F01D10378401C120906D10278401CCA
:103B600003E00578401C0D70491C5B1EF9D101E093
:103B70000B70491C521EFBD1A142E6D3002030BD80
:103B8000B0B50A78032313400B4A84580B4D2540E7
:103B9000EB18A92424061B198350072212064B6830
:103BA00013401124240205599543EA1802510019C3
:103BB00049780161B0BDC04608080000FCFFFF0065
:103BC000811E091F00BFFCD270470000B0B5112252
:103BD000120283580C4C1C400B894D881D438B7975
:103BE0002B430A4D1D402B1983508B88CC791C43E5
:103BF000097821435D239B001940801842689A434D
:103C000089184160B0BDC04680CCFFFF7F33000003
:103C1000F0B582B002462420085C002827D0EB4B88
:103C2000D718EB4C141901231D0355190A462432E9
:103C300001924A68164600939E43FE670E68BE676F
:103C40008E682660CE686E600E692E604E69666072
:103C50008E69AE62CE69AE65096A3960D10703D05C
:103C6000F96F009C2143F9670021019A1170411EF0
:103C7000884102B0F0BDC04670B524228A5C002A9B
:103C80001BD1D24BC318D24C041901252E03801925
:103C90000E46243635709D6F0D60DD6F4D602568D2
:103CA0008D604568CD6005680D6164684C61846A0B
:103CB0008C61806DC861186808625042504170BDC7
:103CC00010B50122120383180C785C60497881508A
:103CD00010BD0000F0B584B0012422022A4B1968FF
:103CE00003929143196035490D686D04FCD5457EFA
:103CF00025409E69A64374199C612024045D032518
:103D00002C40DE69AE433419DC61204C2568052661
:103D10002660466A37681F6276685E6207262E4014
:103D20002660C4697F252D02DE69AE436406640CFB
:103D30003419DC610768456882680092C6680269C8
:103D40000192426902929A69114C14403A07120B8F
:103D50002D03ADB2AA183243009D2D072D0D15433A
:103D6000019A1543029A1543007E2843094A0240EE
:103D7000101998611868039A104318600868800544
:103D8000FCD504B0F0BDC04608010B400013404014
:103D90008D00F0FF72FF0F00074988600748026836
:103DA0009202FCD5012212040B6813430B600168D8
:103DB000C906FCD57047C04604010B4004020B4005
:103DC000F0B585B00346B820085C002879D0029091
:103DD00001927E4A9A1804927D4A98180090012216
:103DE00094021E19120398180322D2029D18312240
:103DF000D2019C180B4680330A46B8320F683760F0
:103E00004F6877608F687764CF68B7648E69866023
:103E10000E690390066000984E6946600026167091
:103E2000CA690260019A002A01D04A6C2A60CA6CF1
:103E3000AA601A6A2262CA6B2263CA6A049EB267C7
:103E40000A6BF2670A6D2A614A6D6A618A6DAA611E
:103E5000CA6DEA610A6E2A634A6E6A638A6EAA6351
:103E6000CA6EEA630A6F2A654A6F6A658A6FAA6535
:103E7000CA6FEA651A682A675A686A679A68AA6701
:103E8000DA68EA671A6922605A6962609A69A26010
:103E9000DA69E2604A6BC2600A6C42615A6A626225
:103EA000A26B266D646D0F6A039887624F6A8765FF
:103EB0008F6A049807609A62DE621C63896C69608D
:103EC0000298411E884105B0F0BDC046F0B584B0EF
:103ED000B8228A5C002A74D10392F64A82180092B2
:103EE000F54A821801240294A302C5182303C318BB
:103EF0000324E40206193124E40100190C4680343D
:103F00000F46B83701972F680F606F684F606F6C6E
:103F10008F60AD6CCD601D680D6155684D619D6809
:103F20008D611568CD619D6A0D629B6D4B62009D30
:103F30002B688B62D3684B6352690A6432684A64A7
:103F400072688A64B268CA64026A2262026BCA63D7
:103F50002B46AA6FCA62EA6F0A6332690A65726900
:103F60004A65B2698A65F269CA65326B0A66726B24
:103F70004A66B26B8A66F26BCA66326D0A67726D08
:103F80004A67B26D8A67F26DCA67039A316F216022
:103F9000716F6160B16FA160F16FE16001682161D3
:103FA000416861618168A161C168E161416A6162E2
:103FB000816BA162016DE162406D206302980199FD
:103FC00008705042504104B0F0BDC0468810000057
:103FD00008110000F0B53C4A82183C4BC318087920
:103FE0004E793B4D3B4C002E23D0202804D0052693
:103FF000F601002803D003E0374E002800D18826C0
:10400000576F2F4037435767976F2F403743976756
:10401000566B26405663966B26409663002656657F
:1040200096658F26F6435F6837405F609F6837402C
:104030009F608E79096820280BD0002819D1491E6D
:104040005160D76E2F4088210F43D76617467037CF
:1040500019E0491E5160D16E29401F4F3943D16686
:10406000116F294039431167012149071B4D17463C
:1040700009E049085160D76E2F400521C9010F435F
:10408000D766174670373C682C400C433C60D16AB9
:10409000104C2140D162116B214011630021D16489
:1040A00011658F21C943D46F0C40D4671C680C4044
:1040B0001C600643BD2030401168094B0B40C018FE
:1040C000801C1060F0BDC046041800008418000079
:1040D00024493E008888FDFF01040000FFFFFFCF58
:1040E0004000FFCFF0B585B003469C20085C002857
:1040F0006AD00190B84C00921A190492D34C1A1944
:104100000124A5025E19240318190324E4021D19D1
:104110003124E4011B190C4680340F6837604F6866
:1041200077608F687764CF68B7648E6986600E6940
:104130000290066000262677CE69039216600098EA
:10414000002801D00E6C2E608E6CAE608E6B1E63EC
:10415000CE6A049FBE670E6BFE67CE6C2E610E6D3D
:104160006E614E6DAE618E6DEE61CE6D2E630E6E24
:104170006E634E6EAE638E6EEE63CE6E2E650E6F08
:104180006E654E6FAE658E6FEE65CE6F2E672668DC
:104190006E676668AE67A668EE67E6681E602669A9
:1041A0005E6066699E60A469DC604B6B039AD360B5
:1041B000CB6B53610B6A029883624B6A83658A6A90
:1041C0003A60496C69600198411E884105B0F0BDB4
:1041D000F0B583B09C228E5C002E66D17E4A821898
:1041E00001929A4A871801240294A202831822039A
:1041F00082180324E40205193124E4010019009017
:10420000084680301C680C605C684C605C6C8C609C
:104210009B6CCB6013680B617B684B6193688B610F
:104220003B68CB61936A0B62926D4A62019C226883
:104230008A62FA684A637A69CA632A680A646A68A1
:104240004A64AA688A64009B1A6B8A63A26FCA6276
:10425000E26F0A632A69CA646A690A65AA694A65DB
:10426000EA698A652A6BCA656A6B0A66AA6B4A663E
:10427000EA6B8A662A6DCA666A6D0A67AA6D4A6722
:10428000EA6D8A672A6FCA67696F0160A96F41602A
:10429000E96F81601A461968C160596801619968BF
:1042A0004161D968029A027781617042704103B01E
:1042B000F0BDC046881000000811000010B50723AB
:1042C0009B04194092008018024A84589C4361184C
:1042D000815010BD3018000010B5029CA4000019D8
:1042E00011431943014A815010BDC04650180000C7
:1042F00092008018014A81507047C0461018000093
:1043000010B50122120383180C789C604B788350FF
:104310008978324A815010BDF0B582B002462C2017
:10432000085C00282BD02C4BD31801932B4C171969
:1043300001231D0355190A462C320C6826460093AA
:104340009E43019B9E674E68AE608E682E60CE686D
:104350003E600E697E604E69BE608E69DE67CE6922
:10436000FE600E6AAE624E6AAE65896A1960E10748
:1043700003D0996F009C2143996700211170411E61
:10438000884102B0F0BDC046F0B52C228A5C002AFC
:104390001FD1114BC318114C0619012425034519CF
:1043A00008462C309F6F0F60AF684F602F688F609A
:1043B0003768CF6077680F61B7684F61DF6F8F61D3
:1043C000F668CE61AE6A0E62AD6D4D621B688B629F
:1043D000047050425041F0BD881000000C110000E4
:1043E000B0B51122120283580124A34383500B88D5
:1043F0008C781C438B882343094C1C408358094DFF
:104400001D40631983508B79CC791C43097A214371
:104410007E231940801842689A4351184160B0BD0C
:1044200018670000E798FDFF10B5012212038318FA
:104430000C789C604978815010BD0000034A8018B8
:1044400002681206FCD481617047C0460811000062
:10445000F0B58BB00A9001200406AE490C608507C8
:104460000D6040070990086001F0C2F9069001F064
:10447000BFF9059001F0BCF9049001F0B9F903907F
:1044800001F0B6F9029001F0B3F9064601F0B0F977
:10449000074601F0ADF99F490C610D600A46069987
:1044A000059B5918049B5918039B5918029B5918CE
:1044B000711879184018C0080A9EF081099F17608A
:1044C00001F096F9069001F093F9059001F090F94A
:1044D000049001F08DF9039001F08AF9029001F047
:1044E00087F9019001F084F9009001F081F90894B6
:1044F00088490C6007950D610A460699059B591875
:10450000049B5918039B5918029B5918019B591871
:10451000009B59184018C008B081176001F068F975
:10452000069001F065F9059001F062F9049001F040
:104530005FF9039001F05CF9029001F059F9064629
:1045400001F056F9074601F053F972490C610D610B
:104550000A460699059B5918049B5918039B59183C
:10456000029B5918711879184018C0080A9D688173
:10457000099C146001F03CF9069001F039F90590AE
:1045800001F036F9049001F033F9039001F030F9AD
:10459000029001F02DF9064601F02AF9074601F0D4
:1045A00027F95C49089A0A60079A0A600A46069940
:1045B000059B5918049B5918039B5918029B5918BD
:1045C000711879184018C00828811461154601F047
:1045D0000FF9069001F00CF9059001F009F904902B
:1045E00001F006F9039001F003F9029001F000F9DF
:1045F000044601F0FDF8074601F0FAF82946089E46
:104600002E61079D0D600A460699059B5918049B6B
:104610005918039B5918029B5918611879184018AA
:10462000C0080A9CE080099F176101F0E1F806903C
:1046300001F0DEF8059001F0DBF8049001F0D8F805
:10464000039001F0D5F8029001F0D2F8019001F04A
:10465000CFF8009001F0CCF82E490E600D610A46AB
:104660000699059B5918049B5918039B5918029BDE
:104670005918019B5918009B59184018C008A08070
:10468000176101F0B5F8069001F0B2F8059001F05D
:10469000AFF8049001F0ACF8044601F0A9F8054623
:1046A00001F0A6F8064601F0A3F8074601F0A0F8CD
:1046B0001849089A0A61079A0A610A460699059BF1
:1046C0005918049B591861186918711879184018FD
:1046D000C0080A9D68800998106101F089F80446B5
:1046E00001F086F8041901F083F8041901F080F84C
:1046F000041901F07DF8041901F07AF8041901F0A9
:1047000077F8041901F074F80019C00828800BB07C
:10471000F0BDC04690120A40B0B50C460546FFF702
:1047200097FE102220462946FCF70EFEAB20285C9F
:10473000411E8841B0BDA821405C704783B0B0B530
:1047400081B0044605A80EC005AB0093012001020C
:10475000074D28462246FCF719FB0648064907A2E2
:104760002B4609F051FC01B0B0BC01BC03B00047BE
:10477000F006202000801040E50A01005B455252FF
:104780004F525D0083B0B0B581B0044605A80EC09D
:1047900005AB009301200102074D28462246FCF795
:1047A000F5FA0648064907A22B4609F02DFC01B090
:1047B000B0BC01BC03B00047F006202000801040D0
:1047C000E50A01005B494E464F5D000010B582B01E
:1047D00014460A46014600930848234600F050FD5F
:1047E00002B010BD10B582B014460A4601460093CF
:1047F0000248234600F0F2FE02B010BD9C012020CA
:10480000F0B589B014460F46064608906030402542
:1048100003902946FCF7F7FD30462946FCF7F3FDE7
:10482000A0200021019131503246A0320492012093
:1048300005900002FB495160906040360696398829
:104840002088884202D23E460A4604E03880218011
:104850003E463A880846510008180327394609F0B1
:1048600099FC069D2880308821884900081839461F
:1048700009F090FC28822088089A108607963188D3
:10488000118488B2228897B2C31B5E425E411143F5
:1048900089B24A424A413243019A114613D1FDF787
:1048A0007CFB05460E463846FDF777FB02460B4675
:1048B00028463146FDF7A7F802460B46049903C97E
:1048C000FDF7C4F80246039802604160079E7188B4
:1048D0006088884201D20A4603E070806180728855
:1048E0000846510008180325294609F053FC069F85
:1048F0007880079E7088618849000818294609F069
:1049000049FC78826088089F788670887884029451
:10491000628895B2431B5942594102431204059BD8
:1049200000D00B460022002B114614D1FDF735FBB9
:1049300007460C462846FDF730FB02460B46384634
:10494000089F2146FDF75FF802460B46049903C90C
:10495000FDF77CF80246BA66F966079EB188029CAC
:10496000A088884201D20A4603E0B080A180B288C4
:104970000846510008180325294609F00BFC069F3C
:10498000B880B088A18849000818294609F002FCBF
:10499000B882A088089FB886B088B884A28895B2EB
:1049A000431B5942594102431204059B00D00B4658
:1049B0000022002B114614D1FDF7EFFA07460E46F0
:1049C0002846FDF7EAFA02460B463846089F31466C
:1049D000FDF719F802460B46049903C9FDF736F8AE
:1049E00002463A677967079EF188E088884201D2DB
:1049F0000A4603E0F080E180F2880846510008187A
:104A00000325294609F0C6FB069FF880F088E18857
:104A100049000818294609F0BDFBF882E088089F84
:104A2000F886F088F884E28895B2431B59425941D0
:104A300002431204059B00D00B460022002B1146B6
:104A400014D1FDF7AAFA07460E462846FDF7A5FA47
:104A500002460B463846089F3146FCF7D4FF024613
:104A60000B46049903C9FCF7F1FF0246BA67F967E0
:104A7000079E31892089884201D20A4603E03081AD
:104A8000218132890846510008180325294609F07A
:104A900081FB069F38813089218949000818294601
:104AA00009F078FB38832089089F3887308938855A
:104AB000228995B2431B5942594102431204059B76
:104AC00000D00B463946803103910022002B11465D
:104AD00013D1FDF762FA07460E462846FDF75DFA48
:104AE00002460B4638463146FCF78DFF02460B4620
:104AF000049903C9FCF7AAFF0246039802604160CB
:104B0000079E71896089884201D20A4603E070815C
:104B1000618172890846510008180325294609F069
:104B200039FB069F788170896189490008182946F8
:104B300009F030FB78836089089F788770897885D1
:104B4000628995B2431B5942594102431204059BA5
:104B500000D00B460022002B114613D1FDF71DFAA1
:104B600007460E462846FDF718FA02460B46384619
:104B70003146FCF748FF02460B46049903C9FCF78F
:104B800065FF024603988260C160079EB189A089D3
:104B9000884201D20A4603E0B081A181B289084669
:104BA000510008180325294609F0F4FA069FB88138
:104BB000B089A18949000818294609F0EBFAB883A1
:104BC000A089089FB887B089B885A28995B2431B90
:104BD0005942594102431204059B00D00B46002262
:104BE000002B114613D1FDF7D8F907460E4628468B
:104BF000FDF7D3F902460B4638463146FCF703FF72
:104C000002460B46049903C9FCF720FF02460398AD
:104C100002614161079EF189E089884204D23446ED
:104C20000A4606E00000B040F081E1813446F28996
:104C30000846510008180325294609F0ABFA069FDB
:104C4000F881E089029EF18949000818294609F097
:104C5000A1FAF883F089089CE0870798C089E0856D
:104C6000F28994B2031B594259410243120400D005
:104C70000591002205990029114613D1FDF78DF900
:104C800005460E462046FDF788F902460B462846A3
:104C90003146049CFCF7B7FE02460B4603CCFCF7FA
:104CA000D5FE02460120049BD87203988261C1613F
:104CB00009B0F0BDB0B50446603040252946FCF788
:104CC000A2FB20462946FCF79EFBA820002121508C
:104CD000B0BD10B582B00446FFF7BAFB21464031A3
:104CE000224650322346A833204601F0BBFDA020C7
:104CF00020582146A0314968009001912146603139
:104D00002246303223461033204605F0F7FF02B02A
:104D100010BD80B5D06011614820105C002803D020
:104D2000104600F005F880BD104600F0F3F880BD95
:104D3000F0B585B00446C06821690AF0A1FB27469A
:104D40004A37F988064600291AD00121C907884345
:104D5000656C294609F0E0FC002801D000260FE030
:104D60000021304609F0CBFC002804D1304629460A
:104D70000AF086FB03E0304629460AF059FA064657
:104D80006661A569304629460AF07AFB014620682B
:104D90000AF012FB0190388800280AD00120C107D0
:104DA00030468843E16A09F094FC002801D00020D5
:104DB00003E0616830460AF0FFFA00902846039548
:104DC00029460AF035FA0146049630460AF058FBA7
:104DD000E1690AF02DFA0146A0680AF0EDFA0546ED
:104DE0000297F87D002813D07F20C005676D3946F3
:104DF0000AF046FBA16D0AF0DFFA0646384629465E
:104E00000AF0DAFA31460AF013FA0546A065E065C1
:104E1000019800990AF00CFA29460AF009FA0546A9
:104E2000266C31460AF004FA074624480178002926
:104E300006D101210170616B38460AF0F9F9074685
:104E4000276302998888897D00291CD000282CD0EE
:104E5000A16B384609F060FC002805D100212846E6
:104E600009F042FC00280BD1E16B384609F03CFC0C
:104E700000280AD10021284609F02BFC002804D183
:104E80002663374601E000280FD0A56B3846294637
:104E900009F02AFC002806D1E56B3846294609F0BE
:104EA00018FC002801D125632F4627640498A061CF
:104EB0000398E061384605B0F0BDC0462C042020C0
:104EC000B0B50D4604462421FCF79DFA4A21002086
:104ED00060524821655421464A31C8808880488004
:104EE00009496165A065E06560640849084A626235
:104EF000A162E06220636063A263E16320644834DE
:104F0000FF2002302083B0BD3333333F00803BC5E8
:104F100000803B45F0B585B00446C06821690AF0C1
:104F2000AFFA21464A310491C988054600291AD0B2
:104F30000121C9078843666C314609F0EDFB002862
:104F400001D000250FE00021284609F0D8FB0028F9
:104F500004D1284631460AF093FA03E02846314648
:104F60000AF066F905466561216828460AF024FAC8
:104F7000064604980088002803960BD00120C1073C
:104F800028468843E16A09F0C7FB002802D1216A5C
:104F900067684AE06768216A384601910AF00CFAAE
:104FA00031460AF045F9616B0AF042F90646049869
:104FB000807D002819D0A16B304609F0ADFB002898
:104FC00005D10021284609F08FFB00280BD1E16BA9
:104FD000304609F089FB002807D10021284609F056
:104FE0009BFB002801D0019905E0284601990AF0B1
:104FF0001FF901462062049840880028039E14D0BF
:105000000097676A08460191394609F06DFB002850
:1050100006D1A76A0198394609F05BFB002802D146
:105020002762394600E00199009F384600910AF056
:10503000C3F90190A16928460AF022FA0146A06846
:105040000AF0BAF907460498C07D0028029515D0E9
:105050007F20C005656D29460AF012FAA16D0AF09D
:10506000ABF906462846029D39460AF0A5F93146B5
:10507000039E0AF0DDF80746A065E0653046019919
:105080000AF0D6F839460AF0D3F8616B0AF0D0F886
:105090000646206304988088002834D0A56B3046EB
:1050A000294609F021FB00282F4606D1E76B304640
:1050B000394609F00EFB002801D127633E460498CB
:1050C000807D00281ED03046294609F025FB0028A7
:1050D000029D05D10021284609F006FB00280BD1CE
:1050E000E16B304609F000FB00280CD10021284676
:1050F00009F0EFFA002806D1054900980AF05CF99A
:10510000206200E0029DA561304605B0F0BDC046BA
:105110003333733F00218165C165016401634161DF
:105120008161C1610162704710B54C230124C452F2
:105130004162826210BDB0B50C4605460021204692
:1051400009F0D2FA411E88414A216852EC62B0BD92
:1051500010B54E230124C4528163C26310BD0EC03A
:105160007047000010B5002812D081688900DB4A22
:10517000424B8B50816889008B58012464061C4384
:105180008C50C1680269D64BCA5001684068C8504B
:1051900010BDC046F0B583B0009104468068800021
:1051A000CE4B3649C150A0688000C158012252063A
:1051B0000A43C25003CCCA4A815000252E46083CFF
:1051C000029595204201E068216901928150208B6F
:1051D00001F0EEFBE0682169C14A81502720C0013F
:1051E00082CC0D58208A083C01F0E2FB3D40E81BD0
:1051F00041424141029840004518701C072E064666
:10520000DED3E1682069019FC851A0688000812237
:10521000EE4B1A5022686068EF4BD0502369CB5197
:10522000EC495118009A002A13D00861208B01F034
:10523000BFFBE0682169E74E8151208B01F0B8FB8C
:10524000E0682169C151208B01F0B2FB03CC815190
:1052500010E00860208B01F0ABFBE0682169DD4ABB
:105260008150208B01F0A4FBE0682169C151208BA3
:1052700001F09EFBE8B203B0F0BDC04681000E0015
:10528000F0B587B00125002B00D124E104460028A9
:1052900000D120E10C980390002800D11BE10E46BC
:1052A00004920193A0688000C8498127475003CC2D
:1052B000C94A8150C74D4151208A083C01F078FB12
:1052C000E06821694151208B01F072FB9520450176
:1052D00003CC4151208A083C01F06AFBE068216957
:1052E0004151208B01F064FBA06880000597B7490D
:1052F000475003CCB84A81506068A1680695415177
:10530000770000250297083C18E0304606CC0A508A
:10531000208A083C01F04CFBE06821698151208B18
:1053200001F046FBE0682169069A8150208B01F06C
:105330003FFB681C7F00072D054606D278B2A54EBC
:105340000028E2DB30461030E0E7204600F0CAF8E3
:10535000A16889009D4A059B535006CC9E4BCA50BC
:105360006368A568069FDD51083C002801D002252E
:10537000A1E00025974F049E17E006CC0A50208A32
:10538000083C01F015FBE0682169C151208B01F058
:105390000FFBE0682169069A8150208B01F008FB21
:1053A000681C7600072D054605D270B20028894892
:1053B000E3DB1030E1E7204600F094F8A1688900B3
:1053C000824E059D755006CC834BCA50083C002880
:1053D00001D002256BE0C8190260208B01F0E8FAC9
:1053E000E06821697B4A8150208B01F0E1FA03CC0F
:1053F000069D4151208A083C01F0DAFAE0682169F3
:105400004151208B01F0D4FAA068800005993150F9
:1054100003CCF54A81506068A16841510120029E89
:10542000049006430025083C17E006CC0A50208A69
:10543000083C01F0BDFAE0682169C151208B01F000
:10544000B7FAE0682169069A8150208B01F0B0FA22
:10545000681C7600072D054605D270B20028E34887
:10546000E3DB1030E1E7204600F03CF8002802D0F2
:105470000225DD4B13E0039D019E049F06E0002101
:105480002046FFF787FE28706D1C761EF0B20128BB
:10549000D54BF4D0002801D03946F1E73546A06855
:1054A0008000D049059A0A5006CCCA50083C069F95
:1054B000E0682369C351CA51208B01F079FAE06892
:1054C0002169CA4E8151208B01F072FA03CC8151BF
:1054D000208A01F06DFAE8B207B0F0BD04804240C6
:1054E00090120000F0B587B0044680688000BD4B84
:1054F0003749C150A0688000C158012672060A438E
:10550000C25003CCB94D41519520059042016068CD
:10551000A16806928150208A083C01F049FAE068AF
:1055200021694151208B01F043FA2720C70103CCA8
:10553000C0590840083C2546103523460C3300224C
:10554000884231D1039204930296201D01904B2092
:105550008600208B01F02CFA03CCC2590A40083C8B
:105560008A4225D1761EF4D10599490142189E4BF5
:10557000C018A3689B0081259A4EF55063680360AC
:10558000E068256945501360208B01F011FAE0684E
:105590002169964A8150208B01F00AFA069A103A46
:1055A0002346029D019807E028461546069A03E027
:1055B0002846039D069A049B006819688850208B32
:1055C00001F0F6F9284607B0F0BDC046048042401D
:1055D00081000E0090120000D0120000F0B587B0DC
:1055E00001260493002B00D1F8E00446002800D1E6
:1055F000F4E00C980390002800D1EFE006910292AD
:10560000A0688000774D8126465103CC764A8150B0
:10561000764FC151208A083C01F0CAF9E06821693F
:10562000C151208B01F0C4F99520470103CCC15131
:10563000208A083C01F0BCF9E0682169C151208B47
:1056400001F0B6F9A06880000596465103CC664A81
:1056500081506068A168C1510026083C16E006CC64
:105660000A50208A083C01F0A3F9E0682169C15181
:10567000208B01F09DF9E06821692F464151208B74
:1056800001F096F9701C072E06460AD23D46069890
:10569000400040B200280690544F3846DFDB1030FF
:1056A000DDE72046FFF71EFFA16889004D4E059AF1
:1056B000725006CC4C4BCA506368A568DD51083C5B
:1056C000002801D0022679E00025029E17E006CCD2
:1056D0000A50208A083C01F06BF9E0682169434ACE
:1056E0008150208B01F064F9E0682169C151208B61
:1056F00001F05EF9681C7600072D054605D270B2F0
:1057000000283A48E3DB1030E1E72046FFF7EAFEE5
:105710000226002803D0059A334B324945E0019612
:10572000002002900146059A2F4B03980691465C93
:10573000A06880002B490A5003CCC1506068A16862
:10574000C151029D083C17E006CC0A50208A083C53
:1057500001F02EF9E0682169244A8150208B01F084
:1057600027F9E0682169C151208B01F021F9681CFB
:105770007600072D054605D270B200281B48E3DBF2
:105780001030E1E72046FFF7ADFE002809D1069969
:10579000491C04988142059A134BC6D10026114931
:1057A00003E01049059A104B019EA06880000A5042
:1057B00006CCCA506068A368C351083CCA51208B0C
:1057C00001F0F6F8E0682169084D4151208B01F0A5
:1057D000EFF803CC4151208A01F0EAF8304607B0D7
:1057E000F0BDC04604804240D0120000901200007C
:1057F000F0B581B0FAF716FF0546104E3068012764
:1058000038433060390270680091084370600C4C76
:105810002068002805D0FAF705FFA842F8D009480B
:1058200002E00948006880B2726800998A43726099
:105830003168B943316001B0F0BDC046001100408D
:1058400040130040FFFF00008062554010B5002863
:105850000DD000290BD02822825C042A07D80346E9
:105860002833940004196161521C1A70086110BD3C
:1058700070B5194D2878012808D1FAF7D3FE1749D9
:105880000A68821A164B1B889A4200D270BD0860C3
:10589000144E3078002812D00024204603F0C0F9BE
:1058A00000F04AF8347011480178491C0170104A20
:1058B0001278C9B29142E9D304702C7070BD0A48C5
:1058C000018880780004081803F0AAF900F040F875
:1058D0000120307070BDC0462E042020680E2020AC
:1058E00048002020A8082020CC002020A10820204B
:1058F0002D0420200120C106144A11601A490A68AB
:1059000082430A600648002101600648018006487B
:105910000180064801600648016006480170704732
:10592000500A2020540A2020580A20205C0A2020F7
:10593000600A2020640A20200120C106034A116069
:1059400009490A6882430A607047C046A0120A40AB
:105950000120C106034A116003490A6802430A6034
:105960007047C04690120A4004B88640F0B503AFB5
:1059700081B06E46114803F0F2F9002814D00246B7
:10598000C01D072188436D4669460C1AA5460B4881
:10599000214603F0F4F9002808D0024608482146C1
:1059A00008F056FB002002E0002001E0FF20AD4699
:1059B00040B2FE1F053EB546F0BDC046D0052020D2
:1059C0000080104010B582B00B280CD10748006849
:1059D00001A9087006480124224603F011FA0128A3
:1059E00001D10448047002B010BDC046249110409B
:1059F000B80520209404202080B582B001A9087049
:105A00000648012203F028F9002801D0FF2001E018
:105A1000FFF7ACFF40B202B080BDC0469804202022
:105A2000F0B581B00446FAF7FDFD394D2968411AF9
:105A3000642956D36A498C421DD00A462C329442BE
:105A40003CD00A465832944241D084318C4247D1EE
:105A500064490A78012A3ED063490A68002A3CD08A
:105A60001379022B4ED13923D35CFF2B4AD0393224
:105A7000FF21117031E05B490A78012A2BD05A4985
:105A80000968002929D00A79022A2CD139228A569C
:105A9000531C28D02C2353434F6BFC18002106467F
:105AA000204603F069FB3046002F16D0E269002A39
:105AB00013D0217A6068904730460EE049490A7851
:105AC000012A08D0044605F02DFC204605E0454992
:105AD0000A78012A11D100220A70444901220A7071
